:020000040800F2
:1000000000000220A5020008890200089B020008E7
:100010008902000889020008890200080000000027
:10002000000000000000000000000000890200083D
:100030008902000800000000890200088902000807
:100040008902000889020008890200088902000864
:100050008902000889020008890200088902000854
:100060008902000889020008890200088902000844
:100070008902000889020008890200088902000834
:100080008902000889020008890200088902000824
:100090008902000889020008890200088902000814
:1000A0008902000889020008890200088902000804
:1000B000F91900088902000889020008890200086D
:1000C00089020008890200088902000889020008E4
:1000D00089020008890200088902000889020008D4
:1000E00089020008890200088902000889020008C4
:1000F00089020008890200088902000889020008B4
:1001000089020008890200088902000889020008A3
:100110008902000889020008890200088902000893
:100120008902000889020008890200088902000883
:100130008902000889020008890200088902000873
:100140008902000889020008890200088902000863
:100150008902000889020008890200088902000853
:100160008902000889020008890200088902000843
:1001700089020008890200088902000800000000C6
:100180008902000889020008890200088902000823
:100190008902000889020008890200088902000813
:1001A0008902000889020008890200088902000803
:1001B00089020008890200088902000889020008F3
:0801C000890200088902000811
:1001C8000F49D1F8883043F47003C1F888300D4BDB
:1001D8001A68002042F001021A6098601A6822F03A
:1001E800847222F480321A60074A5A601A6822F42C
:1001F80080221A60D8604FF000638B60704700BFA0
:1002080000ED00E00038024010300024174A184979
:10021800936803F00C03042B10B50DD0082B0DD0F8
:10022800144B0B60114B144A9B68C3F30313D25C45
:100238000B68D3400B6010BD104BF2E75468506850
:1002480052686302C2F3881200F03F004CBF0B4BA8
:10025800084BB3FBF0F35343044A5268C2F301421C
:1002680001325200B3FBF2F3DBE700BF0038024073
:10027800000000200024F4006A3A000800127A0006
:10028800684620F007018D4601B5BDE80140854666
:100298007047684620F007018D46FEE71549164A63
:1002A8001648521A921000239A4217D1144A154E32
:1002B800D2F88830144C43F47003C2F88830D2F86E
:1002C8003432A41B43F04043C2F83432A410002552
:1002D800AC4209D1FFF774FF03F0A0BA50F82340ED
:1002E80041F823400133DFE756F8253098470135B8
:1002F800EEE700BF00000020040000202C3F0008AB
:1003080000ED00E02C3F0008303F0008FEE7000049
:1003180038B5464B984204460D4636D0B0F1804F6A
:1003280033D0A3F57C4398422FD003F580639842DD
:100338002BD003F58063984227D003F58063984259
:1003480023D003F5806398421FD003F57043984289
:100358001BD003F57053984217D003F58063984279
:1003680013D003F5806398420FD0A3F598339842D1
:100378000BD003F58063984207D003F58063984259
:1003880003D0B1212A48FFF7C1FF6B6833F0100290
:1003980009D023F04002202A05D0402B03D0B221F7
:1003A8002348FFF7B3FFEB6833F4807206D0B3F548
:1003B800007F03D0B3211E48FFF7A8FF1B4A23681C
:1003C800944212D002F5806294420ED0B4F1804F6C
:1003D8000BD0A2F58032944207D002F58062944295
:1003E80003D002F58062944203D16A6823F0700357
:1003F8001343104A944207D002F5806294421EBF0C
:10040800EA6823F4407313432360AB68E3622B6804
:10041800A362064B9C4203D003F580639C4201D142
:100428002B6923630123636138BD00BF00000140CD
:100438007A3A00080010004038B5274B9842044625
:100448000D4637D0B0F1804F34D0A3F57C439842A5
:1004580030D003F5806398422CD003F5806398422E
:1004680028D003F58063984224D003F5806398422E
:1004780020D003F5704398421CD003F5705398427E
:1004880018D003F58063984214D003F5806398422E
:1004980010D0A3F5983398420CD003F580639842A6
:1004A80008D003F58063984204D040F2F9110B4854
:1004B800FFF72CFF012D09D94FF4FD710748FFF70D
:1004C80025FF236843F00103236038BD002DF8D1D0
:1004D800236823F00103F7E7000001407A3A000897
:1004E800524B98422DE9F04104460D461FD0B0F119
:1004F800804F1CD0A3F57C43984218D003F5806345
:10050800984214D003F58063984210D003F57843DD
:1005180098420CD003F57053984208D0A3F5943351
:10052800984204D040F29E214148FFF7EFFE2B6825
:1005380033F030020FD023F4803222F01002602A08
:1005480009D023F05003B3F5803F04D040F29F2137
:100558003748FFF7DBFE6B68012B04D94FF428718D
:100568003348FFF7D3FE2B6933F0020304D040F27F
:10057800A1212F48FFF7CAFE236A2A6823F0100337
:100588002362266A6768A36923F0807323F4E6432D
:1005980043EA02282B696A6826F02006134346EAD4
:1005A8000316224B9C4203D003F580639C4234D14E
:1005B800AB6833F0040304D040F2BF211C48FFF7B6
:1005C800A5FE6B6933F0080304D04FF43071184866
:1005D800FFF79CFEEB6933F4007304D040F2C121AD
:1005E8001348FFF793FEAB6933F4807304D040F2ED
:1005F800C2210F48FFF78AFE6B6926F0800646EA9B
:100608000316AB6826F0400646EA0316D5E906321B
:1006180027F44067134347EA8307EB686760C4F829
:100628001880A3632662BDE8F08100BF0000014086
:100638007A3A00084E4B98422DE9F04104460D469F
:1006480017D0B0F1804F14D0A3F57C43984210D056
:1006580003F5806398420CD003F58063984208D074
:1006680003F57843984204D040F2EF214148FFF760
:100678004DFE2B6833F030020FD023F4803222F085
:100688001002602A09D023F05003B3F5803F04D04C
:100698004FF43C713748FFF739FE6B68012B04D9DA
:1006A80040F2F1213348FFF731FE2B6933F00203A2
:1006B80004D040F2F2212F48FFF728FE236A2A6867
:1006C80023F480732362266A6768E36923F480331E
:1006D80023F0730343EA02082B696A6826F400765C
:1006E800134346EA0326224B9C4203D003F580635A
:1006F8009C4234D1AB6833F0040304D040F20F318C
:100708001C48FFF703FE6B6933F0080304D04FF46D
:1007180044711848FFF7FAFDEB6933F4007304D00D
:1007280040F211311348FFF7F1FDAB6933F48073E0
:1007380004D040F212310F48FFF7E8FD6B6926F448
:10074800006646EA0326AB6826F4806646EA032676
:10075800D5E9063227F44057134347EA0317EB68F5
:100768006760C4F81C80E3632662BDE8F08100BFBF
:10077800000001407A3A000838B51A4B98420446FE
:100788000D461FD0B0F1804F1CD0A3F57C43984292
:1007980018D003F58063984214D003F5806398421B
:1007A80010D003F5784398420CD003F57053984263
:1007B80008D0A3F59433984204D040F2CE510A48A9
:1007C800FFF7A4FD35F0080304D040F2CF510648E6
:1007D800FFF79CFDA16921F4006141EA0521A161AF
:1007E80038BD00BF000001407A3A000838B5154B03
:1007F800984204460D4617D0B0F1804F14D0A3F5A7
:100808007C43984210D003F5806398420CD003F5DE
:100818008063984208D003F57843984204D040F2A8
:10082800EB510948FFF772FD35F0080304D040F298
:10083800EC510548FFF76AFDE36923F008031D43FF
:10084800E56138BD000001407A3A000838B5104B20
:10085800984204460D4608D003F58063984204D0B8
:1008680040F6A9210B48FFF751FD012D09D940F6A3
:10087800AA210848FFF74AFD636C43F40043636408
:1008880038BD002DF8D1636C23F40043F7E700BFAF
:10089800000001407A3A00082C4B984270B5044693
:1008A8000D46164637D0B0F1804F34D0A3F57C43BF
:1008B800984230D003F5806398422CD003F58063CA
:1008C800984228D003F58063984224D003F58063CA
:1008D800984220D003F5704398421CD003F570531A
:1008E800984218D003F58063984214D003F58063CA
:1008F800984210D0A3F5983398420CD003F5806342
:10090800984208D003F58063984204D040F6143129
:100918000F48FFF7FBFC35F0FF0300D125B940F67F
:1009280015310B48FFF7F2FC012E08D940F61631B5
:100938000748FFF7EBFCE3681D43E56070BD002E38
:10094800F9D1E36823EA0505F7E700BF0000014095
:100958007A3A00080F2810B5044603D98D210548B6
:10096800FFF7D4FC044B186820F00F0020431860F0
:1009780010BD00BFAA3A0008003C02402DE9F84F1C
:100988004C4B984204460D462BD003F580639842A1
:1009980027D003F58063984223D003F580639842FB
:1009A8001FD003F5806398421BD003F580639842FB
:1009B80017D003F58063984213D003F580639842FB
:1009C8000FD003F5806398420BD003F580639842FB
:1009D80007D003F58063984203D093213648FFF788
:1009E80095FC2B881BB994213348FFF78FFC2B7992
:1009F800032B03D995213048FFF788FCEB79022BAC
:100A080003D996212C48FFF781FCDFF8AC9000262B
:100A180001274FF003082A6807FA06F3934343D1E6
:100A28004FEA460A236808FA0AFB6FEA0B0B03EA47
:100A38000B0323602B79216803FA0AF2013B0A436E
:100A4800012B226023D86B79032B03D9A8214846B0
:100A5800FFF75CFCA3680BEA0303A3606B79A26849
:100A680003FA0AF31343A360AB79012B03D9AF212F
:100A78004846FFF74BFC636807FA06F223EA0203CD
:100A88006360AB796268B3409BB213436360E36809
:100A980008FA0AF223EA0203E360EB79E26803FA50
:100AA8000AFA4AEA0202E2600136102EB3D1BDE822
:100AB800F88F00BF00000240DC3A0008012810B59A
:100AC800044605D9052803D0D0210448FFF71EFCA9
:100AD800034B00221A701C7010BD00BF1D3B00089C
:100AE800023802402DE9F0411D4630F4800380466B
:100AF8000C461746069E04D040F2A5112448FFF77D
:100B080005FCA31E3D2B04D94FF4D3712048FFF7F1
:100B1800FDFBA7F1C003F02B04D940F2A7111C4834
:100B2800FFF7F4FB082D04D84FF4AA73EB40DB075A
:100B380004D44FF4D4711648FFF7E8FBB31E0D2B0D
:100B480004D940F2A9111248FFF7E0FB47F6C0723A
:100B580092FAA2F24FF44030B2FA82F290FAA0F080
:100B68004FF07061B0FA80F091FAA1F144F00053AF
:100B78006D08974043EA0803013DB1FA81F13B4310
:100B880085402B438E40034A33435360BDE8F081D0
:100B98001D3B000800380240012810B5084C09D94F
:100BA80040F2BF110748FFF7B1FB236843F0807399
:100BB800236010BD0028F8D1236823F08073F7E77D
:100BC800003802401D3B0008022810B5044604D92D
:100BD80040F2F7210448FFF799FB044A936823F091
:100BE80003031C43946010BD1D3B000800380240FD
:100BF80030F0800310B5044612D020F02003902B6B
:100C08000ED020F04003A02B0AD020F01003C02BF8
:100C180006D0F02804D04FF44B710548FFF776FB57
:100C2800044A936823F0F0031C43946010BD00BF8E
:100C38001D3B00080038024030F4805310B50446CC
:100C48000CD020F40063B3F5A05F07D0B0F5C05F07
:100C580004D040F24B310548FFF758FB044A93682B
:100C680023F4E0531C43946010BD00BF1D3B0008F3
:100C78000038024030F4805310B504460CD020F4FC
:100C88000063B3F5A05F07D0B0F5C05F04D040F2B1
:100C98006A310548FFF73AFB044B986820F4604036
:100CA80040EAC400986010BD1D3B000800380240AF
:100CB8001D4A936803F00C03042B10B51AD0082BB7
:100CC8001AD01A4B184A036093681949C3F30313DF
:100CD800CC5C0368E34043609468C4F382240C5DF1
:100CE80023FA04F484609268C2F342328A5CD340E7
:100CF800C36010BD0F4BE5E7546851685268630242
:100D0800C2F3881201F03F014CBF0A4B074BB3FBFB
:100D1800F1F35343044A5268C2F3014201325200CC
:100D2800B3FBF2F3CEE700BF003802400024F40022
:100D38000D3B000800127A00C30470B505460E4644
:100D480000D420B940F2B1510A48FFF7DFFA012E6A
:100D5800094C08D940F2B2510648FFF7D7FA236C7C
:100D68001D43256470BD002EF9D1236C23EA0505C7
:100D7800F7E700BF1D3B0008003802400E4B034058
:100D880070B505460E4603B920B940F2DF510B484D
:100D9800FFF7BCFA012E0A4C08D94FF4BC6107488A
:100DA800FFF7B4FA636C1D43656470BD002EF9D17A
:100DB800636C23EA0505F7E74C8008931D3B0008A0
:100DC80000380240A0F12103DBB21C2B10B5044609
:100DD80004D8114A22FA03F3DB070CD404F0DF032A
:100DE800412B08D0A4F17903062B04D940F6C80199
:100DF8000A48FFF78BFA6209012A094B06D11868DD
:100E080004F01F04E04000F0010010BD022A0CBFEE
:100E1800186F586FF4E700BF010001151D3B00086B
:100E28000038024013B50023019341F28834312081
:100E3800FFF7C8FF019B01330193019BA34201D037
:100E48000028F4D03120FFF7BDFF003018BF012083
:100E580002B010BD012810B5084C09D940F2911113
:100E68000748FFF753FA236843F48033236010BD23
:100E78000028F8D1236823F48033F7E70070004096
:100E88004D3B0008012810B5084C09D94FF4D6711C
:100E98000748FFF73BFA236843F40033236010BD8B
:100EA8000028F8D1236823F40033F7E700700040E6
:100EB8004D3B000800F10043013B1F2B10B50446D1
:100EC80026D8164A22FA03F3DB0716D424F0004387
:100ED800042B12D0082B10D0B4F5804F1AD0B4F5DB
:100EE800803F17D0B4F5003F14D0B4F5402F11D08F
:100EF80040F275310A48FFF709FA002C0ADA094B63
:100F0800DB6803F03F03234214BF0120002010BD1B
:100F18000228DBD1034B5B68F5E700BF0380008044
:100F28004D3B00080070004038B5194B9842044604
:100F38000D4620D0A3F54C4398421CD003F580639E
:100F4800984218D003F58063984214D003F5806363
:100F5800984210D003F5444398420CD0A3F51C43A3
:100F6800984208D003F58063984204D04FF4687122
:100F78000848FFF7CBF9B5F5007F04D340F2A1315B
:100F88000448FFF7C3F9C5F30805A56238BD00BFDB
:100F9800001001407D3B000838B5304B98420546AB
:100FA8000C4620D0A3F54C4398421CD003F580632F
:100FB800984218D003F58063984214D003F58063F3
:100FC800984210D003F5444398420CD0A3F51C4333
:100FD800984208D003F58063984204D040F26371C8
:100FE8001F48FFF793F9621E1F2A2FD81D4BD340C5
:100FF800DB072DD4402C2BD0B4F5807F28D0B4F556
:10100800007F25D0B4F5806F22D0B4F5006F1FD0D3
:10101800B4F5805F1CD0B4F5804F19D0B4F5004FFB
:1010280016D0B4F5803F13D0B4F5003F10D0B4F516
:10103800802F0DD0B4F5002F0AD0B4F5001F07D0CB
:1010480040F264710648FFF761F901E0802CD1D1C4
:10105800EB69234214BF0120002038BD0010014075
:101068007D3B00088B80008038B53C4B9842054694
:101078000C460BD003F58073984207D003F58073B4
:10108800984203D089213648FFF740F9236833F0A6
:10109800407303D08A213248FFF738F92379012BAE
:1010A80003D98B212E48FFF731F96379012B03D936
:1010B8008C212B48FFF72AF9A36833F0405303D05B
:1010C8008D212748FFF722F9E36833F0407212D0E8
:1010D800B2F1806F0FD023F0A062B2F1006F0AD096
:1010E800B3F1306F07D003F17143012B03D98E217F
:1010F8001B48FFF70BF9236933F4006303D08F21F2
:101108001748FFF703F9237D013B0F2B03D99021E3
:101118001348FFF7FBF86A682179236822F04072C8
:1011280022F4807243EA012313436B60AB680D4AD3
:101138001A40D4E903130B43A1680B43617943EACE
:1011480041031343AB60227DEB6A013A23F4700339
:10115800D2B243EA0253EB6238BD00BF002001401F
:10116800AF3B0008FDF7FFC038B5124B9842044664
:101178000D460CD003F58073984208D003F58073B0
:10118800984204D040F22B110B48FFF7BFF8012D0D
:1011980009D94FF496710848FFF7B8F8A36843F0E7
:1011A8000103A36038BD002DF8D1A36823F0010323
:1011B800F7E700BF00200140AF3B00082DE9F041F0
:1011C8009846384B984205460F4614460CD003F50E
:1011D8008073984208D003F58073984204D04FF486
:1011E8001A713148FFF792F8122F04D940F2692199
:1011F8002D48FFF78BF8661EF3B20F2B04D940F287
:101208006A212948FFF782F8B8F1070F04D940F29C
:101218006B212548FFF77AF8092F1BD9A7F10A0394
:10122800EA6803EB43030721994022EA010208FA1E
:1012380003F31343EB60062C18D86C6B06EB860699
:101248001F23B34024EA030407FA06F626436E6315
:10125800BDE8F0812A6907EB470107238B4022EAA2
:10126800030208FA01F313432B61E4E70C2C0CD8B2
:10127800E31F2E6B03EB83031F249C4026EA040420
:1012880007FA03F634432C63E2E70D3C04EB8403CE
:10129800EA6A1F249C4022EA040207FA03F4144372
:1012A800EC62D5E700200140AF3B00080B4B9842A9
:1012B80010B504460CD003F58073984208D003F5A6
:1012C8008073984204D040F2DF210548FFF71EF8EA
:1012D800A36843F08043A36010BD00BF0020014015
:1012E800AF3B00080A4B984210B504460CD003F5F2
:1012F8008073984208D003F58073984204D040F276
:1013080075310448FFF702F8E06C80B210BD00BFE9
:1013180000200140AF3B000838B5134B9842044603
:101328000D460CD003F58073984208D003F58073FE
:10133800984204D040F2F2510C48FEF7E7FF6B1ECA
:10134800DBB21F2B04D80A4A22FA03F3DB0704D4C2
:1013580040F2F3510548FEF7D9FF23681D4214BF38
:101368000120002038BD00BF00200140AF3B00082D
:101378008B800080704710B52C21044600F07EF861
:10138800204610BDD0ED036AD0ED017A90ED046AD5
:10139800D0ED074AC0ED046A07EE102A76EEA66A79
:1013A80090ED065AC0ED027A05EE901A67EEA47A1F
:1013B80037EE667A45EE857A4160C26037EE067A86
:1013C800D0ED086A80ED056A47EE667A90ED0A7AF4
:1013D80077EE877A90ED097AC0ED0A7AF4EEC77A4B
:1013E800F1EE10FAC8BF80ED0A7AD0ED0A7AB1EEB4
:1013F800477AF4EEC77AF1EE10FA48BF80ED0A7A20
:10140800806A7047002343608360C360036143615F
:101418008362704710B507EE901A07EE102A1A4635
:10142800FFF7F0FF37EE877A029B80ED067AF1EE40
:10143800677AC0ED077A0262436210BD07EE102A90
:101448001A46094B036010B507EE901AFFF7DAFF4A
:1014580037EE877A029B80ED067AF1EE677AC0ED67
:10146800077A0262436210BDE83B0008014B02485C
:101478001860704704000020B40300207047002063
:1014880070477047704714234360704700207047C7
:1014980000207047704710B508210446FFF7EEFF9B
:1014A800204610BD014B0360704700BFF83B0008A1
:1014B8002DE9F0411D46036804469B6816460F4611
:1014C8009847236839465B69204698472368314620
:1014D8005B6920469847236829465A692046904701
:1014E80023682046DB68BDE8F0411847036870B5FB
:1014F80004469B6816460D469847236829465B694B
:1015080020469847236831465B69204698472368F8
:1015180020469B689847236845F001015B6920468F
:101528009847236800219B69204698472368054609
:10153800DB6820469847284670BD002342689A42D7
:1015480002D900BF0133F9E7704770477047704709
:1015580010B524210446FFF791FF204610BD10B5B1
:1015680024210446FFF78AFF204610BD10B5D0217C
:101578000446FFF783FF204610BD00001449154BB1
:1015880003600B6B6FEA53236FEA43230B63124B21
:101598004360996821F440419960996841F4404159
:1015A8009960596821F08001596059685960196833
:1015B80021F440411960196841F480411960074BD2
:1015C8000361074B43638365C367C0F8A030704766
:1015D800003802403C3C0008001002401C3C000857
:1015E8002C3C00084268536923F080032DE9F04140
:1015F800642104465361344800F07AFA6421324881
:1016080000F076FA01270223C4E905734FF0030CB2
:101618000423C4E907C34FF0060E07234FF00E0852
:10162800C4E909E30F23C4E90B8304F11405DFF8C7
:101638009C8004F134072E4656F8041B404600F0FF
:10164800BFF8B7427064F7D162681F4853691F4FEB
:1016580043F080035361642100F04AFA55F8041BF3
:10166800384600F0ADF86B6CB542A0EB0300A866F5
:10167800F4D16FF0FF026FF0BF03C4E90E236FF0DF
:101688007F016FF03F03C4E9101340208023C4E9B1
:101698001203C0264FF480730025C4E914634FF485
:1016A800C873A360C4E92955C4E92B55C4E92D556D
:1016B800C4E92F5525732B4604222146024800F021
:1016C800D7F92846BDE8F081A80300205001002082
:1016D80000EB810030B5826BD0F8A45002FB05F412
:1016E80081B1D0F8A030426B062902FB03422B449B
:1016F8000BD8D0F8A810C06B0B4400FB012292FB5A
:10170800F3F030BD62006B00F3E722442B44F6E7A8
:10171800826800F1A403002053F8041B8A4204DB0A
:1017280001300828F8D14FF0FF3070472DE9F84F05
:10173800DFF86CA0044600F1140500F134084FF4FA
:101748007A794FF0000B55F8041B504600F038F832
:101758006B6CC01A09FB00F0AB6E90FBF3F0D0F590
:101768007A7054BFC5F88C00C5F88CB04545EAD1ED
:101778002046FFF7CDFF431C01460FD02046FFF758
:10178800A7FF01230646074684F8C430012384F8DE
:10179800C530C4E932672373BDE8F88F0023F3E747
:1017A80050010020704710B504210446FFF766FE7B
:1017B800204610BD014B0360704700BF503C000835
:1017C80008B5012308481A46C9B2FFF7F7FC0648CE
:1017D800FFF76CFD02210448FFF79EFD0028F9D0B1
:1017E8000148FFF77FFD08BD0020014030B5114CCE
:1017F80087B001214FF48070FFF7C0FA012500235C
:10180800694620468DF8043000938DF80530CDE9FF
:10181800023304938DF81450FFF726FC294620461E
:10182800FFF7A2FC2B462A460B212046FFF7C6FCF1
:1018380007B030BD00200140F7B52A4A2A4C136B87
:1018480043F00703136303238DF8043002250023B4
:10185800694620468DF807300095FFF78FF8042376
:10186800694620460093FFF789F808236946204611
:1018780000931026FFF782F8694620460096FFF786
:101888007DF84023694620460093FFF777F88023C8
:10189800694620460093FFF771F80096134E694693
:1018A8003046FFF76BF82027694630460097012637
:1018B800FFF764F8694620460096FFF75FF8694627
:1018C800204604F580640097FFF758F869462046DB
:1018D8000096FFF753F8694620460095FFF74EF843
:1018E80003B0F0BD0038024000000240000802408A
:1018F80010B50446FFF7A0FF2046BDE81040FFF7EB
:1019080075BF704710B504210446FFF7B7FD2046A0
:1019180010BD0000014B0360704700BF603C000829
:10192800274A136B30B540F2FF152B431363254B41
:101938009C6824F440249C609C6844F440249C6087
:101948001C6824F440241C601C6844F400241C60B7
:10195800106B28431063986820F4401098609868CA
:1019680040F440109860186820F440101860186817
:1019780040F400101860586A20F0F0005862586A65
:1019880040F070005862586A20F470605862586AD3
:1019980040F4E0605862536C43F0100353640A4B00
:1019A80000220C205A60490018609A60074AB2FB6E
:1019B800F1F1D9601A6842F001021A6030BD00BF27
:1019C80000380240000002400010014000E6DF0C31
:1019D80010B50C4680210548FFF7DEFA0028F9D03B
:1019E80021460248BDE81040FFF79EBA00100140AA
:1019F800F8B54FF080431A69D20714D5194F4FF63E
:101A0800FE721A61002414263D4606FB0473DA6848
:101A180052B1DA68013ADA600134102CF5D1124A71
:101A2800136801331360F8BD9A68DA601A7CFF2ADC
:101A38001FBF1A7C0132D2B21A7406FB04F3EA18EB
:101A4800527C002AE8D1EA580AB1EB58984706FBBD
:101A580004535A68002ADFD0586803689B6898477F
:101A6800DAE700BF100000200C0000207047704724
:101A7800F0B572B6114D00244FF0FF304FF0140C42
:101A88002F460CFB04F605EB060EAE5926B9DEF818
:101A98000460002E08BF20460134102CF1D1441CEC
:101AA8000AD0C4B2142565437C1900267E516160B2
:101AB800A260E2602674637462B6F0BD1000002074
:101AC8000448142303FB01010023CA608A600B74D5
:101AD800704700BF1000002082B072B6034B1B682D
:101AE800019362B6019802B0704700BF0C00002055
:101AF80007B50246FFF7F0FF014401911046FFF7D2
:101B0800EBFF019B984201D200BFF7E703B05DF8F5
:101B180004FB000010B52DED028B8AB0002965D0BA
:101B2800334B994228BF194607EE901A9FED317A38
:101B3800F8EEE77A012187EE278A0846FCEEC87A94
:101B480017EE904AFFF7F8F8240C01A8FFF7B0F851
:101B58000594013407EE904AF8EEE77A002288EE01
:101B6800277A05A94FF080400692DFED237A77EEB9
:101B7800677AFCEEE77A17EE903A9BB2CDE9073226
:101B8800FEF7C6FB01214FF08040FEF755FC01220D
:101B980011464FF08040FEF77FFE184A136B6FEA3C
:101BA80053236FEA43231363154B9A6822F4403298
:101BB8009A609A6842F440329A605A6822F48072B5
:101BC8005A605A685A601A6822F440321A601A68D1
:101BD80042F480321A600B4B102283F81C234FF01A
:101BE80080521A600AB0BDEC028B10BD01219BE740
:101BF80080F9370360FECD4C0000803F003802407A
:101C08000000024000E100E0F8B500220C4D142766
:101C180013464FF47A7607FB02F429190132102A89
:101C28002B514B608E60CB600B744B74F3D1054A1B
:101C38004FF47A7113600360FFF76CFF62B6F8BD6A
:101C4800100000200C000020704710B50821044641
:101C5800FFF714FC204610BD10B5034B0360044683
:101C6800FFF718FC204610BD703C000810B504466C
:101C7800FFF7F2FF20461021FFF700FC204610BDB9
:101C880010B5044621B1034900F01CFD204610BDE3
:101C98000149F9E7A83D0008AD3D00081049114B7E
:101CA80003600B6B6FEA53236FEA43230B630E4BFE
:101CB80043609A6822F440329A609A6842F440324B
:101CC8009A605A6822F480725A605A685A601A6890
:101CD80022F440321A601A6842F480321A6070475F
:101CE80000380240BC3D00080000024003685A6901
:101CF80019B142F480725A61704722F48072FAE78F
:101D0800B9B903689A6822F00C029A609A6842F09E
:101D18000C029A605A6822F002025A605A685A60A5
:101D28001A6822F00C021A601A6842F004021A605B
:101D3800704701290ED103689A6822F00C029A6054
:101D48009A6842F00C029A601A6822F00C021A6033
:101D58001A68ECE7022913D103689A6822F00C028A
:101D68009A609A6842F00C029A601A6822F00C0293
:101D78001A601A681A60DA6842F00402DA6070477A
:101D8800052910D103689A6822F00C029A609A68B3
:101D980042F00C029A601A6822F00C021A601A6863
:101DA80042F00802C3E70429C2D103681A6822F086
:101DB8000C021A601A6842F00C02B8E7064A08B525
:101DC800136B6FEA53236FEA43231363034B0360D8
:101DD8000121FFF795FF08BD00380240000C0240C2
:101DE800B9B903689A6822F030029A609A6842F09A
:101DF80030029A605A6822F004025A605A685A609F
:101E08001A6822F030021A601A6842F010021A604A
:101E1800704701290ED103689A6822F030029A604F
:101E28009A6842F030029A601A6822F030021A600A
:101E38001A68ECE7022913D103689A6822F0300285
:101E48009A609A6842F030029A601A6822F030026A
:101E58001A601A681A60DA6842F01002DA6070478D
:101E6800052910D103689A6822F030029A609A68AE
:101E780042F030029A601A6822F030021A601A683A
:101E880042F02002C3E70429C2D103681A6822F08D
:101E980030021A601A6842F03002B8E7064A08B5FC
:101EA800136B6FEA53236FEA43231363034B0360F7
:101EB8000121FFF795FF08BD00380240000C0240E1
:101EC800142310B5436004460830FFF777FF04F188
:101ED8000C00FFF7E3FFA268536923F00203536184
:101EE800E268536923F00403536110BD2DE9F04102
:101EF800454C464FDFF87881051D28460121FFF73C
:101F0800F5FE20464FF4E131FFF70AFD204640492F
:101F180000F0D8FB3F49204600F0D4FBFFF7A6FAB3
:101F28003D490646204600F0CDFB31463B4E204653
:101F380000F0FCFB3146204600F0C4FB3846FFF7B2
:101F480063FE2046364900F0BDFB2046354900F0C7
:101F5800B9FB3846C821FFF7CBFD3349334F20463C
:101F680000F0B0FB4046FFF7ABFF2046304900F0D9
:101F7800A9FB4146384600F00BFB2E49204600F0ED
:101F8800A1FB384600F0F9FA01462046FFF778FE33
:101F9800314600F097FB2848FFF7AAFC274920465E
:101FA80000F090FB2648FFF71DFB2649204600F06D
:101FB80089FB254800F030FE2449204600F082FBCA
:101FC800234800F0EDF92349204600F07BFB224826
:101FD80000F062FC2149204600F074FB204800F024
:101FE80003FF20461F4900F06DFB20461E4900F004
:101FF80069FB20461D4900F065FB28460021FFF7D4
:1020080075FE0020BDE8F081A4030020A80300208D
:10201800A13C0008AD3C0008C13C0008AB3C0008EE
:10202800DF3C0008F03C0008163F0008A80100202B
:102038000D3F0008FE3C000850010020123D00083A
:1020480004020020213D000854010020383D00080A
:1020580094010020533D0008D40200206D3D000883
:10206800EC010020873D0008AA3C0008963D0008C6
:102078009801002070B5044600F10C0604F108052B
:1020880030460021FFF7ACFE28460021FFF738FE56
:1020980030460121FFF7A4FE28460021FFF730FE55
:1020A80030460121FFF79CFE28460121FFF728FE54
:1020B8002046BDE87040FFF740BA70B5044600F10D
:1020C8000C0604F1080530460121FFF789FE284671
:1020D8000121FFF715FE30460121FFF781FE284652
:1020E8000021FFF70DFE30460021FFF779FE284654
:1020F8000121FFF705FE2046BDE87040FFF71DBA35
:102108002DE9F843044600F108084046894604F1E1
:102118000C070121FFF7F4FD00213846FFF760FEA8
:102128002046FFF70AFA0826002501213846FFF75E
:1021380057FE2046FFF701FAA3681B696D009B074D
:102148004FF000013846EDB248BF45F00105013EA9
:10215800FFF746FE2046FFF7F0F916F0FF06E4D138
:10216800B9F1000F1ED031464046FFF7C9FD2046A1
:10217800FFF7E3F901213846FFF732FE2046FFF763
:10218800DCF900213846FFF72BFE2046FFF7D5F98A
:1021980001214046FFF7B4FD2046FFF7CEF9284657
:1021A800BDE8F8830121DFE72DE9F0410825044661
:1021B8000F4600EB050804F10C0600213046FFF736
:1021C8000FFE2046FFF7B9F93B064CBF012100215D
:1021D8004046FFF795FD2046FFF7AFF9012130464D
:1021E800FFF7FEFD013D2046FFF7A7F97F0015F038
:1021F800FF05FFB2DFD129463046FFF7F1FD204643
:10220800FFF79BF901214046FFF77AFD2046FFF7CB
:1022180094F901213046FFF7E3FD2046FFF78DF9D9
:10222800A36829461F693046FFF7DAFD2046FFF705
:1022380084F987F00200C0F34000BDE8F081000097
:1022480038B5384D384C2846FFF728FD2846374D15
:1022580037492246FFF713F9284600F029FA28469D
:10226800344D35492246FFF70AF92846FFF7FEFBA9
:102278002846324D32492246FFF701F92846FFF732
:1022880011F928462F4B40F8083BFFF797FD05F159
:102298000C00FFF703FE28462B4D2C492246FFF77A
:1022A800EEF8284600F0A2F82846294D294922468A
:1022B800FFF7E5F82846FFF77DFA2846264D274917
:1022C8002246FFF7DCF82846FFF758F92846244D40
:1022D80024492246FFF7D3F8284600F075FC284623
:1022E800214D22492246FFF7CAF8284600F052F845
:1022F80028461F4D1F492246FFF7C1F8284600F01F
:10230800ABFA28461C4D1D492246FFF7B8F8284667
:1023180000F028FD224628461949BDE83840FFF755
:10232800AEB800BF8C01002008000020A4030020E4
:10233800511C0008A80300209126000898010020DD
:10234800771A0008703C0008A8010020611C0008EA
:1023580050010020E523000804020020AD17000802
:10236800540100205315000894010020C12B0008D7
:10237800D40200208D230008EC0100200529000864
:102388003D2D0008704710B504210446FFF776F884
:10239800204610BD014B0360704700BFCC3D0008CC
:1023A800024A00231360024A13607047AC030020FE
:1023B800B0030020034B18682C234343B42093FB3D
:1023C800F0F07047AC030020034B18682C234343FC
:1023D800B42093FBF0F07047B0030020704710B5AD
:1023E80044210446FFF74AF8204610BD014B03601C
:1023F800704700BFDC3D00082DE9F0410446006C41
:1024080003689B6888469847206C0368D4215B69F9
:102418009847206C036819215B699847206C03680A
:102428009B689847206C0368D5215B699847206CA6
:10243800036801219B699847000207B2206C036872
:1024480001219B6998470743206C036801219B6918
:102458009847000206B2206C036801219B699847DF
:102468000643206C036801219B699847000205B266
:10247800206C036800219B6998470543206C03681A
:10248800DB683FB236B22DB29847B8F1000F08D0DA
:10249800A36A3B44A362E36A3344E362236B2B449D
:1024A8002363A36AE169226BE06AFB1AAD1A236110
:1024B800192293FBF2F301EB4303E361236AA5615D
:1024C800301A606190FBF2F003EB40002062636A0F
:1024D800206C95FBF2F503EB4505036865629B6884
:1024E8009847206C0368D4215B699847206C03687F
:1024F80029215B699847206C03689B689847206C82
:102508000368D5215B699847206C036801219B69A2
:102518009847000207B2206C036801219B6998471D
:102528000743206C036801219B699847000206B2A3
:10253800206C036801219B6998470643206C036857
:1025480001219B699847000205B2206C03680021AD
:102558009B6998470543206C0368DB6898473FB23E
:1025680036B22DB20123C4E90176E56084F83C3027
:10257800BDE8F0810021FFF73FBF406B003018BF76
:102588000120704711F1FF3101D300BFFAE770470E
:1025980038B50446102208462164A823D421FEF742
:1025A80087FF0023C4E90433A361C4E90A33236322
:1025B800C4E90733636242F210712046FFF7E2FF75
:1025C8000F226363D421206CFEF790FF682804BFB4
:1025D800012363631022A823D421206CFEF768FF2F
:1025E80038231E22D421206CFEF762FF00232E22FE
:1025F800D421206CFEF75CFF00231222D421206C2A
:10260800FEF756FF60232022D421206CFEF750FFEE
:1026180038231F22D421206CFEF74AFF42F21071A2
:102628002046FFF7AFFF0021FFF7E6FE0023A36374
:102638004FF47A7501212046FFF7DEFE642120461B
:10264800FFF7A0FF013DF5D14FF47A72A36A6562E6
:1026580093FBF2F3C4E90755A362C4E90155E36AA1
:10266800E56093FBF2F32146E3620648236B93FB94
:10267800F2F30A2223632B46FFF7FAF984F83C5059
:1026880038BD00BFA803002010B5034B0360044603
:10269800FFF737F9204610BDF03D000810B5044695
:1026A800FFF7F2FF20460421FEF7E8FE204610BDA2
:1026B80010B50446FFF72EF9014B2360204610BDE4
:1026C800F03D000838B505464C1E14F8011F19B135
:1026D8002846FFF77DF9F8E738BD7FB50B1E4FF0A8
:1026E80000024FF00A01BABF5B42012414468DF87C
:1026F8000F200E4604AA93FBF6F50A4406FB153391
:10270800303302F80C3C4A1ED2B22B4665B92CB1C4
:1027180004AB13442D2103F80C1C114601AB1944DA
:10272800FFF7D0FF04B070BD1146E3E730B585B0C0
:1027380000230A228DF80F301546B1FBF5F405FB8E
:10274800141304A91144303301F80C3C531EDBB2B6
:1027580021462CB901AB9918FFF7B4FF05B030BD7D
:102768001A46EAE738B5C368364D2DED048B436049
:102778000369836004462846FFF71CFEE06028468C
:10278800FFF722FE6268E3689FED2F5AD4ED056AD1
:10279800DFED2E5A9FED2E6A20619B1A07EE103A44
:1027A800B8EEC77AA3689FED2B9A27EE057A66EEF6
:1027B800A56A47EE066AC31A04F1780007EE903A54
:1027C800F8EEE77AC4ED056AB0EE667AD4ED066AEB
:1027D80067EE857A66EEA56A47EE866AD4ED077AD3
:1027E800C4ED066A77EEC77A17EE102A17EE901A2C
:1027F800FEF7C8FDA269D4ED087A07EE102A77EE35
:10280800C77A08EE900A17EE901A04F1A400FEF7B2
:10281800B9FD68EE898A2434FDEEE87A08EE100ADC
:1028280017EE901A204600F017F928EE098A20467C
:10283800FDEEC87ABDEC048B17EE901ABDE838405F
:1028480000F026B994010020CDCCCC3D6666663FE9
:102858000000003E00007F4373B50E4B0025044680
:102868004FF07E5640F8243B00F06EF82B462A467F
:102878002946009604F17800FEF7E0FD00962B4605
:102888002A46294604F1A400FEF7D8FD204602B0E6
:1028980070BD00BF003E0008F7B5154F154E044641
:1028A8004FF07E55243000F00FF900952B463A463C
:1028B800314604F17800FEF7ADFD00952B463A4607
:1028C800314604F1A400FEF7A5FD0025002363614D
:1028D800A361E3612362C4E90155C4E903552B46AA
:1028E800042221460448FFF7C3F8284603B0F0BD88
:1028F800EC51B83DCDCC4C3FA803002010B5084B97
:10290800044640F8A43BFEF735FD04F17800FEF7D5
:1029180031FD04F1240000F00FF8204610BD00BF7F
:10292800003E000810B50446FFF7E8FF2046D02116
:10293800FEF7A4FD204610BD704710B5542104468B
:10294800FEF79CFD204610BD3F4A404B0360136BC9
:1029580030B540F2FF14234313633D4B43609D6839
:1029680025F003059D609D6845F003059D605D6841
:1029780025F001055D605D685D601D6825F0030553
:102988001D601D6845F001051D60136B234313632B
:10299800304B83609D6825F040759D609D6845F0CB
:1029A80040759D605D6825F480555D605D685D607B
:1029B8001D6825F040751D601D6845F080751D6017
:1029C800156B254315639D68C36025F040659D60C0
:1029D8009D6845F040659D601D6825F040651D6057
:1029E8001D6845F000651D60156B254315639D68DE
:1029F800036125F440159D609D6845F440159D6070
:102A08005D6825F480655D605D685D601D6825F41E
:102A180040151D601D6845F480151D60156B2C431D
:102A280014639A68436122F440029A609A6842F4F7
:102A380040029A601A6822F440021A601A6842F446
:102A480000021A6030BD00BF00380240383E00085E
:102A5800000C024000100240836800295A690FDD0B
:102A680022F48052FF295A610B46A8BFFF2340F287
:102A780044515943FF23B1FBF3F1044BD963704729
:102A880042F480525A6101F1FF03F0E7000001406F
:102A9800036900295A690DDD42F480625A61C1F167
:102AA800FF0140F244535943FF23B1FBF3F1054BB7
:102AB80099637047494222F48062FF295A61A8BF8E
:102AC800FF21EEE7000001402DE9F843364D374974
:102AD800374E04462846FFF7F5FD28463549FFF7E7
:102AE800F1FD6268536943F001035361A2685369B9
:102AF80023F4805353612269536923F4806353613B
:102B0800E3685A6A22F470025A625A6A42F48012DE
:102B18005A6263695A6A22F470425A625A6A0121F7
:102B280042F480525A620846FEF728F9002540F21E
:102B3800455208274FF48073C4E90A2304F12001A1
:102B48003046C4E908752563FDF7E2FB30460121EC
:102B5800FDF772FC4FF00108602304F13409636348
:102B6800494630462564C4E90E85C4E91155C4E9CF
:102B78001355FDF75FFD39463046FDF737FE4946E8
:102B88003046FDF7ADFC39463046FDF7F5FD4146C8
:102B98003046FDF75BFE29462046FFF75DFF2946D4
:102BA800BDE8F843FFF774BFA40300200C3E0008FB
:102BB800000001401C3E0008704710B5382104464B
:102BC800FEF75CFC204610BD1049114B03600B6BEF
:102BD8006FEA53236FEA43230B630E4B83619A68B2
:102BE80022F030029A609A6842F030029A605A687D
:102BF80022F004025A605A685A601A6822F03002B9
:102C08001A601A6842F010021A60704700380240D1
:102C1800483E000800040240826938B5536900251F
:102C280023F00403C561044653614FF48073C0E97F
:102C38000855C0E90A55C0E90C55C0E90133C3601D
:102C48000574457401462B4619220348FEF710FF08
:102C58002575284638BD00BFA803002000EB820276
:102C6800D36A126A9B1A23EAE3731022C3F58053CE
:102C780093FBF2F30A6802EB42021344042293FB2B
:102C8800F2F30B607047000038B5C569044615B10A
:102C9800012D17D038BD05212548FEF791FD0821E3
:102CA800E0622348FEF78CFD294620632048FEF7A2
:102CB80087FDA2696063536943F0040353610123EC
:102CC800E361E7E705211A48FEF77AFD082120624B
:102CD8001748FEF775FD002160621548FEF770FD84
:102CE800A269A062536923F00403536120460022BD
:102CF80004F10801FFF7B2FF2A46211DFFF7AEFFD6
:102D0800022204F10C01FFF7A9FFA268EF2A4FF095
:102D1800000304DCD12A257403DD637402E0237404
:102D2800FBE765740023E36101232375B2E700BF65
:102D380050010020704710B518210446FEF79EFB8D
:102D4800204610BD027B836832B1002202735A69A3
:102D580042F480725A617047012202735A6922F460
:102D68008072F7E71C4A1D4B0360136B30B540F2C5
:102D7800FF152B4313631A4B43609C6824F0C0046F
:102D88009C609C6844F0C0049C601C6824F0C004EB
:102D98001C601C681C60DC6844F04004DC60136B39
:102DA8002B4313630F4B83609A6822F440329A6076
:102DB8009A6842F440329A605A6822F480725A60E3
:102DC8005A685A601A6822F440321A601A6842F443
:102DD80080321A6030BD00BF003802405C3E0008F7
:102DE80000100240000002404FF0FF3310B543616D
:102DF80000230446037301464FF4FA720248FEF7B3
:102E080037FE206110BD00BFA803002070B504463E
:102E180063681B691A0701D500BFF9E701236361DD
:102E28006422217C0F480F4DFEF74AFE0D48FEF73D
:102E380053FE00F5FA6663681B691B070FD409483F
:102E4800FEF74AFEB042F6D96369012BF3D132226C
:102E5800217C2846FEF734FE02236361EBE76069B4
:102E680070BD00BFA8030020704710B514210446A8
:102E7800FEF704FB204610BD38B5124B124D044630
:102E8800C0E9003128461149FFF71CFC60687C2323
:102E980020223C21FEF70CFB6068002322223C2103
:102EA800FEF706FB232260680C233C21FEF700FB9B
:102EB80000232846C4E9023323610549FFF702FCD1
:102EC800204638BD8C3E0008A4030020683E000858
:102ED800723E0008F8B50446406803689B68984746
:102EE800606803683C215B6998476068036828212B
:102EF8005B699847606803689B68984760680368DF
:102F08003D215B6998476068036801219B69984780
:102F180007B26068036801219B69984747EA002760
:102F28006068036801219B69984706B26068036876
:102F380001219B69984746EA0026606803680121D9
:102F48009B69984705B26068036800219B699847A8
:102F580045EA0025606803683FB236B22DB2DB68E7
:102F68009847C4E902762561F8BD0369002BCCBFF8
:102F780001204FF0FF30704713B50120FDF79EFD8B
:102F8800FDF750FF0128044600D0FEE7092300930F
:102F98004FF4800002234FF4D8720821FDF7A2FDF8
:102FA8002046FDF7F9FD3920FDF70CFF0028FAD07F
:102FB8004FF080500121FDF7BFFE0120FDF74AFFC9
:102FC8004FF48030FDF776FF0028F9D03120FDF767
:102FD800F9FE0028FAD00120FDF754FF4FF4003025
:102FE800FDF768FF0028F9D00720FDF7B3FC0220A1
:102FF800FDF7EAFD0020FDF7FBFD4FF4A050FDF7BB
:103008001BFE4FF48050FDF735FE02B0BDE81040BE
:10301800FDF7FCB808B5FDF7D3F8FFF7ADFFBDE83D
:103028000840FDF7F3B8704710B514210446FEF7C1
:1030380025FA204610BD000038B583680446FBB960
:103048004268536923F400535361D4E90223052AE3
:103058002BD132220F21B3FBF2F2B2FBF1F1C1EB1B
:103068000111521A2A496068895C426903F0070510
:103078008D4234BF42F4005222F40052426114E0FF
:10308800012B04D14268536943F40053DCE7022B57
:1030980012D1C36842686420B3FBF0F100FB113120
:1030A80031B9516941F4005151610133E36038BDD0
:1030B800516921F40051F7E7042B10D14368C06827
:1030C8003221B0FBF1F201FB120222B95A6942F433
:1030D80000525A61B9E75A6922F40052F9E7032B02
:1030E800B3D10C48FEF7F8FC236903F548739842FE
:1030F80002D90123A360A8E7E06863686421B0FBF4
:10310800F1F201FB1202182A5A69E5D8DFE700BF7D
:10311800943E0008A803002010B500230446C0E927
:1031280002130248FEF7D8FC206110BDA803002056
:10313800164A174B10B50360136B6FEA53236FEAF7
:1031480043231363134B43609A6822F040629A60EA
:103158009A6842F040629A605A6822F400525A60B3
:103168005A685A601A6822F040621A601A6842F077
:10317800806204461A600321FFF7CEFF0023012274
:1031880021460548FEF774FC204610BD0038024071
:10319800AC3E0008000C0240A803002010B5034B09
:1031A80003600446FEF776F9204610BDC03E0008CD
:1031B80010B50446FFF7F2FF20461021FEF75EF92E
:1031C800204610BD10B5034B03600446FEF762F9B4
:1031D800204610BDE43E000810B50446FFF7F2FF94
:1031E80020461021FEF74AF9204610BDB9B90368F8
:1031F8009A6822F440429A609A6842F440429A607F
:103208005A6822F080025A605A685A601A6822F492
:1032180040421A601A6842F480421A6070470129D5
:103228000ED103689A6822F440429A609A6842F480
:1032380040429A601A6822F440421A601A68ECE721
:10324800022913D103689A6822F440429A609A6866
:1032580042F440429A601A6822F440421A601A689E
:103268001A60DA6842F48042DA607047052910D1A2
:1032780003689A6822F440429A609A6842F440428D
:103288009A601A6822F440421A601A6842F40042AE
:10329800C3E70429C2D103681A6822F440421A60BD
:1032A8001A6842F44042B8E7064A08B5136B6FEA59
:1032B80053236FEA43231363034B03600121FFF792
:1032C80095FF08BD0038024000080240B9B90368FC
:1032D8009A6822F440529A609A6842F440529A607E
:1032E8005A6822F040025A605A685A601A6822F4F2
:1032F80040521A601A6842F480521A6070470129D5
:103308000ED103689A6822F440529A609A6842F48F
:1033180040529A601A6822F440521A601A68ECE720
:10332800022913D103689A6822F440529A609A6875
:1033380042F440529A601A6822F440521A601A689D
:103348001A60DA6842F48052DA607047052910D1B1
:1033580003689A6822F440529A609A6842F440528C
:103368009A601A6822F440521A601A6842F40052AD
:10337800C3E70429C2D103681A6822F440521A60CC
:103388001A6842F44052B8E770B5044600F10C06DA
:1033980004F1080530460021FFF798FF2846002170
:1033A800FFF724FF30460121FFF790FF2846002150
:1033B800FFF71CFF30460121FFF788FF284601214F
:1033C800FFF714FF2046BDE87040FEF7B6B870B5A9
:1033D800044600F10C0604F1080530460121FFF708
:1033E80075FF28460121FFF701FF30460121FFF74D
:1033F8006DFF28460021FFF7F9FE30460021FFF750
:1034080065FF28460121FFF7F1FE2046BDE8704020
:10341800FEF793B8064A08B5136B6FEA53236FEAB1
:1034280043231363034B03600121FFF74FFF08BDDC
:103438000038024000080240C82310B54360044623
:103448000830FFF731FF04F10C00FFF7E3FFA26833
:10345800536923F080035361E268536923F0400302
:10346800536110BD2DE9F843044600F108084046B1
:10347800894604F10C070121FFF7B8FE0021384600
:10348800FFF724FF2046FEF758F8082600250121FB
:103498003846FFF71BFF2046FEF74FF8A3681B6965
:1034A8006D001B064FF000013846EDB248BF45F0ED
:1034B8000105013EFFF70AFF2046FEF73EF816F029
:1034C800FF06E4D1B9F1000F1ED031464046FFF7A0
:1034D8008DFE2046FEF731F801213846FFF7F6FE4B
:1034E8002046FEF72AF800213846FFF7EFFE20466F
:1034F800FEF723F801214046FFF778FE2046FEF745
:103508001CF82846BDE8F8830121DFE72DE9F041E2
:10351800082504460F4600EB050804F10C060021B7
:103528003046FFF7D3FE2046FEF707F83B064CBFB0
:10353800012100214046FFF759FE2046FDF7FDFF17
:1035480001213046FFF7C2FE013D2046FDF7F5FF99
:103558007F0015F0FF05FFB2DFD129463046FFF79F
:10356800B5FE2046FDF7E9FF01214046FFF73EFE84
:103578002046FDF7E2FF01213046FFF7A7FE20466F
:10358800FDF7DBFFA36829461F693046FFF79EFE5B
:103598002046FDF7D2FF87F08000C0F3C010BDE8D9
:1035A800F081B9B903689A6822F440629A609A680F
:1035B80042F440629A605A6822F020025A605A68BF
:1035C8005A601A6822F440621A601A6842F48062EB
:1035D8001A60704701290ED103689A6822F4406284
:1035E8009A609A6842F440629A601A6822F44062CB
:1035F8001A601A68ECE7022913D103689A6822F462
:1036080040629A609A6842F440629A601A6822F4AA
:1036180040621A601A681A60DA6842F48062DA60F6
:103628007047052910D103689A6822F440629A60AD
:103638009A6842F440629A601A6822F440621A60FA
:103648001A6842F40062C3E70429C2D103681A6801
:1036580022F440621A601A6842F44062B8E7000037
:10366800064A08B5136B6FEA53236FEA43231363C3
:10367800034B03600121FFF794FF08BD00380240A7
:1036880000040240B9B903689A6822F440729A604B
:103698009A6842F440729A605A6822F010025A609E
:1036A8005A685A601A6822F440721A601A6842F41A
:1036B80080721A60704701290ED103689A6822F453
:1036C80040729A609A6842F440729A601A6822F4CA
:1036D80040721A601A68ECE7022913D103689A68E5
:1036E80022F440729A609A6842F440729A601A68AA
:1036F80022F440721A601A681A60DA6842F480721A
:10370800DA607047052910D103689A6822F440727C
:103718009A609A6842F440729A601A6822F4407279
:103728001A601A6842F40072C3E70429C2D1036818
:103738001A6822F440721A601A6842F44072B8E7B4
:1037480070B5044600F10C0604F108053046002166
:10375800FFF798FF28460021FFF723FF3046012195
:10376800FFF790FF28460021FFF71BFF3046012195
:10377800FFF788FF28460121FFF713FF2046BDE821
:103788007040FDF7DABE70B5044600F10C0604F18E
:10379800080530460121FFF775FF28460121FFF78C
:1037A80000FF30460121FFF76DFF28460021FFF793
:1037B800F8FE30460021FFF765FF28460121FFF794
:1037C800F0FE2046BDE87040FDF7B7BE064A08B5D2
:1037D800136B6FEA53236FEA43231363034B0360AE
:1037E8000121FFF74FFF08BD0038024000040240E6
:1037F800C82310B5436004460830FFF731FF04F1D1
:103808000C00FFF7E3FFA268536923F0200353611C
:10381800E268536923F01003536110BD00B599B0F5
:10382800FFF7F8FB3448354C354E364DFEF75EFB56
:1038380009A8FFF77DFC4FF448713348FEF758F9A3
:10384800052109A8FFF768FC3048FFF7DFFA0421D3
:1038580009A8FFF761FC2E492848FEF733FF01A8A5
:10386800FDF720FE2B4B019303A8FFF71DFD04A8CD
:10387800FFF7D0FD05A8FDF715FE274B059307A810
:10388800FFF7EEFE08A8FFF7A1FF01A8FFF7D4FD98
:1038980005A8FFF7ADFF21491848FEF713FF01A956
:1038A8000EA8FFF7E9FA05A913A8FFF7E5FA1C49DE
:1038B8001248FEF707FF0EA8FFF70CFB13A8FFF747
:1038C80009FB0EA8FFF751FB01462046FEF705FF4E
:1038D80031462046FEF7F6FE13A8FFF746FB0146E1
:1038E8002046FEF7FAFE29462046FEF7EBFE322177
:1038F8000548FEF7FDF8DEE78C010020A403002050
:103908009F3C0008AB3C0008A8030020EC01002005
:10391800003F0008C03E0008E43E0008053F0008DC
:103928001C3F00082DE9F843044600F1080840460A
:10393800894604F10C070121FFF733FE00213846C0
:10394800FFF7A0FE2046FDF7F8FD08260025012117
:103958003846FFF797FE2046FDF7EFFDA3681B6981
:103968006D009B064FF000013846EDB248BF45F0A8
:103978000105013EFFF786FE2046FDF7DEFD16F045
:10398800FF06E4D1B9F1000F1ED031464046FFF7DB
:1039980008FE2046FDF7D1FD01213846FFF772FEEB
:1039A8002046FDF7CAFD00213846FFF76BFE20468A
:1039B800FDF7C3FD01214046FFF7F3FD2046FDF763
:1039C800BCFD2846BDE8F8830121DFE72DE9F04179
:1039D800082504460F4600EB050804F10C060021F3
:1039E8003046FFF74FFE2046FDF7A7FD3B064CBFCC
:1039F800012100214046FFF7D4FD2046FDF79DFD3B
:103A080001213046FFF73EFE013D2046FDF795FDBA
:103A18007F0015F0FF05FFB2DFD129463046FFF7DA
:103A280031FE2046FDF789FD01214046FFF7B9FD2B
:103A38002046FDF782FD01213046FFF723FE204690
:103A4800FDF77BFDA36829461F693046FFF71AFE7C
:103A58002046FDF772FD87F02000C0F34010BDE856
:103A6800F0810000000000000000010203040607C6
:103A7800080953544D3332463778785F537464508D
:103A880065726970685F4472697665722F2F737208
:103A9800632F73746D3332663778785F74696D2E6F
:103AA800630053544D3332463778785F537464500B
:103AB80065726970685F4472697665722F2F7372D8
:103AC800632F73746D3332663778785F666C617311
:103AD800682E630053544D3332463778785F5374F9
:103AE800645065726970685F4472697665722F2FD9
:103AF8007372632F73746D3332663778785F6770CB
:103B0800696F2E6300000000000102030401020334
:103B1800040607080953544D3332463778785F5303
:103B280074645065726970685F4472697665722F53
:103B38002F7372632F73746D3332663778785F72C0
:103B480063632E630053544D3332463778785F539E
:103B580074645065726970685F4472697665722F23
:103B68002F7372632F73746D3332663778785F7092
:103B780077722E630053544D3332463778785F534B
:103B880074645065726970685F4472697665722FF3
:103B98002F7372632F73746D3332663778785F755D
:103BA800736172742E630053544D333246377878FC
:103BB8005F5374645065726970685F4472697665B2
:103BC800722F2F7372632F73746D33326637787860
:103BD8005F6164632E6300000000000000000000C5
:103BE8007D1300087F13000800000000000000009B
:103BF8009D1400089F1400088B1400088D140008F9
:103C08008F1400089514000899140008000000009B
:103C180000000000551500085915000800000000B4
:103C28000000000057150008671500080000000094
:103C38000000000053150008751500083517000826
:103C48000000000000000000AD170008AF170008D2
:103C580000000000000000000B1900080D19000802
:103C68000000000000000000611C0008751C00082E
:103C7800C32000087D200008C91E0008B1210008E3
:103C880009210008096573745F696D755F73656E56
:103C9800736F720A00203A20000A0A0A232323239A
:103CA800230A0A0A007465726D696E616C20696E78
:103CB800697420646F6E650A006D656D20696E69B0
:103CC8007420646F6E652C20686561702073746160
:103CD8007274206174200074696D657220696E6960
:103CE8007420646F6E650A0064656C6179203230F7
:103CF80030206D732000696D7520696E69742064C9
:103D08006F6E652077697468200061646320696E4E
:103D1800697420646F6E650A006C696E652073654E
:103D28006E736F7220696E697420646F6E650A0025
:103D380064697374616E63652073656E736F722056
:103D4800696E697420646F6E650A00656E636F64DE
:103D580065722073656E736F7220696E6974206472
:103D68006F6E650A006D6F746F7220636F6E747288
:103D78006F6C6C20696E697420646F6E650A006BE5
:103D8800657920696E697420646F6E650A007379BD
:103D98007374656D20696E697420646F6E650A00BE
:103DA800747275650066616C736500000000000040
:103DB80000000000511C0008531C0008000000000F
:103DC800000000008D2300088F2300080000000079
:103DD80000000000E5230008E72300087D2500080F
:103DE800000000000000000091260008A526000839
:103DF8000000000000000000052900082D29000827
:103E08006D2700084D4F544F522050574D20696E72
:103E180069740A004D4F544F52204750494F20694A
:103E28006E69740A00000000000000000000000035
:103E38004129000843290008000000000000000094
:103E4800C12B0008C32B0008912C000800000000BB
:103E5800000000003D2D00083F2D00084D2D0008F2
:103E68006C736D20696E69740A006C736D20696EDD
:103E7800697420646F6E65200A0A00000000000063
:103E880000000000712E0008732E000800010203D4
:103E980004050607060504030201000000000000EF
:103EA800000000002F3000083130000841300008C1
:103EB8000000000000000000A5310008B93100082A
:103EC800D73300089133000841340008153500083D
:103ED8006D3400080000000000000000CD3100082B
:103EE800E13100088F37000849370008F937000822
:103EF800D53900082D39000872756E0A00656E63A1
:103F08006F6465722069326320696E697420646F1A
:103F18006E650A007374617274696E6720746573E4
:043F2800740A000017
:043F2C00492200081E
:043F30000024F40075
:04000005080002A548
:00000001FF
