:020000040800F2
:1000000000000220A5020008890200089B020008E7
:100010008902000889020008890200080000000027
:10002000000000000000000000000000890200083D
:100030008902000800000000890200088902000807
:100040008902000889020008890200088902000864
:100050008902000889020008890200088902000854
:100060008902000889020008890200088902000844
:100070008902000889020008890200088902000834
:100080008902000889020008890200088902000824
:100090008902000889020008890200088902000814
:1000A0008902000889020008890200088902000804
:1000B000B9190008890200088902000889020008AD
:1000C00089020008890200088902000889020008E4
:1000D00089020008890200088902000889020008D4
:1000E00089020008890200088902000889020008C4
:1000F00089020008890200088902000889020008B4
:1001000089020008890200088902000889020008A3
:100110008902000889020008890200088902000893
:100120008902000889020008890200088902000883
:100130008902000889020008890200088902000873
:100140008902000889020008890200088902000863
:100150008902000889020008890200088902000853
:100160008902000889020008890200088902000843
:1001700089020008890200088902000800000000C6
:100180008902000889020008890200088902000823
:100190008902000889020008890200088902000813
:1001A0008902000889020008890200088902000803
:1001B00089020008890200088902000889020008F3
:0801C000890200088902000811
:1001C8000F49D1F8883043F47003C1F888300D4BDB
:1001D8001A68002042F001021A6098601A6822F03A
:1001E800847222F480321A60074A5A601A6822F42C
:1001F80080221A60D8604FF000638B60704700BFA0
:1002080000ED00E00038024010300024174A184979
:10021800936803F00C03042B10B50DD0082B0DD0F8
:10022800144B0B60114B144A9B68C3F30313D25C45
:100238000B68D3400B6010BD104BF2E75468506850
:1002480052686302C2F3881200F03F004CBF0B4BA8
:10025800084BB3FBF0F35343044A5268C2F301421C
:1002680001325200B3FBF2F3DBE700BF0038024073
:10027800000000200024F400A033000800127A00D7
:10028800684620F007018D4601B5BDE80140854666
:100298007047684620F007018D46FEE71549164A63
:1002A8001648521A921000239A4217D1144A154E32
:1002B800D2F88830144C43F47003C2F88830D2F86E
:1002C8003432A41B43F04043C2F83432A410002552
:1002D800AC4209D1FFF774FF03F042B850F823404D
:1002E80041F823400133DFE756F8253098470135B8
:1002F800EEE700BF0000002004000020E8370008F7
:1003080000ED00E0E8370008EC370008FEE70000E1
:1003180038B5464B984204460D4636D0B0F1804F6A
:1003280033D0A3F57C4398422FD003F580639842DD
:100338002BD003F58063984227D003F58063984259
:1003480023D003F5806398421FD003F57043984289
:100358001BD003F57053984217D003F58063984279
:1003680013D003F5806398420FD0A3F598339842D1
:100378000BD003F58063984207D003F58063984259
:1003880003D0B1212A48FFF7C1FF6B6833F0100290
:1003980009D023F04002202A05D0402B03D0B221F7
:1003A8002348FFF7B3FFEB6833F4807206D0B3F548
:1003B800007F03D0B3211E48FFF7A8FF1B4A23681C
:1003C800944212D002F5806294420ED0B4F1804F6C
:1003D8000BD0A2F58032944207D002F58062944295
:1003E80003D002F58062944203D16A6823F0700357
:1003F8001343104A944207D002F5806294421EBF0C
:10040800EA6823F4407313432360AB68E3622B6804
:10041800A362064B9C4203D003F580639C4201D142
:100428002B6923630123636138BD00BF00000140CD
:10043800B03300080010004038B5274B98420446F6
:100448000D4637D0B0F1804F34D0A3F57C439842A5
:1004580030D003F5806398422CD003F5806398422E
:1004680028D003F58063984224D003F5806398422E
:1004780020D003F5704398421CD003F5705398427E
:1004880018D003F58063984214D003F5806398422E
:1004980010D0A3F5983398420CD003F580639842A6
:1004A80008D003F58063984204D040F2F9110B4854
:1004B800FFF72CFF012D09D94FF4FD710748FFF70D
:1004C80025FF236843F00103236038BD002DF8D1D0
:1004D800236823F00103F7E700000140B033000868
:1004E800524B98422DE9F04104460D461FD0B0F119
:1004F800804F1CD0A3F57C43984218D003F5806345
:10050800984214D003F58063984210D003F57843DD
:1005180098420CD003F57053984208D0A3F5943351
:10052800984204D040F29E214148FFF7EFFE2B6825
:1005380033F030020FD023F4803222F01002602A08
:1005480009D023F05003B3F5803F04D040F29F2137
:100558003748FFF7DBFE6B68012B04D94FF428718D
:100568003348FFF7D3FE2B6933F0020304D040F27F
:10057800A1212F48FFF7CAFE236A2A6823F0100337
:100588002362266A6768A36923F0807323F4E6432D
:1005980043EA02282B696A6826F02006134346EAD4
:1005A8000316224B9C4203D003F580639C4234D14E
:1005B800AB6833F0040304D040F2BF211C48FFF7B6
:1005C800A5FE6B6933F0080304D04FF43071184866
:1005D800FFF79CFEEB6933F4007304D040F2C121AD
:1005E8001348FFF793FEAB6933F4807304D040F2ED
:1005F800C2210F48FFF78AFE6B6926F0800646EA9B
:100608000316AB6826F0400646EA0316D5E906321B
:1006180027F44067134347EA8307EB686760C4F829
:100628001880A3632662BDE8F08100BF0000014086
:10063800B03300084E4B98422DE9F04104460D4670
:1006480017D0B0F1804F14D0A3F57C43984210D056
:1006580003F5806398420CD003F58063984208D074
:1006680003F57843984204D040F2EF214148FFF760
:100678004DFE2B6833F030020FD023F4803222F085
:100688001002602A09D023F05003B3F5803F04D04C
:100698004FF43C713748FFF739FE6B68012B04D9DA
:1006A80040F2F1213348FFF731FE2B6933F00203A2
:1006B80004D040F2F2212F48FFF728FE236A2A6867
:1006C80023F480732362266A6768E36923F480331E
:1006D80023F0730343EA02082B696A6826F400765C
:1006E800134346EA0326224B9C4203D003F580635A
:1006F8009C4234D1AB6833F0040304D040F20F318C
:100708001C48FFF703FE6B6933F0080304D04FF46D
:1007180044711848FFF7FAFDEB6933F4007304D00D
:1007280040F211311348FFF7F1FDAB6933F48073E0
:1007380004D040F212310F48FFF7E8FD6B6926F448
:10074800006646EA0326AB6826F4806646EA032676
:10075800D5E9063227F44057134347EA0317EB68F5
:100768006760C4F81C80E3632662BDE8F08100BFBF
:1007780000000140B033000838B51A4B98420446CF
:100788000D461FD0B0F1804F1CD0A3F57C43984292
:1007980018D003F58063984214D003F5806398421B
:1007A80010D003F5784398420CD003F57053984263
:1007B80008D0A3F59433984204D040F2CE510A48A9
:1007C800FFF7A4FD35F0080304D040F2CF510648E6
:1007D800FFF79CFDA16921F4006141EA0521A161AF
:1007E80038BD00BF00000140B033000838B5154BD4
:1007F800984204460D4617D0B0F1804F14D0A3F5A7
:100808007C43984210D003F5806398420CD003F5DE
:100818008063984208D003F57843984204D040F2A8
:10082800EB510948FFF772FD35F0080304D040F298
:10083800EC510548FFF76AFDE36923F008031D43FF
:10084800E56138BD00000140B033000838B5104BF1
:10085800984204460D4608D003F58063984204D0B8
:1008680040F6A9210B48FFF751FD012D09D940F6A3
:10087800AA210848FFF74AFD636C43F40043636408
:1008880038BD002DF8D1636C23F40043F7E700BFAF
:1008980000000140B03300082C4B984270B5044664
:1008A8000D46164637D0B0F1804F34D0A3F57C43BF
:1008B800984230D003F5806398422CD003F58063CA
:1008C800984228D003F58063984224D003F58063CA
:1008D800984220D003F5704398421CD003F570531A
:1008E800984218D003F58063984214D003F58063CA
:1008F800984210D0A3F5983398420CD003F5806342
:10090800984208D003F58063984204D040F6143129
:100918000F48FFF7FBFC35F0FF0300D125B940F67F
:1009280015310B48FFF7F2FC012E08D940F61631B5
:100938000748FFF7EBFCE3681D43E56070BD002E38
:10094800F9D1E36823EA0505F7E700BF0000014095
:10095800B03300080F2810B5044603D98D21054887
:10096800FFF7D4FC044B186820F00F0020431860F0
:1009780010BD00BFE0330008003C02402DE9F84FED
:100988004C4B984204460D462BD003F580639842A1
:1009980027D003F58063984223D003F580639842FB
:1009A8001FD003F5806398421BD003F580639842FB
:1009B80017D003F58063984213D003F580639842FB
:1009C8000FD003F5806398420BD003F580639842FB
:1009D80007D003F58063984203D093213648FFF788
:1009E80095FC2B881BB994213348FFF78FFC2B7992
:1009F800032B03D995213048FFF788FCEB79022BAC
:100A080003D996212C48FFF781FCDFF8AC9000262B
:100A180001274FF003082A6807FA06F3934343D1E6
:100A28004FEA460A236808FA0AFB6FEA0B0B03EA47
:100A38000B0323602B79216803FA0AF2013B0A436E
:100A4800012B226023D86B79032B03D9A8214846B0
:100A5800FFF75CFCA3680BEA0303A3606B79A26849
:100A680003FA0AF31343A360AB79012B03D9AF212F
:100A78004846FFF74BFC636807FA06F223EA0203CD
:100A88006360AB796268B3409BB213436360E36809
:100A980008FA0AF223EA0203E360EB79E26803FA50
:100AA8000AFA4AEA0202E2600136102EB3D1BDE822
:100AB800F88F00BF0000024012340008012810B56A
:100AC800044605D9052803D0D0210448FFF71EFCA9
:100AD800034B00221A701C7010BD00BF533400086D
:100AE800023802402DE9F0411D4630F4800380466B
:100AF8000C461746069E04D040F2A5112448FFF77D
:100B080005FCA31E3D2B04D94FF4D3712048FFF7F1
:100B1800FDFBA7F1C003F02B04D940F2A7111C4834
:100B2800FFF7F4FB082D04D84FF4AA73EB40DB075A
:100B380004D44FF4D4711648FFF7E8FBB31E0D2B0D
:100B480004D940F2A9111248FFF7E0FB47F6C0723A
:100B580092FAA2F24FF44030B2FA82F290FAA0F080
:100B68004FF07061B0FA80F091FAA1F144F00053AF
:100B78006D08974043EA0803013DB1FA81F13B4310
:100B880085402B438E40034A33435360BDE8F081D0
:100B98005334000800380240012810B5084C09D920
:100BA80040F2BF110748FFF7B1FB236843F0807399
:100BB800236010BD0028F8D1236823F08073F7E77D
:100BC8000038024053340008022810B5044604D9FE
:100BD80040F2F7210448FFF799FB044A936823F091
:100BE80003031C43946010BD5334000800380240CE
:100BF80030F0800310B5044612D020F02003902B6B
:100C08000ED020F04003A02B0AD020F01003C02BF8
:100C180006D0F02804D04FF44B710548FFF776FB57
:100C2800044A936823F0F0031C43946010BD00BF8E
:100C3800533400080038024030F4805310B504469D
:100C48000CD020F40063B3F5A05F07D0B0F5C05F07
:100C580004D040F24B310548FFF758FB044A93682B
:100C680023F4E0531C43946010BD00BF53340008C4
:100C78000038024030F4805310B504460CD020F4FC
:100C88000063B3F5A05F07D0B0F5C05F04D040F2B1
:100C98006A310548FFF73AFB044B986820F4604036
:100CA80040EAC400986010BD533400080038024080
:100CB8001D4A936803F00C03042B10B51AD0082BB7
:100CC8001AD01A4B184A036093681949C3F30313DF
:100CD800CC5C0368E34043609468C4F382240C5DF1
:100CE80023FA04F484609268C2F342328A5CD340E7
:100CF800C36010BD0F4BE5E7546851685268630242
:100D0800C2F3881201F03F014CBF0A4B074BB3FBFB
:100D1800F1F35343044A5268C2F3014201325200CC
:100D2800B3FBF2F3CEE700BF003802400024F40022
:100D38004334000800127A00C30470B505460E4615
:100D480000D420B940F2B1510A48FFF7DFFA012E6A
:100D5800094C08D940F2B2510648FFF7D7FA236C7C
:100D68001D43256470BD002EF9D1236C23EA0505C7
:100D7800F7E700BF53340008003802400E4B034029
:100D880070B505460E4603B920B940F2DF510B484D
:100D9800FFF7BCFA012E0A4C08D94FF4BC6107488A
:100DA800FFF7B4FA636C1D43656470BD002EF9D17A
:100DB800636C23EA0505F7E74C8008935334000871
:100DC80000380240A0F12103DBB21C2B10B5044609
:100DD80004D8114A22FA03F3DB070CD404F0DF032A
:100DE800412B08D0A4F17903062B04D940F6C80199
:100DF8000A48FFF78BFA6209012A094B06D11868DD
:100E080004F01F04E04000F0010010BD022A0CBFEE
:100E1800186F586FF4E700BF01000115533400083C
:100E28000038024013B50023019341F28834312081
:100E3800FFF7C8FF019B01330193019BA34201D037
:100E48000028F4D03120FFF7BDFF003018BF012083
:100E580002B010BD012810B5084C09D940F2911113
:100E68000748FFF753FA236843F48033236010BD23
:100E78000028F8D1236823F48033F7E70070004096
:100E880083340008012810B5084C09D94FF4D671ED
:100E98000748FFF73BFA236843F40033236010BD8B
:100EA8000028F8D1236823F40033F7E700700040E6
:100EB8008334000800F10043013B1F2B10B50446A2
:100EC80026D8164A22FA03F3DB0716D424F0004387
:100ED800042B12D0082B10D0B4F5804F1AD0B4F5DB
:100EE800803F17D0B4F5003F14D0B4F5402F11D08F
:100EF80040F275310A48FFF709FA002C0ADA094B63
:100F0800DB6803F03F03234214BF0120002010BD1B
:100F18000228DBD1034B5B68F5E700BF0380008044
:100F2800833400080070004038B5194B98420446D5
:100F38000D4620D0A3F54C4398421CD003F580639E
:100F4800984218D003F58063984214D003F5806363
:100F5800984210D003F5444398420CD0A3F51C43A3
:100F6800984208D003F58063984204D04FF4687122
:100F78000848FFF7CBF9B5F5007F04D340F2A1315B
:100F88000448FFF7C3F9C5F30805A56238BD00BFDB
:100F980000100140B334000838B5304B984205467C
:100FA8000C4620D0A3F54C4398421CD003F580632F
:100FB800984218D003F58063984214D003F58063F3
:100FC800984210D003F5444398420CD0A3F51C4333
:100FD800984208D003F58063984204D040F26371C8
:100FE8001F48FFF793F9621E1F2A2FD81D4BD340C5
:100FF800DB072DD4402C2BD0B4F5807F28D0B4F556
:10100800007F25D0B4F5806F22D0B4F5006F1FD0D3
:10101800B4F5805F1CD0B4F5804F19D0B4F5004FFB
:1010280016D0B4F5803F13D0B4F5003F10D0B4F516
:10103800802F0DD0B4F5002F0AD0B4F5001F07D0CB
:1010480040F264710648FFF761F901E0802CD1D1C4
:10105800EB69234214BF0120002038BD0010014075
:10106800B33400088B80008038B53C4B9842054665
:101078000C460BD003F58073984207D003F58073B4
:10108800984203D089213648FFF740F9236833F0A6
:10109800407303D08A213248FFF738F92379012BAE
:1010A80003D98B212E48FFF731F96379012B03D936
:1010B8008C212B48FFF72AF9A36833F0405303D05B
:1010C8008D212748FFF722F9E36833F0407212D0E8
:1010D800B2F1806F0FD023F0A062B2F1006F0AD096
:1010E800B3F1306F07D003F17143012B03D98E217F
:1010F8001B48FFF70BF9236933F4006303D08F21F2
:101108001748FFF703F9237D013B0F2B03D99021E3
:101118001348FFF7FBF86A682179236822F04072C8
:1011280022F4807243EA012313436B60AB680D4AD3
:101138001A40D4E903130B43A1680B43617943EACE
:1011480041031343AB60227DEB6A013A23F4700339
:10115800D2B243EA0253EB6238BD00BF002001401F
:10116800E5340008FDF7FFC038B5124B9842044635
:101178000D460CD003F58073984208D003F58073B0
:10118800984204D040F22B110B48FFF7BFF8012D0D
:1011980009D94FF496710848FFF7B8F8A36843F0E7
:1011A8000103A36038BD002DF8D1A36823F0010323
:1011B800F7E700BF00200140E53400082DE9F041C1
:1011C8009846384B984205460F4614460CD003F50E
:1011D8008073984208D003F58073984204D04FF486
:1011E8001A713148FFF792F8122F04D940F2692199
:1011F8002D48FFF78BF8661EF3B20F2B04D940F287
:101208006A212948FFF782F8B8F1070F04D940F29C
:101218006B212548FFF77AF8092F1BD9A7F10A0394
:10122800EA6803EB43030721994022EA010208FA1E
:1012380003F31343EB60062C18D86C6B06EB860699
:101248001F23B34024EA030407FA06F626436E6315
:10125800BDE8F0812A6907EB470107238B4022EAA2
:10126800030208FA01F313432B61E4E70C2C0CD8B2
:10127800E31F2E6B03EB83031F249C4026EA040420
:1012880007FA03F634432C63E2E70D3C04EB8403CE
:10129800EA6A1F249C4022EA040207FA03F4144372
:1012A800EC62D5E700200140E53400080B4B98427A
:1012B80010B504460CD003F58073984208D003F5A6
:1012C8008073984204D040F2DF210548FFF71EF8EA
:1012D800A36843F08043A36010BD00BF0020014015
:1012E800E53400080A4B984210B504460CD003F5C3
:1012F8008073984208D003F58073984204D040F276
:1013080075310448FFF702F8E06C80B210BD00BFE9
:1013180000200140E534000838B5134B98420446D4
:101328000D460CD003F58073984208D003F58073FE
:10133800984204D040F2F2510C48FEF7E7FF6B1ECA
:10134800DBB21F2B04D80A4A22FA03F3DB0704D4C2
:1013580040F2F3510548FEF7D9FF23681D4214BF38
:101368000120002038BD00BF00200140E5340008FE
:101378008B8000807047704710B52421044601F027
:1013880023FF204610BD10B5D821044601F01CFFEC
:10139800204610BD474A484B0360136B30B540F2F6
:1013A800FF1423431363454B43609D6825F0405564
:1013B8009D609D6845F040559D605D6825F48045B9
:1013C8005D605D685D601D6825F040551D601D68A5
:1013D80045F080551D603A4B036143638365C367DD
:1013E800136B23431363374BC0F8A0301D6825F0F7
:1013F80003051D601D6845F003051D60156B254339
:1014080015631D68C0F8A43025F00C051D601D6823
:1014180045F00C051D60156B254315631D68C0F864
:10142800A83025F030051D601D6845F030051D60A9
:10143800156B254315631D68C0F8AC3025F0C00551
:101448001D601D6845F0C0051D60156B25431563BB
:101458001D68C0F8B03025F440751D601D6845F45E
:1014680040751D60156B254315631D68C0F8B430C1
:1014780025F440651D601D6845F440651D60156BC9
:1014880025431563C0F8B8301D6825F440551D6024
:101498001D6845F440551D60156B2C4314631A688C
:1014A800C0F8BC3022F440421A601A6842F4404244
:1014B8001A6030BD00380240303500080010024084
:1014C8002035000800000240037B72B60BB10022F1
:1014D800027362B6184670474268536943F4804302
:1014E800536170474268536923F4804353617047DE
:1014F8002DE9F0410446FFF7F5FF64212D48DFF898
:10150800B88000F0DBFA04F15C063746002529466E
:10151800404600F033F90135082D47F8040BF6D1A1
:101528002046FFF7D9FF64212248234F00F0C6FA6E
:1015380000252946384600F021F956F8043B0135C4
:10154800C01A082D3062F4D11C4BA3638033E363C7
:101558006FF0FF026FF07F03C4E9102380214FF47E
:101568008073C4E912134FF4C0704FF40073C4E9D8
:10157800140301230025A4F8C0300023C4F8C830A0
:10158800C4F8CC30C4F8D030C4F8D430C4E9055518
:10159800C4E90755C4E90955C4E90B55C4F8C45052
:1015A80025732B4605222146024800F041FA2846B9
:1015B800BDE8F081340400205401002000FEFFFF44
:1015C80081F3030300EB830030B5826B4569002982
:1015D80002FB05F40EDD0369426B062902FB034298
:1015E8002B440ADC8169C06B0B4400FB012292FB8F
:1015F800F3F030BD62006B00F4E722442B44F6E7B9
:10160800F8B500F11402012380F8C130044600F156
:1016180034010023104650F8045B88422B44FAD169
:10162800DB0807EE903AF8EEE77A0021C4ED357A48
:1016380016460D4604EB850756F804CB7F69BC4572
:10164800C8BF0D4601310829F4D1002652F8041B01
:10165800B1F5967FC8BF01369042F7D1B3F5FA7F4E
:1016680005D90323C4F8C460A4F8C030F8BD04EB5E
:1016780085035B69B3F5967F2EDD012384F8C030BE
:1016880029462046FFF79CFF07EE900A9FED1C7A3B
:10169800F8EEE77A691C67EE877A2046C4ED327A5D
:1016A800FFF78EFF07EE900AF8EEE77A691E67EEFD
:1016B800877A2046C4ED337AFFF782FF07EE900A57
:1016C800F8EEE77AC4F8C46067EE877A0023C4EDC1
:1016D800347A84F8C130C9E7D4ED327A9FED097ABB
:1016E800F4EEC77AF1EE10FA01D50223F1E79FED87
:1016F800067AF4EEC77AF1EE10FAB7DD0323E8E7CD
:101708000000003BCDCC4CBFCDCC4C3F2DE9F8437D
:101718000025DFF84880064600F114044FF47A7774
:10172800A9462946404600F029F8A36CC01A784318
:10173800E36E90FBF3F00135D0F57A7054BF20606A
:10174800C4F80090082D04F10404EAD13046FFF7EC
:1017580057FF01233373BDE8F88300BF540100200D
:10176800704710B50421044601F02EFD204610BD37
:10177800014B0360704700BF4435000808B50123DA
:1017880008481A46C9B2FFF719FD0648FFF78EFD4B
:1017980002210448FFF7C0FD0028F9D00148FFF7EF
:1017A800A1FD08BD0020014030B5114C87B00121D2
:1017B8004FF48070FFF7E2FA0125002369462046BE
:1017C8008DF8043000938DF80530CDE90233049389
:1017D8008DF81450FFF748FC29462046FFF7C4FC53
:1017E8002B462A460B212046FFF7E8FC07B030BD00
:1017F800002001402DE9F3412A4A2B4D136B02AC1E
:10180800012743F00703136344F8087D03238DF889
:1018180004302146002328468DF80730FFF7AEF83C
:101828000223214628460093FFF7A8F804232146FF
:1018380028460093FFF7A2F808232146284600937C
:101848004FF01008FFF79AF8214628462026CDF8D1
:101858000080FFF793F8214628460096FFF78EF898
:101868004023214628460093FFF788F88023214625
:10187800284605F500650093FFF780F821462846BD
:10188800CDF80080FFF77AF8214608480097FFF75F
:1018980075F8214628460096FFF770F802B0BDE8B3
:1018A800F08100BF003802400000024000040240FE
:1018B80010B50446FFF79EFF2046BDE81040FFF72D
:1018C80073BF704710B50421044601F07DFC204623
:1018D80010BD0000014B0360704700BF543500087D
:1018E800274A136B30B540F2FF152B431363254B82
:1018F8009C6824F440249C609C6844F440249C60C8
:101908001C6824F440241C601C6844F400241C60F7
:10191800106B28431063986820F44010986098680A
:1019280040F440109860186820F440101860186857
:1019380040F400101860586A20F0F0005862586AA5
:1019480040F070005862586A20F470605862586A13
:1019580040F4E0605862536C43F0100353640A4B40
:1019680000220C205A60490018609A60074AB2FBAE
:10197800F1F1D9601A6842F001021A6030BD00BF67
:1019880000380240000002400010014000E6DF0C71
:1019980010B50C4680210548FFF7FEFA0028F9D05B
:1019A80021460248BDE81040FFF7BEBA00100140CA
:1019B800F8B54FF080431A69D20714D5194F4FF67E
:1019C800FE721A61002414263D4606FB0473DA6889
:1019D80052B1DA68013ADA600134102CF5D1124AB2
:1019E800136801331360F8BD9A68DA601A7CFF2A1D
:1019F8001FBF1A7C0132D2B21A7406FB04F3EA182C
:101A0800527C002AE8D1EA580AB1EB58984706FBFD
:101A180004535A68002ADFD0586803689B689847BF
:101A2800DAE700BF0C00002008000020704770476C
:101A3800F0B572B6114D00244FF0FF304FF0140C82
:101A48002F460CFB04F605EB060EAE5926B9DEF858
:101A58000460002E08BF20460134102CF1D1441C2C
:101A68000AD0C4B2142565437C1900267E516160F2
:101A7800A260E2602674637462B6F0BD0C000020B8
:101A88000448142303FB01010023CA608A600B7415
:101A9800704700BF0C00002082B072B6034B1B6871
:101AA800019362B6019802B0704700BF0800002099
:101AB800014B1868704700BF0800002007B50246B0
:101AC800FFF7EAFF014401911046FFF7E5FF019B8C
:101AD800984201D200BFF7E703B05DF804FB0000AD
:101AE80010B52DED028B8AB0002965D0334B994291
:101AF80028BF194607EE901A9FED317AF8EEE77A7B
:101B0800012187EE278A0846FCEEC87A17EE904A2C
:101B1800FFF712F9240C01A8FFF7CAF8059401345D
:101B280007EE904AF8EEE77A002288EE277A05A9B0
:101B38004FF080400692DFED237A77EE677AFCEE6D
:101B4800E77A17EE903A9BB2CDE90732FEF7E0FB51
:101B580001214FF08040FEF76FFC012211464FF043
:101B68008040FEF799FE184A136B6FEA53236FEA19
:101B780043231363154B9A6822F003029A609A680C
:101B880042F003029A605A6822F001025A605A68C9
:101B98005A601A6822F003021A601A6842F00102B9
:101BA8001A600B4B102283F81C234FF080521A60E6
:101BB8000AB0BDEC028B10BD01219BE780F9370309
:101BC80060FECD4C0000803F00380240000C02400F
:101BD80000E100E0F8B500220C4D142713464FF43D
:101BE8007A7607FB02F429190132102A2B514B602F
:101BF8008E60CB600B744B74F3D1054A4FF47A7145
:101C080013600360FFF76CFF62B6F8BD0C0000209C
:101C180008000020704710B50421044601F0D4FAEA
:101C2800204610BD014B0360704700BF64350008B3
:101C3800024A00231360024A136070474C010020D7
:101C480050010020034B186858234343B42093FBEA
:101C5800F0F070474C010020034B186858234343A9
:101C6800B42093FBF0F0704750010020704710B586
:101C78005821044601F0A8FA204610BD014B036024
:101C8800704700BF7435000870B50446006D0368DE
:101C98009B680E469847206D0368D4215B69984776
:101CA800206D03681D215B699847206D03689B6858
:101CB8009847206D0368D5215B699847206D0368B4
:101CC80001219B699847000205B2206D0368002135
:101CD8009B6998470543206D0368DB6898472DB2D8
:101CE800022095FBF0F5002E33D0206B05442563C8
:101CF800206D03689B689847206D0368D4215B6951
:101D08009847206D03682D215B699847206D03680B
:101D18009B689847206D0368D5215B699847206DBB
:101D2800036801219B699847000205B2206D03688A
:101D380000219B6998470543206D0368DB68984735
:101D480000232DB2C4E901330123E56084F835305E
:101D580070BDD4E910231548C4E91223FFF7A8FE83
:101D6800216BA36C124A691A4FF4CD754D43C4E92F
:101D78001006A16AC01AE36A53434A4343434543E2
:101D880050430C4A90FBF2F093FBF2F395FBF2F50B
:101D9800E26920611044226A636113442362636A22
:101DA800A5611D44E0616562A2E700BF340400201C
:101DB80066FEFFFF40420F000021FFF765BF90F865
:101DC8003400704711F1FF3101D300BFFAE77047C3
:101DD80070B5016542F210710446FFF7F3FF002366
:101DE80080F834300F22D421006D00F097FD682868
:101DF8006CD1012384F8343088231022D421206D3B
:101E080000F06EFD38231E22D421206D00F068FDFD
:101E180000232E22D421206D00F062FD002312221F
:101E2800D421206D00F05CFD60232022D421206D98
:101E380000F056FD38231F22D421206D00F050FDFC
:101E480040F2D663A36342F210712046FFF7BAFF4F
:101E5800202500212046FFF717FF013DF9D11F4E2D
:101E68002563C4E90A554FF47A7501212046FFF726
:101E78000BFF01213046FFF721FE013DF5D14FF45C
:101E88007A72A36AE560B3FBF2F3C4E90455A3626E
:101E9800C4E90655E36A1148B3FBF2F3C4E90855EF
:101EA800E362C4E90155236BB3FBF2F32363FFF745
:101EB800F3FD2B46C4E91005C4E912050A222146A0
:101EC8000648FFF7B5FD84F8355070BD0F22D421C0
:101ED800206D00F023FD69288ED18AE734040020A4
:101EE80010B5034B03600446FFF7EBFC204610BD1A
:101EF8008835000810B50446FFF7F2FF2046042194
:101F080001F062F9204610BD10B50446FFF7E2FC67
:101F1800014B2360204610BD8835000838B50546BA
:101F28004C1E14F8011F19B12846FFF731FDF8E7D8
:101F380038BD7FB50B1E4FF000024FF00A01BABF43
:101F48005B42012414468DF80F200E4604AA93FB29
:101F5800F6F50A4406FB1533303302F80C3C4A1EEA
:101F6800D2B22B4665B92CB104AB13442D2103F82A
:101F78000C1C114601AB1944FFF7D0FF04B070BD2B
:101F88001146E3E730B585B000230A228DF80F30FB
:101F98001546B1FBF5F405FB141304A911443033BD
:101FA80001F80C3C531EDBB221462CB901AB991841
:101FB800FFF7B4FF05B030BD1A46EAE7F8B507EEFB
:101FC800901A2DED028BF5EEC07AF1EE10FA064666
:101FD800154646BFF1EE677A2D2120210123002204
:101FE8000A20954202D943430132FAE7BDEEE78A57
:101FF8003046B8EEC87A77EEC77A07EE103AB8EEF0
:10200800477A67EE877AFDEEE77A17EE904A002C5A
:10201800B8BF6442FFF7BCFC18EE101A3046FFF751
:1020280088FF2E213046FFF7B3FC002201230A2146
:102038004B4301329C42D2B2FADCAD1AEDB2002712
:10204800BD4205D930213046FFF7A2FC0137F7E73A
:10205800BDEC028B21463046BDE8F840FFF769BF6A
:1020680038B5436804462DED048B83603D489FEDE9
:102078003E9AFFF71DFD6369A568E360A3692361C4
:10208800451B6060394808BF0125FFF7DBFD60612B
:102098003648FFF7E1FDE2686369DFED354A9FEDF9
:1020A800355A94ED077ADFED345AA0619B1A06EE93
:1020B800903AF8EEE66A07EE905A66EEA46AF8EEF1
:1020C800E77A66EE856A236986EEA76AC31A04F181
:1020D8008000F0EE466A47EE256A07EE103AB8EE41
:1020E800C77AC4ED076A27EE247A16EE902A27EEFF
:1020F800057A87EE276AD4ED087A07EEA56AD4ED4B
:10210800097A84ED086A77EEE67A17EE901A01F0FC
:1021180090F8226AD4ED0A7A07EE102A77EEC77A89
:1021280008EE900A17EE901A04F1AC0001F081F85D
:1021380068EE898A2C34FDEEE87A08EE100A17EE6C
:10214800901A204600F01AF928EE098A2046FDEE7A
:10215800C87ABDEC048B17EE901ABDE8384000F041
:1021680029B900BF3404002000007F43F801002093
:10217800CDCCCC3DE4380E3F6666663F10B5084BC3
:10218800044640F82C3B00F071F804F1800001F09F
:1021980027F804F1AC0001F023F8204610BD00BF79
:1021A800983500082DE9F3411A4E1B4D04464FF0AF
:1021B8007F574FF07E582C3000F018F93B463246D6
:1021C800294604F18000CDF8008001F01BF8324662
:1021D800124ECDF800803B46294604F1AC0001F0D0
:1021E80011F83046FFF758FC00250023C4E9010028
:1021F800E36123626362A362C4E90355C4E9055538
:102208002B46052221463046FFF712FC284602B02D
:10221800BDE8F0819A99193E6666A63F340400200D
:1022280010B5084B044640F8AC3B00F0D0FF04F171
:10223800800000F0CCFF04F12C0000F00FF82046DD
:1022480010BD00BF9835000810B50446FFF7E8FF39
:102258002046D82100F0B8FF204610BD704710B5C1
:102268005421044600F0B0FF204610BD3F4A404BC1
:102278000360136B30B540F2FF14234313633D4BE7
:1022880043609D6825F003059D609D6845F0030542
:102298009D605D6825F001055D605D685D601D6895
:1022A80025F003051D601D6845F001051D60136BD1
:1022B80023431363304B83609D6825F040759D6010
:1022C8009D6845F040759D605D6825F480555D60AA
:1022D8005D685D601D6825F040751D601D6845F0EE
:1022E80080751D60156B254315639D68C36025F0D7
:1022F80040659D609D6845F040659D601D6825F0BE
:1023080040651D601D6845F000651D60156B25431F
:1023180015639D68036125F440159D609D6845F42B
:1023280040159D605D6825F480655D605D685D6051
:102338001D6825F440151D601D6845F480151D6055
:10234800156B2C4314639A68436122F440029A6027
:102358009A6842F440029A601A6822F440021A60AD
:102368001A6842F400021A6030BD00BF003802400B
:10237800AC350008000C02400010024083680029B8
:102388005A690FDD22F48052FF295A610B46A8BF13
:10239800FF2340F244515943FF23B1FBF3F1044BAF
:1023A800D963704742F480525A6101F1FF03F0E7A4
:1023B80000000140036900295A690DDD42F480627A
:1023C8005A61C1F1FF0140F244535943FF23B1FB65
:1023D800F3F1054B99637047494222F48062FF2963
:1023E8005A61A8BFFF21EEE70000014042682DE9CD
:1023F800F8435369314E43F00103536182685369CE
:1024080023F4805353610269536923F48063536151
:10241800C3685A6A22F470025A625A6A42F48012F5
:102428005A6243695A6A22F470425A625A6A01210E
:1024380042F4805204465A620846FEF79FFC002583
:1024480040F2455208274FF48073C4E90A2304F187
:1024580020013046C4E908752563FDF759FF304669
:102468000121FDF7E9FF4FF00108602304F1340969
:102478006363494630462564C4E90E85C4E91155AD
:10248800C4E91355FEF7D6F839463046FEF7AEF9DB
:1024980049463046FEF724F839463046FEF76CF9CF
:1024A80041463046FEF7D2F929462046FFF766FF37
:1024B8002946BDE8F843FFF77DBF00BF0000014093
:1024C800704710B59821044600F07EFE204610BDE6
:1024D800F0B5344C344A0260226B344940F2FF169E
:1024E800324322638A68816122F0C0028A608A6866
:1024F80042F0C0028A604A6822F008024A604A68CC
:102508004A600A6822F0C0020A600A6842F0400283
:102518000A60226B32432263254AC261156825F49A
:1025280040751560156845F440751560256B354391
:102538002563204D05622F6827F003072F602F6859
:1025480047F003072F60256B2E4326631468426209
:1025580024F440641460146844F4406414604B69C3
:10256800154C4464002223F0080342658265C26565
:102578008264C26402650267426782674266826655
:10258800C2660466C0F88C20C0F89020C0F8942079
:10259800C0F88020C0F88420C0F88820C4674B6148
:1025A800F0BD00BF00380240BC35000800100240F2
:1025B8000008024000040240CDCC4C3F826938B587
:1025C8005369002523F008038562044653614FF0E0
:1025D8007E53C0E90B55C0E90D55C0E90F5543605E
:1025E8008360C3600574457401462B460122034885
:1025F800FFF71EFA2575284638BD00BF34040020B1
:10260800D0ED007A9FED107AD0ED025A9FED0F5A67
:1026180090ED056A4368836006EE901A37EE677A94
:1026280076EEE56A27EE057A67EEC67A47EE267AF1
:1026380003694160C0ED035A80ED066A4361C0ED4D
:10264800047A17EE900A70470000803F0000003FB0
:1026580010B5082104462DED048B4348FFF78EF88A
:102668000A2108EE100A4048FFF788F8092109EE08
:10267800100A3D48FFF782F8F8EEC87A9FED3B8ACA
:1026880067EE887A08EE900A17EE901A04F1440073
:10269800FFF7B6FFB8EEC99A04F1600069EE087A50
:1026A80017EE901AFFF7ACFFF8EEE88A04F17C0009
:1026B80068EE887A17EE901AFFF7A2FFD4ED157A24
:1026C800D4ED1C6A9FED2A7AF5EEC07AF1EE10FA85
:1026D800F5EEC06A48BFF1EE677AF1EE10FA48BF2E
:1026E800F1EE666A77EE666A77EE677AC4ED016A9C
:1026F800D4ED236AC4ED027AF5EEC06AF1EE10FA61
:1027080048BFF1EE666A37EE667A84ED037A9FED8C
:10271800197AF4EEC77A9FED187AF1EE10FA4CBFE9
:1027280001230023F4EEC77AF1EE10FA23744FF078
:10273800010348BF63742375A36A5CBF00226274F7
:1027480013F0030209D1A1694A6922F008024A611B
:10275800BDEC048B0133A36210BD022AF8D1A16934
:102768004A6942F00802F2E754010020000080396B
:102778000000803F0000003F0000803E704710B519
:102788001821044600F020FD204610BD027B836816
:1027980032B1002202735A6942F001025A6170474D
:1027A800012202735A6922F00102F7E71C4A1D4B05
:1027B8000360136B30B540F2FF152B4313631A4BBC
:1027C80043609C6824F040749C609C6844F04074AA
:1027D8009C601C6824F040741C601C681C60DC68E9
:1027E80044F08074DC60136B2B4313630F4B8360DE
:1027F8009A6822F003029A609A6842F003029A608B
:102808005A6822F001025A605A685A601A6822F01F
:1028180003021A601A6842F001021A6030BD00BF54
:1028280000380240D035000800080240000C024081
:102838004FF0FF3310B5436100230446037301468C
:102848004FF4FA720248FFF7F3F8206110BD00BF99
:102858003404002070B5044663681B69DA0401D5A6
:1028680000BFF9E7012363616422217C0F480F4D03
:10287800FFF706F90D48FFF70FF900F5FA666368E8
:102888001B69DB040FD40948FFF706F9B042F6D9F3
:102898006369012BF3D13222217C2846FFF7F0F837
:1028A80002236361EBE7606970BD00BF3404002058
:1028B800704770471423436070470020704700201A
:1028C8007047704710B50821044600F07DFC20468B
:1028D80010BD0000014B0360704700BFE4350008DD
:1028E8002DE9F0411D46036804469B6816460F46CD
:1028F8009847236839465B692046984723683146DC
:102908005B6920469847236829465A6920469047BC
:1029180023682046DB68BDE8F0411847036870B5B6
:1029280004469B6816460D469847236829465B6906
:1029380020469847236831465B69204698472368B4
:1029480020469B689847236845F001015B6920464B
:102958009847236800219B692046984723680546C5
:10296800DB6820469847284670BD002342689A4293
:1029780002D900BF0133F9E77047704710B5082145
:10298800044600F021FC204610BD000010B5034BA2
:1029980003600446FFF795FF204610BD083600087F
:1029A80010B50446FFF7F2FF2046102100F00CFC9A
:1029B800204610BD1049114B03600B6B6FEA53237F
:1029C8006FEA43230B630E4B43609A6822F00302BD
:1029D8009A609A6842F003029A605A6822F00102EB
:1029E8005A605A685A601A6822F003021A601A6814
:1029F80042F001021A60704700380240C8370008E8
:102A0800000C024003685A6919B142F001025A6188
:102A1800704722F00102FAE72DE9F84381460E4695
:102A280029482A492A4D284CDFF8B080FFF776FA62
:102A38002748FEF751FD2846FEF746FD0028FAD044
:102A480009F10407002E4FF001013846C8BF06F10E
:102A5800FF36FFF7D7FFD5F8C4102046FFF792FAE4
:102A680041462046FFF75AFA95F8C0102046FFF76E
:102A780060FA41462046FFF751FA95F8C110204602
:102A8800FFF757FA41462046FFF748FA0322D5F8E0
:102A9800C8102046FFF792FA41462046FFF73EFA53
:102AA8000C492046FFF73AFA00213846FFF7AAFFFB
:102AB800C8210948FFF702F8002EBCD10448BDE838
:102AC800F843FEF70FBD00BF300400203936000878
:102AD80080020020563600083404002037360008EB
:102AE800B9B903689A6822F00C029A609A6842F0B1
:102AF8000C029A605A6822F002025A605A685A60B8
:102B08001A6822F00C021A601A6842F004021A606D
:102B1800704701290ED103689A6822F00C029A6066
:102B28009A6842F00C029A601A6822F00C021A6045
:102B38001A68ECE7022913D103689A6822F00C029C
:102B48009A609A6842F00C029A601A6822F00C02A5
:102B58001A601A681A60DA6842F00402DA6070478C
:102B6800052910D103689A6822F00C029A609A68C5
:102B780042F00C029A601A6822F00C021A601A6875
:102B880042F00802C3E70429C2D103681A6822F098
:102B98000C021A601A6842F00C02B8E7064A08B537
:102BA800136B6FEA53236FEA43231363034B0360EA
:102BB8000121FFF795FF08BD00380240000C0240D4
:102BC800B9B903689A6822F030029A609A6842F0AC
:102BD80030029A605A6822F004025A605A685A60B1
:102BE8001A6822F030021A601A6842F010021A605D
:102BF800704701290ED103689A6822F030029A6062
:102C08009A6842F030029A601A6822F030021A601C
:102C18001A68ECE7022913D103689A6822F0300297
:102C28009A609A6842F030029A601A6822F030027C
:102C38001A601A681A60DA6842F01002DA6070479F
:102C4800052910D103689A6822F030029A609A68C0
:102C580042F030029A601A6822F030021A601A684C
:102C680042F02002C3E70429C2D103681A6822F09F
:102C780030021A601A6842F03002B8E7064A08B50E
:102C8800136B6FEA53236FEA43231363034B036009
:102C98000121FFF795FF08BD00380240000C0240F3
:102CA800142310B5436004460830FFF777FF04F19A
:102CB8000C00FFF7E3FFA268536923F00203536196
:102CC800E268536923F00403536110BD38B5041D4D
:102CD80001212046FFF796FE4FF4E1315348FEF7F5
:102CE800FFFD53495148FFF719F952494F48FFF77B
:102CF80015F951494D48FFF711F900F05DFA4F49B0
:102D080005464A48FFF70AF929464848FFF73AF9BD
:102D18004B494648FFF702F94A494448FFF7FEF88D
:102D28004948FEF757FF14214748FEF7C7FE4749B1
:102D38003E48FFF7F3F846493C48FFF7EFF84548A7
:102D4800FFF7AEFF41493948FFF7E8F842493748ED
:102D5800FFF7E4F83F494148FFF73AF8334840495C
:102D6800FFF7DCF83D48FFF72AF800285BD03D491B
:102D78002E48FFF7D3F832492C48FFF7CFF83A49E5
:102D88002A48FFF7CBF83948FEF792FD2F49274824
:102D9800FFF7C4F836492548FFF7C0F83548FEF76D
:102DA800A7FB2A492148FFF7B9F833491F48FFF71D
:102DB800B5F83248FFF702FC24491C48FFF7AEF883
:102DC8002F491A48FFF7AAF82E48FEF731FF1F4986
:102DD8001648FFF7A3F82C491448FFF79FF82B482B
:102DE800FFF7E0F919491148FFF798F828490F4803
:102DF800FFF794F82748FFF71BFD14490B48FFF726
:102E08008DF825490948FFF789F824490748FFF74D
:102E180085F823490548FFF781F820460021FFF788
:102E2800F1FD002038BD1F49A2E700BF3004002093
:102E38004C360008583600086E36000883360008FD
:102E4800563600089A360008340400206636000812
:102E5800AE360008FC010020C03600081002002031
:102E6800D2360008E7360008F23600085401002080
:102E780004370008800200201E370008580100208F
:102E88003C370008F8010020593700085803002093
:102E98007637000868020020553600088837000891
:102EA800A5370008EC36000870B5044600F10C069A
:102EB80004F1080530460021FFF782FE284600216C
:102EC800FFF70EFE30460121FFF77AFE2846002163
:102ED800FFF706FE30460121FFF772FE2846012162
:102EE800FFF7FEFD2046BDE87040FFF73EBD70B518
:102EF800044600F10C0604F1080530460121FFF7ED
:102F08005FFE28460121FFF7EBFD30460121FFF760
:102F180057FE28460021FFF7E3FD30460021FFF762
:102F28004FFE28460121FFF7DBFD2046BDE8704033
:102F3800FFF71BBD2DE9F843044600F10808404699
:102F4800894604F10C070121FFF7CAFD0021384624
:102F5800FFF736FE2046FFF708FD08260025012169
:102F68003846FFF72DFE2046FFF7FFFCA3681B69D4
:102F78006D009B074FF000013846EDB248BF45F0A1
:102F88000105013EFFF71CFE2046FFF7EEFC16F098
:102F9800FF06E4D1B9F1000F1ED031464046FFF7D5
:102FA8009FFD2046FFF7E1FC01213846FFF708FEA8
:102FB8002046FFF7DAFC00213846FFF701FE2046DD
:102FC800FFF7D3FC01214046FFF78AFD2046FFF7B3
:102FD800CCFC2846BDE8F8830121DFE72DE9F04164
:102FE800082504460F4600EB050804F10C060021ED
:102FF8003046FFF7E5FD2046FFF7B7FC3B064CBF20
:10300800012100214046FFF76BFD2046FFF7ADFC8C
:1030180001213046FFF7D4FD013D2046FFF7A5FC0E
:103028007F0015F0FF05FFB2DFD129463046FFF7D4
:10303800C7FD2046FFF799FC01214046FFF750FDE8
:103048002046FFF792FC01213046FFF7B9FD2046E4
:10305800FFF78BFCA36829461F693046FFF7B0FDD0
:103068002046FFF782FC87F00200C0F34000BDE86D
:10307800F081000038B5384D384C2846FFF79AFCE7
:103088002846374D3749224600F09FF82846FEF774
:103098003BFF2846344D3549224600F096F828462D
:1030A800FEF7C4FC2846324D3249224600F08DF81E
:1030B8002846FFF70FFC28462F4B40F8083BFFF740
:1030C8006DFD05F10C00FFF7D9FD28462B4D2C4965
:1030D800224600F07AF82846FEF7D0FD2846294D0A
:1030E8002949224600F071F82846FEF741FB284698
:1030F800264D2749224600F068F82846FEF74AF987
:103108002846244D2449224600F05FF82846FFF758
:10311800DFF92846214D2249224600F056F8284674
:10312800FEF780FD28461F4D1F49224600F04DF846
:103138002846FFF723F828461C4D1D49224600F073
:1031480044F82846FFF732FB224628461949BDE8CD
:10315800384000F03AB800BFF00100203C040020DD
:10316800300400208329000834040020E91E0008E8
:10317800FC010020371A0008083600081002002059
:103188009529000854010020751C000880020020C1
:1031980069170008580100207D130008F801002075
:1031A800C9240008580300201D1C000868020020DC
:1031B8002922000885270008014B0248186070473B
:1031C80038040020400400207047002070477047F2
:1031D80010B52C210446FFF7F7FF204610BD00006C
:1031E800074A02604FF000410022C261016242605A
:1031F80082628260C260026142618261426270479B
:10320800D837000807EE901A07EE102A436037EE09
:10321800877A009B8362F1EE677A002380ED077A54
:10322800C0ED087A8360C3600361436183614362D0
:103238007047D0ED046AD0ED027A90ED056AD0EDC2
:10324800084AC0ED056A07EE102A76EEA66A90EDE8
:10325800075AC0ED037A05EE901A67EEA47A37EEA6
:10326800667A45EE857A8160026137EE067AD0ED9E
:10327800016A80ED066A47EE667A90ED097A77EE84
:10328800877A90ED0A7AC0ED097AF4EEC77AF1EE02
:1032980010FAC8BF80ED097AD0ED097AB1EE477A05
:1032A800F4EEC77AF1EE10FA48BF80ED097A406A69
:1032B800704713B50120FDF701FCFDF7B3FD0128A8
:1032C800044600D0FEE7092300934FF48000022350
:1032D8004FF4D8720821FDF705FC2046FDF75CFC89
:1032E8003920FDF76FFD0028FAD04FF080500121FA
:1032F800FDF722FD0120FDF7ADFD4FF48030FDF70D
:10330800D9FD0028F9D03120FDF75CFD0028FAD05E
:103318000120FDF7B7FD4FF40030FDF7CBFD002885
:10332800F9D00720FDF716FB0220FDF74DFC002021
:10333800FDF75EFC4FF4A050FDF77EFC4FF4805083
:10334800FDF798FC02B0BDE81040FCF75FBF08B578
:10335800FCF736FFFFF7ADFFBDE80840FCF756BFA6
:1033680008B5FFF7F4FF0848FFF7B0FC0748FFF778
:1033780071FA07490748FEF7D1FD4FF0FF310248BF
:10338800FFF74AFBFEE700BFF001002068020020BB
:10339800E0370008300400200000000000000000B2
:1033A800010203040607080953544D33324637789F
:1033B800785F5374645065726970685F44726976A7
:1033C80065722F2F7372632F73746D33326637787B
:1033D800785F74696D2E630053544D3332463778E5
:1033E800785F5374645065726970685F4472697677
:1033F80065722F2F7372632F73746D33326637784B
:10340800785F666C6173682E630053544D3332469F
:103418003778785F5374645065726970685F447276
:10342800697665722F2F7372632F73746D333266EA
:103438003778785F6770696F2E63000000000001BD
:10344800020304010203040607080953544D3332EA
:10345800463778785F5374645065726970685F4462
:1034680072697665722F2F7372632F73746D33329E
:10347800663778785F7263632E630053544D333236
:10348800463778785F5374645065726970685F4432
:1034980072697665722F2F7372632F73746D33326E
:1034A800663778785F7077722E630053544D3332E5
:1034B800463778785F5374645065726970685F4402
:1034C80072697665722F2F7372632F73746D33323E
:1034D800663778785F75736172742E630053544D44
:1034E8003332463778785F53746450657269706810
:1034F8005F4472697665722F2F7372632F73746DD0
:103508003332663778785F6164632E6300000000A9
:1035180000000000000000007F130008811300086D
:1035280000000000000000007D1300088F13000851
:1035380015170008000000000000000069170008C7
:103548006B1700080000000000000000CB180008FE
:10355800CD18000800000000000000001D1C000835
:103568001F1C00080000000000000000751C000877
:10357800771C0008C11D00080000000000000000C2
:10358800E91E0008FD1E0008000000000000000001
:1035980029220008512200086920000800000000C4
:1035A80000000000652200086722000800000000F3
:1035B80000000000C9240008CB2400085926000890
:1035C8000000000000000000852700088727000889
:1035D800952700080000000000000000CB28000824
:1035E800CD280008B9280008BB280008BD28000815
:1035F800C3280008C72800080000000000000000D9
:1036080095290008A9290008F72E0008B12E0008FE
:10361800A92C0008E52F00083D2F000809657374E0
:103628005F696D755F73656E736F720A00203A206B
:10363800000A746573745F6C696E655F73656E7399
:103648006F720A000A0A0A23232323230A0A0A009C
:103658007465726D696E616C20696E6974205B4473
:103668004F4E455D0A00696E697469616C697A69D3
:103678006E67206D656D6F727920005B444F4E4513
:103688005D2C2068656170207374617274206174A8
:103698002000696E697469616C697A696E67207463
:1036A800696D65722000696E697469616C697A690F
:1036B8006E67206932632000696E697469616C699C
:1036C8007A696E6720494D552000205B444F4E456E
:1036D8005D207769746820726573756C7420007456
:1036E8007275650066616C736500696E69746961FD
:1036F8006C697A696E67206164632000696E697419
:1037080069616C697A696E67206C696E655F73655B
:103718006E736F722000696E697469616C697A6989
:103728006E672064697374616E63655F73656E7339
:103738006F722000696E697469616C697A696E6775
:1037480020656E636F6465725F73656E736F722058
:1037580000696E697469616C697A696E67206D6F5A
:10376800746F725F636F6E74726F6C6C2000696E39
:10377800697469616C697A696E67206B6579200084
:10378800696E697469616C697A696E6720736571BD
:1037980075656E636520646F6E650A0A006D6F74E7
:1037A8006F6B6F207570726973696E6720726561DF
:1037B80064790A0A00000000000000000000000010
:1037C8008329000885290008000000000000000087
:1037D800D7310008D931000872756E0A0000000060
:0437E8007D30000828
:0437EC000024F400C1
:04000005080002A548
:00000001FF
