:020000040800F2
:1000000000000220A5020008890200089B020008E7
:100010008902000889020008890200080000000027
:10002000000000000000000000000000890200083D
:100030008902000800000000890200088902000807
:100040008902000889020008890200088902000864
:100050008902000889020008890200088902000854
:100060008902000889020008890200088902000844
:100070008902000889020008890200088902000834
:100080008902000889020008890200088902000824
:100090008902000889020008890200088902000814
:1000A0008902000889020008890200088902000804
:1000B000191B00088902000889020008890200084B
:1000C00089020008890200088902000889020008E4
:1000D00089020008890200088902000889020008D4
:1000E00089020008890200088902000889020008C4
:1000F00089020008890200088902000889020008B4
:1001000089020008890200088902000889020008A3
:100110008902000889020008890200088902000893
:100120008902000889020008890200088902000883
:100130008902000889020008890200088902000873
:100140008902000889020008890200088902000863
:100150008902000889020008890200088902000853
:100160008902000889020008890200088902000843
:1001700089020008890200088902000800000000C6
:100180008902000889020008890200088902000823
:100190008902000889020008890200088902000813
:1001A0008902000889020008890200088902000803
:1001B00089020008890200088902000889020008F3
:0801C000890200088902000811
:1001C8000F490020D1F8883043F47003C1F8883013
:1001D8000C4B1A6842F001021A6098601A6822F003
:1001E800847222F480321A60074A5A601A6822F42C
:1001F80080221A60D8604FF000638B60704700BFA0
:1002080000ED00E00038024010300024174A184979
:10021800936803F00C03042B10B50DD0082B0DD0F8
:10022800144B0B60114B144A9B68C3F30313D25C45
:100238000B68D3400B6010BD104BF2E75468506850
:100248006302526800F03F0048BF0C4BC2F38812AB
:1002580058BF084BB3FBF0F35343044A5268C2F348
:10026800014201325200B3FBF2F3DAE700380240F0
:10027800000000200024F400D84C000800127A0086
:10028800684620F007018D4601B5BDE80140854666
:100298007047684620F007018D46FEE73249002383
:1002A800324A3348521A92109A4251D1314A0025A3
:1002B800314ED2F88830314C43F47003A41BC2F895
:1002C8008830D2F83432A41043F04043C2F83432B4
:1002D800AC4243D1FFF774FFBFF34F8FBFF36F8F6B
:1002E800244B0021C3F850125A6942F400325A6173
:1002F800BFF34F8FBFF36F8FC3F88410BFF34F8FD7
:10030800D3F8802043F6E076C2F3C904C2F34E3234
:10031800A507520102EA060C2846214601394CEA93
:10032800000700F14040B1F1FF3FC3F86072F5D11A
:10033800203A12F1200FEDD1BFF34F8F5A6942F4E2
:1003480080325A61BFF34F8FBFF36F8F04F0A2BCA6
:1003580050F8234041F823400133A5E756F82530EB
:1003680001359847B4E700BF0000002004000020D2
:10037800D053000800ED00E0D0530008D453000823
:10038800FEE7000038B5464B04460D46984236D085
:10039800B0F1804F33D0A3F57C4398422FD003F5BA
:1003A800806398422BD003F58063984227D003F5E9
:1003B8008063984223D003F5806398421FD003F5E9
:1003C800704398421BD003F57053984217D003F539
:1003D8008063984213D003F5806398420FD0A3F549
:1003E800983398420BD003F58063984207D003F501
:1003F8008063984203D0B1212A48FFF7C1FF6B6898
:1004080033F0100209D023F04002202A05D0402BF7
:1004180003D0B2212348FFF7B3FFEB6833F48072AF
:1004280006D0B3F5007F03D0B3211E48FFF7A8FF1D
:100438001B4A2368944212D002F5806294420ED07F
:10044800B4F1804F0BD0A2F58032944207D002F568
:100458008062944203D002F58062944203D123F073
:1004680070036A681343104A944207D002F5806209
:1004780094421EBF23F44073EA6813432360AB68B9
:10048800E3622B68A362064B9C4203D003F58063AA
:100498009C4201D12B6923630123636138BD00BFEE
:1004A80000000140E84C00080010004038B5274B18
:1004B80004460D46984237D0B0F1804F34D0A3F5AA
:1004C8007C43984230D003F5806398422CD003F5E2
:1004D8008063984228D003F58063984224D003F5BE
:1004E8008063984220D003F5704398421CD003F5EE
:1004F8007053984218D003F58063984214D003F5DE
:100508008063984210D0A3F5983398420CD003F535
:100518008063984208D003F58063984204D040F283
:10052800F9110B48FFF72CFF012D09D94FF4FD7184
:100538000748FFF725FF236843F00103236038BD10
:10054800002DF8D1236823F00103F7E700000140EC
:10055800E84C0008524B98422DE9F04104460D46FC
:100568001FD0B0F1804F1CD0A3F57C43984218D01F
:1005780003F58063984214D003F58063984210D045
:1005880003F5784398420CD003F57053984208D08D
:10059800A3F59433984204D040F29E214148FFF7D6
:1005A800EFFE2B6833F030020FD023F4803222F0B4
:1005B8001002602A09D023F05003B3F5803F04D01D
:1005C80040F29F213748FFF7DBFE6B68012B04D907
:1005D8004FF428713348FFF7D3FE2B6933F0020339
:1005E80004D040F2A1212F48FFF7CAFE236A2A68E7
:1005F80023F010032362266A6768A36926F02006A1
:1006080023F0807323F4E64343EA02282B696A68DF
:10061800134346EA0316224B9C4203D003F580633A
:100628009C4234D1AB6833F0040304D040F2BF21BC
:100638001C48FFF7A5FE6B6933F0080304D04FF49C
:1006480030711848FFF79CFEEB6933F4007304D04F
:1006580040F2C1211348FFF793FEAB6933F480736E
:1006680004D040F2C2210F48FFF78AFE6B6926F0DA
:10067800800627F4406746EA0316AB6826F0400672
:1006880046EA0316D5E90632134347EA8307EB68BF
:100698006760C4F81880A3632662BDE8F08100BFD4
:1006A80000000140E84C00084E4B98422DE9F0410B
:1006B80004460D4617D0B0F1804F14D0A3F57C4303
:1006C800984210D003F5806398420CD003F58063FC
:1006D800984208D003F57843984204D040F2EF21BD
:1006E8004148FFF74DFE2B6833F030020FD023F45A
:1006F800803222F01002602A09D023F05003B3F5AB
:10070800803F04D04FF43C713748FFF739FE6B68DF
:10071800012B04D940F2F1213348FFF731FE2B6950
:1007280033F0020304D040F2F2212F48FFF728FEED
:10073800236A2A6823F480732362266A6768E36958
:1007480026F4007623F4803323F0730343EA020887
:100758002B696A68134346EA0326224B9C4203D05E
:1007680003F580639C4234D1AB6833F0040304D0B2
:1007780040F20F311C48FFF703FE6B6933F00803A2
:1007880004D04FF444711848FFF7FAFDEB6933F4CD
:10079800007304D040F211311348FFF7F1FDAB6943
:1007A80033F4807304D040F212310F48FFF7E8FDAC
:1007B8006B6926F4006627F4405746EA0326AB68BF
:1007C80026F4806646EA0326D5E90632134347EA4B
:1007D8000317EB686760C4F81C80E3632662BDE812
:1007E800F08100BF00000140E84C000838B51A4B02
:1007F80004460D4698421FD0B0F1804F1CD0A3F597
:100808007C43984218D003F58063984214D003F5CE
:100818008063984210D003F5784398420CD003F5D2
:100828007053984208D0A3F59433984204D040F20C
:10083800CE510A48FFF7A4FD35F0080304D040F272
:10084800CF510648FFF79CFDA16921F4006141EAF8
:100858000521A16138BD00BF00000140E84C000837
:1008680038B5154B04460D46984217D0B0F1804F65
:1008780014D0A3F57C43984210D003F580639842C6
:100888000CD003F58063984208D003F5784398426A
:1008980004D040F2EB510948FFF772FD35F0080328
:1008A80004D040F2EC510548FFF76AFDE36923F0F4
:1008B80008031D43E56138BD00000140E84C00080D
:1008C80038B5104B04460D46984208D003F58063AE
:1008D800984204D040F6A9210B48FFF751FD012D9D
:1008E80009D940F6AA210848FFF74AFD636C43F48A
:1008F8000043636438BD002DF8D1636C23F40043D2
:10090800F7E700BF00000140E84C00082C4B984274
:1009180070B504460D46164637D0B0F1804F34D036
:10092800A3F57C43984230D003F5806398422CD0DD
:1009380003F58063984228D003F58063984224D059
:1009480003F58063984220D003F5704398421CD089
:1009580003F57053984218D003F58063984214D079
:1009680003F58063984210D0A3F5983398420CD0D1
:1009780003F58063984208D003F58063984204D059
:1009880040F614310F48FFF7FBFC35F0FF0300D1A8
:1009980025B940F615310B48FFF7F2FC012E08D9AE
:1009A80040F616310748FFF7EBFCE3681D43E560A6
:1009B80070BD002EF9D1E36823EA0505F7E700BF0B
:1009C80000000140E84C00080F2810B5044603D980
:1009D8008D210548FFF7D4FC044B186820F00F0060
:1009E8002043186010BD00BF184D0008003C0240AD
:1009F8002DE9F84F4C4B04460D4698422BD003F591
:100A08008063984227D003F58063984223D003F58A
:100A1800806398421FD003F5806398421BD003F58A
:100A28008063984217D003F58063984213D003F58A
:100A3800806398420FD003F5806398420BD003F58A
:100A48008063984207D003F58063984203D09321CE
:100A58003648FFF795FC2B881BB994213348FFF7DC
:100A68008FFC2B79032B03D995213048FFF788FC9D
:100A7800EB79022B03D996212C48FFF781FC00263D
:100A880001274FF00308DFF8A49007FA06F32A6855
:100A9800934343D14FEA460A236808FA0AFB6FEAF0
:100AA8000B0B03EA0B0323602B79216803FA0AF284
:100AB800013B0A43012B226023D86B79032B03D90E
:100AC800A8214846FFF75CFCA3680BEA0303A36070
:100AD8006B79A26803FA0AF31343A360AB79012B7D
:100AE80003D9AF214846FFF74BFC636807FA06F2C3
:100AF80023EA02036360AB796268B3409BB2134395
:100B08006360E36808FA0AF223EA0203E360EB7918
:100B1800E26803FA0AFA4AEA0202E2600136102E93
:100B2800B3D1BDE8F88F00BF000002404A4D00086D
:100B3800012810B5044605D9052803D0D02104485A
:100B4800FFF71EFC034B00221A701C7010BD00BF7B
:100B58008B4D0008023802402DE9F0411D4630F463
:100B6800800380460C461746069E04D040F2A51125
:100B78002448FFF705FCA31E3D2B04D94FF4D3717D
:100B88002048FFF7FDFBA7F1C003F02B04D940F282
:100B9800A7111C48FFF7F4FB082D04D84FF4AA73DB
:100BA800EB40DB0704D44FF4D4711648FFF7E8FB99
:100BB800B31E0D2B04D940F2A9111248FFF7E0FB30
:100BC80047F6C07292FAA2F24FF44030B2FA82F2BB
:100BD80090FAA0F04FF07061B0FA80F091FAA1F1AC
:100BE80044F000536D089740B1FA81F143EA0803D5
:100BF800013D8E40044A3B4385402B4333435360B9
:100C0800BDE8F0818B4D000800380240012810B57E
:100C1800084C09D940F2BF110748FFF7B1FB236818
:100C280043F08073236010BD0028F8D1236823F0B7
:100C38008073F7E7003802408B4D0008022810B592
:100C4800044604D940F2F7210448FFF799FB044A07
:100C5800936823F003031C43946010BD8B4D000878
:100C68000038024030F0800310B5044612D020F05E
:100C78002003902B0ED020F04003A02B0AD020F0A8
:100C88001003C02B06D0F02804D04FF44B71054850
:100C9800FFF776FB044A936823F0F0031C43946043
:100CA80010BD00BF8B4D00080038024030F480535F
:100CB80010B504460CD020F40063B3F5A05F07D04C
:100CC800B0F5C05F04D040F24B310548FFF758FB40
:100CD800044A936823F4E0531C43946010BD00BF9A
:100CE8008B4D00080038024030F4805310B504469C
:100CF8000CD020F40063B3F5A05F07D0B0F5C05F57
:100D080004D040F26A310548FFF73AFB044B986873
:100D180020F4604040EAC400986010BD8B4D000884
:100D2800003802401D4A936803F00C03042B10B5E9
:100D38001AD0082B1AD01A4B184A0360936819491D
:100D4800C3F30313CC5C0368E34043609468C4F3C3
:100D580082240C5D23FA04F484609268C2F3423260
:100D68008A5CD340C36010BD0F4BE5E754685168F7
:100D78006302526801F03F0148BF0B4BC2F388126F
:100D880058BF074BB3FBF1F35343044A5268C2F30D
:100D9800014201325200B3FBF2F3CDE700380240C2
:100DA8000024F4007B4D000800127A00C30470B5DB
:100DB80005460E4600D420B940F2B1510A48FFF763
:100DC800DFFA012E094C08D940F2B2510648FFF764
:100DD800D7FA236C1D43256470BD002EF9D1236C0E
:100DE80023EA0505F7E700BF8B4D000800380240ED
:100DF8000E4B034070B505460E4603B920B940F2C4
:100E0800DF510B48FFF7BCFA012E0A4C08D94FF402
:100E1800BC610748FFF7B4FA636C1D43656470BD95
:100E2800002EF9D1636C23EA0505F7E74C80089397
:100E38008B4D000800380240A0F12103DBB21C2BC7
:100E480010B5044604D8114A22FA03F3DB070CD480
:100E580004F0DF03412B08D0A4F17903062B04D951
:100E680040F6C8010A48FFF78BFA6209094B012AC4
:100E780006D1186804F01F04E04000F0010010BD1E
:100E8800022A01D1186FF5E7586FF3E70100011541
:100E98008B4D00080038024013B5002341F2883416
:100EA80001933120FFF7C8FF019B01330193019B98
:100EB800A34201D00028F4D03120FFF7BDFF003055
:100EC80018BF012002B010BD012810B5084C09D97F
:100ED80040F291110748FFF753FA236843F480332F
:100EE800236010BD0028F8D1236823F48033F7E786
:100EF80000700040BB4D0008012810B5084C09D906
:100F08004FF4D6710748FFF73BFA236843F40033E0
:100F1800236010BD0028F8D1236823F40033F7E7D5
:100F280000700040BB4D000800F10043013B1F2B3F
:100F380010B5044626D8164A22FA03F3DB0716D45E
:100F480024F00043042B12D0082B10D0B4F5804FA6
:100F58001AD0B4F5803F17D0B4F5003F14D0B4F5DB
:100F6800402F11D040F275310A48FFF709FA002CDA
:100F78000ADA094BDB6803F03F03234214BF012060
:100F8800002010BD0228DBD1034B5B68F5E700BFEA
:100F980003800080BB4D00080070004038B5194B35
:100FA80004460D46984220D0A3F54C4398421CD0E5
:100FB80003F58063984218D003F58063984214D0F3
:100FC80003F58063984210D003F5444398420CD04F
:100FD800A3F51C43984208D003F58063984204D0D7
:100FE8004FF468710848FFF7CBF9B5F5007F04D3D3
:100FF80040F2A1310448FFF7C3F9C5F30805A5621B
:1010080038BD00BF00100140EB4D000838B5304B2B
:1010180005460C46984220D0A3F54C4398421CD074
:1010280003F58063984218D003F58063984214D082
:1010380003F58063984210D003F5444398420CD0DE
:10104800A3F51C43984208D003F58063984204D066
:1010580040F263711F48FFF793F9621E1F2A2FD8C9
:101068001D4BD340DB072DD4402C2BD0B4F5807F0B
:1010780028D0B4F5007F25D0B4F5806F22D0B4F520
:10108800006F1FD0B4F5805F1CD0B4F5804F19D025
:10109800B4F5004F16D0B4F5803F13D0B4F5003F37
:1010A80010D0B4F5802F0DD0B4F5002F0AD0B4F5C8
:1010B800001F07D040F264710648FFF761F901E0AC
:1010C800802CD1D1EB69234214BF0120002038BD08
:1010D80000100140EB4D00088B80008038B53C4B78
:1010E80005460C4698420BD003F58073984207D00A
:1010F80003F58073984203D089213648FFF740F9F9
:10110800236833F0407303D08A213248FFF738F957
:101118002379012B03D98B212E48FFF731F9637905
:10112800012B03D98C212B48FFF72AF9A36833F048
:10113800405303D08D212748FFF722F9E36833F0A5
:10114800407212D0B2F1806F0FD023F0A062B2F1DA
:10115800006F0AD0B3F1306F07D003F17143012B50
:1011680003D98E211B48FFF70BF9236933F4006379
:1011780003D08F211748FFF703F9237D013B0F2B7D
:1011880003D990211348FFF7FBF86A68217923688F
:1011980022F0407243EA012322F4807213430E4A7C
:1011A8006B60AB681A40D4E903130B43A1680B4387
:1011B800617943EA41031343AB60227DEB6A013A4C
:1011C80023F47003D2B243EA0253EB6238BD00BF86
:1011D800002001401D4E0008FDF7FFC038B5124B36
:1011E80004460D4698420CD003F58073984208D007
:1011F80003F58073984204D040F22B110B48FFF797
:10120800BFF8012D09D94FF496710848FFF7B8F8CF
:10121800A36843F00103A36038BD002DF8D1A3688B
:1012280023F00103F7E700BF002001401D4E00082E
:101238002DE9F0419846384B05460F46984214462A
:101248000CD003F58073984208D003F58073984258
:1012580004D04FF41A713148FFF792F8122F04D9CD
:1012680040F269212D48FFF78BF8661EF3B20F2B69
:1012780004D940F26A212948FFF782F8B8F1070F2C
:1012880004D940F26B212548FFF77AF8092F1BD9BA
:10129800A7F10A030721EA6803EB4303994008FA18
:1012A80003F322EA01021343EB60062C18D806EB7D
:1012B80086061F236C6BB34007FA06F624EA03047C
:1012C80026436E63BDE8F08107EB470107232A69CF
:1012D8008B4022EA030208FA01F313432B61E4E787
:1012E8000C2C0CD8E31F1F242E6B03EB83039C40AC
:1012F80026EA040407FA03F634432C63E2E70D3CBC
:10130800EA6A04EB84031F249C4022EA040207FAD9
:1013180003F41443EC62D5E7002001401D4E000899
:101328000B4B984210B504460CD003F580739842D5
:1013380008D003F58073984204D040F2DF210548B5
:10134800FFF71EF8A36843F08043A36010BD00BFF9
:10135800002001401D4E00080A4B984210B5044673
:101368000CD003F58073984208D003F58073984237
:1013780004D040F275310448FFF702F8E06C80B2FF
:1013880010BD00BF002001401D4E000838B5134BAA
:1013980004460D4698420CD003F58073984208D055
:1013A80003F58073984204D040F2F2510C48FEF7DE
:1013B800E7FF6B1EDBB21F2B04D80A4A22FA03F39D
:1013C800DB0704D440F2F3510548FEF7D9FF236840
:1013D8001D4214BF0120002038BD00BF002001407D
:1013E8001D4E00088B800080704700BF704700BF0B
:1013F80010B50446242102F0EFFC204610BD00BFC2
:1014080010B50446D82102F0E7FC204610BD00BF05
:10141800484A136BF0B440F2FF15474C474E2B4334
:1014280006601363A768446027F04057444B454E55
:10143800A760A76847F04057A760676827F4804708
:10144800676067686760276827F0405727602768E4
:1014580047F080572760146B06612C434663866506
:10146800C66714631E68C0F8A03026F003071F6023
:101478001C6844F003061E60176B2F4317631C6833
:10148800C0F8A43024F00C061E601F6847F00C0456
:101498001C60166B2E4316631F68C0F8A83027F02F
:1014A80030041C601E6846F030071F60146B2C4324
:1014B80014631E68C0F8AC3026F0C0071F601C68B3
:1014C80044F0C0061E60176B2F4317631C68C0F8F2
:1014D800B03024F440761E601F6847F440741C60E6
:1014E800166B2E4316631F68C0F8B43027F44064A7
:1014F8001C601E6846F440671F60146B2C4314631D
:10150800C0F8B8301E6826F440571F601C6844F4C1
:1015180040561E60176B3D4315631A68C0F8BC300F
:1015280022F440451D60196841F440441C60F0BC39
:10153800704700BF0038024000100240684E0008A3
:1015480000000240584E00084268642153692DE9A2
:10155800F04100F15C06054623F480400024DFF8E2
:10156800D080374650612F4800F05AFC214601349C
:10157800404600F0A5F9082C47F8040BF6D16A6834
:10158800642105F1800700245369DFF8A48043F43F
:1015980080405061234800F043FC2146404600F05B
:1015A8008FF9013456F8041B082CA0EB010247F808
:1015B800042BF2D14FF0800C1B4E6FF0FF024FF45A
:1015C80080770024AE632A644FF0010E17496FF04C
:1015D8007F004FF4C0764FF40072E96323466864D5
:1015E80029466A650522EC612C63C5F8C4402C7352
:1015F8002E65A5F8C0E00B48C5E912C70027C5E964
:101608000544C5E90844C5E90A44C5F8C870C5F8E1
:10161800CC70C5F8D070C5F8D47000F0FFFA204639
:10162800BDE8F081F803002000FEFFFF80FEFFFF09
:1016380054010020002970B420DB072914DC00EBDA
:1016480081046569A36B03FB05F2D9B123690729F6
:10165800666B05EB030406FB032324D12C441344D7
:1016680093FBF4F070BC7047056B426DC16A02FBD6
:1016780005F2006D6C1800FB0123EFE74569826BEA
:1016880002FB05F20121530005FA01F400EB810C7D
:10169800DCF81450DCF838602C1906FB053393FB92
:1016A800F4F070BC70470131F0E700BF2DE9F04756
:1016B800D0E9054AD0F81C90012504EB0A035445EB
:1016C800066B4B44ACBF0021012180F8C150D0E922
:1016D800088ED0E90AC743448A00734485186344D6
:1016E8006D693B444D4533444FEAD30307EE903AC6
:1016F800B8EEE70A80ED350A01DA022108228518DA
:101708006D69454501DA03210C2285186D69754517
:1017180001DA0421102285186D69654501DA052171
:10172800142285186D69BD4201DA06211822024487
:10173800B4F5967F5569CCBF01240024B542ACBFEF
:101748000D460725BAF5967FC8BF0134B9F5967FCF
:10175800C8BF0134B8F5967FC8BF0134BEF5967F7F
:10176800C8BF0134BCF5967FC8BF0134B7F5967F72
:10177800C8BF0134B6F5967FC8BF0134B3F5FA7F08
:101788004AD800EB85014F69B7F5967F13DCD0ED99
:10179800320A9FED287AF4EEC70AF1EE10FA43D424
:1017A8009FED251AF4EEC10AF1EE10FA32DD03249A
:1017B80080F8C1402EE04FF0010E294682469FED89
:1017C8001F7A80F8C0E0FFF735FF01EE900A691C28
:1017D8005046B8EEE12A62EE072ACAED322AFFF730
:1017E80029FF03EE100A691E5046F8EEC33A23EEAD
:1017F800874A8AED334AFFF71DFF04EE900A00205E
:10180800CAF8C440B8EEE45A8AF8C10065EE075A2F
:10181800CAED345ABDE8F0874FF00309C0F8C44058
:10182800A0F8C090BDE8F087022680F8C160BDE846
:10183800F08700BFCDCC4CBFCDCC4C3F0000003B67
:101848002DE9F8434FF000090646144D4FF47A7419
:1018580000F114084F464946284600F031F8D8F8F8
:101868004830D8F86C2009F10109C01A08F10408B9
:1018780004FB00F090FBF2F1D1F57A7354BF48F8FD
:10188800043C48F8047CB9F1080FE4D1012530463E
:10189800FFF70CFF3573BDE8F88300BF5401002043
:1018A800704700BF10B50446042102F095FA20469F
:1018B80010BD00BF014B0360704700BF7C4E00089D
:1018C80008B501230848C9B21A46FFF7B1FC064813
:1018D800FFF726FD02210448FFF758FD0028F9D03C
:1018E8000148FFF739FD08BD0020014030B501214E
:1018F80087B0104C4FF48070FFF77AFA0125002268
:10190800204669468DF814508DF8042000928DF811
:1019180005200492CDE90222FFF7E0FB2946204684
:10192800FFF75CFC2B462A4620460B21FFF780FC7C
:1019380007B030BD002001402E4A4FF0030C2DE9BE
:10194800F043136B83B02C4D4FF0010802AC43F009
:1019580007010027284611634FF0100944F8088D45
:1019680021468DF804C020268DF80770FFF740F84F
:1019780007F1804302222146284603F502370092E8
:10198800FFF736F80422214628460092FFF730F880
:101998000823214628460093FFF72AF821462846BF
:1019A800CDF80090FFF724F8214628460096FFF767
:1019B8001FF84022214628460092FFF719F8802395
:1019C800284621460093FFF713F821463846CDF8FC
:1019D8000090FFF70DF821460848CDF80080FFF782
:1019E80007F8214638460096FFF702F803B0BDE82D
:1019F800F08300BF003802400000024000040240AB
:101A080010B50446FFF798FF2046BDE81040FFF7E1
:101A18006DBF00BF704700BF10B50446042102F037
:101A2800DBF9204610BD00BF014B0360704700BFC3
:101A38008C4E00082B4A2C4B106BA3F5704CF0B45D
:101A480040F2FF174E0029490024384310639D686F
:101A580025F4402098609D6845F4402098601D68F2
:101A680025F4402018601D6845F400201860156BA7
:101A78003D430C271563986820F440159D609868CD
:101A880040F440159D60186820F440151D601868E2
:101A980040F400151D60586A20F0F0055D62586A30
:101AA80040F070055D62586A20F470655D62586A9E
:101AB80040F4E065B1FBF6F65D62516C41F010034D
:101AC8005364CCF80440CCF80070CCF80840CCF84B
:101AD8000C60DCF8002042F00104CCF80040F0BCB7
:101AE800704700BF003802400000024000E6DF0CEB
:101AF80010B50C4680210548FFF788FA0028F9D070
:101B080021460248BDE81040FFF748BA00100140DE
:101B18004FF080431A69D20777D54FF6FE7070B53B
:101B280000243A4D186115E0DCF80C305E1ECCF844
:101B38000C600134A600301905EB800CDCF80C2091
:101B4800002A35D0DCF80C00461ECCF80C600134B5
:101B5800102C55D0A600311905EB810CDCF80C309F
:101B6800002BE1D1DCF80820CCF80C209CF8100000
:101B7800FF2805D09CF810100131CBB28CF810303A
:101B8800301905EB800C9CF81120002AD1D155F8AA
:101B9800201011B155F820309847264405EB8606E9
:101BA80070680028C5D07068026891688847C0E7E7
:101BB800DCF80810CCF80C109CF81030FF2B05D07E
:101BC8009CF810000130C2B28CF81020311905EBD6
:101BD800810C9CF81130002BB9D155F8210010B1B7
:101BE80055F821209047264405EB860671680029A0
:101BF800ADD07068013403689A689047102CA9D159
:101C0800034C25680135256070BD70470C00002025
:101C180008000020704700BF704700BFF0B472B6DC
:101C28006D4C206800284AD067694FF0FF30002FBC
:101C38004DD0A66A002E51D0E56B002D55D0276DEA
:101C4800002F59D0666E002E5DD0A56F002D61D093
:101C5800D4F88C70002F65D0D4F8A060002E6AD01C
:101C6800D4F8B450002D6FD0D4F8C870002F74D0B9
:101C7800D4F8DC60002E79D0D4F8F050002D7ED056
:101C8800D4F80471002F00F08480D4F81861002E75
:101C980000F08980D4F82C51002D00F08E80451C6E
:101CA8000AD000EB80050027AD0066196751716006
:101CB800B260F2603774737462B6F0BC70476568DE
:101CC80067692E1C18BF01267042002FB1D1A56983
:101CD800A66A002D08BF0120002EADD1E76AE56B8A
:101CE800002F08BF0220002DA9D1266C276D002ED9
:101CF80008BF0320002FA5D1656D666E002D08BFB3
:101D08000420002EA1D1A76EA56F002F08BF0520C3
:101D1800002D9DD1E66FD4F88C70002E08BF0620E8
:101D2800002F99D1D4F89050D4F8A060002D08BFA6
:101D38000720002E94D1D4F8A470D4F8B450002F02
:101D480008BF0820002D8FD1D4F8B860D4F8C87027
:101D5800002E08BF0920002F8AD1D4F8CC50D4F81F
:101D6800DC60002D08BF0A20002E85D1D4F8E07071
:101D7800D4F8F050002F08BF0B20002D80D1D4F8E4
:101D8800F460D4F80471002E08BF0C20002F7FF4F3
:101D98007CAFD4F80851D4F81861002D08BF0D2085
:101DA800002E7FF477AFD4F81C71002F7FF472AF48
:101DB800D4F82C0140B10E2073E7D4F83061002E1E
:101DC8007FF46DAF0F206CE7D4F8300100280CBF0A
:101DD8000F200E2065E700BF0C00002001EB8101F9
:101DE800054B002003EB810CCCF80C20CCF8082024
:101DF8008CF81000704700BF0C00002082B072B64B
:101E0800034B1868019062B6019802B0704700BF92
:101E180008000020014B1868704700BF0800002028
:101E280084B072B60C480368029362B6029A1144F1
:101E3800019172B60168039162B6039A019B9A42B6
:101E480008D200BF72B60168039162B6039B019A7B
:101E58009A42F6D804B070470800002082B072B6E3
:101E6800034B1968019162B6019A026002B070478B
:101E78000800002082B072B6044B1968019162B65E
:101E880002680198801A02B0704700BF080000205D
:101E980030B58BB0002945D0254BDFED267A994225
:101EA8009FED256A28BF194607EE101AB8EEC70A33
:101EB800C7EE806AFCEEE60A10EE905A2D0C681CFC
:101EC80001EE100AF8EEC11A86EEA12A72EE462A31
:101ED800BCEEE23A13EE101A8CB201210846FEF766
:101EE80065FF01A8FEF71EFF002205A94FF08040FC
:101EF80008920595CDE90624FEF744FA01214FF032
:101F08008040FEF7D3FA01224FF080401146FEF7D9
:101F1800FDFC0A4B10204FF0805183F81C03196018
:101F28000BB030BD4FF6FC7440F23735D5E700BF33
:101F3800C0FC9B0160FE4D4C0000803F00E100E0CA
:101F480070B54FF47A74574B0022574E21461A60E9
:101F58005A609C60DA601A745A745A619A61DC613A
:101F68001A6283F8242083F825209A62DA621C63B7
:101F78005A6383F8382083F83920DA631A645C647A
:101F88009A6483F84C2083F84D201A655A659C653D
:101F9800DA6583F8602083F861205A669A66DC6601
:101FA8001A6783F8742083F875209A67DA67C3F88C
:101FB8008040C3F8842083F8882083F88920C3F8F8
:101FC8008C20C3F89020C3F89440C3F8982083F875
:101FD8009C2083F89D20C3F8A020C3F8A420C3F850
:101FE800A840C3F8AC2083F8B02083F8B120C3F828
:101FF800B420C3F8B820C3F8BC40C3F8C02083F8A5
:10200800C42083F8C520C3F8C820C3F8CC20C3F87F
:10201800D040C3F8D42083F8D82083F8D920C3F857
:10202800DC20C3F8E020C3F8E440C3F8E82083F8D4
:10203800EC2083F8ED20C3F8F020C3F8F420C3F8AF
:10204800F840C3F8FC2083F8002183F80121C3F885
:102058000421C3F80821C3F80C41C3F8102183F800
:10206800142183F81521C3F81821C3F81C21C3F8DB
:102078002041C3F8242183F8282183F82921C3F8B3
:102088002C21C3F83021C3F83441C3F8382183F830
:102098003C2183F83D2132600260FFF7F9FE62B609
:1020A80070BD00BF0C00002008000020704700BF72
:1020B80010B50446042101F08FFE204610BD00BF74
:1020C800014B0360704700BF9C4E00080023024983
:1020D800024A0B60136070474C0100205001002039
:1020E80006495822064B086802FB00F283FB021CD3
:1020F800D1179444C1EBEC10704700BF4C0100208D
:10210800B7600BB606495822064B086802FB00F276
:1021180083FB021CD1179444C1EBEC10704700BF3D
:1021280050010020B7600BB606495822064B0868D4
:1021380002FB00F283FB021CD1179444C1EBEC10A4
:10214800704700BF4C010020B7600BB60649582203
:10215800064B086802FB00F283FB021CD11794446B
:10216800C1EBEC10704700BF50010020B7600BB600
:10217800704700BF704700BF0020704700207047BD
:10218800704700BF10B50446582101F025FE2046CF
:1021980010BD00BF014B0360704700BFAC4E000884
:1021A800026D2DE9F84F136889468A4F04469968ED
:1021B800B94240F009815E69874DAE4240F0FD802A
:1021C800AE4240F0F4809968B94240F0EB805E6915
:1021D800AE4240F0E180D3F81880804EB04540F020
:1021E800D0804FF0000AB04540F0C180D968DFF8D0
:1021F800FC81414540F0B880BAF1000FB8BF0AF140
:10220800010A4AF34F0BB9F1000F28D0236B226D56
:102218005B44236313689968B94264D1D3F8149076
:10222800A94568D1A9456FD19968B94274D15F6948
:10223800AF4278D19D69B5427DD1B5424FF00007D4
:1022480040F08480DE68464540F08B8000210125FF
:10225800E76084F83550C4E90111BDE8F88FD4E986
:1022680010235F48C4E91223FFF7D4FD216B5D4AB0
:102278004FF4CD7CABEB010AE16AA36C0CFB0AFBC3
:1022880002FB01FCA16AC31A206402FB01FE564945
:1022980003FB0BFA03FB0CF203FB0EF34FEAEA7E97
:1022A80081FB0ACA4FEAE27C81FB02B281FB03B1DF
:1022B800DB17CEEBAA4BC4F84490C3EBA140616A8C
:1022C800CCEBA24AC4F818B05944D4E907C26162F9
:1022D80052448444C4E907C2226D13689968B9421C
:1022E800C4E9040A9AD010468847226D1368D3F8C7
:1022F8001490A94596D01046D421C847226D13687A
:10230800D3F81490A9458FD010462D21C847226DC7
:1023180013689968B9428AD010468847226D1368B5
:102328005F69AF4286D01046D521B847226D136841
:102338009D69B54281D010460121A847226D00024F
:10234800136807B29D69B5423FF47CAF104600217F
:10235800A847226D074313683FB2DE6846453FF43D
:1023680075AF1046B04771E71046884744E71046F6
:102378000021C047226D4AEA000113680FFA81FA6A
:1023880034E710460121C047226D000213680FFA96
:1023980080FAD3F8188026E71046D521B047226D79
:1023A800136818E710468847226D13680FE7104630
:1023B8001D21B047226D136805E71046D421B047A8
:1023C800226D13685E69FBE610468847226D136824
:1023D800F1E600BF79210008812100088521000865
:1023E800F803002066FEFFFF83DE1B437D21000803
:1023F8000021FFF7D5BE00BFF8B5044642F21073BE
:10240800016500BF00BF00BF00BF00BF00BF00BF25
:1024180000BF083BF5D184F834300F22D421206D59
:1024280000F056FF682840F0CA80012084F8340084
:1024380088231022D421206D00F008FF38231E22A3
:10244800D421206D00F002FF00232E22D421206D1C
:1024580000F0FCFE00231222D421206D00F0F6FECD
:1024680060232022D421206D00F0F0FE1F22D42109
:102478003823206D00F0EAFE40F2D66242F2107175
:10248800A26300BF00BF00BF00BF00BF00BF00BF06
:1024980000BF0839F5D1202700212046FFF780FE2C
:1024A80000212046FFF77CFE00212046FFF778FE3A
:1024B80000212046FFF774FE00212046FFF770FE3A
:1024C80000212046FFF76CFE00212046FFF768FE3A
:1024D80000212046FFF764FE083FDDD14FF47A76ED
:1024E8003B4D2763C4E90A7701212046FFF758FED0
:1024F80001212846FFF794FC01212046FFF750FEF2
:1025080001212846FFF78CFC01212046FFF748FEF1
:1025180001212846FFF784FC01212046FFF740FEF1
:1025280001212846FFF77CFC01212046FFF738FEF1
:1025380001212846FFF774FC01212046FFF730FEF1
:1025480001212846FFF76CFC01212046FFF728FEF1
:1025580001212846FFF764FC01212046FFF720FEF1
:1025680001212846FFF75CFC083EBDD1D4E90BCE1B
:10257800A06A184F2661A7FB0E53A7FB0001A7FB13
:102588000C0213488D0966629909E6609709216370
:10259800C4E90566C4E90766C4E90166C4E90A57DF
:1025A800FFF72CFC666420643346A0640A222146A7
:1025B800E6640748FFF732FB84F83560F8BD0F2260
:1025C800D421206D00F084FE69287FF431AF2CE718
:1025D800F8030020D34D621090F83400704700BF14
:1025E800034B10B504460360FFF714FA204610BDEC
:1025F800C04E0008054B10B504460360FFF70AFA01
:102608000421204601F0E8FB204610BDC04E00081A
:1026180010B50446FFF708FA014B2046236010BDA9
:10262800C04E000838B50C46097839B10546284629
:10263800FFF75EFA14F8011F0029F8D138BD00BF72
:102648000029F0B5044685B031DB002700230A25B0
:10265800184E8DF80F3000E01D4686FB0132C81772
:1026680005F1FF3CC0EBA2005FFA8CF30DF1100CF2
:1026780000EB8002AC44A1EB4202014630320CF878
:102688000C2C0028E8D12FB104A92D201D4619448F
:1026980001F80C0C01AB595D1D4431B12046FFF720
:1026A80027FA15F8011F0029F8D105B0F0BD4942F5
:1026B8000127CBE76766666670B5002384B00446D9
:1026C8000A258DF80F30124E00E06546A6FB013250
:1026D800681ED2085FFA80FC02EB8203A1EB43007C
:1026E800114604AA30302A4402F80C0C0029ECD117
:1026F8000DF1040C1CF80510654431B12046FFF7B4
:10270800F7F915F8011F0029F8D104B070BD00BF12
:10271800CDCCCCCC07EE101AB5EEC07AF8B5F1EEF8
:1027280010FA054614462DED028B00F1DD802021BC
:10273800002C00F0DF8014F007004FF001074FF085
:10274800000227D0B8421ED0022818D0032812D081
:1027580004280CD0052806D0062840F0CE8007EBC8
:10276800870301325F0007EB87060132770007EB2A
:10277800870701327F0007EB87000132470007EB2C
:10278800870301325F00013207EB8706A2424FEA56
:10279800460721D007EB87030832D800A24200EB96
:1027A80043064FEAC60707EB46004FEAC00303EBB0
:1027B80040064FEAC60707EB46034FEAC30000EBA3
:1027C80043064FEAC60707EB46004FEAC00303EB90
:1027D80040064FEA4607DDD107EE907AB8EE670A61
:1027E800BDEEC78A28460127F8EEC86A77EE660A62
:1027F80020EE801AFDEEC11A11EE906A002EB8BFC5
:102808007642FFF775F918EE101A2846FFF718FFF9
:102818002E212846FFF76CF9002107EB87020131CA
:102828005700C9B2BE42F8DC641A14F0FF0453D052
:1028380014F007004FF000072BD0012822D00228FF
:102848001BD0032814D004280DD0052806D006284C
:1028580056D1302128460137FFF74AF9302128465A
:102868000137FFF745F9302128460137FFF740F9CE
:10287800302128460137FFF73BF930212846013738
:10288800FFF736F9013730212846FFF731F9BC4206
:1028980022D030212846FFF72BF930212846083767
:1028A800FFF726F930212846FFF722F9302128467C
:1028B800FFF71EF930212846FFF71AF9302128467C
:1028C800FFF716F930212846FFF712F9302128467C
:1028D800FFF70EF9BC42DCD131462846BDEC028B2D
:1028E800BDE8F840FFF7ACBEB1EE477A2D21002CC9
:1028F8007FF421AF9FED050A72E70A2701222EE730
:10290800302128460127FFF7F3F8A2E70000803FAF
:1029180070B504464248636804F12C062DED048B1B
:10292800A360FFF777FAA3686060B0EB030C3D483B
:102938009FED3D9A14BF65460125D4E90512E16073
:102948002261FFF7F1FB60613648FFF7FFFB07EEF6
:10295800905A63690146E568B8EEE70A226904F10E
:1029680044005B1B9FED314A8A1ADFED315A07EEAE
:10297800103A94ED076A06EE902ADFED2E4AB8EE7B
:10298800C71A94ED085AF8EEE60AD4ED092A66EE5D
:10299800247AA16121EE042A60EE841A65EE243AB5
:1029A80022EE258A21EEA53AC8EE009AC3EE008AE7
:1029B80079EEA76A32EEE64AC4ED076A16EE902A67
:1029C80038EEA30A14EE101A84ED080A01F0ACFEE2
:1029D80094ED087AD4ED0A0A08EE900A17EE102A48
:1029E80004F1700070EEC75A15EE901A01F09CFEC3
:1029F80028EE891A08EE100A3046BDEEC15A15EEC7
:102A0800101A00F0A7F928EE099A3046FDEEC91A07
:102A1800BDEC048B11EE901ABDE8704000F0AAB925
:102A2800F8030020F801002000007F43CDCCCC3D06
:102A3800E4380E3F6666663F084B10B5044640F81A
:102A48002C3B00F07FF804F1440001F03FFE04F154
:102A5800700001F03BFE204610BD00BFD04E0008BC
:102A68002DE9F047044682B04FF07F59DFF87880AF
:102A78001B4E4FF07E5A2C301A4F00F0EBF804F141
:102A880044004B4642463146CDF800A001F034FEE2
:102A98004B464246314604F17000CDF800A001F0E3
:102AA8002BFE3846FFF7AAF900254FF0000C034625
:102AB8002146384663600522A3602B46E560A56180
:102AC800C4F81CC0C4F820C0C4F824C0C4F828C086
:102AD800C4E90455FFF7A2F8284602B0BDE8F0871C
:102AE8006666A63FF80300209A99193EC0697047A8
:102AF800006A7047084B10B5044640F8703B01F077
:102B0800DBFD04F1440001F0D7FD04F12C0000F0D6
:102B18000FF8204610BD00BFD04E000810B504467F
:102B2800FFF7E8FF9C21204601F056F9204610BD2A
:102B3800704700BF10B50446182101F04DF9204632
:102B480010BD00BF3F49404A404B70B40E6B40F285
:102B5800FF1503602E433E4B0E639668426026F4D1
:102B680040569660966846F440569660566826F039
:102B78004006566056685660166826F44056166039
:102B8800166846F4805616600A6B2A430A639E68E4
:102B9800836026F440029A609E6846F440029A6078
:102BA8005E6826F400625A605E685E601A6822F405
:102BB80040061E601A6842F480061E600A6B2A43AB
:102BC8000A639E68C36026F040629A609E6846F079
:102BD80040629A605E6826F400525A605E685E60E1
:102BE8001A6822F040661E601A6842F080661E600D
:102BF8000A6B2A430A639E68036126F440129A60AE
:102C08009E6846F440129A601E6826F440121A60C4
:102C18001E6846F400121A600E6B35430D639968FE
:102C2800436121F040759D609C6844F040729A6051
:102C38001E6826F0407119601D6845F000741C601C
:102C480070BC70470038024000040240E44E00089F
:102C580000100240D0F804C001212DE9F043DCF84F
:102C6800143005468FB03A4C2A6943F040030846B1
:102C78000026CCF814300227D2F814806B6928F4A7
:102C88008069C2F81490D3F814E02EF4805CC3F87D
:102C980014C0D2F8248028F470694FF48078C2F800
:102CA80024904FF00109D2F824E04EF4807CC2F859
:102CB80024C05A6A22F470225A625A6A42F4803254
:102CC8005A62FEF795F84FF4E153204601A905969C
:102CD800CDE90338CDE90176FDF754FB2046012103
:102CE800FDF7E4FB60220A970427099620460D9613
:102CF800082606A906920B96CDF83080CDE90797ED
:102D0800FDF7D2FC31462046FDF7AAFD06A920466C
:102D1800FDF720FC31462046FDF768FD4946204670
:102D2800FDF7CEFD41F20F60D5E902C140F6073547
:102D38004B6943F400524A61E563DCF8147027F4E8
:102D48000066CCF81460A0630FB0BDE8F08300BF44
:102D580000000140C3680029054840F607315A6958
:102D6800CCBF22F4005242F400525A61C16370474A
:102D78000000014083680029054841F20F615A6943
:102D8800CCBF42F4006222F400625A61816370474A
:102D980000000140704700BF10B50446982101F0BB
:102DA8001BF8204610BD00BF10B50E2104466C4824
:102DB8002DED048BFEF784FD07EE900A0821684884
:102DC800F8EEE78AFEF77CFD00EE100A0F21644852
:102DD8009FED649AB8EEC08AFEF772FD9FED627AA5
:102DE80000EE900A94ED114A68EE899A94ED131A50
:102DF80037EE446ADFED5D3AF8EEE05AD4ED184A52
:102E080068EE098AD4ED161A77EE646A94ED1F5AB3
:102E180025EE898A94ED1A2A39EEC19AA26C66EEDB
:102E2800235AC4ED129A77EE452A94ED213A26EEFC
:102E3800A37A94ED1D6A65EE896A84ED141A24EE6E
:102E4800614A636D38EEC20A606E62EEA37AD4ED11
:102E5800243A76EE849AC4ED198A78EE430ADFEDB7
:102E6800428A67EE002AD4F88010F5EEC09AC4EDC5
:102E7800159A64EEC64A84ED208A27EEA01A9FEDC3
:102E88003B0AF1EE10FAD4F870C032EEA49AE2646C
:102E980025EE635AD4F88C2048BFF1EE699ADFED2D
:102EA800347AB5EEC09A84ED1C9A71EE055AC4F8CE
:102EB800902038EEE98AC4ED171AF1EE10FAA365EE
:102EC800F5EEC05A84ED1B2AA0664FF0010048BFFA
:102ED800B1EE499A84ED223AF1EE10FAC4F8841062
:102EE800B4EEC08A84ED1E6AC4ED253AC4F874C0F5
:102EF800C4ED235A48BFF1EE655AF1EE10FA9FED82
:102F08001A2AB4EEE78ADFED181AA36A32EE493AB4
:102F18004CBF01220022F1EE10FA84ED028A31EE54
:102F2800E57A227484ED013A4CBF0122002213F0A5
:102F3800030184ED037A6274207509D1A06942699E
:102F480022F0080141610133BDEC048BA36210BD7E
:102F58000229F8D1A069426942F008014161F2E70B
:102F680054010020000080390000803F0000003F2D
:102F78000000803EF0B5424D40F2FF1741492A6BF0
:102F8800414C3A4304602A6300228E68816126F02E
:102F9800C00C3E4C3E4EC1F808C0D1F808E0DFF83E
:102FA800F4C04EF0C00EC1F808E0D1F804E02EF0ED
:102FB800080EC1F804E0D1F804E0C1F804E0D1F843
:102FC80000E02EF0C00EC1F800E0D1F800E04EF0AD
:102FD800400EC1F800E0D5F830E04EEA070EC5F81B
:102FE80030E0D4F800E0C4612EF4407EC4F800E07C
:102FF800D4F800E04EF4407EC4F800E0D5F830E0A4
:103008004EEA070EC5F830E0D6F800E006622EF06A
:10301800030EC6F800E0D6F800E04EF0030EC6F83E
:1030280000E02E6B37432F632568446225F4406720
:103038002760266846F4406525604C69426524F09F
:1030480008078265C2658264C264026502674267D6
:10305800826742668266C266C0F88C20C0F89020FB
:10306800C0F89420C0F88020C0F88420C0F88820D8
:10307800C0F844C0C0F860C0C0F87CC04F61F0BD63
:103088000038024000100240F44E000800080240D8
:1030980000040240CDCC4C3FF8B5044600254FF063
:1030A8007E500222A7692B46A56221467E6926F03A
:1030B80008067E616060A060E0602574657406485B
:1030C800C4E90B55C4E90D55C4E90F55FEF7A6FD33
:1030D80025752846F8BD00BFF8030020704700BFDB
:1030E800027B836832B901210173586920F001021B
:1030F8005A61704700210173586940F001025A6112
:10310800704700BF10B50446182100F065FE204640
:1031180010BD00BF1C491D4A1D4B70B40D6B40F219
:10312800FF16036035431B4B0D639568426025F01D
:1031380040759560956845F040759560156825F06F
:103148004075156015681560D56845F08075D560BF
:103158000A6B32430A639968836021F003069E6014
:103168009C6844F003059D605A6822F0010159608B
:103178005E685E601C6824F003051D601A6842F0F2
:103188000101196070BC7047003802400008024015
:10319800084F0008000C02404FF0FF3100234FF4A5
:1031A800FA7210B504464161037301460248FEF7FE
:1031B80035FD206110BD00BFF8030020436870B5DD
:1031C80004461869C10404D500BF61680A69D204BD
:1031D800FAD401256422217C65611148FEF7FEFDC1
:1031E8000F48FEF70BFE0E4D00F5FA666368284699
:1031F8001969CB0412D4FEF701FEB042F6D9606912
:103208000128F3D13222217C2846FEF7E7FD6368C6
:103218000222284619696261CB04ECD5606970BD49
:10322800F803002014234360704700BF704700BFB5
:1032380010B50446082100F0CFFD204610BD00BFA0
:10324800014B0360704700BF1C4F00082DE9F04395
:10325800046883B01B4E0746A56891469846B54258
:103268000ED16269184EB24212D1B24216D1B242A0
:103278001BD1E368154883421FD103B0BDE8F08332
:103288000191A8473C68104E62690199B242ECD09E
:10329800384690473C686269B242E8D049463846A9
:1032A80090473C686269B242E3D04146384690474D
:1032B8003C680648E3688342DFD0384603B0BDE87F
:1032C800F043184779210008812100087D21000872
:1032D8002DE9F84303688846274F044699689146C4
:1032E800B94218D15E69254DAE421AD1AE421FD1FE
:1032F8009A68BA4223D15F69AF4226D19D692048B6
:1033080085422BD1D9684FF000081E4EB1422ED10C
:103318004046BDE8F88388472368184D5E69AE4289
:10332800E4D041462046B04723685E69AE42DFD00C
:1033380049462046B04723689A68BA42DBD02046FF
:10334800904723685F69AF42D8D048F00101204612
:10335800B84723680A489D698542D3D00021204692
:10336800A8472368074E8046D968B142D0D0204686
:1033780088474046BDE8F883792100088121000884
:10338800852100087D21000843682BB1002100BF7A
:10339800013142688A42FAD8704700BF704700BFBF
:1033A8001A4A14211A4B30B4146B40F2FF154160CD
:1033B8002C4314639968836021F00C049C6099681D
:1033C80041F00C049C60196821F00C041C60196819
:1033D8001960146B2C4314639A68C36022F03000A0
:1033E80098609D6845F0300199601C6824F03002AF
:1033F8001A60186818605D6925F0020159615C69F6
:1034080024F0040230BC5A61704700BF0038024003
:10341800000C024010B50446082100F0DDFC2046EF
:1034280010BD00BF034B10B504460360FFF7FEFE56
:10343800204610BD404F0008054B10B504460360F8
:10344800FFF7F4FE1021204600F0C6FC204610BD10
:10345800404F0008D0E902C2916821F03003936020
:10346800916841F030039360516821F00403536080
:1034780051685160136823F030011160136843F0FC
:1034880010011160DCF8083023F00C01CCF80810AA
:10349800DCF8083043F00C01CCF80810DCF80430F4
:1034A80023F00201CCF80410DCF80430CCF8043026
:1034B800DCF8001021F00C03CCF80030DCF8001028
:1034C80041F00403CCF80030916821F03003936098
:1034D800916841F030039360116821F03003136064
:1034E80011681160DCF8083023F00C01CCF80810E2
:1034F800DCF8083043F00C01CCF80810DCF8043094
:1035080023F00201CCF80410DCF80430CCF80430C5
:10351800DCF8001021F00C03CCF80030DCF80010C7
:1035280041F00403CCF80030916821F03003936037
:10353800916841F030039360116821F03003136003
:1035480011681160DCF8082022F00C03CCF8083070
:10355800DCF8081041F00C02CCF80820DCF8003048
:1035680023F00C01CCF80010DCF80020CCF8002087
:10357800FFF70ABFD0E902C2916821F030039360D7
:10358800916841F030039360116821F030031360B3
:1035980011681160DCF8083023F00C01CCF8081031
:1035A800DCF8083043F00C01CCF80810DCF80030E7
:1035B80023F00C01CCF80010DCF80030CCF8003017
:1035C800916821F030039360916841F03003936073
:1035D800116821F03003136011681160DCF80830BD
:1035E80023F00C01CCF80810DCF8083043F00C018B
:1035F800CCF80810DCF8043023F00201CCF80410F1
:10360800DCF80430CCF80430DCF8001021F00C03AE
:10361800CCF80030DCF8001041F00403CCF800309E
:10362800916821F030039360916841F03003936012
:10363800516821F00403536051685160136823F006
:1036480030011160136843F010011160DCF80820A4
:1036580022F00C03CCF80830DCF8081041F00C021A
:10366800CCF80820DCF8003023F00C01CCF800106E
:10367800DCF80020CCF80020FFF786BE70B50446C1
:103688000E46082520E0026822F00C03036001685A
:1036980001602046013DFFF777FEE368204676008B
:1036A8009A68F6B222F0300199609A6842F03001C7
:1036B80099601A6822F0300119601A681A60FFF7D9
:1036C80063FE15F0FF0533D0E36820469A6822F0C0
:1036D800300199609A6842F0300199605A6822F086
:1036E800040159605A685A60196821F030021A605A
:1036F800196841F010021A60FFF746FEA068836857
:1037080023F00C018160826842F00C03320683606A
:10371800B9D4416821F002024260436843600168FD
:1037280021F00C020260036843F004010160B0E775
:10373800E3682046996821F030029A609E6846F056
:1037480030059D60596821F004025A605E685E6029
:103758001D6825F0300119601A6842F010061E60D5
:10376800FFF712FEA36820469D6825F00C019960BA
:103778009A6842F00C069E601D6825F00C011960DD
:103788001A681A60FFF700FEE36820469E6826F074
:1037980030059D60996841F030029A601E6826F0F5
:1037A80030051D6019681960FFF7EEFD2046D4E961
:1037B80002C3DCF810409A6822F030069E609D68CB
:1037C80045F0300199605A6822F004065E605D6831
:1037D8005D60196821F030021A601E6846F0100515
:1037E8001D60FFF7D1FD84F00200C0F3400070BDFA
:1037F8008268F8B593680F460446082623F00C0142
:1038080000259160936843F00C019160136823F0E0
:103818000C01C3681160116811609A6822F03001C8
:1038280099609A6842F0300199605A6822F0040160
:1038380059605A685A60196821F030021A6019688C
:1038480041F010021A60FFF79FFDE36820466D0003
:10385800013E9968EDB221F030029A60996841F012
:1038680030029A60196821F030021A6019681960EC
:10387800FFF78AFDA368E16820461A6993078B68F9
:1038880023F0300248BF45F001058A608B6843F099
:1038980030028A604B6823F004024A604B684B6030
:1038A8000A6822F030030B600A6842F010030B60CC
:1038B800FFF76AFD16F0FF06C7D1A068816821F0FE
:1038C8000C028260836843F00C068660002F48D1A2
:1038D800076827F00C010160026802602046FFF7C4
:1038E80053FDE7682046B96821F03002BA60BB682A
:1038F80043F03006BE60396821F030023A603B6818
:103908003B60FFF741FDE7682046BE6826F03001BE
:10391800B960BA6842F03003BB607E6826F00401E3
:1039280079607A687A603B6823F030063E603968CF
:1039380041F010023A60FFF727FDA7682046BC68EF
:1039480024F00C03BB60BE6846F00C01B9603A680D
:1039580022F00C043C603B683B60FFF715FD2846ED
:10396800F8BD436823F0020646604768476001686F
:1039780021F00C020260036843F004060660ADE71C
:10398800F8B505464FF4E13175486A68754C5369D6
:1039980043F001065661FEF74DF873497048FEF78B
:1039A80041FE72496E48FEF73DFE71496C48FEF7CC
:1039B80039FE00F009FA07466E496948FEF732FEFB
:1039C8003946674840F2FF17FEF776FE6A496448B1
:1039D800FEF728FE69496248FEF724FE6848FEF7AC
:1039E800AFFA14216648FEF71BFA66495C48FEF7F1
:1039F80019FE65495A48FEF715FE644A644B1420BF
:103A0800116BA3603943E36011639E68606026F020
:103A18000C0199609E685B4946F00C0098601E682E
:103A280026F00C0018601E684D481E60166B3E4359
:103A380016639A6822F030079F609E6846F030024D
:103A48009A601F6827F030061E601A681A605F695E
:103A580027F002065E615A6922F004075F61FEF7EB
:103A6800E1FD4C493E48FEF7DDFD21464A48FEF798
:103A7800C3FC3B484949FEF7D5FD4748FEF7ACFD76
:103A8800002868D146493648FEF7CCFD3A49344803
:103A9800FEF7C8FD43493248FEF7C4FD4248FDF72A
:103AA800AFFF38492E48FEF7BDFD40492C48FEF7C8
:103AB800B9FD3F48FDF748FD32492948FEF7B2FDF8
:103AC8003C492748FEF7AEFD3B48FFF7E5FA2D498C
:103AD8002348FEF7A7FD39492148FEF7A3FD3848DA
:103AE800FEF7F4FA27491E48FEF79CFD35491C48A5
:103AF800FEF798FD3448FEF7B3FF22491848FEF751
:103B080091FD32491648FEF78DFD3148FFF744FB19
:103B18001C491348FEF786FD2E491148FEF782FD21
:103B2800D8210F48FEF7C8FD2B490D48FEF77AFD4E
:103B38002A490B48FEF776FD29490948FEF772FD28
:103B480028490748FEF76EFD6D6800206C6924F06F
:103B580001036B61F8BD24490148FEF763FD95E751
:103B6800F4030020FC0100205C4F0008684F0008A7
:103B7800804F0008984F0008C4530008B04F000851
:103B8800F8030020C44F0008CC4F0008003802405A
:103B9800000C0240E04F000810020020F44F00081B
:103BA800145000081C500008540100203050000830
:103BB800800200204C500008580100206C5000087A
:103BC800F80100208C50000858030020AC50000871
:103BD80068020020C0500008D4500008DC500008DB
:103BE800E0500008005100080C50000870B5044669
:103BF800FFF726FB154A40F2FF16154B2046156BBA
:103C080023603543134B15639968A36021F00C05B5
:103C18009D60996841F00C059D60196821F00C05BC
:103C28001D6019681960156B354315639A68E36060
:103C380022F030049C609E6846F0300199601D684F
:103C480025F030021A601C681C6070BD0038024004
:103C5800404F0008000C0240F8B5414D40F2FF12F9
:103C6800404F2C6B40492243404B4F6008460B6045
:103C78002A63B9683E4C21F003033E4E22463E4972
:103C8800BB60BD6845F00303BB607D6825F0010398
:103C98007B607D687D603B6823F003053D603B6881
:103CA80043F001053D6000F005FD344D3046344FCA
:103CB800FEF7AEFC22463349304600F0FBFC2846AE
:103CC800FDF7A8FF22463049284600F0F3FC2F4DA7
:103CD80038462F4EFFF78AFF22462E49384600F015
:103CE800E9FC2846FEF756FA22462B49284600F0FA
:103CF800E1FC2A4D30462A4FFDF7DCFD22462949D2
:103D0800304600F0D7FC2846FDF782FB22462649BC
:103D1800284600F0CFFC254D3846254EFFF72AF9F6
:103D280022462449384600F0C5FC2846FEF7C8F963
:103D380022462149284600F0BDFC204F3046FEF7B8
:103D48007BFE22461E49304600F0B4FC3846FFF799
:103D5800E1F9224638461B49BDE8F84000F0AABC04
:103D680000380240000C0240F001002020510008F9
:103D780000040020F4030020A5330008F803002005
:103D8800FC010020E9250008211C00081002002081
:103D9800540100202D3400088921000880020020E9
:103DA80058010020A9180008F1130008F8010020A4
:103DB800580300209D2D0008B52000086802002047
:103DC800FD2A0008E5300008014B024818607047DA
:103DD800FC03002004040020704700BF2DE9F04FC9
:103DE8002DED028BADF58A5D0446D84987B0D848D9
:103DF800FEF718FCD749D648FEF714FC002C00F053
:103E0800AD83D549D248FEF70DFCD049D048FEF71E
:103E180009FCBFF34F8FBFF36F8FD04B0020C3F85F
:103E280050025F6947F400315961BFF34F8FBFF308
:103E38006F8FC3F88400BFF34F8FD3F8802043F609
:103E4800E07AC2F3C907C2F34E364FEA877E75019E
:103E58007C1C05EA0A00F446BB4614F0070646D067
:103E6800012E39D0022E2FD0032E25D0042E1BD0A0
:103E7800052E11D0062E07D040EA0E0407F1FF3BAD
:103E88000EF1404CC3F8604240EA0C060BF1FF3BD0
:103E98000CF1404CC3F8606240EA0C040BF1FF3BA4
:103EA8000CF1404CC3F8604240EA0C060BF1FF3BB2
:103EB8000CF1404CC3F8606240EA0C040BF1FF3B84
:103EC8000CF1404CC3F8604240EA0C060BF1FF3B92
:103ED8000CF1404CC3F860620BF1FF3B40EA0C0167
:103EE8000CF1404C1BF10106C3F8601220D00CF114
:103EF80000460CF140420CF18044ABF1080B40EA5B
:103F0800060840EA0C09024304431BF10106C3F802
:103F18006092C3F86022C3F86082C3F86042C3F8B5
:103F28006092C3F86022C3F86082C3F86042DED1B1
:103F3800203D15F1200F8BD1BFF34F8F5F6947F4F8
:103F480080305861BFF34F8FBFF36F8F8448FDF700
:103F580085FF9FED848A00239FED834ADFED834A26
:103F6800834A07EE903A591C9C1CDE1CB8EEE70AFF
:103F780005EE901A07EE104A05EE106AF8EEE50A0B
:103F88001D1D30EE002A5F1DB8EEC71A06EE905AC6
:103F980070EEA02A06EE107A72EE048A981D31EEB1
:103FA800013AD91D72EE847A01EE900A84EEA80ACD
:103FB80003EE901A08339342B8EEC57A73EE040AFA
:103FC800C4EEA75A37EE072AF8EEE66A84EEA05A3E
:103FD80032EE041A76EEA62AB8EEC66AC4EE818AD4
:103FE80032EE843A36EE067AF8EEE11AC4EE830A27
:103FF80037EE042A71EEA16AF8EEE33AC4EE827A4B
:1040080036EE841A73EEA32A30EE088A84EE810A0B
:1040180032EE846A78EE655A84EE863A35EE255A91
:1040280075EE688A30EEA87A77EE671A70EE210A84
:1040380030EEC38A95D14A4841F25716FDF71AFF68
:1040480008EE900A4B49002441480DF2571BFEF731
:10405800E9FAB8EE684ADFED484A03229FED472A9D
:104068000DEB060564EE246A3948C2EE263A13EED3
:10407800901AFEF74FFB42493548FEF7D3FA4149FB
:104088003348FEF7CFFA032218EE101A3048FEF72D
:1040980041FB2E492E48FEF7C5FA37234CB34FF0A3
:1040A800520A8DF858310DF5AC7B0AF11B030BF859
:1040B80001AF5FFA83FE0EF11B020BF801EF5FFA06
:1040C80082FC0CF11B070BF801CF5FFA87F909F1A5
:1040D8001B000BF8019F5FFA80F808F11B010BF831
:1040E800018FCCB204F11B060BF8014FAB45F3B2BC
:1040F8004AD003F11B028BF80130D7B207F11B003D
:104108008BF80270C4B204F11B0A8BF803405FFA03
:104118008AF101F11B068BF80410F3B203F11B02BC
:104128008BF80530D7B207F11B008BF80670C4B2C4
:1041380004F11B0E8BF807405FFA8EFC0CF11B0193
:104148000BF808CFAB45CBB2D3D11DE0C453000860
:10415800F4030020285100080C50000800ED00E08E
:10416800F8030020000000000000803F00008040AD
:1041780040420F00385100086F12833A0000A040F7
:1041880054510008605100080DF1170537240495B3
:1041980004F11B066C70F3B203F11B0BAB705FFAF2
:1041A8008BF202F11B07EA70F8B200F11B042871C8
:1041B800E6B206F11B096E715FFA89F101F11B0382
:1041C800A971DAB202F11B07EA715FFA87F808F100
:1041D8001B0005F8088FC4B2F72CD9D10DF1540B88
:1041E800372640F2F76ADE46CEF8046006F11B0176
:1041F80006F1360506F1510306F16C0206F1870750
:1042080006F1A20C06F1BD00D836CEF80810CEF89B
:104218000C505645CEF81030CEF81420CEE9067C66
:104228004EF8200FE0D14FF47A74C2480DF15706CA
:104238000194FDF713FE16A90396CDF814B0029168
:104248000DF1180BDDE90353EA1A12F0070727D01E
:10425800012F22D0022F1CD0032F16D0042F10D0EC
:10426800052F0AD0062F04D004994C784B1C013432
:104278004C7013F8016F01361E7013F8015F013599
:104288001D7013F8012F01321A7013F8017F0137DE
:104298001F7013F8011F0131197013F8010F16E090
:1042A8005E789D78DF7801361C79013558790137B9
:1042B80099790134DA79013001315E7001329D70EB
:1042C800DF701C7158719971DA7113F8080F039C2B
:1042D8000130A3421870E3D156AB00939BF90090CC
:1042E80016AA009B9BF901809BF902E09BF903C089
:1042F800166893F900A0576893F9405019FB0A61B2
:10430800966893F980A015FB097093F9C040D568A9
:1043180019FB0A6A93F9016093F9007114FB0955B6
:1043280018FB0611146993F9026019FB074793F902
:1043380041401EFB061193F9036014FB080493F92E
:1043480081001CFB061193F9C16018FB00AA93F9C0
:104358000101116018FB065593F9421018FB00770C
:1043680093F982601EFB014093F9C21093F9434010
:104378001EFB06AA1EFB015593F9021193F98360EF
:104388001CFB04041EFB017793F9C30093F9031186
:104398001CFB06AA54601CFB00551CFB017493F916
:1043A800426103F500731461C2E902A513F9BD5C0B
:1043B80013F9BF7C516913F9C00C13F980AC19FBD0
:1043C8000014906913F9401C19FB0A0AD06918FBFC
:1043D800074413F93F7C19FB010113F97F0C1EFBFD
:1043E800064613F97D4C18FB071113F93E7C18FBA0
:1043F80000A013F97EAC1CFB05651EFB0A001EFB22
:10440800071A13F93D1C1CFB040656A811FB0CA740
:10441800C2E90556D761203290427FF469AF009A0D
:104428000BF1040B029C0432A34500927FF456AFB3
:1044380001994D1E01957FF403AFDDF8149055AE38
:104448003C482C46A6EB0908FDF714FD08EE100AB7
:10445800A8F104039F08013717F0070021D00128AD
:104468001AD0022815D0032810D004280BD005280C
:1044780006D0062801D059F8044F59F8042F1444DF
:1044880059F8041F0C4459F8045F2C4459F8043FA8
:104498001C4459F8047F3C4459F8040F4E45044421
:1044A80015D0D9F81450D9F81810D9F81C20D9E922
:1044B80001ECD9E903AB744459F8203F64444E45F4
:1044C80054445C442C440C4414441C44E9D11A4917
:1044D8001A48FEF7A7F8F8EE487A9FED191A032252
:1044E800DFED182A27EE810A9FED176A134860EE60
:1044F800225A86EE253A13EE101AFEF70BF91349E5
:104508000E48FEF78FF812490C48FEF78BF8214643
:104518000A48FEF795F80F490848FEF783F80E4950
:1045280006480DF58A5D07B0BDEC028BBDE8F04F7B
:10453800FEF778B8F80300206C510008F403002057
:104548006F12833A002474490000FA4A985100080F
:10455800A4510008C4530008644F00085149524848
:10456800FEF760F851495048FEF75CF8BFF34F8FEB
:10457800BFF36F8F4E4B5A6922F400305861C3F86D
:104588005042BFF34F8FBFF36F8FC3F88440BFF320
:104598004F8FD3F880509A46596943F6E070C5F3B7
:1045A800C907C5F34E3621F4803475014FEA877E7A
:1045B8005C617E1C05EA0001F446BB4616F0070460
:1045C80046D0012C39D0022C2FD0032C25D0042C16
:1045D8001BD0052C11D0062C07D041EA0E0607F196
:1045E800FF3B0EF1404CCAF8746241EA0C040BF12F
:1045F800FF3B0CF1404CCAF8744241EA0C060BF13F
:10460800FF3B0CF1404CCAF8746241EA0C040BF110
:10461800FF3B0CF1404CCAF8744241EA0C060BF11E
:10462800FF3B0CF1404CCAF8746241EA0C040BF1F0
:10463800FF3B0CF1404CCAF874420BF1FF3B41EAD6
:104648000C020CF1404C1BF10104CAF8742220D072
:104658000CF100440CF140430CF18046ABF1080B1F
:1046680041EA040841EA0C090B430E431BF101041B
:10467800CAF87492CAF87432CAF87482CAF87462B2
:10468800CAF87492CAF87432CAF87482CAF87462A2
:10469800DED1203D15F1200F8BD1BFF34F8FBFF333
:1046A8006F8F53E414500008F4030020C45300082B
:1046B80000ED00E000207047704700BF10B50446C9
:1046C8002C21FFF789FB204610BD00BF00224FF0C8
:1046D800004110B4074C01620460C261426082620A
:1046E8008260C26002614261826142625DF8044B8D
:1046F800704700BFB451000807EE901A07EE102A61
:104708000099002237EE870A4360F1EE670A81625A
:10471800826080ED070AC0ED080AC260026142614A
:1047280082614262704700BFD0ED045A04EE102A3D
:10473800D0ED053A05EE101A35EEA57AD0ED024A0D
:1047480090ED086AD0ED077A34EE470AD0ED012AD9
:1047580025EE271A90ED093A64EE860AC0ED063A6E
:1047680070EE231AD0ED0A6AC0ED055A31EE202A00
:10477800026121EEA24AC0ED034A816032EE445A3A
:1047880075EE033AF4EEE63AC0ED093AF1EE10FAA6
:1047980003DDF0EE663AC0ED096AF1EE665AF4EE12
:1047A800E35AF1EE10FA03DDF0EE653AC0ED095A6E
:1047B80013EE900A704700BF10B5012082B0FCF7D5
:1047C800B7F9FCF769FB012800D0FEE70446092089
:1047D80002234FF4D872009008214FF48000FCF7B0
:1047E800BBF92046FCF712FA3920FCF725FB002814
:1047F800FAD04FF080500121FCF7D8FA0120FCF7DD
:1048080063FB4FF48030FCF78FFB0028F9D0312090
:10481800FCF712FB0028FAD00120FCF76DFB4FF4DF
:104828000030FCF781FB0028F9D00720FCF7CCF812
:104838000220FCF703FA0020FCF714FA4FF4A0500A
:10484800FCF734FA4FF48050FCF74EFA02B0BDE89A
:104858001040FBF7DBBC00BF08B5FBF7B1FCFFF766
:10486800ABFFBDE80840FBF7D1BC00BF2DE9F84F0E
:10487800DFF81494DFF814B409F1340ADFF810846F
:10488800D64CD74FD74ED8492046FDF7CBFED7494F
:104898002046D74DFDF7C6FED6492046FDF7C2FE95
:1048A800D5492046FDF7BEFED4492046FDF7BAFE9D
:1048B80099F8C1102046FDF7C3FE39462046FDF79A
:1048C800B1FECF492046FDF7ADFE99F8C01020464D
:1048D800FDF7B6FE39462046FDF7A4FEC949204635
:1048E800FDF7A0FED9F8C4102046FDF7E5FE3946CD
:1048F8002046FDF797FEC4492046FDF793FE0322A4
:10490800D9F8C8102046FDF705FF39462046FDF7BF
:1049180089FEBE492046FDF785FE0322D9F8CC1052
:104928002046FDF7F7FE39462046FDF77BFEB849DD
:104938002046FDF777FE0322D9F8D0102046FDF770
:10494800E9FE39462046FDF76DFEB2492046FDF7DF
:1049580069FE0322D9F8D4102046FDF7DBFE39465C
:104968002046FDF75FFEAC492046FDF75BFED9F80F
:1049780014102046FDF764FE31462046FDF752FE2E
:1049880055F8041B2046FDF75BFE5545F4D1A349B5
:104998002046FDF747FEA2492046FDF743FEA14900
:1049A8002046FDF73FFEA0492046FDF73BFE0322C7
:1049B800DBF804102046FDF7ADFE39462046FDF72A
:1049C80031FE9A492046FDF72DFE0322DBF8081038
:1049D8002046FDF79FFE39462046FDF723FE944901
:1049E8002046FDF71FFE0322DBF80C102046FDF7DA
:1049F80091FE39462046FDF715FE8E492046FDF703
:104A080011FE9BF81030002B00F0DD808A4920460B
:104A1800FDF708FE39462046FDF704FE2046874983
:104A2800FDF700FE9BF81100002800F0D1808249B4
:104A38002046FDF7F7FD20468149FDF7F3FD2046A6
:104A48007749FDF7EFFD20467E49FDF7EBFD20464F
:104A58007D49FDF7E7FDD8F810102046FDF7F0FD79
:104A680031462046FDF7DEFDD8F814102046FDF744
:104A7800E7FD31462046FDF7D5FDD8F81810204649
:104A8800FDF7DEFD20467149FDF7CCFD2046704953
:104A9800FDF7C8FDD8F81C102046FDF7D1FD3146BA
:104AA8002046FDF7BFFDD8F820102046FDF7C8FDC9
:104AB80031462046FDF7B6FDD8F824102046FDF70C
:104AC800BFFD20466149FDF7ADFD20466149FDF770
:104AD800A9FDD8F804102046FDF7B2FD314620465E
:104AE800FDF7A0FDD8F808102046FDF7A9FD3146CE
:104AF8002046FDF797FDD8F80C102046FDF7A0FDDD
:104B080020464649FDF78EFD20464549FDF78AFDBA
:104B180020465149FDF786FD50492046FDF782FDA4
:104B28004F48FDF7DDFA01462046FDF789FD394675
:104B38002046FDF777FD4B492046FDF773FD4848B1
:104B4800FDF7E0FA01462046FDF77AFD3946204692
:104B5800FDF768FD44492046FDF764FD4348FDF72D
:104B6800C5FF032201462046FDF7D4FD39462046FD
:104B7800FDF758FD3E492046FDF754FD3B48FDF73B
:104B8800B7FF032201462046FDF7C4FD20462C4905
:104B9800FDF748FD20463749FDF744FD20463549D5
:104BA800FDF740FD20463349FDF73CFD20463249DC
:104BB800FDF738FD20463149FDF734FD64213048C2
:104BC800FDF72EF95FE62F492046FDF72BFD21E77B
:104BD8002C492046FDF726FD2DE700BFF4030020F1
:104BE800FC510008F8520008BC510008E4510008C4
:104BF80098020020C4510008D4510008E851000868
:104C080000520008105200082452000840520008C0
:104C1800585200087452000884520008985200083C
:104C28009C520008A0520008B8520008C45200085C
:104C3800D0520008DC5200080C500008FC52000852
:104C4800C4530008105300082453000838530008C0
:104C58003C530008485300085C530008745300088C
:104C6800F8010020885300089C53000858030020CE
:104C7800AC530008BC530008C0530008DC500008BF
:104C8800F80300201450000880020020580100207A
:104C98001002002008B5FFF7DFFD0948FEF770FE97
:104CA8000020FFF79BF80120FFF798F80548FEF76A
:104CB80085FA05490548FDF7B5FCFFF7D7FDFEE77E
:104CC800F001002068020020C8530008F403002007
:104CD80000000000000000000102030406070809A4
:104CE80053544D3332463778785F53746450657245
:104CF8006970685F4472697665722F2F7372632FCB
:104D080073746D3332663778785F74696D2E63001B
:104D180053544D3332463778785F53746450657214
:104D28006970685F4472697665722F2F7372632F9A
:104D380073746D3332663778785F666C6173682E8A
:104D4800630053544D3332463778785F5374645058
:104D580065726970685F4472697665722F2F737225
:104D6800632F73746D3332663778785F6770696F55
:104D78002E63000000000001020304010203040680
:104D880007080953544D3332463778785F537464B3
:104D98005065726970685F4472697665722F2F7307
:104DA80072632F73746D3332663778785F7263631A
:104DB8002E630053544D3332463778785F5374640A
:104DC8005065726970685F4472697665722F2F73D7
:104DD80072632F73746D3332663778785F707772C9
:104DE8002E630053544D3332463778785F537464DA
:104DF8005065726970685F4472697665722F2F73A7
:104E080072632F73746D3332663778785F757361A8
:104E180072742E630053544D3332463778785F539B
:104E280074645065726970685F4472697665722F40
:104E38002F7372632F73746D3332663778785F61BE
:104E480064632E6300000000000000000000000002
:104E5800F5130008F9130008000000000000000026
:104E6800F1130008091400084918000800000000A0
:104E780000000000A9180008AD1800080000000094
:104E8800000000001D1A0008211A00080000000098
:104E980000000000B5200008B9200008000000004C
:104EA80000000000892100088D210008F92300086E
:104EB8000000000000000000E9250008FD250008AA
:104EC8000000000000000000FD2A0008252B000853
:104ED800192900080000000000000000392B000814
:104EE8003D2B000800000000000000009D2D000878
:104EF800A12D0008B12D00080000000000000000EE
:104F0800E53000080D310008E93000080000000015
:104F18000000000035320008393200087921000805
:104F28007D2100082D320008812100088521000814
:104F380000000000000000002D3400084134000883
:104F48007D3500085D340008A9330008853600085F
:104F5800F93700080A0A0A23232323230A0A0A0026
:104F68007465726D696E616C20696E6974205B444A
:104F78004F4E455D0A000000696E697469616C698D
:104F88007A696E67206D656D6F7279200000000088
:104F98005B444F4E455D2C206865617020737461D9
:104FA8007274206174200000696E697469616C69AB
:104FB8007A696E672074696D657220005B444F4E94
:104FC800455D0A00696E697469616C697A696E6722
:104FD8002069326320000000696E697469616C6938
:104FE8007A696E6720494D5520000000205B444FC8
:104FF8004E455D207769746820726573756C7420FE
:1050080000000000747275650000000066616C7332
:1050180065000000696E697469616C697A696E6718
:105028002061646320000000696E697469616C69BD
:105038007A696E67206C696E655F73656E736F72EF
:1050480020000000696E697469616C697A696E672D
:105058002064697374616E63655F73656E736F72E4
:1050680020000000696E697469616C697A696E670D
:1050780020656E636F6465725F73656E736F72200F
:1050880000000000696E697469616C697A696E670D
:10509800206D6F746F725F636F6E74726F6C6C20CB
:1050A80000000000696E697469616C697A696E67ED
:1050B800206B65792000000063707520737065654A
:1050C800642073657420746F20000000204D487AB6
:1050D8000A0000000A0A0000696E697469616C6957
:1050E8007A696E672073657175656E636520646F94
:1050F8006E650A0A000000006D6F746F6B6F207593
:1051080070726973696E672072656164790A0A0052
:105118000000000000000000A53300081D3400084E
:10512800636163686520656E61626C656420000078
:1051380063707520666C6F617433322070657266B7
:105148006F726D616E636520000000004D20464C53
:105158004F50530A00000000706920726573756C27
:105168007420000063707520696E743820414920EE
:10517800706572666F726D616E6365203A206D614D
:10518800747269782D766563746F72200000000070
:10519800204D6F70732F730A0000000072657375DD
:1051A8006C7420000000000000000000C1460008E8
:1051B800C5460008234A534F4E0A00002022646562
:1051C800627567223A207B0A00000000226C696E33
:1051D800655F73656E736F7222203A207B0A000048
:1051E800226C696E655F6C6F73745F747970652289
:1051F800203A20002C0A0000226C696E655F7479E1
:10520800706522203A200000226F6E5F6C696E651F
:105218005F636F756E7422203A2000002263656E0A
:105228007465725F6C696E655F706F736974696FBE
:105238006E22203A20000000226C6566745F6C695B
:105248006E655F706F736974696F6E22203A200013
:105258002272696768745F6C696E655F706F7369E5
:1052680074696F6E22203A20000000002261766582
:105278007261676522203A200000000022616463A1
:105288005F726573756C7422203A205B2000000001
:105298005D0A00007D2C0A002264697374616E63E4
:1052A800655F73656E736F72223A207B0A00000097
:1052B800226C65667422203A000000002266726F34
:1052C8006E7422203A0000002272696768742220F6
:1052D8003A0000002266726F6E745F6F62737461C9
:1052E800636C655F7761726E696E6722203A0000B1
:1052F8002C2000002266726F6E745F6F6273746197
:10530800636C6522203A000022696D755F73656ED3
:10531800736F7222203A207B0A00000022616E67B8
:10532800756C61725F7261746522203A205B0000BF
:105338005D2C0A0022616E676C6522203A205B00B2
:1053480022616363656C65726174696F6E22203ACD
:10535800205B0000226D6F746F725F636F6E7472F2
:105368006F6C6C22203A207B0A000000226C656674
:10537800745F656E636F64657222203A00000000F6
:105388002272696768745F656E636F646572222054
:105398003A000000226C6566745F7370656564226C
:1053A800203A00002272696768745F7370656564EB
:1053B80022203A007D0A000023454E440A000000DE
:0853C80072756E0A000000007E
:0453D000613C000834
:0453D4000024F400BD
:04000005080002A548
:00000001FF
