:020000040800F2
:1000000000000220A5020008890200089B020008E7
:100010008902000889020008890200080000000027
:10002000000000000000000000000000890200083D
:100030008902000800000000890200088902000807
:100040008902000889020008890200088902000864
:100050008902000889020008890200088902000854
:100060008902000889020008890200088902000844
:100070008902000889020008890200088902000834
:100080008902000889020008890200088902000824
:100090008902000889020008890200088902000814
:1000A0008902000889020008890200088902000804
:1000B000A9190008890200088902000889020008BD
:1000C00089020008890200088902000889020008E4
:1000D00089020008890200088902000889020008D4
:1000E00089020008890200088902000889020008C4
:1000F00089020008890200088902000889020008B4
:1001000089020008890200088902000889020008A3
:100110008902000889020008890200088902000893
:100120008902000889020008890200088902000883
:100130008902000889020008890200088902000873
:100140008902000889020008890200088902000863
:100150008902000889020008890200088902000853
:100160008902000889020008890200088902000843
:1001700089020008890200088902000800000000C6
:100180008902000889020008890200088902000823
:100190008902000889020008890200088902000813
:1001A0008902000889020008890200088902000803
:1001B00089020008890200088902000889020008F3
:0801C000890200088902000811
:1001C8000F49D1F8883043F47003C1F888300D4BDB
:1001D8001A68002042F001021A6098601A6822F03A
:1001E800847222F480321A60074A5A601A6822F42C
:1001F80080221A60D8604FF000638B60704700BFA0
:1002080000ED00E00038024010300024174A184979
:10021800936803F00C03042B10B50DD0082B0DD0F8
:10022800144B0B60114B144A9B68C3F30313D25C45
:100238000B68D3400B6010BD104BF2E75468506850
:1002480052686302C2F3881200F03F004CBF0B4BA8
:10025800084BB3FBF0F35343044A5268C2F301421C
:1002680001325200B3FBF2F3DBE700BF0038024073
:10027800000000200024F4008834000800127A00EE
:10028800684620F007018D4601B5BDE80140854666
:100298007047684620F007018D46FEE71549164A63
:1002A8001648521A921000239A4217D1144A154E32
:1002B800D2F88830144C43F47003C2F88830D2F86E
:1002C8003432A41B43F04043C2F83432A410002552
:1002D800AC4209D1FFF774FF03F0BAB850F82340D5
:1002E80041F823400133DFE756F8253098470135B8
:1002F800EEE700BF0000002004000020643A000878
:1003080000ED00E0643A0008683A0008FEE70000E3
:1003180038B5464B984204460D4636D0B0F1804F6A
:1003280033D0A3F57C4398422FD003F580639842DD
:100338002BD003F58063984227D003F58063984259
:1003480023D003F5806398421FD003F57043984289
:100358001BD003F57053984217D003F58063984279
:1003680013D003F5806398420FD0A3F598339842D1
:100378000BD003F58063984207D003F58063984259
:1003880003D0B1212A48FFF7C1FF6B6833F0100290
:1003980009D023F04002202A05D0402B03D0B221F7
:1003A8002348FFF7B3FFEB6833F4807206D0B3F548
:1003B800007F03D0B3211E48FFF7A8FF1B4A23681C
:1003C800944212D002F5806294420ED0B4F1804F6C
:1003D8000BD0A2F58032944207D002F58062944295
:1003E80003D002F58062944203D16A6823F0700357
:1003F8001343104A944207D002F5806294421EBF0C
:10040800EA6823F4407313432360AB68E3622B6804
:10041800A362064B9C4203D003F580639C4201D142
:100428002B6923630123636138BD00BF00000140CD
:10043800983400080010004038B5274B984204460D
:100448000D4637D0B0F1804F34D0A3F57C439842A5
:1004580030D003F5806398422CD003F5806398422E
:1004680028D003F58063984224D003F5806398422E
:1004780020D003F5704398421CD003F5705398427E
:1004880018D003F58063984214D003F5806398422E
:1004980010D0A3F5983398420CD003F580639842A6
:1004A80008D003F58063984204D040F2F9110B4854
:1004B800FFF72CFF012D09D94FF4FD710748FFF70D
:1004C80025FF236843F00103236038BD002DF8D1D0
:1004D800236823F00103F7E700000140983400087F
:1004E800524B98422DE9F04104460D461FD0B0F119
:1004F800804F1CD0A3F57C43984218D003F5806345
:10050800984214D003F58063984210D003F57843DD
:1005180098420CD003F57053984208D0A3F5943351
:10052800984204D040F29E214148FFF7EFFE2B6825
:1005380033F030020FD023F4803222F01002602A08
:1005480009D023F05003B3F5803F04D040F29F2137
:100558003748FFF7DBFE6B68012B04D94FF428718D
:100568003348FFF7D3FE2B6933F0020304D040F27F
:10057800A1212F48FFF7CAFE236A2A6823F0100337
:100588002362266A6768A36923F0807323F4E6432D
:1005980043EA02282B696A6826F02006134346EAD4
:1005A8000316224B9C4203D003F580639C4234D14E
:1005B800AB6833F0040304D040F2BF211C48FFF7B6
:1005C800A5FE6B6933F0080304D04FF43071184866
:1005D800FFF79CFEEB6933F4007304D040F2C121AD
:1005E8001348FFF793FEAB6933F4807304D040F2ED
:1005F800C2210F48FFF78AFE6B6926F0800646EA9B
:100608000316AB6826F0400646EA0316D5E906321B
:1006180027F44067134347EA8307EB686760C4F829
:100628001880A3632662BDE8F08100BF0000014086
:10063800983400084E4B98422DE9F04104460D4687
:1006480017D0B0F1804F14D0A3F57C43984210D056
:1006580003F5806398420CD003F58063984208D074
:1006680003F57843984204D040F2EF214148FFF760
:100678004DFE2B6833F030020FD023F4803222F085
:100688001002602A09D023F05003B3F5803F04D04C
:100698004FF43C713748FFF739FE6B68012B04D9DA
:1006A80040F2F1213348FFF731FE2B6933F00203A2
:1006B80004D040F2F2212F48FFF728FE236A2A6867
:1006C80023F480732362266A6768E36923F480331E
:1006D80023F0730343EA02082B696A6826F400765C
:1006E800134346EA0326224B9C4203D003F580635A
:1006F8009C4234D1AB6833F0040304D040F20F318C
:100708001C48FFF703FE6B6933F0080304D04FF46D
:1007180044711848FFF7FAFDEB6933F4007304D00D
:1007280040F211311348FFF7F1FDAB6933F48073E0
:1007380004D040F212310F48FFF7E8FD6B6926F448
:10074800006646EA0326AB6826F4806646EA032676
:10075800D5E9063227F44057134347EA0317EB68F5
:100768006760C4F81C80E3632662BDE8F08100BFBF
:10077800000001409834000838B51A4B98420446E6
:100788000D461FD0B0F1804F1CD0A3F57C43984292
:1007980018D003F58063984214D003F5806398421B
:1007A80010D003F5784398420CD003F57053984263
:1007B80008D0A3F59433984204D040F2CE510A48A9
:1007C800FFF7A4FD35F0080304D040F2CF510648E6
:1007D800FFF79CFDA16921F4006141EA0521A161AF
:1007E80038BD00BF000001409834000838B5154BEB
:1007F800984204460D4617D0B0F1804F14D0A3F5A7
:100808007C43984210D003F5806398420CD003F5DE
:100818008063984208D003F57843984204D040F2A8
:10082800EB510948FFF772FD35F0080304D040F298
:10083800EC510548FFF76AFDE36923F008031D43FF
:10084800E56138BD000001409834000838B5104B08
:10085800984204460D4608D003F58063984204D0B8
:1008680040F6A9210B48FFF751FD012D09D940F6A3
:10087800AA210848FFF74AFD636C43F40043636408
:1008880038BD002DF8D1636C23F40043F7E700BFAF
:1008980000000140983400082C4B984270B504467B
:1008A8000D46164637D0B0F1804F34D0A3F57C43BF
:1008B800984230D003F5806398422CD003F58063CA
:1008C800984228D003F58063984224D003F58063CA
:1008D800984220D003F5704398421CD003F570531A
:1008E800984218D003F58063984214D003F58063CA
:1008F800984210D0A3F5983398420CD003F5806342
:10090800984208D003F58063984204D040F6143129
:100918000F48FFF7FBFC35F0FF0300D125B940F67F
:1009280015310B48FFF7F2FC012E08D940F61631B5
:100938000748FFF7EBFCE3681D43E56070BD002E38
:10094800F9D1E36823EA0505F7E700BF0000014095
:10095800983400080F2810B5044603D98D2105489E
:10096800FFF7D4FC044B186820F00F0020431860F0
:1009780010BD00BFC8340008003C02402DE9F84F04
:100988004C4B984204460D462BD003F580639842A1
:1009980027D003F58063984223D003F580639842FB
:1009A8001FD003F5806398421BD003F580639842FB
:1009B80017D003F58063984213D003F580639842FB
:1009C8000FD003F5806398420BD003F580639842FB
:1009D80007D003F58063984203D093213648FFF788
:1009E80095FC2B881BB994213348FFF78FFC2B7992
:1009F800032B03D995213048FFF788FCEB79022BAC
:100A080003D996212C48FFF781FCDFF8AC9000262B
:100A180001274FF003082A6807FA06F3934343D1E6
:100A28004FEA460A236808FA0AFB6FEA0B0B03EA47
:100A38000B0323602B79216803FA0AF2013B0A436E
:100A4800012B226023D86B79032B03D9A8214846B0
:100A5800FFF75CFCA3680BEA0303A3606B79A26849
:100A680003FA0AF31343A360AB79012B03D9AF212F
:100A78004846FFF74BFC636807FA06F223EA0203CD
:100A88006360AB796268B3409BB213436360E36809
:100A980008FA0AF223EA0203E360EB79E26803FA50
:100AA8000AFA4AEA0202E2600136102EB3D1BDE822
:100AB800F88F00BF00000240FA340008012810B582
:100AC800044605D9052803D0D0210448FFF71EFCA9
:100AD800034B00221A701C7010BD00BF3B35000884
:100AE800023802402DE9F0411D4630F4800380466B
:100AF8000C461746069E04D040F2A5112448FFF77D
:100B080005FCA31E3D2B04D94FF4D3712048FFF7F1
:100B1800FDFBA7F1C003F02B04D940F2A7111C4834
:100B2800FFF7F4FB082D04D84FF4AA73EB40DB075A
:100B380004D44FF4D4711648FFF7E8FBB31E0D2B0D
:100B480004D940F2A9111248FFF7E0FB47F6C0723A
:100B580092FAA2F24FF44030B2FA82F290FAA0F080
:100B68004FF07061B0FA80F091FAA1F144F00053AF
:100B78006D08974043EA0803013DB1FA81F13B4310
:100B880085402B438E40034A33435360BDE8F081D0
:100B98003B35000800380240012810B5084C09D937
:100BA80040F2BF110748FFF7B1FB236843F0807399
:100BB800236010BD0028F8D1236823F08073F7E77D
:100BC800003802403B350008022810B5044604D915
:100BD80040F2F7210448FFF799FB044A936823F091
:100BE80003031C43946010BD3B35000800380240E5
:100BF80030F0800310B5044612D020F02003902B6B
:100C08000ED020F04003A02B0AD020F01003C02BF8
:100C180006D0F02804D04FF44B710548FFF776FB57
:100C2800044A936823F0F0031C43946010BD00BF8E
:100C38003B3500080038024030F4805310B50446B4
:100C48000CD020F40063B3F5A05F07D0B0F5C05F07
:100C580004D040F24B310548FFF758FB044A93682B
:100C680023F4E0531C43946010BD00BF3B350008DB
:100C78000038024030F4805310B504460CD020F4FC
:100C88000063B3F5A05F07D0B0F5C05F04D040F2B1
:100C98006A310548FFF73AFB044B986820F4604036
:100CA80040EAC400986010BD3B3500080038024097
:100CB8001D4A936803F00C03042B10B51AD0082BB7
:100CC8001AD01A4B184A036093681949C3F30313DF
:100CD800CC5C0368E34043609468C4F382240C5DF1
:100CE80023FA04F484609268C2F342328A5CD340E7
:100CF800C36010BD0F4BE5E7546851685268630242
:100D0800C2F3881201F03F014CBF0A4B074BB3FBFB
:100D1800F1F35343044A5268C2F3014201325200CC
:100D2800B3FBF2F3CEE700BF003802400024F40022
:100D38002B35000800127A00C30470B505460E462C
:100D480000D420B940F2B1510A48FFF7DFFA012E6A
:100D5800094C08D940F2B2510648FFF7D7FA236C7C
:100D68001D43256470BD002EF9D1236C23EA0505C7
:100D7800F7E700BF3B350008003802400E4B034040
:100D880070B505460E4603B920B940F2DF510B484D
:100D9800FFF7BCFA012E0A4C08D94FF4BC6107488A
:100DA800FFF7B4FA636C1D43656470BD002EF9D17A
:100DB800636C23EA0505F7E74C8008933B35000888
:100DC80000380240A0F12103DBB21C2B10B5044609
:100DD80004D8114A22FA03F3DB070CD404F0DF032A
:100DE800412B08D0A4F17903062B04D940F6C80199
:100DF8000A48FFF78BFA6209012A094B06D11868DD
:100E080004F01F04E04000F0010010BD022A0CBFEE
:100E1800186F586FF4E700BF010001153B35000853
:100E28000038024013B50023019341F28834312081
:100E3800FFF7C8FF019B01330193019BA34201D037
:100E48000028F4D03120FFF7BDFF003018BF012083
:100E580002B010BD012810B5084C09D940F2911113
:100E68000748FFF753FA236843F48033236010BD23
:100E78000028F8D1236823F48033F7E70070004096
:100E88006B350008012810B5084C09D94FF4D67104
:100E98000748FFF73BFA236843F40033236010BD8B
:100EA8000028F8D1236823F40033F7E700700040E6
:100EB8006B35000800F10043013B1F2B10B50446B9
:100EC80026D8164A22FA03F3DB0716D424F0004387
:100ED800042B12D0082B10D0B4F5804F1AD0B4F5DB
:100EE800803F17D0B4F5003F14D0B4F5402F11D08F
:100EF80040F275310A48FFF709FA002C0ADA094B63
:100F0800DB6803F03F03234214BF0120002010BD1B
:100F18000228DBD1034B5B68F5E700BF0380008044
:100F28006B3500080070004038B5194B98420446EC
:100F38000D4620D0A3F54C4398421CD003F580639E
:100F4800984218D003F58063984214D003F5806363
:100F5800984210D003F5444398420CD0A3F51C43A3
:100F6800984208D003F58063984204D04FF4687122
:100F78000848FFF7CBF9B5F5007F04D340F2A1315B
:100F88000448FFF7C3F9C5F30805A56238BD00BFDB
:100F9800001001409B35000838B5304B9842054693
:100FA8000C4620D0A3F54C4398421CD003F580632F
:100FB800984218D003F58063984214D003F58063F3
:100FC800984210D003F5444398420CD0A3F51C4333
:100FD800984208D003F58063984204D040F26371C8
:100FE8001F48FFF793F9621E1F2A2FD81D4BD340C5
:100FF800DB072DD4402C2BD0B4F5807F28D0B4F556
:10100800007F25D0B4F5806F22D0B4F5006F1FD0D3
:10101800B4F5805F1CD0B4F5804F19D0B4F5004FFB
:1010280016D0B4F5803F13D0B4F5003F10D0B4F516
:10103800802F0DD0B4F5002F0AD0B4F5001F07D0CB
:1010480040F264710648FFF761F901E0802CD1D1C4
:10105800EB69234214BF0120002038BD0010014075
:101068009B3500088B80008038B53C4B984205467C
:101078000C460BD003F58073984207D003F58073B4
:10108800984203D089213648FFF740F9236833F0A6
:10109800407303D08A213248FFF738F92379012BAE
:1010A80003D98B212E48FFF731F96379012B03D936
:1010B8008C212B48FFF72AF9A36833F0405303D05B
:1010C8008D212748FFF722F9E36833F0407212D0E8
:1010D800B2F1806F0FD023F0A062B2F1006F0AD096
:1010E800B3F1306F07D003F17143012B03D98E217F
:1010F8001B48FFF70BF9236933F4006303D08F21F2
:101108001748FFF703F9237D013B0F2B03D99021E3
:101118001348FFF7FBF86A682179236822F04072C8
:1011280022F4807243EA012313436B60AB680D4AD3
:101138001A40D4E903130B43A1680B43617943EACE
:1011480041031343AB60227DEB6A013A23F4700339
:10115800D2B243EA0253EB6238BD00BF002001401F
:10116800CD350008FDF7FFC038B5124B984204464C
:101178000D460CD003F58073984208D003F58073B0
:10118800984204D040F22B110B48FFF7BFF8012D0D
:1011980009D94FF496710848FFF7B8F8A36843F0E7
:1011A8000103A36038BD002DF8D1A36823F0010323
:1011B800F7E700BF00200140CD3500082DE9F041D8
:1011C8009846384B984205460F4614460CD003F50E
:1011D8008073984208D003F58073984204D04FF486
:1011E8001A713148FFF792F8122F04D940F2692199
:1011F8002D48FFF78BF8661EF3B20F2B04D940F287
:101208006A212948FFF782F8B8F1070F04D940F29C
:101218006B212548FFF77AF8092F1BD9A7F10A0394
:10122800EA6803EB43030721994022EA010208FA1E
:1012380003F31343EB60062C18D86C6B06EB860699
:101248001F23B34024EA030407FA06F626436E6315
:10125800BDE8F0812A6907EB470107238B4022EAA2
:10126800030208FA01F313432B61E4E70C2C0CD8B2
:10127800E31F2E6B03EB83031F249C4026EA040420
:1012880007FA03F634432C63E2E70D3C04EB8403CE
:10129800EA6A1F249C4022EA040207FA03F4144372
:1012A800EC62D5E700200140CD3500080B4B984291
:1012B80010B504460CD003F58073984208D003F5A6
:1012C8008073984204D040F2DF210548FFF71EF8EA
:1012D800A36843F08043A36010BD00BF0020014015
:1012E800CD3500080A4B984210B504460CD003F5DA
:1012F8008073984208D003F58073984204D040F276
:1013080075310448FFF702F8E06C80B210BD00BFE9
:1013180000200140CD35000838B5134B98420446EB
:101328000D460CD003F58073984208D003F58073FE
:10133800984204D040F2F2510C48FEF7E7FF6B1ECA
:10134800DBB21F2B04D80A4A22FA03F3DB0704D4C2
:1013580040F2F3510548FEF7D9FF23681D4214BF38
:101368000120002038BD00BF00200140CD35000815
:101378008B8000807047704710B52421044601F027
:101388009BFD204610BD10B5D821044601F094FD00
:10139800204610BD474A484B0360136B30B540F2F6
:1013A800FF1423431363454B43609D6825F0405564
:1013B8009D609D6845F040559D605D6825F48045B9
:1013C8005D605D685D601D6825F040551D601D68A5
:1013D80045F080551D603A4B036143638365C367DD
:1013E800136B23431363374BC0F8A0301D6825F0F7
:1013F80003051D601D6845F003051D60156B254339
:1014080015631D68C0F8A43025F00C051D601D6823
:1014180045F00C051D60156B254315631D68C0F864
:10142800A83025F030051D601D6845F030051D60A9
:10143800156B254315631D68C0F8AC3025F0C00551
:101448001D601D6845F0C0051D60156B25431563BB
:101458001D68C0F8B03025F440751D601D6845F45E
:1014680040751D60156B254315631D68C0F8B430C1
:1014780025F440651D601D6845F440651D60156BC9
:1014880025431563C0F8B8301D6825F440551D6024
:101498001D6845F440551D60156B2C4314631A688C
:1014A800C0F8BC3022F440421A601A6842F4404244
:1014B8001A6030BD0038024018360008001002409B
:1014C80008360008000002404268536943F480432C
:1014D800536170474268536923F4804353617047EE
:1014E8002DE9F0410446FFF7F5FF64212D48DFF8A8
:1014F800B88000F0DBFA04F15C063746002529467F
:10150800404600F033F90135082D47F8040BF6D1B1
:101518002046FFF7D9FF64212248234F00F0C6FA7E
:1015280000252946384600F021F956F8043B0135D4
:10153800C01A082D3062F4D11C4BA3638033E363D7
:101548006FF0FF026FF07F03C4E9102380214FF48E
:101558008073C4E912134FF4C0704FF40073C4E9E8
:10156800140301230025A4F8C0300023C4F8C830B0
:10157800C4F8CC30C4F8D030C4F8D430C4E9055528
:10158800C4E90755C4E90955C4E90B55C4F8C45062
:1015980025732B4605222146024800F041FA2846C9
:1015A800BDE8F081F80300205401002000FEFFFF91
:1015B80081F3030300EB830030B5826B4569002992
:1015C80002FB05F40EDD0369426B062902FB0342A8
:1015D8002B440ADC8169C06B0B4400FB012292FB9F
:1015E800F3F030BD62006B00F4E722442B44F6E7C9
:1015F800F8B500F11402012380F8C130044600F167
:1016080034010023104650F8045B88422B44FAD179
:10161800DB0807EE903AF8EEE77A0021C4ED357A58
:1016280016460D4604EB850756F804CB7F69BC4582
:10163800C8BF0D4601310829F4D1002652F8041B11
:10164800B1F5967FC8BF01369042F7D1B3F5FA7F5E
:1016580005D90323C4F8C460A4F8C030F8BD04EB6E
:1016680085035B69B3F5967F2EDD012384F8C030CE
:1016780029462046FFF79CFF07EE900A9FED1C7A4B
:10168800F8EEE77A691C67EE877A2046C4ED327A6D
:10169800FFF78EFF07EE900AF8EEE77A691E67EE0D
:1016A800877A2046C4ED337AFFF782FF07EE900A67
:1016B800F8EEE77AC4F8C46067EE877A0023C4EDD1
:1016C800347A84F8C130C9E7D4ED327A9FED097ACB
:1016D800F4EEC77AF1EE10FA01D50223F1E79FED97
:1016E800067AF4EEC77AF1EE10FAB7DD0323E8E7DD
:1016F8000000003BCDCC4CBFCDCC4C3F2DE9F8438E
:101708000025DFF84880064600F114044FF47A7784
:10171800A9462946404600F029F8A36CC01A784328
:10172800E36E90FBF3F00135D0F57A7054BF20607A
:10173800C4F80090082D04F10404EAD13046FFF7FC
:1017480057FF01233373BDE8F88300BF540100201D
:10175800704710B50421044601F0AEFB204610BDC9
:10176800014B0360704700BF2C36000808B5012301
:1017780008481A46C9B2FFF721FD0648FFF796FD4B
:1017880002210448FFF7C8FD0028F9D00148FFF7F7
:10179800A9FD08BD0020014030B5114C87B00121DA
:1017A8004FF48070FFF7EAFA0125002369462046C6
:1017B8008DF8043000938DF80530CDE90233049399
:1017C8008DF81450FFF750FC29462046FFF7CCFC53
:1017D8002B462A460B212046FFF7F0FC07B030BD08
:1017E800002001402DE9F3412A4A2B4D136B02AC2E
:1017F800012743F00703136344F8087D03238DF89A
:1018080004302146002328468DF80730FFF7B6F844
:101818000223214628460093FFF7B0F80423214607
:1018280028460093FFF7AAF8082321462846009384
:101838004FF01008FFF7A2F8214628462026CDF8D9
:101848000080FFF79BF8214628460096FFF796F898
:101858004023214628460093FFF790F8802321462D
:10186800284605F500650093FFF788F821462846C5
:10187800CDF80080FFF782F8214608480097FFF767
:101888007DF8214628460096FFF778F802B0BDE8B3
:10189800F08100BF0038024000000240000402400E
:1018A80010B50446FFF79EFF2046BDE81040FFF73D
:1018B80073BF704710B50421044601F0FDFA2046B5
:1018C80010BD0000014B0360704700BF3C360008A4
:1018D800274A136B30B540F2FF152B431363254B92
:1018E8009C6824F440249C609C6844F440249C60D8
:1018F8001C6824F440241C601C6844F400241C6008
:10190800106B28431063986820F44010986098681A
:1019180040F440109860186820F440101860186867
:1019280040F400101860586A20F0F0005862586AB5
:1019380040F070005862586A20F470605862586A23
:1019480040F4E0605862536C43F0100353640A4B50
:1019580000220C205A60490018609A60074AB2FBBE
:10196800F1F1D9601A6842F001021A6030BD00BF77
:1019780000380240000002400010014000E6DF0C81
:1019880010B50C4680210548FFF706FB0028F9D062
:1019980021460248BDE81040FFF7C6BA00100140D2
:1019A800F8B54FF080431A69D20714D5194F4FF68E
:1019B800FE721A61002414263D4606FB0473DA6899
:1019C80052B1DA68013ADA600134102CF5D1124AC2
:1019D800136801331360F8BD9A68DA601A7CFF2A2D
:1019E8001FBF1A7C0132D2B21A7406FB04F3EA183C
:1019F800527C002AE8D1EA580AB1EB58984706FB0E
:101A080004535A68002ADFD0586803689B689847CF
:101A1800DAE700BF0C00002008000020704770477C
:101A2800F0B572B6114D00244FF0FF304FF0140C92
:101A38002F460CFB04F605EB060EAE5926B9DEF868
:101A48000460002E08BF20460134102CF1D1441C3C
:101A58000AD0C4B2142565437C1900267E51616002
:101A6800A260E2602674637462B6F0BD0C000020C8
:101A78000448142303FB01010023CA608A600B7425
:101A8800704700BF0C00002082B072B6034B1B6881
:101A9800019362B6019802B0704700BF08000020A9
:101AA800014B1868704700BF0800002007B50246C0
:101AB800FFF7EAFF014401911046FFF7E5FF019B9C
:101AC800984201D200BFF7E703B05DF804FB0000BD
:101AD80010B52DED028B8AB0002947D0244B9942CE
:101AE80028BF194607EE901A9FED227AF8EEE77A9A
:101AF800012187EE278A0846FCEEC87A17EE904A3D
:101B0800FFF71AF9240C01A8FFF7D2F8059401345D
:101B180007EE904AF8EEE77A002288EE277A05A9C0
:101B28004FF080400692DFED147A77EE677AFCEE8C
:101B3800E77A17EE903A9BB2CDE90732FEF7E8FB59
:101B480001214FF08040FEF777FC012211464FF04B
:101B58008040FEF7A1FE094B102283F81C234FF0AA
:101B680080521A600AB0BDEC028B10BD0121B9E7A2
:101B7800C0FC9B0160FE4D4C0000803F00E100E08E
:101B8800F8B500220C4D142713464FF47A7607FB5C
:101B980002F429190132102A2B514B608E60CB6058
:101BA8000B744B74F3D1054A4FF47A7113600360D8
:101BB800FFF78EFF62B6F8BD0C0000200800002079
:101BC800704710B50421044601F076F9204610BD8F
:101BD800014B0360704700BF4C360008024A0023DF
:101BE8001360024A136070474C0100205001002026
:101BF800034B186858234343B42093FBF0F0704715
:101C08004C010020034B186858234343B42093FB2E
:101C1800F0F0704750010020034B186858234343E5
:101C2800B42093FBF0F070474C010020034B186878
:101C380058234343B42093FBF0F070475001002031
:101C4800704710B55821044601F036F9204610BDFA
:101C5800014B0360704700BF5C36000870B504464E
:101C6800006D03689B680E469847206D0368D42171
:101C78005B699847206D03681D215B699847206D53
:101C880003689B689847206D0368D5215B6998476E
:101C9800206D036801219B699847000205B2206DF9
:101CA800036800219B6998470543206D0368DB683A
:101CB80098472DB2022095FBF0F5002E33D0206B0B
:101CC80005442563206D03689B689847206D036869
:101CD800D4215B699847206D03682D215B6998477B
:101CE800206D03689B689847206D0368D5215B6960
:101CF8009847206D036801219B699847000205B247
:101D0800206D036800219B6998470543206D03688F
:101D1800DB68984700232DB2C4E901330123E5604D
:101D280084F8353070BDD4E910231548C4E912236E
:101D3800FFF7B6FE216BA36C124A691A4FF4CD75F2
:101D48004D43C4E91006A16AC01AE36A53434A43E3
:101D58004343454350430C4A90FBF2F093FBF2F3A4
:101D680095FBF2F5E26920611044226A636113442D
:101D78002362636AA5611D44E0616562A2E700BF52
:101D8800F803002066FEFFFF40420F000021FFF726
:101D980065BF000010B5034B03600446FFF789FDDB
:101DA800204610BD7036000810B50446FFF7F2FF54
:101DB8002046042101F080F8204610BD10B50446E5
:101DC800FFF780FD014B2360204610BD70360008E8
:101DD80038B505464C1E14F8011F19B12846FFF7FF
:101DE800CFFDF8E738BD7FB50B1E4FF000024FF06E
:101DF8000A01BABF5B42012414468DF80F200E4633
:101E080004AA93FBF6F50A4406FB1533303302F8AF
:101E18000C3C4A1ED2B22B4665B92CB104AB134414
:101E28002D2103F80C1C114601AB1944FFF7D0FF14
:101E380004B070BD1146E3E730B585B000230A222F
:101E48008DF80F301546B1FBF5F405FB141304A902
:101E58001144303301F80C3C531EDBB221462CB937
:101E680001AB9918FFF7B4FF05B030BD1A46EAE791
:101E7800F8B507EE901A2DED028BF5EEC07AF1EE6B
:101E880010FA0646154646BFF1EE677A2D21202145
:101E9800012300220A20954202D943430132FAE77E
:101EA800BDEEE78A3046B8EEC87A77EEC77A07EE15
:101EB800103AB8EE477A67EE877AFDEEE77A17EEC2
:101EC800904A002CB8BF6442FFF75AFD18EE101A6A
:101ED8003046FFF788FF2E213046FFF751FD0022DC
:101EE80001230A214B4301329C42D2B2FADCAD1ADB
:101EF800EDB20027BD4205D930213046FFF740FD3D
:101F08000137F7E7BDEC028B21463046BDE8F840C3
:101F1800FFF769BF38B5436804462DED048B83602D
:101F28003D489FED3E9AFFF7BBFD6369A568E360F6
:101F3800A3692361451B6060394808BF0125FFF785
:101F48006BFE60613648FFF771FEE2686369DFED9A
:101F5800354A9FED355A94ED077ADFED345AA06182
:101F68009B1A06EE903AF8EEE66A07EE905A66EE8D
:101F7800A46AF8EEE77A66EE856A236986EEA76AB0
:101F8800C31A04F14400F0EE466A47EE256A07EEEC
:101F9800103AB8EEC77AC4ED076A27EE247A16EE2F
:101FA800902A27EE057A87EE276AD4ED087A07EE9D
:101FB800A56AD4ED097A84ED086A77EEE67A17EE19
:101FC800901A00F0AEFF226AD4ED0A7A07EE102AC2
:101FD80077EEC77A08EE900A17EE901A04F17000AF
:101FE80000F09FFF68EE898A2C34FDEEE87A08EE4F
:101FF800100A17EE901A204600F01EF928EE098AFA
:102008002046FDEEC87ABDEC048B17EE901ABDE8A9
:10201800384000F021B900BFF803002000007F43DA
:10202800F8010020CDCCCC3DE4380E3F6666663F13
:1020380010B5084B044640F82C3B00F075F804F145
:10204800440000F045FF04F1700000F041FF204615
:1020580010BD00BF803600082DE9F3411A4E1B4D14
:1020680004464FF07F574FF07E582C3000F004F9AB
:102078003B463246294604F14400CDF8008000F082
:1020880039FF3246124ECDF800803B46294604F10E
:10209800700000F02FFF3046FFF7F6FC0025002304
:1020A800C4E90100E36123626362A362C4E90355E2
:1020B800C4E905552B46052221463046FFF7B0FCFA
:1020C800284602B0BDE8F0819A99193E6666A63F97
:1020D800F8030020C0697047006A704710B5084BC4
:1020E800044640F8703B00F0EAFE04F1440000F0BA
:1020F800E6FE04F12C0000F00FF8204610BD00BFEA
:102108008036000810B50446FFF7E8FF20469C21FA
:1021180000F0D2FE204610BD704710B518210446C5
:1021280000F0CAFE204610BD3F4A404B0360136BC7
:1021380030B540F2FF14234313633D4B43609D6861
:1021480025F440559D609D6845F440559D605D6847
:1021580025F040055D605D685D601D6825F44055AB
:102168001D601D6845F480551D60136B2343136380
:10217800304B83609D6825F440059D609D6845F45B
:1021880040059D605D6825F400655D605D685D6083
:102198001D6825F440051D601D6845F480051D6017
:1021A800156B254315639D68C36025F040659D60E8
:1021B8009D6845F040659D605D6825F400555D604B
:1021C8005D685D601D6825F040651D601D6845F00F
:1021D80080651D60156B254315639D68036125F4B3
:1021E80040159D609D6845F440159D601D6825F467
:1021F80040151D601D6845F400151D60156B2C43C6
:1022080014639A68436122F040729A609A6842F0B7
:1022180040729A601A6822F040721A601A6842F096
:1022280000721A6030BD00BF0038024094360008C2
:102238000004024000100240C3685A690029CCBF5C
:1022480022F4005242F400525A61024B40F607321F
:10225800DA6370470000014083685A690029CCBFDF
:1022680042F4006222F400625A61024B41F20F62AA
:102278009A637047000001404268536943F0400385
:102288002DE9F043536102692E4C536923F48063AE
:1022980053614369596921F480515961516A21F4A4
:1022A80070615162516A41F4807151625A6A22F434
:1022B80070225A625A6A012142F480328FB05A62FF
:1022C80006460846FEF75AFD00254FF4E15302275B
:1022D8004FF4807901A92046CDE90339CDE901758C
:1022E8000595FEF715F820460121FEF7A5F86023AD
:1022F80006934FF0010804230A9706A908272046E9
:10230800CDE907830995CDE90B790D95FEF792F98B
:1023180039462046FEF76AFA06A92046FEF7E0F895
:1023280039462046FEF728FA41462046FEF78EFA3F
:1023380029463046FFF780FFFFF78EFF0FB0BDE854
:10234800F08300BF00000140704710B59821044693
:1023580000F0B2FD204610BDF0B5344C344A02609E
:10236800226B344940F2FF16324322638A68816146
:1023780022F0C0028A608A6842F0C0028A604A6815
:1023880022F008024A604A684A600A6822F0C002DD
:102398000A600A6842F040020A60226B32432263F4
:1023A800254AC261156825F440751560156845F41D
:1023B80040751560256B35432563204D05622F68F0
:1023C80027F003072F602F6847F003072F60256B5E
:1023D8002E4326631468426224F44064146014682F
:1023E80044F4406414604B69154C4464002223F0A3
:1023F800080342658265C2658264C2640265026739
:102408004267826742668266C2660466C0F88C20AC
:10241800C0F89020C0F89420C0F88020C0F884202C
:10242800C0F88820C4674B61F0BD00BF0038024087
:10243800A4360008001002400008024000040240D0
:10244800CDCC4C3F826938B55369002523F0080389
:102458008562044653614FF07E53C0E90B55C0E9CD
:102468000D55C0E90F5543608360C360057445741A
:1024780001462B4602220348FFF7D2FA2575284663
:1024880038BD00BFF8030020D0ED007A9FED107A28
:10249800D0ED025A9FED0F5A90ED056A43688360AC
:1024A80006EE901A37EE677A76EEE56A27EE057A39
:1024B80067EEC67A47EE267A03694160C0ED035A93
:1024C80080ED066A4361C0ED047A17EE900A704702
:1024D8000000803F0000003F10B50E2104462DED9E
:1024E800048B4348FFF742F9082108EE100A4048D8
:1024F800FFF73CF90F2109EE100A3D48FFF736F9BE
:10250800F8EEC87A9FED3B8A67EE887A08EE900A63
:1025180017EE901A04F14400FFF7B6FFB8EEC99A17
:1025280004F1600069EE087A17EE901AFFF7ACFF25
:10253800F8EEE88A04F17C0068EE887A17EE901AC3
:10254800FFF7A2FFD4ED157AD4ED1C6A9FED2A7A25
:10255800F5EEC07AF1EE10FAF5EEC06A48BFF1EE7A
:10256800677AF1EE10FA48BFF1EE666A77EE666AAE
:1025780077EE677AC4ED016AD4ED236AC4ED027A76
:10258800F5EEC06AF1EE10FA48BFF1EE666A37EE72
:10259800667A84ED037A9FED197AF4EEC77A9FED97
:1025A800187AF1EE10FA4CBF01230023F4EEC77A33
:1025B800F1EE10FA23744FF0010348BF63742375DA
:1025C800A36A5CBF0022627413F0030209D1A169F7
:1025D8004A6922F008024A61BDEC048B0133A36208
:1025E80010BD022AF8D1A1694A6942F00802F2E74F
:1025F80054010020000080390000803F0000003FA7
:102608000000803E704710B51821044600F054FCC5
:10261800204610BD027B836832B1002202735A69DA
:1026280042F001025A617047012202735A6922F08E
:102638000102F7E71C4A1D4B0360136B30B540F2EB
:10264800FF152B4313631A4B43609C6824F04074B6
:102658009C609C6844F040749C601C6824F0407442
:102668001C601C681C60DC6844F08074DC60136BC0
:102678002B4313630F4B83609A6822F003029A601E
:102688009A6842F003029A605A6822F001025A607E
:102698005A685A601A6822F003021A601A6842F0EF
:1026A80001021A6030BD00BF00380240B836000889
:1026B80000080240000C02404FF0FF3310B54361A0
:1026C80000230446037301464FF4FA720248FFF7E9
:1026D800A7F9206110BD00BFF803002070B50446BB
:1026E80063681B69DA0401D500BFF9E70123636158
:1026F8006422217C0F480F4DFFF7BAF90D48FFF708
:10270800C3F900F5FA6663681B69DB040FD409484E
:10271800FFF7BAF9B042F6D96369012BF3D1322237
:10272800217C2846FFF7A4F902236361EBE760697F
:1027380070BD00BFF8030020704770471423436042
:1027480070470020704700207047704710B5082177
:10275800044600F0B1FB204610BD0000014B0360A9
:10276800704700BFCC360008002342689A4202D95D
:1027780000BF0133F9E77047704710B508210446D8
:1027880000F09AFB204610BD10B5034B03600446C9
:10279800FFF7DBFF204610BDF036000810B50446F1
:1027A800FFF7F2FF2046102100F086FB204610BDFF
:1027B8001049114B03600B6B6FEA53236FEA4323F5
:1027C8000B630E4B43609A6822F003029A609A6882
:1027D80042F003029A605A6822F001025A605A686D
:1027E8005A601A6822F003021A601A6842F001025D
:1027F8001A6070470038024064380008000C024034
:1028080003685A6919B142F001025A61704722F00F
:102818000102FAE7B9B903689A6822F00C029A60D3
:102828009A6842F00C029A605A6822F002025A60D2
:102838005A685A601A6822F00C021A601A6842F044
:1028480004021A60704701290ED103689A6822F0C1
:102858000C029A609A6842F00C029A601A6822F098
:102868000C021A601A68ECE7022913D103689A6807
:1028780022F00C029A609A6842F00C029A601A6878
:1028880022F00C021A601A681A60DA6842F0040230
:10289800DA607047052910D103689A6822F00C02A3
:1028A8009A609A6842F00C029A601A6822F00C0248
:1028B8001A601A6842F00802C3E70429C2D1036803
:1028C8001A6822F00C021A601A6842F00C02B8E783
:1028D800064A08B5136B6FEA53236FEA4323136361
:1028E800034B03600121FFF795FF08BD0038024044
:1028F800000C0240B9B903689A6822F030029A6065
:102908009A6842F030029A605A6822F004025A60CB
:102918005A685A601A6822F030021A601A6842F03F
:1029280010021A60704701290ED103689A6822F0D4
:1029380030029A609A6842F030029A601A6822F06F
:1029480030021A601A68ECE7022913D103689A6802
:1029580022F030029A609A6842F030029A601A684F
:1029680022F030021A601A681A60DA6842F010021F
:10297800DA607047052910D103689A6822F030029E
:102988009A609A6842F030029A601A6822F030021F
:102998001A601A6842F02002C3E70429C2D103680A
:1029A8001A6822F030021A601A6842F03002B8E75A
:1029B800064A08B5136B6FEA53236FEA4323136380
:1029C800034B03600121FFF795FF08BD0038024063
:1029D800000C0240142310B5436004460830FFF78A
:1029E80077FF04F10C00FFF7E3FFA268536923F0B7
:1029F80002035361E268536923F00403536110BD75
:102A080070B54B4C061D30460121FFF7F9FE2046F4
:102A18004FF4E131FEF75CFF20464649FFF7D8F94D
:102A280020464549FFF7D4F944492046FFF7D0F935
:102A380000F03AFA424905462046FFF7C9F9294607
:102A48002046FFF7F9F93F4D3F492046FFF7C0F907
:102A58003E492046FFF7BCF92846FFF791F828467B
:102A68003B4D1421FFF722F829462046FFF7B0F91D
:102A780038492046FFF7ACF93748FFF7ABFF29463E
:102A88002046FFF7A5F935492046FFF7A1F9344854
:102A9800FEF706FF29462046FFF79AF931492046F6
:102AA800FFF796F93048FEF71BFD29462046FFF749
:102AB8008FF92E492046FFF78BF92D48FFF7C2FC06
:102AC80029462046FFF784F92A492046FFF780F96E
:102AD8002948FFF783F829462046FFF779F927495F
:102AE8002046FFF775F92648FFF7B6FA294620462B
:102AF800FFF76EF923492046FFF76AF92248FFF7E6
:102B0800DBFD29462046FFF763F920461F49FFF7FA
:102B18005FF920461E49FFF75BF920461D49FFF77C
:102B280057F930460021FFF76BFE002070BD00BF4B
:102B3800F40300201D370008293700083F37000834
:102B480054370008F8030020273700086B370008BF
:102B5800373700087F370008FC010020913700084C
:102B680054010020A337000880020020BD37000868
:102B780058010020DB370008F8010020F83700086A
:102B8800580300201538000868020020263700087E
:102B9800273800084438000870B5044600F10C06D0
:102BA80004F1080530460021FFF7A4FE284600215D
:102BB800FFF730FE30460121FFF79CFE2846002132
:102BC800FFF728FE30460121FFF794FE2846012131
:102BD800FFF720FE2046BDE87040FFF7C5BD70B581
:102BE800044600F10C0604F1080530460121FFF700
:102BF80081FE28460121FFF70DFE30460121FFF72F
:102C080079FE28460021FFF705FE30460021FFF730
:102C180071FE28460121FFF7FDFD2046BDE8704002
:102C2800FFF7A2BD2DE9F843044600F10808404625
:102C3800894604F10C070121FFF7ECFD0021384615
:102C4800FFF758FE2046FFF78FFD082600250121D3
:102C58003846FFF74FFE2046FFF786FDA3681B693D
:102C68006D009B074FF000013846EDB248BF45F0B4
:102C78000105013EFFF73EFE2046FFF775FD16F001
:102C8800FF06E4D1B9F1000F1ED031464046FFF7E8
:102C9800C1FD2046FFF768FD01213846FFF72AFEEF
:102CA8002046FFF761FD00213846FFF723FE204646
:102CB800FFF75AFD01214046FFF7ACFD2046FFF71C
:102CC80053FD2846BDE8F8830121DFE72DE9F041EF
:102CD800082504460F4600EB050804F10C06002100
:102CE8003046FFF707FE2046FFF73EFD3B064CBF88
:102CF800012100214046FFF78DFD2046FFF734FDF6
:102D080001213046FFF7F6FD013D2046FFF72CFD77
:102D18007F0015F0FF05FFB2DFD129463046FFF7E7
:102D2800E9FD2046FFF720FD01214046FFF772FD2F
:102D38002046FFF719FD01213046FFF7DBFD20464D
:102D4800FFF712FDA36829461F693046FFF7D2FD39
:102D58002046FFF709FD87F00200C0F34000BDE8F8
:102D6800F081000038B5384D384C2846FFF720FD73
:102D78002846374D3749224600F09FF82846FFF786
:102D88001DF82846344D3549224600F096F8284665
:102D9800FEF744FE2846324D3249224600F08DF8AF
:102DA8002846FFF7DBFC28462F4B40F8083BFFF787
:102DB8008FFD05F10C00FFF7FBFD28462B4D2C4934
:102DC800224600F07AF82846FEF742FF2846294DA9
:102DD8002949224600F071F82846FEF7C1FC28462A
:102DE800264D2749224600F068F82846FEF7D2FA11
:102DF8002846244D2449224600F05FF82846FFF76C
:102E0800ABFA2846214D2249224600F056F82846BA
:102E1800FEF7DEFE28461F4D1F49224600F04DF8FA
:102E28002846FFF705F928461C4D1D49224600F0A3
:102E380044F82846FFF7FEFB224628461949BDE814
:102E4800384000F03AB800BFF0010020000400202C
:102E5800F403002081270008F80300209D1D0008C6
:102E6800FC010020271A0008F03600081002002094
:102E78009127000854010020491C00088002002006
:102E880059170008580100207D130008F801002098
:102E98005123000858030020C91B000868020020BD
:102EA800E52000080D260008014B0248186070470D
:102EB800FC0300200404002070470020704770477E
:102EC80010B52C210446FFF7F7FF204610BD00007F
:102ED800074A02604FF000410022C261016242606D
:102EE80082628260C26002614261826142627047AE
:102EF8007438000807EE901A07EE102A436037EE80
:102F0800877A009B8362F1EE677A002380ED077A67
:102F1800C0ED087A8360C3600361436183614362E3
:102F28007047D0ED046AD0ED027A90ED056AD0EDD5
:102F3800084AC0ED056A07EE102A76EEA66A90EDFB
:102F4800075AC0ED037A05EE901A67EEA47A37EEB9
:102F5800667A45EE857A8160026137EE067AD0EDB1
:102F6800016A80ED066A47EE667A90ED097A77EE97
:102F7800877A90ED0A7AC0ED097AF4EEC77AF1EE15
:102F880010FAC8BF80ED097AD0ED097AB1EE477A18
:102F9800F4EEC77AF1EE10FA48BF80ED097A406A7C
:102FA800704713B50120FDF789FDFDF73BFF0128A8
:102FB800044600D0FEE7092300934FF48000022363
:102FC8004FF4D8720821FDF78DFD2046FDF7E4FD8A
:102FD8003920FDF7F7FE0028FAD04FF08050012184
:102FE800FDF7AAFE0120FDF735FF4FF48030FDF70D
:102FF80061FF0028F9D03120FDF7E4FE0028FAD05F
:103008000120FDF73FFF4FF40030FDF753FF002884
:10301800F9D00720FDF79EFC0220FDF7D5FD002022
:10302800FDF7E6FD4FF4A050FDF706FE4FF4805083
:10303800FDF720FE02B0BDE81040FDF7E7B808B57F
:10304800FDF7BEF8FFF7ADFFBDE80840FDF7DEB8B5
:103058002DE9F047D14CD24DD24FDFF8EC93DFF891
:10306800EC83D149D14E2046FEF7B2FED049204626
:10307800FEF7AEFECF492046FEF7AAFECE4920460F
:10308800FEF7A6FECD492046FEF7A2FE96F8C1102F
:103098002046FEF7A8FE29462046FEF799FEC849B5
:1030A8002046FEF795FE96F8C0102046FEF79BFED8
:1030B80029462046FEF78CFEC2492046FEF788FEC8
:1030C800D6F8C4102046FEF7B7FE29462046FEF77C
:1030D8007FFEBD492046FEF77BFE0322D6F8C810C6
:1030E8002046FEF7C5FE29462046FEF771FEB74981
:1030F8002046FEF76DFE0322D6F8CC102046FEF7D8
:10310800B7FE29462046FEF763FEB1492046FEF782
:103118005FFE0322D6F8D0102046FEF7A9FE294606
:103128002046FEF755FEAB492046FEF751FE032226
:10313800D6F8D4102046FEF79BFE29462046FEF717
:1031480047FEA5492046FEF743FE10364FF0000A19
:1031580056F8041F2046FEF746FEBAF1070F03D0C3
:1031680039462046FEF734FE0AF1010ABAF1080F83
:10317800EED19A499A4E2046FEF72AFE4946204645
:10318800FEF726FE97492046FEF722FE964920467E
:10319800FEF71EFE032271682046FEF769FE2946E7
:1031A8002046FEF715FE91492046FEF711FE032240
:1031B800B1682046FEF75CFE29462046FEF708FE69
:1031C8008B492046FEF704FE0322F1682046FEF7ED
:1031D8004FFE29462046FEF7FBFD86492046FEF7AE
:1031E800F7FD337C002B00F0D48083492046FEF79E
:1031F800EFFD29462046FEF7EBFD80492046FEF705
:10320800E7FD737C002B00F0C6807B497C4E20468E
:10321800FEF7DEFD20467B49FEF7DAFD49462046EB
:10322800FEF7D6FD20467849FEF7D2FD20467749BD
:10323800FEF7CEFD31692046FEF7D5FD394620461A
:10324800FEF7C6FD71692046FEF7CDFD39462046DA
:10325800FEF7BEFDB1692046FEF7C5FD20466C4964
:10326800FEF7B6FD20466B49FEF7B2FDF169204630
:10327800FEF7B9FD39462046FEF7AAFD316A204619
:10328800FEF7B1FD39462046FEF7A2FD716A2046D9
:10329800FEF7A9FD20465E49FEF79AFD20465E49E5
:1032A800FEF796FD71682046FEF79DFD39462046DB
:1032B800FEF78EFDB1682046FEF795FD394620469B
:1032C800FEF786FDF1682046FEF78DFD204643494E
:1032D800FEF77EFD49462046FEF77AFD20464F4917
:1032E800FEF776FD4E492046FEF772FD4D48FEF783
:1032F8007FFC01462046FEF776FD29462046FEF76C
:1033080067FD49492046FEF763FD4648FEF77AFC0B
:1033180001462046FEF767FD29462046FEF758FD80
:1033280042492046FEF754FD4148FEF7D3FE0322EA
:1033380001462046FEF79CFD29462046FEF748FD3B
:103348003C492046FEF744FD3948FEF7C5FE0322F6
:1033580001462046FEF78CFD20462A49FEF738FD37
:1033680041462046FEF734FD41462046FEF730FD33
:1033780041462046FEF72CFD20462F49FEF728FD42
:1033880020462E49FEF724FD64212D48FEF78EFBCA
:1033980067E62C492AE72B4938E700BFF4030020E9
:1033A800DC390008433900087C3800088002002016
:1033B800113A00088338000890380008A33800083C
:1033C800B7380008C6380008D9380008F3380008AC
:1033D8000B39000824390008313900083C37000847
:1033E800580100204A390008603900086939000886
:1033F800733900087D39000898390008A339000896
:103408001002002027370008B6390008C83900081C
:10341800DB390008DF390008EB390008FE390008FD
:10342800143A0008F8010020253A0008373A000845
:1034380058030020463A0008593A00082637000881
:10344800F80300209D39000846390008563A00085C
:1034580008B5FFF7F4FD0648FFF7D2FA0548FFF76D
:103468003DF905490548FEF7B3FCFFF7F1FDFEE716
:10347800F0010020680200205F3A0008F4030020F1
:10348800000000000000000001020304060708090C
:1034980053544D3332463778785F537464506572AD
:1034A8006970685F4472697665722F2F7372632F33
:1034B80073746D3332663778785F74696D2E630084
:1034C80053544D3332463778785F5374645065727D
:1034D8006970685F4472697665722F2F7372632F03
:1034E80073746D3332663778785F666C6173682EF3
:1034F800630053544D3332463778785F53746450C1
:1035080065726970685F4472697665722F2F73728D
:10351800632F73746D3332663778785F6770696FBD
:103528002E630000000000010203040102030406E8
:1035380007080953544D3332463778785F5374641B
:103548005065726970685F4472697665722F2F736F
:1035580072632F73746D3332663778785F72636382
:103568002E630053544D3332463778785F53746472
:103578005065726970685F4472697665722F2F733F
:1035880072632F73746D3332663778785F70777231
:103598002E630053544D3332463778785F53746442
:1035A8005065726970685F4472697665722F2F730F
:1035B80072632F73746D3332663778785F75736111
:1035C80072742E630053544D3332463778785F5304
:1035D80074645065726970685F4472697665722FA9
:1035E8002F7372632F73746D3332663778785F6127
:1035F80064632E630000000000000000000000006B
:103608007F1300088113000800000000000000007C
:103618007D1300088F13000805170008000000003C
:1036280000000000591700085B17000800000000A0
:1036380000000000BB180008BD18000800000000CA
:1036480000000000C91B0008CB1B00080000000098
:1036580000000000491C00084B1C0008951D0008CC
:1036680000000000000000009D1D0008B11D0008BA
:103678000000000000000000E52000080D210008FF
:103688001D1F0008000000000000000021210008A4
:10369800232100080000000000000000512300085A
:1036A80053230008E1240008000000000000000087
:1036B8000D2600080F2600081D260008000000003F
:1036C800000000005327000855270008412700087C
:1036D80043270008452700084B2700084F27000804
:1036E800000000000000000091270008A52700083E
:1036F800E72B0008A12B0008DD290008D52C0008BD
:103708002D2C0008096573745F696D755F73656EAC
:10371800736F720A000A0A0A23232323230A0A0A58
:10372800007465726D696E616C20696E6974205BE6
:10373800444F4E455D0A00696E697469616C697A27
:10374800696E67206D656D6F727920005B444F4E1E
:10375800455D2C2068656170207374617274206106
:10376800742000696E697469616C697A696E672092
:1037780074696D65722000696E697469616C697A33
:10378800696E67206932632000696E697469616CCB
:10379800697A696E67206164632000696E6974697B
:1037A800616C697A696E67206C696E655F73656EB6
:1037B800736F722000696E697469616C697A696EE9
:1037C800672064697374616E63655F73656E736F98
:1037D800722000696E697469616C697A696E672024
:1037E800656E636F6465725F73656E736F722000D8
:1037F800696E697469616C697A696E67206D6F7446
:103808006F725F636F6E74726F6C6C2000696E69A3
:103818007469616C697A696E67206B6579200069E3
:103828006E697469616C697A696E67207365717510
:10383800656E636520646F6E650A0A006D6F746F4C
:103848006B6F207570726973696E67207265616449
:10385800790A0A0000000000000000008127000823
:10386800832700080000000000000000C72E0008A1
:10387800C92E0008234A534F4E0A0020226465626D
:103888007567223A207B0A00226C696E655F736552
:103898006E736F7222203A207B0A00226C696E6573
:1038A8005F6C6F73745F7479706522203A20002210
:1038B8006C696E655F7479706522203A2000226F0A
:1038C8006E5F6C696E655F636F756E7422203A2057
:1038D800002263656E7465725F6C696E655F706FF8
:1038E800736974696F6E22203A2000226C656674D1
:1038F8005F6C696E655F706F736974696F6E2220A3
:103908003A20002272696768745F6C696E655F703F
:103918006F736974696F6E22203A200022617665A0
:103928007261676522203A2000226164635F7265D4
:1039380073756C7422203A205B20002C20007D2CAB
:103948000A002264697374616E63655F73656E73E0
:103958006F72223A207B0A00226C65667422203A34
:10396800002266726F6E7422203A002272696768BC
:103978007422203A002266726F6E745F6F627374ED
:1039880061636C655F7761726E696E6722203A00C9
:10399800747275650066616C7365002266726F6E7D
:1039A800745F6F62737461636C6522203A002269E8
:1039B8006D755F73656E736F7222203A207B0A0003
:1039C80022616E67756C61725F7261746522203A5C
:1039D800205B005D2C0A0022616E676C6522203A2C
:1039E800205B0022616363656C65726174696F6E48
:1039F80022203A205B00226D6F746F725F636F6ED6
:103A080074726F6C6C22203A207B0A00226C656607
:103A1800745F656E636F64657222203A0022726972
:103A28006768745F656E636F64657222203A00226E
:103A38006C6566745F737065656422203A00227253
:103A4800696768745F737065656422203A007D0A4F
:0C3A58000023454E440A0072756E0A00FF
:043A64006D2D0008BC
:043A68000024F40042
:04000005080002A548
:00000001FF
