:020000040800F2
:1000000000000220A5020008890200089B020008E7
:100010008902000889020008890200080000000027
:10002000000000000000000000000000890200083D
:100030008902000800000000890200088902000807
:100040008902000889020008890200088902000864
:100050008902000889020008890200088902000854
:100060008902000889020008890200088902000844
:100070008902000889020008890200088902000834
:100080008902000889020008890200088902000824
:100090008902000889020008890200088902000814
:1000A0008902000889020008890200088902000804
:1000B000111A000889020008890200088902000854
:1000C00089020008890200088902000889020008E4
:1000D00089020008890200088902000889020008D4
:1000E00089020008890200088902000889020008C4
:1000F00089020008890200088902000889020008B4
:1001000089020008890200088902000889020008A3
:100110008902000889020008890200088902000893
:100120008902000889020008890200088902000883
:100130008902000889020008890200088902000873
:100140008902000889020008890200088902000863
:100150008902000889020008890200088902000853
:100160008902000889020008890200088902000843
:1001700089020008890200088902000800000000C6
:100180008902000889020008890200088902000823
:100190008902000889020008890200088902000813
:1001A0008902000889020008890200088902000803
:1001B00089020008890200088902000889020008F3
:0801C000890200088902000811
:1001C8000F49D1F8883043F47003C1F888300D4BDB
:1001D8001A68002042F001021A6098601A6822F03A
:1001E800847222F480321A60074A5A601A6822F42C
:1001F80080221A60D8604FF000638B60704700BFA0
:1002080000ED00E00038024010300024174A184979
:10021800936803F00C03042B10B50DD0082B0DD0F8
:10022800144B0B60114B144A9B68C3F30313D25C45
:100238000B68D3400B6010BD104BF2E75468506850
:1002480052686302C2F3881200F03F004CBF0B4BA8
:10025800084BB3FBF0F35343044A5268C2F301421C
:1002680001325200B3FBF2F3DBE700BF0038024073
:10027800000000200024F4002430000800127A0056
:10028800684620F007018D4601B5BDE80140854666
:100298007047684620F007018D46FEE71549164A63
:1002A8001648521A921000239A4217D1144A154E32
:1002B800D2F88830144C43F47003C2F88830D2F86E
:1002C8003432A41B43F04043C2F83432A410002552
:1002D800AC4209D1FFF774FF02F084BE50F8234006
:1002E80041F823400133DFE756F8253098470135B8
:1002F800EEE700BF00000020040000204C34000896
:1003080000ED00E04C34000850340008FEE700001F
:1003180038B5464B984204460D4636D0B0F1804F6A
:1003280033D0A3F57C4398422FD003F580639842DD
:100338002BD003F58063984227D003F58063984259
:1003480023D003F5806398421FD003F57043984289
:100358001BD003F57053984217D003F58063984279
:1003680013D003F5806398420FD0A3F598339842D1
:100378000BD003F58063984207D003F58063984259
:1003880003D0B1212A48FFF7C1FF6B6833F0100290
:1003980009D023F04002202A05D0402B03D0B221F7
:1003A8002348FFF7B3FFEB6833F4807206D0B3F548
:1003B800007F03D0B3211E48FFF7A8FF1B4A23681C
:1003C800944212D002F5806294420ED0B4F1804F6C
:1003D8000BD0A2F58032944207D002F58062944295
:1003E80003D002F58062944203D16A6823F0700357
:1003F8001343104A944207D002F5806294421EBF0C
:10040800EA6823F4407313432360AB68E3622B6804
:10041800A362064B9C4203D003F580639C4201D142
:100428002B6923630123636138BD00BF00000140CD
:10043800343000080010004038B5274B9842044675
:100448000D4637D0B0F1804F34D0A3F57C439842A5
:1004580030D003F5806398422CD003F5806398422E
:1004680028D003F58063984224D003F5806398422E
:1004780020D003F5704398421CD003F5705398427E
:1004880018D003F58063984214D003F5806398422E
:1004980010D0A3F5983398420CD003F580639842A6
:1004A80008D003F58063984204D040F2F9110B4854
:1004B800FFF72CFF012D09D94FF4FD710748FFF70D
:1004C80025FF236843F00103236038BD002DF8D1D0
:1004D800236823F00103F7E70000014034300008E7
:1004E800524B98422DE9F04104460D461FD0B0F119
:1004F800804F1CD0A3F57C43984218D003F5806345
:10050800984214D003F58063984210D003F57843DD
:1005180098420CD003F57053984208D0A3F5943351
:10052800984204D040F29E214148FFF7EFFE2B6825
:1005380033F030020FD023F4803222F01002602A08
:1005480009D023F05003B3F5803F04D040F29F2137
:100558003748FFF7DBFE6B68012B04D94FF428718D
:100568003348FFF7D3FE2B6933F0020304D040F27F
:10057800A1212F48FFF7CAFE236A2A6823F0100337
:100588002362266A6768A36923F0807323F4E6432D
:1005980043EA02282B696A6826F02006134346EAD4
:1005A8000316224B9C4203D003F580639C4234D14E
:1005B800AB6833F0040304D040F2BF211C48FFF7B6
:1005C800A5FE6B6933F0080304D04FF43071184866
:1005D800FFF79CFEEB6933F4007304D040F2C121AD
:1005E8001348FFF793FEAB6933F4807304D040F2ED
:1005F800C2210F48FFF78AFE6B6926F0800646EA9B
:100608000316AB6826F0400646EA0316D5E906321B
:1006180027F44067134347EA8307EB686760C4F829
:100628001880A3632662BDE8F08100BF0000014086
:10063800343000084E4B98422DE9F04104460D46EF
:1006480017D0B0F1804F14D0A3F57C43984210D056
:1006580003F5806398420CD003F58063984208D074
:1006680003F57843984204D040F2EF214148FFF760
:100678004DFE2B6833F030020FD023F4803222F085
:100688001002602A09D023F05003B3F5803F04D04C
:100698004FF43C713748FFF739FE6B68012B04D9DA
:1006A80040F2F1213348FFF731FE2B6933F00203A2
:1006B80004D040F2F2212F48FFF728FE236A2A6867
:1006C80023F480732362266A6768E36923F480331E
:1006D80023F0730343EA02082B696A6826F400765C
:1006E800134346EA0326224B9C4203D003F580635A
:1006F8009C4234D1AB6833F0040304D040F20F318C
:100708001C48FFF703FE6B6933F0080304D04FF46D
:1007180044711848FFF7FAFDEB6933F4007304D00D
:1007280040F211311348FFF7F1FDAB6933F48073E0
:1007380004D040F212310F48FFF7E8FD6B6926F448
:10074800006646EA0326AB6826F4806646EA032676
:10075800D5E9063227F44057134347EA0317EB68F5
:100768006760C4F81C80E3632662BDE8F08100BFBF
:10077800000001403430000838B51A4B984204464E
:100788000D461FD0B0F1804F1CD0A3F57C43984292
:1007980018D003F58063984214D003F5806398421B
:1007A80010D003F5784398420CD003F57053984263
:1007B80008D0A3F59433984204D040F2CE510A48A9
:1007C800FFF7A4FD35F0080304D040F2CF510648E6
:1007D800FFF79CFDA16921F4006141EA0521A161AF
:1007E80038BD00BF000001403430000838B5154B53
:1007F800984204460D4617D0B0F1804F14D0A3F5A7
:100808007C43984210D003F5806398420CD003F5DE
:100818008063984208D003F57843984204D040F2A8
:10082800EB510948FFF772FD35F0080304D040F298
:10083800EC510548FFF76AFDE36923F008031D43FF
:10084800E56138BD000001403430000838B5104B70
:10085800984204460D4608D003F58063984204D0B8
:1008680040F6A9210B48FFF751FD012D09D940F6A3
:10087800AA210848FFF74AFD636C43F40043636408
:1008880038BD002DF8D1636C23F40043F7E700BFAF
:1008980000000140343000082C4B984270B50446E3
:1008A8000D46164637D0B0F1804F34D0A3F57C43BF
:1008B800984230D003F5806398422CD003F58063CA
:1008C800984228D003F58063984224D003F58063CA
:1008D800984220D003F5704398421CD003F570531A
:1008E800984218D003F58063984214D003F58063CA
:1008F800984210D0A3F5983398420CD003F5806342
:10090800984208D003F58063984204D040F6143129
:100918000F48FFF7FBFC35F0FF0300D125B940F67F
:1009280015310B48FFF7F2FC012E08D940F61631B5
:100938000748FFF7EBFCE3681D43E56070BD002E38
:10094800F9D1E36823EA0505F7E700BF0000014095
:10095800343000080F2810B5044603D98D21054806
:10096800FFF7D4FC044B186820F00F0020431860F0
:1009780010BD00BF64300008003C02402DE9F84F6C
:100988004C4B984204460D462BD003F580639842A1
:1009980027D003F58063984223D003F580639842FB
:1009A8001FD003F5806398421BD003F580639842FB
:1009B80017D003F58063984213D003F580639842FB
:1009C8000FD003F5806398420BD003F580639842FB
:1009D80007D003F58063984203D093213648FFF788
:1009E80095FC2B881BB994213348FFF78FFC2B7992
:1009F800032B03D995213048FFF788FCEB79022BAC
:100A080003D996212C48FFF781FCDFF8AC9000262B
:100A180001274FF003082A6807FA06F3934343D1E6
:100A28004FEA460A236808FA0AFB6FEA0B0B03EA47
:100A38000B0323602B79216803FA0AF2013B0A436E
:100A4800012B226023D86B79032B03D9A8214846B0
:100A5800FFF75CFCA3680BEA0303A3606B79A26849
:100A680003FA0AF31343A360AB79012B03D9AF212F
:100A78004846FFF74BFC636807FA06F223EA0203CD
:100A88006360AB796268B3409BB213436360E36809
:100A980008FA0AF223EA0203E360EB79E26803FA50
:100AA8000AFA4AEA0202E2600136102EB3D1BDE822
:100AB800F88F00BF0000024096300008012810B5EA
:100AC800044605D9052803D0D0210448FFF71EFCA9
:100AD800034B00221A701C7010BD00BFD7300008ED
:100AE800023802402DE9F0411D4630F4800380466B
:100AF8000C461746069E04D040F2A5112448FFF77D
:100B080005FCA31E3D2B04D94FF4D3712048FFF7F1
:100B1800FDFBA7F1C003F02B04D940F2A7111C4834
:100B2800FFF7F4FB082D04D84FF4AA73EB40DB075A
:100B380004D44FF4D4711648FFF7E8FBB31E0D2B0D
:100B480004D940F2A9111248FFF7E0FB47F6C0723A
:100B580092FAA2F24FF44030B2FA82F290FAA0F080
:100B68004FF07061B0FA80F091FAA1F144F00053AF
:100B78006D08974043EA0803013DB1FA81F13B4310
:100B880085402B438E40034A33435360BDE8F081D0
:100B9800D730000800380240012810B5084C09D9A0
:100BA80040F2BF110748FFF7B1FB236843F0807399
:100BB800236010BD0028F8D1236823F08073F7E77D
:100BC80000380240D7300008022810B5044604D97E
:100BD80040F2F7210448FFF799FB044A936823F091
:100BE80003031C43946010BDD7300008003802404E
:100BF80030F0800310B5044612D020F02003902B6B
:100C08000ED020F04003A02B0AD020F01003C02BF8
:100C180006D0F02804D04FF44B710548FFF776FB57
:100C2800044A936823F0F0031C43946010BD00BF8E
:100C3800D73000080038024030F4805310B504461D
:100C48000CD020F40063B3F5A05F07D0B0F5C05F07
:100C580004D040F24B310548FFF758FB044A93682B
:100C680023F4E0531C43946010BD00BFD730000844
:100C78000038024030F4805310B504460CD020F4FC
:100C88000063B3F5A05F07D0B0F5C05F04D040F2B1
:100C98006A310548FFF73AFB044B986820F4604036
:100CA80040EAC400986010BDD73000080038024000
:100CB8001D4A936803F00C03042B10B51AD0082BB7
:100CC8001AD01A4B184A036093681949C3F30313DF
:100CD800CC5C0368E34043609468C4F382240C5DF1
:100CE80023FA04F484609268C2F342328A5CD340E7
:100CF800C36010BD0F4BE5E7546851685268630242
:100D0800C2F3881201F03F014CBF0A4B074BB3FBFB
:100D1800F1F35343044A5268C2F3014201325200CC
:100D2800B3FBF2F3CEE700BF003802400024F40022
:100D3800C730000800127A00C30470B505460E4695
:100D480000D420B940F2B1510A48FFF7DFFA012E6A
:100D5800094C08D940F2B2510648FFF7D7FA236C7C
:100D68001D43256470BD002EF9D1236C23EA0505C7
:100D7800F7E700BFD7300008003802400E4B0340A9
:100D880070B505460E4603B920B940F2DF510B484D
:100D9800FFF7BCFA012E0A4C08D94FF4BC6107488A
:100DA800FFF7B4FA636C1D43656470BD002EF9D17A
:100DB800636C23EA0505F7E74C800893D7300008F1
:100DC80000380240A0F12103DBB21C2B10B5044609
:100DD80004D8114A22FA03F3DB070CD404F0DF032A
:100DE800412B08D0A4F17903062B04D940F6C80199
:100DF8000A48FFF78BFA6209012A094B06D11868DD
:100E080004F01F04E04000F0010010BD022A0CBFEE
:100E1800186F586FF4E700BF01000115D7300008BC
:100E28000038024013B50023019341F28834312081
:100E3800FFF7C8FF019B01330193019BA34201D037
:100E48000028F4D03120FFF7BDFF003018BF012083
:100E580002B010BD012810B5084C09D940F2911113
:100E68000748FFF753FA236843F48033236010BD23
:100E78000028F8D1236823F48033F7E70070004096
:100E880007310008012810B5084C09D94FF4D6716C
:100E98000748FFF73BFA236843F40033236010BD8B
:100EA8000028F8D1236823F40033F7E700700040E6
:100EB8000731000800F10043013B1F2B10B5044621
:100EC80026D8164A22FA03F3DB0716D424F0004387
:100ED800042B12D0082B10D0B4F5804F1AD0B4F5DB
:100EE800803F17D0B4F5003F14D0B4F5402F11D08F
:100EF80040F275310A48FFF709FA002C0ADA094B63
:100F0800DB6803F03F03234214BF0120002010BD1B
:100F18000228DBD1034B5B68F5E700BF0380008044
:100F2800073100080070004038B5194B9842044654
:100F38000D4620D0A3F54C4398421CD003F580639E
:100F4800984218D003F58063984214D003F5806363
:100F5800984210D003F5444398420CD0A3F51C43A3
:100F6800984208D003F58063984204D04FF4687122
:100F78000848FFF7CBF9B5F5007F04D340F2A1315B
:100F88000448FFF7C3F9C5F30805A56238BD00BFDB
:100F9800001001403731000838B5304B98420546FB
:100FA8000C4620D0A3F54C4398421CD003F580632F
:100FB800984218D003F58063984214D003F58063F3
:100FC800984210D003F5444398420CD0A3F51C4333
:100FD800984208D003F58063984204D040F26371C8
:100FE8001F48FFF793F9621E1F2A2FD81D4BD340C5
:100FF800DB072DD4402C2BD0B4F5807F28D0B4F556
:10100800007F25D0B4F5806F22D0B4F5006F1FD0D3
:10101800B4F5805F1CD0B4F5804F19D0B4F5004FFB
:1010280016D0B4F5803F13D0B4F5003F10D0B4F516
:10103800802F0DD0B4F5002F0AD0B4F5001F07D0CB
:1010480040F264710648FFF761F901E0802CD1D1C4
:10105800EB69234214BF0120002038BD0010014075
:10106800373100088B80008038B53C4B98420546E4
:101078000C460BD003F58073984207D003F58073B4
:10108800984203D089213648FFF740F9236833F0A6
:10109800407303D08A213248FFF738F92379012BAE
:1010A80003D98B212E48FFF731F96379012B03D936
:1010B8008C212B48FFF72AF9A36833F0405303D05B
:1010C8008D212748FFF722F9E36833F0407212D0E8
:1010D800B2F1806F0FD023F0A062B2F1006F0AD096
:1010E800B3F1306F07D003F17143012B03D98E217F
:1010F8001B48FFF70BF9236933F4006303D08F21F2
:101108001748FFF703F9237D013B0F2B03D99021E3
:101118001348FFF7FBF86A682179236822F04072C8
:1011280022F4807243EA012313436B60AB680D4AD3
:101138001A40D4E903130B43A1680B43617943EACE
:1011480041031343AB60227DEB6A013A23F4700339
:10115800D2B243EA0253EB6238BD00BF002001401F
:1011680069310008FDF7FFC038B5124B98420446B4
:101178000D460CD003F58073984208D003F58073B0
:10118800984204D040F22B110B48FFF7BFF8012D0D
:1011980009D94FF496710848FFF7B8F8A36843F0E7
:1011A8000103A36038BD002DF8D1A36823F0010323
:1011B800F7E700BF00200140693100082DE9F04140
:1011C8009846384B984205460F4614460CD003F50E
:1011D8008073984208D003F58073984204D04FF486
:1011E8001A713148FFF792F8122F04D940F2692199
:1011F8002D48FFF78BF8661EF3B20F2B04D940F287
:101208006A212948FFF782F8B8F1070F04D940F29C
:101218006B212548FFF77AF8092F1BD9A7F10A0394
:10122800EA6803EB43030721994022EA010208FA1E
:1012380003F31343EB60062C18D86C6B06EB860699
:101248001F23B34024EA030407FA06F626436E6315
:10125800BDE8F0812A6907EB470107238B4022EAA2
:10126800030208FA01F313432B61E4E70C2C0CD8B2
:10127800E31F2E6B03EB83031F249C4026EA040420
:1012880007FA03F634432C63E2E70D3C04EB8403CE
:10129800EA6A1F249C4022EA040207FA03F4144372
:1012A800EC62D5E700200140693100080B4B9842F9
:1012B80010B504460CD003F58073984208D003F5A6
:1012C8008073984204D040F2DF210548FFF71EF8EA
:1012D800A36843F08043A36010BD00BF0020014015
:1012E800693100080A4B984210B504460CD003F542
:1012F8008073984208D003F58073984204D040F276
:1013080075310448FFF702F8E06C80B210BD00BFE9
:10131800002001406931000838B5134B9842044653
:101328000D460CD003F58073984208D003F58073FE
:10133800984204D040F2F2510C48FEF7E7FF6B1ECA
:10134800DBB21F2B04D80A4A22FA03F3DB0704D4C2
:1013580040F2F3510548FEF7D9FF23681D4214BF38
:101368000120002038BD00BF00200140693100087D
:101378008B800080704710B52C21044600F07EF861
:10138800204610BDD0ED036AD0ED017A90ED046AD5
:10139800D0ED074AC0ED046A07EE102A76EEA66A79
:1013A80090ED065AC0ED027A05EE901A67EEA47A1F
:1013B80037EE667A45EE857A4160C26037EE067A86
:1013C800D0ED086A80ED056A47EE667A90ED0A7AF4
:1013D80077EE877A90ED097AC0ED0A7AF4EEC77A4B
:1013E800F1EE10FAC8BF80ED0A7AD0ED0A7AB1EEB4
:1013F800477AF4EEC77AF1EE10FA48BF80ED0A7A20
:10140800806A7047002343608360C360036143615F
:101418008362704710B507EE901A07EE102A1A4635
:10142800FFF7F0FF37EE877A029B80ED067AF1EE40
:10143800677AC0ED077A0262436210BD07EE102A90
:101448001A46094B036010B507EE901AFFF7DAFF4A
:1014580037EE877A029B80ED067AF1EE677AC0ED67
:10146800077A0262436210BDA4310008014B0248AA
:101478001860704704000020B40300207047002063
:1014880070477047704714234360704700207047C7
:1014980000207047704710B508210446FFF7EEFF9B
:1014A800204610BD014B0360704700BFB4310008EF
:1014B8002DE9F0411D46036804469B6816460F4611
:1014C8009847236839465B69204698472368314620
:1014D8005B6920469847236829465A692046904701
:1014E80023682046DB68BDE8F0411847036870B5FB
:1014F80004469B6816460D469847236829465B694B
:1015080020469847236831465B69204698472368F8
:1015180020469B689847236845F001015B6920468F
:101528009847236800219B69204698472368054609
:10153800DB6820469847284670BD002342689A42D7
:1015480002D900BF0133F9E7704770477047704709
:1015580010B524210446FFF791FF204610BD10B5B1
:1015680024210446FFF78AFF204610BD10B5D0217C
:101578000446FFF783FF204610BD00001449154BB1
:1015880003600B6B6FEA53236FEA43230B63124B21
:101598004360996821F040519960996841F0405141
:1015A8009960596821F480415960596859601968EF
:1015B80021F040511960196841F080511960074BBA
:1015C8000361074B43638365C367C0F8A030704766
:1015D80000380240F831000800100240D8310008F5
:1015E800E83100084268536923F480432DE9F0414B
:1015F800642104465361344800F086FA6421324875
:1016080000F082FA01270223C4E905734FF0030CA6
:101618000423C4E907C34FF0060E07234FF00E0852
:10162800C4E909E30F23C4E90B8304F11405DFF8C7
:101638009C8004F134072E4656F8041B404600F0FF
:10164800D3F8B7427064F7D162681F4853691F4FD7
:1016580043F480435361642100F056FA55F8041BA3
:10166800384600F0C1F86B6CB542A0EB0300A866E1
:10167800F4D16FF0FF026FF0BF03C4E90E236FF0DF
:101688007F016FF03F03C4E9101340208023C4E9B1
:101698001203C0264FF480730025C4E914634FF485
:1016A800C873A360C4E92955C4E92B55C4E92D556D
:1016B800C4E92F5525732B4604222146024800F021
:1016C800E3F92846BDE8F081A80300205001002076
:1016D800037B72B60BB10022027362B618467047DC
:1016E8004268536943F480435361704742685369C1
:1016F80023F480435361704700EB810030B5826B5F
:10170800D0F8A45002FB05F481B1D0F8A030426BA8
:10171800062902FB03422B440BD8D0F8A810C06B53
:101728000B4400FB012292FBF3F030BD62006B001A
:10173800F3E722442B44F6E7826800F1A403002073
:1017480053F8041B8A4204DB01300828F8D14FF013
:10175800FF3070472DE9F84FDFF86CA0044600F120
:10176800140500F134084FF47A794FF0000B55F85E
:10177800041B504600F038F86B6CC01A09FB00F0E7
:10178800AB6E90FBF3F0D0F57A7054BFC5F88C00BF
:10179800C5F88CB04545EAD12046FFF7CDFF431C7C
:1017A80001460FD02046FFF7A7FF0123064607464C
:1017B80084F8C430012384F8C530C4E93267237340
:1017C800BDE8F88F0023F3E750010020704710B5FB
:1017D80004210446FFF752FE204610BD014B03606A
:1017E800704700BF0C32000808B5012308481A46A4
:1017F800C9B2FFF7E3FC0648FFF758FD0221044889
:10180800FFF78AFD0028F9D00148FFF76BFD08BDF6
:101818000020014030B5114C87B001214FF4807091
:10182800FFF7ACFA01250023694620468DF80430FD
:1018380000938DF80530CDE9023304938DF81450E8
:10184800FFF712FC29462046FFF78EFC2B462A4656
:101858000B212046FFF7B2FC07B030BD0020014045
:10186800F7B5264A264D136B02AC012743F0070350
:10187800136344F8087D03238DF8043021460023C0
:1018880028468DF80730FFF779F8022321462846C5
:101898000093FFF773F80423214628460093FFF7C7
:1018A8006DF808232146284600931026FFF766F8AE
:1018B800214628460096FFF761F84023214628462E
:1018C8000093FFF75BF8802321462846009305F52F
:1018D8000065FFF753F821460A480097FFF74EF8CE
:1018E800214628460096FFF749F820232146284636
:1018F8000093FFF743F803B0F0BD00BF0038024083
:10190800000002400004024010B50446FFF7A8FF9B
:101918002046BDE81040FFF77DBF704710B5042191
:101928000446FFF7ABFD204610BD0000014B0360E5
:10193800704700BF1C320008274A136B30B540F2CD
:10194800FF152B431363254B9C6824F440249C60AB
:101958009C6844F440249C601C6824F440241C6067
:101968001C6844F400241C60106B284310639868BA
:1019780020F440109860986840F440109860186807
:1019880020F440101860186840F400101860586A75
:1019980020F0F0005862586A40F070005862586AA7
:1019A80020F470605862586A40F4E0605862536CE2
:1019B80043F0100353640A4B00220C205A6049007C
:1019C80018609A60074AB2FBF1F1D9601A6842F0D0
:1019D80001021A6030BD00BF00380240000002401A
:1019E8000010014000E6DF0C10B50C4680210548C8
:1019F800FFF7D2FA0028F9D021460248BDE8104086
:101A0800FFF792BA00100140F8B54FF080431A6909
:101A1800D20714D5194F4FF6FE721A610024142606
:101A28003D4606FB0473DA6852B1DA68013ADA60B7
:101A38000134102CF5D1124A136801331360F8BD34
:101A48009A68DA601A7CFF2A1FBF1A7C0132D2B268
:101A58001A7406FB04F3EA18527C002AE8D1EA5803
:101A68000AB1EB58984706FB04535A68002ADFD09E
:101A7800586803689B689847DAE700BF10000020A1
:101A88000C00002070477047F0B572B6114D002465
:101A98004FF0FF304FF0140C2F460CFB04F605EB0B
:101AA800060EAE5926B9DEF80460002E08BF20469F
:101AB8000134102CF1D1441C0AD0C4B2142565435A
:101AC8007C1900267E516160A260E260267463740E
:101AD80062B6F0BD100000200448142303FB010186
:101AE8000023CA608A600B74704700BF1000002092
:101AF80082B072B6034B1B68019362B6019802B0BC
:101B0800704700BF0C00002007B50246FFF7F0FF42
:101B1800014401911046FFF7EBFF019B984201D267
:101B280000BFF7E703B05DF804FB000010B52DED2A
:101B3800028B8AB0002965D0334B994228BF1946D9
:101B480007EE901A9FED317AF8EEE77A012187EED9
:101B5800278A0846FCEEC87A17EE904AFFF7ECF899
:101B6800240C01A8FFF7A4F80594013407EE904A65
:101B7800F8EEE77A002288EE277A05A94FF0804030
:101B88000692DFED237A77EE677AFCEEE77A17EEB6
:101B9800903A9BB2CDE90732FEF7BAFB01214FF02C
:101BA8008040FEF749FC012211464FF08040FEF7C5
:101BB80073FE184A136B6FEA53236FEA43231363C8
:101BC800154B9A6822F003029A609A6842F0030261
:101BD8009A605A6822F001025A605A685A601A6874
:101BE80022F003021A601A6842F001021A600B4BD5
:101BF800102283F81C234FF080521A600AB0BDEC03
:101C0800028B10BD01219BE780F9370360FECD4CA4
:101C18000000803F00380240000C024000E100E074
:101C2800F8B500220C4D142713464FF47A7607FBBB
:101C380002F429190132102A2B514B608E60CB60B7
:101C48000B744B74F3D1054A4FF47A711360036037
:101C5800FFF76CFF62B6F8BD100000200C000020F2
:101C6800704710B508210446FFF708FC204610BD50
:101C780010B5034B03600446FFF70CFC204610BD6B
:101C88002C32000810B50446FFF7F2FF2046102159
:101C9800FFF7F4FB204610BD10B5044621B10349F7
:101CA80000F076FD204610BD0149F9E784330008AD
:101CB800893300081049114B03600B6B6FEA5323FB
:101CC8006FEA43230B630E4B43609A6822F00302CA
:101CD8009A609A6842F003029A605A6822F00102F8
:101CE8005A605A685A601A6822F003021A601A6821
:101CF80042F001021A607047003802409833000829
:101D0800000C024003685A6919B142F001025A6195
:101D1800704722F00102FAE72DE9F04F80468BB0B8
:101D28002348DFF894A0224EDFF89C900C46214906
:101D380000F02EFD2048FFF7D3FC5046FFF7C8FC03
:101D48000028FAD01D4A012301AF52F8041F47F8B2
:101D580023100133092BF8D108F1040B002C4FF0A4
:101D680001015846C8BF04F1FF34FFF7CBFF012536
:101D780057F82510304600F016FD01354946304623
:101D880000F006FD092DF3D10D49304600F000FDA5
:101D980000215846FFF7B6FFC8210A48FFF7B4FEEE
:101DA800002CCAD104480BB0BDE8F04FFFF79EBC29
:101DB800A40300204832000804020020A4020020E6
:101DC80078320008A80300206C320008B9B903680B
:101DD8009A6822F00C029A609A6842F00C029A60A3
:101DE8005A6822F002025A605A685A601A6822F049
:101DF8000C021A601A6842F004021A60704701293E
:101E08000ED103689A6822F00C029A609A6842F030
:101E18000C029A601A6822F00C021A601A68ECE741
:101E2800022913D103689A6822F00C029A609A6812
:101E380042F00C029A601A6822F00C021A601A68C2
:101E48001A60DA6842F00402DA607047052910D196
:101E580003689A6822F00C029A609A6842F00C02B1
:101E68009A601A6822F00C021A601A6842F0080296
:101E7800C3E70429C2D103681A6822F00C021A6069
:101E88001A6842F00C02B8E7064A08B5136B6FEA05
:101E980053236FEA43231363034B03600121FFF7C6
:101EA80095FF08BD00380240000C0240B9B903682C
:101EB8009A6822F030029A609A6842F030029A607A
:101EC8005A6822F004025A605A685A601A6822F066
:101ED80030021A601A6842F010021A60704701292D
:101EE8000ED103689A6822F030029A609A6842F02C
:101EF80030029A601A6822F030021A601A68ECE719
:101F0800022913D103689A6822F030029A609A680D
:101F180042F030029A601A6822F030021A601A6899
:101F28001A60DA6842F01002DA607047052910D1A9
:101F380003689A6822F030029A609A6842F0300288
:101F48009A601A6822F030021A601A6842F0200279
:101F5800C3E70429C2D103681A6822F030021A6064
:101F68001A6842F03002B8E7064A08B5136B6FEA00
:101F780053236FEA43231363034B03600121FFF7E5
:101F880095FF08BD00380240000C0240142310B52C
:101F9800436004460830FFF777FF04F10C00FFF7B1
:101FA800E3FFA268536923F002035361E2685369AF
:101FB80023F00403536110BD2DE9F041454C464F11
:101FC800DFF87881051D28460121FFF79BFE204692
:101FD8004FF4E131FFF7B0FC2046404900F0D8FB50
:101FE8003F49204600F0D4FBFFF740FA3D4906463A
:101FF800204600F0CDFB31463B4E204600F0FCFB6E
:102008003146204600F0C4FB3846FFF709FE20465B
:10201800364900F0BDFB2046354900F0B9FB38468B
:10202800C821FFF771FD3349334F204600F0B0FB5C
:102038004046FFF7ABFF2046304900F0A9FB414678
:10204800384600F00BFB2E49204600F0A1FB38462D
:1020580000F0F9FA01462046FFF71EFE314600F06F
:1020680097FB2848FFF750FC2749204600F090FBD3
:102078002648FFF7B7FA2649204600F089FB25488D
:1020880000F030FE2449204600F082FB234800F08F
:10209800EDF92349204600F07BFB224800F062FC62
:1020A8002149204600F074FB204800F003FF204639
:1020B8001F4900F06DFB20461E4900F069FB2046D1
:1020C8001D4900F065FB28460021FFF71BFE002094
:1020D800BDE8F081A4030020A80300206E320008A8
:1020E8007A3200088E32000878320008AC320008D4
:1020F800BD320008D4320008A8010020CB32000805
:10210800DA32000850010020EE32000804020020F4
:10211800FD32000854010020143300089401002007
:102128002F330008D402002049330008EC010020B6
:1021380063330008773200087233000898010020E2
:1021480070B5044600F10C0604F10805304600217C
:10215800FFF7ACFE28460021FFF738FE3046012184
:10216800FFF7A4FE28460021FFF730FE3046012184
:10217800FFF79CFE28460121FFF728FE2046BDE810
:102188007040FFF7DAB970B5044600F10C0604F1A7
:10219800080530460121FFF789FE28460121FFF78F
:1021A80015FE30460121FFF781FE28460021FFF782
:1021B8000DFE30460021FFF779FE28460121FFF782
:1021C80005FE2046BDE87040FFF7B7B92DE9F84392
:1021D800044600F108084046894604F10C0701212D
:1021E800FFF7F4FD00213846FFF760FE2046FFF7B1
:1021F800A4F90826002501213846FFF757FE204696
:10220800FFF79BF9A3681B696D009B074FF000015E
:102218003846EDB248BF45F00105013EFFF746FEDE
:102228002046FFF78AF916F0FF06E4D1B9F1000F4E
:102238001ED031464046FFF7C9FD2046FFF77DF91D
:1022480001213846FFF732FE2046FFF776F90021D4
:102258003846FFF72BFE2046FFF76FF9012140466D
:10226800FFF7B4FD2046FFF768F92846BDE8F88374
:102278000121DFE72DE9F041082504460F4600EB70
:10228800050804F10C0600213046FFF70FFE204632
:10229800FFF753F93B064CBF012100214046FFF7E9
:1022A80095FD2046FFF749F901213046FFF7FEFD6D
:1022B800013D2046FFF741F97F0015F0FF05FFB209
:1022C800DFD129463046FFF7F1FD2046FFF735F903
:1022D80001214046FFF77AFD2046FFF72EF901213C
:1022E8003046FFF7E3FD2046FFF727F9A3682946A4
:1022F8001F693046FFF7DAFD2046FFF71EF987F021
:102308000200C0F34000BDE8F081000038B5384D48
:10231800384C2846FFF7CEFC2846374D3749224629
:10232800FFF7ADF8284600F029FA2846344D35491C
:102338002246FFF7A4F82846FFF7A4FB2846324DAB
:1023480032492246FFF79BF82846FFF7ABF82846A4
:102358002F4B40F8083BFFF797FD05F10C00FFF7FE
:1023680003FE28462B4D2C492246FFF788F82846BD
:1023780000F0A2F82846294D29492246FFF77FF8A0
:102388002846FFF72BFA2846264D27492246FFF70D
:1023980076F82846FFF7F2F82846244D24492246C5
:1023A800FFF76DF8284600F075FC2846214D2249B4
:1023B8002246FFF764F8284600F052F828461F4DD9
:1023C8001F492246FFF75BF8284600F0ABFA28467B
:1023D8001C4D1D492246FFF752F8284600F028FDFB
:1023E800224628461949BDE83840FFF748B800BFDB
:1023F8008C01002008000020A4030020691C0008AC
:10240800A80300205D270008980100208F1A000803
:102418002C320008A8010020791C00085001002077
:10242800B124000804020020D51700085401002038
:1024380053150008940100208D2C0008D4020020B8
:1024480059240008EC010020D1290008092E0008B1
:10245800704710B504210446FFF710F8204610BD58
:10246800014B0360704700BFA8330008024A0023ED
:102478001360024A13607047AC030020B0030020C9
:10248800034B18682C234343B42093FBF0F07047A8
:10249800AC030020034B18682C234343B42093FB60
:1024A800F0F07047B0030020704710B5442104468F
:1024B800FEF7E4FF204610BD014B0360704700BFE4
:1024C800B83300082DE9F0410446006C03689B68A6
:1024D80088469847206C0368D4215B699847206C2C
:1024E800036819215B699847206C03689B689847C3
:1024F800206C0368D5215B699847206C036801212B
:102508009B699847000207B2206C036801219B6908
:1025180098470743206C036801219B69984700028C
:1025280006B2206C036801219B6998470643206C1A
:10253800036801219B699847000205B2206C036873
:1025480000219B6998470543206C0368DB683FB20C
:1025580036B22DB29847B8F1000F08D0A36A3B44B1
:10256800A362E36A3344E362236B2B442363A36AC5
:10257800E169226BE06AFB1AAD1A2361192293FB09
:10258800F2F301EB4303E361236AA561301A60614A
:1025980090FBF2F003EB40002062636A206C95FB2D
:1025A800F2F503EB4505036865629B689847206C64
:1025B8000368D4215B699847206C036829215B690B
:1025C8009847206C03689B689847206C0368D5215E
:1025D8005B699847206C036801219B699847000252
:1025E80007B2206C036801219B6998470743206C58
:1025F800036801219B699847000206B2206C0368B2
:1026080001219B6998470643206C036801219B6957
:102618009847000205B2206C036800219B6998471F
:102628000543206C0368DB6898473FB236B22DB289
:102638000123C4E90176E56084F83C30BDE8F08107
:102648000021FFF73FBF406B003018BF01207047E3
:1026580011F1FF3101D300BFFAE7704738B50446DE
:10266800102208462164A823D421FEF721FF002365
:10267800C4E90433A361C4E90A332363C4E9073313
:10268800636242F210712046FFF7E2FF0F22636394
:10269800D421206CFEF72AFF682804BF0123636356
:1026A8001022A823D421206CFEF702FF38231E2213
:1026B800D421206CFEF7FCFE00232E22D421206CAE
:1026C800FEF7F6FE00231222D421206CFEF7F0FE5E
:1026D80060232022D421206CFEF7EAFE38231F2233
:1026E800D421206CFEF7E4FE42F210712046FFF779
:1026F800AFFF0021FFF7E6FE0023A3634FF47A75CE
:1027080001212046FFF7DEFE64212046FFF7A0FFE7
:10271800013DF5D14FF47A72A36A656293FBF2F337
:10272800C4E90755A362C4E90155E36AE56093FB70
:10273800F2F32146E3620648236B93FBF2F30A2285
:1027480023632B46FFF7A0F984F83C5038BD00BF3F
:10275800A803002010B5034B03600446FFF7DDF81B
:10276800204610BDCC33000810B50446FFF7F2FF31
:1027780020460421FEF782FE204610BD10B504460F
:10278800FFF7D4F8014B2360204610BDCC33000876
:1027980038B505464C1E14F8011F19B12846FFF735
:1027A80023F9F8E738BD7FB50B1E4FF000024FF054
:1027B8000A01BABF5B42012414468DF80F200E4669
:1027C80004AA93FBF6F50A4406FB1533303302F8E6
:1027D8000C3C4A1ED2B22B4665B92CB104AB13444B
:1027E8002D2103F80C1C114601AB1944FFF7D0FF4B
:1027F80004B070BD1146E3E730B585B000230A2266
:102808008DF80F301546B1FBF5F405FB141304A938
:102818001144303301F80C3C531EDBB221462CB96D
:1028280001AB9918FFF7B4FF05B030BD1A46EAE7C7
:1028380038B5C368364D2DED048B4360036983605A
:1028480004462846FFF71CFEE0602846FFF722FEF4
:102858006268E3689FED2F5AD4ED056ADFED2E5AC2
:102868009FED2E6A20619B1A07EE103AB8EEC77AE0
:10287800A3689FED2B9A27EE057A66EEA56A47EEC8
:10288800066AC31A04F1780007EE903AF8EEE77A80
:10289800C4ED056AB0EE667AD4ED066A67EE857A0D
:1028A80066EEA56A47EE866AD4ED077AC4ED066A35
:1028B80077EEC77A17EE102A17EE901AFEF762FD28
:1028C800A269D4ED087A07EE102A77EEC77A08EEE7
:1028D800900A17EE901A04F1A400FEF753FD68EE73
:1028E800898A2434FDEEE87A08EE100A17EE901A69
:1028F800204600F017F928EE098A2046FDEEC87A2E
:10290800BDEC048B17EE901ABDE8384000F026B9EC
:1029180094010020CDCCCC3D6666663F0000003EA9
:1029280000007F4373B50E4B002504464FF07E56DA
:1029380040F8243B00F06EF82B462A4629460096BC
:1029480004F17800FEF77AFD00962B462A462946C0
:1029580004F1A400FEF772FD204602B070BD00BF6E
:10296800DC330008F7B5154F154E04464FF07E5579
:10297800243000F00FF900952B463A46314604F111
:102988007800FEF747FD00952B463A46314604F19C
:10299800A400FEF73FFD002500236361A361E36106
:1029A8002362C4E90155C4E903552B460422214694
:1029B8000448FFF769F8284603B0F0BDEC51B83D6C
:1029C800CDCC4C3FA803002010B5084B044640F876
:1029D800A43BFEF7CFFC04F17800FEF7CBFC04F132
:1029E800240000F00FF8204610BD00BFDC330008BB
:1029F80010B50446FFF7E8FF2046D021FEF73EFD5C
:102A0800204610BD704710B554210446FEF736FD28
:102A1800204610BD3F4A404B0360136B30B540F26F
:102A2800FF14234313633D4B43609D6825F0030562
:102A38009D609D6845F003059D605D6825F0010572
:102A48005D605D685D601D6825F003051D601D689B
:102A580045F001051D60136B23431363304B8360FE
:102A68009D6825F040759D609D6845F040759D60A6
:102A78005D6825F480555D605D685D601D6825F0C2
:102A880040751D601D6845F080751D60156B2543F8
:102A980015639D68C36025F040659D609D6845F09D
:102AA80040659D601D6825F040651D601D6845F006
:102AB80000651D60156B254315639D68036125F44A
:102AC80040159D609D6845F440159D605D6825F43E
:102AD80080655D605D685D601D6825F440151D605A
:102AE8001D6845F480151D60156B2C4314639A68A6
:102AF800436122F440029A609A6842F440029A6064
:102B08001A6822F440021A601A6842F400021A6035
:102B180030BD00BF0038024014340008000C0240E9
:102B280000100240836800295A690FDD22F48052A0
:102B3800FF295A610B46A8BFFF2340F2445159436D
:102B4800FF23B1FBF3F1044BD963704742F4805281
:102B58005A6101F1FF03F0E7000001400369002911
:102B68005A690DDD42F480625A61C1F1FF0140F2F9
:102B780044535943FF23B1FBF3F1054B9963704765
:102B8800494222F48062FF295A61A8BFFF21EEE77B
:102B9800000001402DE9F843364D3749374E0446C9
:102BA8002846FFF7F5FD28463549FFF7F1FD62682D
:102BB800536943F001035361A268536923F48053B6
:102BC80053612269536923F480635361E3685A6A45
:102BD80022F470025A625A6A42F480125A62636995
:102BE8005A6A22F470425A625A6A012142F48052A7
:102BF8005A620846FEF7C2F8002540F245520827F7
:102C08004FF48073C4E90A2304F120013046C4E973
:102C180008752563FDF77CFB30460121FDF70CFCA8
:102C28004FF00108602304F13409636349463046D4
:102C38002564C4E90E85C4E91155C4E91355FDF7A7
:102C4800F9FC39463046FDF7D1FD49463046FDF7D7
:102C580047FC39463046FDF78FFD41463046FDF7C3
:102C6800F5FD29462046FFF75DFF2946BDE8F843F4
:102C7800FFF774BFA4030020E833000800000140F8
:102C8800F8330008704710B538210446FEF7F6FB04
:102C9800204610BD1049114B03600B6B6FEA53239C
:102CA8006FEA43230B630E4B83619A6822F0C002DC
:102CB8009A609A6842F0C0029A605A6822F0080244
:102CC8005A605A685A601A6822F0C0021A601A6874
:102CD80042F040021A60704700380240243400086D
:102CE80000100240826938B55369002523F00803B3
:102CF800C561044653614FF48073C0E90855C0E9C3
:102D08000A55C0E90C55C0E90133C3600574457420
:102D180001462B460A220348FEF7B6FE25752846CB
:102D280038BD00BFA803002000EB8202D36A126AF4
:102D38009B1A23EAE3731022C3F5805393FBF2F343
:102D48000A6802EB42021344042293FBF2F30B607D
:102D58007047000038B5C569044615B1012D17D074
:102D680038BD08212548FEF73FFD0A21E0622348C7
:102D7800FEF73AFD092120632048FEF735FDA269D8
:102D88006063536943F0080353610123E361E7E794
:102D980008211A48FEF728FD0A2120621748FEF785
:102DA80023FD092160621548FEF71EFDA269A06295
:102DB800536923F0080353612046002204F10801F7
:102DC800FFF7B2FF2A46211DFFF7AEFF022204F1EA
:102DD8000C01FFF7A9FFA268EF2A4FF0000304DCFB
:102DE800D12A257403DD637402E02374FBE765745C
:102DF8000023E36101232375B2E700BF50010020DF
:102E0800704710B518210446FEF738FB204610BD60
:102E1800027B836832B1002202735A6942F00102D0
:102E28005A617047012202735A6922F00102F7E7DA
:102E38001C4A1D4B0360136B30B540F2FF152B4342
:102E480013631A4B43609C6824F040749C609C6830
:102E580044F040749C601C6824F040741C601C683A
:102E68001C60DC6844F08074DC60136B2B431363D4
:102E78000F4B83609A6822F003029A609A6842F0C6
:102E880003029A605A6822F001025A605A685A602E
:102E98001A6822F003021A601A6842F001021A60E6
:102EA80030BD00BF00380240383400080008024036
:102EB800000C02404FF0FF3310B543610023044675
:102EC800037301464FF4FA720248FEF7DDFD2061F4
:102ED80010BD00BFA803002070B5044663681B69D5
:102EE800DA0401D500BFF9E7012363616422217C7C
:102EF8000F480F4DFEF7F0FD0D48FEF7F9FD00F500
:102F0800FA6663681B69DB040FD40948FEF7F0FD15
:102F1800B042F6D96369012BF3D13222217C2846CD
:102F2800FEF7DAFD02236361EBE7606970BD00BF5D
:102F3800A803002013B50120FDF7C0FDFDF772FFBF
:102F48000128044600D0FEE7092300934FF48000CF
:102F580002234FF4D8720821FDF7C4FD2046FDF77F
:102F68001BFE3920FDF72EFF0028FAD04FF08050C5
:102F78000121FDF7E1FE0120FDF76CFF4FF48030E1
:102F8800FDF798FF0028F9D03120FDF71BFF002836
:102F9800FAD00120FDF776FF4FF40030FDF78AFFE5
:102FA8000028F9D00720FDF7D5FC0220FDF70CFE1C
:102FB8000020FDF71DFE4FF4A050FDF73DFE4FF435
:102FC8008050FDF757FE02B0BDE81040FDF71EB96E
:102FD80008B5FDF7F5F8FFF7ADFFBDE80840FDF7C8
:102FE80015B9000008B5FFF7F3FF0848FEF7E4FF3E
:102FF8000748FFF771FF07490748FFF7C9FB4FF07C
:10300800FF310248FEF788FEFEE700BF8C01002072
:10301800EC01002044340008A40300200000000054
:1030280000000000010203040607080953544D3349
:1030380032463778785F5374645065726970685F98
:103048004472697665722F2F7372632F73746D33B0
:1030580032663778785F74696D2E630053544D3348
:1030680032463778785F5374645065726970685F68
:103078004472697665722F2F7372632F73746D3380
:1030880032663778785F666C6173682E63005354D4
:103098004D3332463778785F53746450657269707F
:1030A800685F4472697665722F2F7372632F737429
:1030B8006D3332663778785F6770696F2E6300000A
:1030C8000000000102030401020304060708095373
:1030D800544D3332463778785F537464506572695B
:1030E80070685F4472697665722F2F7372632F73ED
:1030F800746D3332663778785F7263632E6300537A
:10310800544D3332463778785F537464506572692A
:1031180070685F4472697665722F2F7372632F73BC
:10312800746D3332663778785F7077722E63005328
:10313800544D3332463778785F53746450657269FA
:1031480070685F4472697665722F2F7372632F738C
:10315800746D3332663778785F75736172742E6375
:103168000053544D3332463778785F537464506552
:10317800726970685F4472697665722F2F73726323
:103188002F73746D3332663778785F6164632E63AA
:103198000000000000000000000000007D1300088F
:1031A8007F13000800000000000000009D140008C4
:1031B8009F1400088B1400088D1400088F14000851
:1031C8009514000899140008000000000000000091
:1031D80055150008591500080000000000000000FF
:1031E80057150008671500080000000000000000DF
:1031F80053150008751500085D1700080000000049
:1032080000000000D5170008D717000800000000CC
:10321800000000002319000825190008000000001C
:1032280000000000791C00088D1C00088F21000890
:1032380049210008951F00087D220008D5210008B3
:103248000A746573745F69725F73656E736F720A6F
:1032580000096573745F696D755F73656E736F726E
:103268000A00203A20000A0A0A23232323230A0AF1
:103278000A007465726D696E616C20696E697420EC
:10328800646F6E650A006D656D20696E69742064EF
:103298006F6E652C2068656170207374617274208C
:1032A8006174200074696D657220696E69742064A8
:1032B8006F6E650A0064656C617920323030206D6C
:1032C80073200069326320696E697420646F6E65CB
:1032D8000A00696D7520696E697420646F6E6520D7
:1032E80077697468200061646320696E697420647A
:1032F8006F6E650A006C696E652073656E736F7218
:1033080020696E697420646F6E650A00646973745D
:10331800616E63652073656E736F7220696E697480
:1033280020646F6E650A00656E636F646572207352
:10333800656E736F7220696E697420646F6E650ABA
:10334800006D6F746F7220636F6E74726F6C6C2097
:10335800696E697420646F6E650A006B657920690F
:103368006E697420646F6E650A0073797374656D95
:1033780020696E697420646F6E650A0074727565E1
:103388000066616C7365000000000000000000002A
:10339800691C00086B1C0008000000000000000009
:1033A800592400085B240008000000000000000009
:1033B800B1240008B32400084926000800000000D2
:1033C800000000005D2700087127000800000000C9
:1033D80000000000D1290008F92900083928000850
:1033E8004D4F544F522050574D20696E69740A0052
:1033F8004D4F544F52204750494F20696E69740A07
:103408000000000000000000000000000D2A000875
:103418000F2A000800000000000000008D2C0008A2
:103428008F2C00085D2D000800000000000000003F
:10343800092E00080B2E0008192E000872756E0A56
:043448000000000080
:04344C00152300083C
:043450000024F40060
:04000005080002A548
:00000001FF
