:020000040800F2
:1000000000000220E5010008C9010008DB0100082A
:10001000C9010008C9010008C9010008000000006A
:10002000000000000000000000000000C9010008FE
:10003000C901000800000000C9010008C90100084A
:10004000C9010008C9010008C9010008C901000868
:10005000C9010008C9010008C9010008C901000858
:10006000C9010008C9010008C9010008C901000848
:10007000C9010008C9010008C9010008C901000838
:10008000C9010008C9010008C9010008C901000828
:10009000C9010008C9010008C9010008C901000818
:1000A000C9010008C9010008C9010008C901000808
:1000B0003D2F0008C9010008C9010008C901000856
:1000C000C9010008C9010008C9010008C9010008E8
:1000D000C9010008C9010008C9010008C9010008D8
:1000E000C9010008C9010008C9010008C9010008C8
:1000F000C9010008C9010008C9010008C9010008B8
:10010000C9010008C9010008C9010008C9010008A7
:10011000C9010008C9010008C9010008C901000897
:10012000C9010008C9010008C9010008C901000887
:10013000C9010008C9010008C9010008C901000877
:10014000C9010008C9010008C9010008C901000867
:10015000C9010008C9010008C9010008C901000857
:10016000C9010008C9010008C9010008C901000847
:10017000C9010008C9010008C90100080000000009
:10018000C9010008C9010008C9010008C901000827
:10019000C9010008C9010008C9010008C901000817
:1001A000C9010008C9010008C9010008C901000807
:1001B000C9010008C9010008C9010008C9010008F7
:0801C000C9010008C901000893
:1001C800684620F007018D4601B5BDE80140854627
:1001D8007047684620F007018D46FEE71549164A24
:1001E8001648521A921000239A4217D1144A154EF3
:1001F800D2F88830144C43F47003C2F88830D2F82F
:100208003432A41B43F04043C2F83432A410002512
:10021800AC4209D100F01AF801F0A6BC50F823400E
:1002280041F823400133DFE756F825309847013578
:10023800EEE700BF0000002004000020283F00086F
:1002480000ED00E0283F00082C3F00080F49D1F8D6
:10025800883043F47003C1F888300D4B1A680020C9
:1002680042F001021A6098601A6822F0847222F43F
:1002780080321A60074A5A601A6822F480221A608B
:10028800D8604FF000638B60704700BF00ED00E05E
:100298000038024010300024174A1849936803F0C8
:1002A8000C03042B10B50DD0082B0DD0144B0B608C
:1002B800114B144A9B68C3F30313D25C0B68D340F9
:1002C8000B6010BD104BF2E7546850685268630227
:1002D800C2F3881200F03F004CBF0B4B084BB3FB36
:1002E800F0F35343044A5268C2F301420132520008
:1002F800B3FBF2F3DBE700BF003802400000002048
:100308000024F4006C3A000800127A00FEE70000AE
:100318002DE9F84F4C4B984204460D462BD003F577
:100328008063984227D003F58063984223D003F571
:10033800806398421FD003F5806398421BD003F571
:100348008063984217D003F58063984213D003F571
:10035800806398420FD003F5806398420BD003F571
:100368008063984207D003F58063984203D09321B5
:100378003648FFF7CBFF2B881BB994213348FFF78A
:10038800C5FF2B79032B03D995213048FFF7BEFF12
:10039800EB79022B03D996212C48FFF7B7FFDFF83A
:1003A800AC90002601274FF003082A6807FA06F3E5
:1003B800934343D14FEA460A236808FA0AFB6FEAD7
:1003C8000B0B03EA0B0323602B79216803FA0AF26B
:1003D800013B0A43012B226023D86B79032B03D9F5
:1003E800A8214846FFF792FFA3680BEA0303A3601E
:1003F8006B79A26803FA0AF31343A360AB79012B64
:1004080003D9AF214846FFF781FF636807FA06F270
:1004180023EA02036360AB796268B3409BB213437B
:100428006360E36808FA0AF223EA0203E360EB79FF
:10043800E26803FA0AFA4AEA0202E2600136102E7A
:10044800B3D1BDE8F88F00BF000002407C3A000835
:1004580038B5194B984204460D4620D0A3F54C43B5
:1004680098421CD003F58063984218D003F5806346
:10047800984214D003F58063984210D003F54443A2
:1004880098420CD0A3F51C43984208D003F580632A
:10049800984204D04FF468710848FFF737FFB5F564
:1004A800007F04D340F2A1310448FFF72FFFC5F3C2
:1004B8000805A56238BD00BF00100140AC3A00082D
:1004C80038B5304B984205460C4620D0A3F54C432E
:1004D80098421CD003F58063984218D003F58063D6
:1004E800984214D003F58063984210D003F5444332
:1004F80098420CD0A3F51C43984208D003F58063BA
:10050800984204D040F263711F48FFF7FFFE621E55
:100518001F2A2FD81D4BD340DB072DD4402C2BD0BE
:10052800B4F5807F28D0B4F5007F25D0B4F5806F6E
:1005380022D0B4F5006F1FD0B4F5805F1CD0B4F59D
:10054800804F19D0B4F5004F16D0B4F5803F13D0C2
:10055800B4F5003F10D0B4F5802F0DD0B4F5002FBE
:100568000AD0B4F5001F07D040F264710648FFF7BF
:10057800CDFE01E0802CD1D1EB69234214BF0120CC
:10058800002038BD00100140AC3A00088B80008084
:1005980038B53C4B984205460C460BD003F58073A2
:1005A800984207D003F58073984203D089213648D2
:1005B800FFF7ACFE236833F0407303D08A2132483A
:1005C800FFF7A4FE2379012B03D98B212E48FFF7CF
:1005D8009DFE6379012B03D98C212B48FFF796FEEA
:1005E800A36833F0405303D08D212748FFF78EFED0
:1005F800E36833F0407212D0B2F1806F0FD023F06D
:10060800A062B2F1006F0AD0B3F1306F07D003F1E6
:100618007143012B03D98E211B48FFF777FE23690D
:1006280033F4006303D08F211748FFF76FFE237D53
:10063800013B0F2B03D990211348FFF767FE6A6827
:100648002179236822F0407222F4807243EA012360
:1006580013436B60AB680D4A1A40D4E903130B438C
:10066800A1680B43617943EA41031343AB60227DE0
:10067800EB6A013A23F47003D2B243EA0253EB6205
:1006880038BD00BF00200140DD3A0008FDF7FFC07B
:1006980038B5124B984204460D460CD003F58073CA
:1006A800984208D003F58073984204D040F22B1189
:1006B8000B48FFF72BFE012D09D94FF49671084816
:1006C800FFF724FEA36843F00103A36038BD002DA3
:1006D800F8D1A36823F00103F7E700BF0020014029
:1006E800DD3A00082DE9F0419846384B9842054616
:1006F8000F4614460CD003F58073984208D003F5D2
:100708008073984204D04FF41A713148FFF7FEFD08
:10071800122F04D940F269212D48FFF7F7FD661E14
:10072800F3B20F2B04D940F26A212948FFF7EEFDF6
:10073800B8F1070F04D940F26B212548FFF7E6FD11
:10074800092F1BD9A7F10A03EA6803EB4303072122
:10075800994022EA010208FA03F31343EB60062CDE
:1007680018D86C6B06EB86061F23B34024EA0304F3
:1007780007FA06F626436E63BDE8F0812A6907EB9F
:10078800470107238B4022EA030208FA01F31343C7
:100798002B61E4E70C2C0CD8E31F2E6B03EB8303CF
:1007A8001F249C4026EA040407FA03F634432C630A
:1007B800E2E70D3C04EB8403EA6A1F249C4022EA2A
:1007C800040207FA03F41443EC62D5E70020014061
:1007D800DD3A00080B4B984210B504460CD003F5DF
:1007E8008073984208D003F58073984204D040F291
:1007F800DF210548FFF78AFDA36843F08043A36023
:1008080010BD00BF00200140DD3A00080A4B9842A5
:1008180010B504460CD003F58073984208D003F550
:100828008073984204D040F275310448FFF76EFD9A
:10083800E06C80B210BD00BF00200140DD3A000826
:1008480038B5134B984204460D460CD003F5807317
:10085800984208D003F58073984204D040F2F251D0
:100868000C48FFF753FD6B1EDBB21F2B04D80A4A56
:1008780022FA03F3DB0704D440F2F3510548FFF7EB
:1008880045FD23681D4214BF0120002038BD00BF6C
:1008980000200140DD3A00088B80008038B5464BC7
:1008A800984204460D4636D0B0F1804F33D0A3F5B8
:1008B8007C4398422FD003F5806398422BD003F5F0
:1008C8008063984227D003F58063984223D003F5CC
:1008D800806398421FD003F5704398421BD003F5FC
:1008E8007053984217D003F58063984213D003F5EC
:1008F800806398420FD0A3F5983398420BD003F544
:100908008063984207D003F58063984203D0B121F1
:100918002A48FFF7FBFC6B6833F0100209D023F07C
:100928004002202A05D0402B03D0B2212348FFF7EC
:10093800EDFCEB6833F4807206D0B3F5007F03D08A
:10094800B3211E48FFF7E2FC1B4A2368944212D0E9
:1009580002F5806294420ED0B4F1804F0BD0A2F51C
:100968008032944207D002F58062944203D002F5A7
:100978008062944203D16A6823F070031343104ADB
:10098800944207D002F5806294421EBFEA6823F4BD
:10099800407313432360AB68E3622B68A362064B82
:1009A8009C4203D003F580639C4201D12B692363E9
:1009B8000123636138BD00BF000001400C3B000803
:1009C8000010004038B5274B984204460D4637D0F2
:1009D800B0F1804F34D0A3F57C43984230D003F572
:1009E800806398422CD003F58063984228D003F5A1
:1009F8008063984224D003F58063984220D003F5A1
:100A0800704398421CD003F57053984218D003F5F0
:100A18008063984214D003F58063984210D0A3F500
:100A2800983398420CD003F58063984208D003F5B8
:100A38008063984204D040F2F9110B48FFF766FC36
:100A4800012D09D94FF4FD710748FFF75FFC2368B2
:100A580043F00103236038BD002DF8D1236823F04B
:100A68000103F7E7000001400C3B0008524B984295
:100A78002DE9F04104460D461FD0B0F1804F1CD03F
:100A8800A3F57C43984218D003F58063984214D0AC
:100A980003F58063984210D003F5784398420CD050
:100AA80003F57053984208D0A3F59433984204D0C4
:100AB80040F29E214148FFF729FC2B6833F03002B1
:100AC8000FD023F4803222F01002602A09D023F0DC
:100AD8005003B3F5803F04D040F29F213748FFF719
:100AE80015FC6B68012B04D94FF428713348FFF7C4
:100AF8000DFC2B6933F0020304D040F2A1212F48EA
:100B0800FFF704FC236A2A6823F010032362266A8D
:100B18006768A36923F0807323F4E64343EA022855
:100B28002B696A6826F02006134346EA0316224B0F
:100B38009C4203D003F580639C4234D1AB6833F008
:100B4800040304D040F2BF211C48FFF7DFFB6B69A8
:100B580033F0080304D04FF430711848FFF7D6FB80
:100B6800EB6933F4007304D040F2C1211348FFF756
:100B7800CDFBAB6933F4807304D040F2C2210F4837
:100B8800FFF7C4FB6B6926F0800646EA0316AB68DC
:100B980026F0400646EA0316D5E9063227F44067F0
:100BA800134347EA8307EB686760C4F81880A363B8
:100BB8002662BDE8F08100BF000001400C3B000840
:100BC8004E4B98422DE9F04104460D4617D0B0F13E
:100BD800804F14D0A3F57C43984210D003F580636E
:100BE80098420CD003F58063984208D003F5784307
:100BF800984204D040F2EF214148FFF787FB2B6869
:100C080033F030020FD023F4803222F01002602A31
:100C180009D023F05003B3F5803F04D04FF43C7162
:100C28003748FFF773FB6B68012B04D940F2F121B9
:100C38003348FFF76BFB2B6933F0020304D040F213
:100C4800F2212F48FFF762FB236A2A6823F4807396
:100C58002362266A6768E36923F4803323F0730309
:100C680043EA02082B696A6826F40076134346EAC9
:100C78000326224B9C4203D003F580639C4234D167
:100C8800AB6833F0040304D040F20F311C48FFF77F
:100C98003DFB6B6933F0080304D04FF444711848E6
:100CA800FFF734FBEB6933F4007304D040F21131E1
:100CB8001348FFF72BFBAB6933F4807304D040F281
:100CC80012310F48FFF722FB6B6926F4006646EAEB
:100CD8000326AB6826F4806646EA0326D5E9063281
:100CE80027F44057134347EA0317EB686760C4F8D3
:100CF8001C80E3632662BDE8F08100BF000001406C
:100D08000C3B000838B51A4B984204460D461FD0D4
:100D1800B0F1804F1CD0A3F57C43984218D003F55E
:100D28008063984214D003F58063984210D003F58D
:100D3800784398420CD003F57053984208D0A3F535
:100D48009433984204D040F2CE510A48FFF7DEFAB5
:100D580035F0080304D040F2CF510648FFF7D6FA21
:100D6800A16921F4006141EA0521A16138BD00BFF4
:100D7800000001400C3B000838B5154B984204466A
:100D88000D4617D0B0F1804F14D0A3F57C4398429C
:100D980010D003F5806398420CD003F58063984225
:100DA80008D003F57843984204D040F2EB51094843
:100DB800FFF7ACFA35F0080304D040F2EC510548CF
:100DC800FFF7A4FAE36923F008031D43E56138BD82
:100DD800000001400C3B000838B5104B984204460F
:100DE8000D4608D003F58063984204D040F6A92147
:100DF8000B48FFF78BFA012D09D940F6AA210848BC
:100E0800FFF784FA636C43F40043636438BD002D34
:100E1800F8D1636C23F40043F7E700BF00000140FA
:100E28000C3B00082C4B984270B504460D461646FC
:100E380037D0B0F1804F34D0A3F57C43984230D0FE
:100E480003F5806398422CD003F58063984228D03C
:100E580003F58063984224D003F58063984220D03C
:100E680003F5704398421CD003F57053984218D08C
:100E780003F58063984214D003F58063984210D03C
:100E8800A3F5983398420CD003F58063984208D0B4
:100E980003F58063984204D040F614310F48FFF7F9
:100EA80035FA35F0FF0300D125B940F615310B4866
:100EB800FFF72CFA012E08D940F616310748FFF73C
:100EC80025FAE3681D43E56070BD002EF9D1E3689B
:100ED80023EA0505F7E700BF000001400C3B0008C6
:100EE8000F2810B5044603D98D210548FFF70EFADF
:100EF800044B186820F00F002043186010BD00BF95
:100F08003B3B0008003C0240012810B5084C09D9B9
:100F180040F291110748FFF7F9F9236843F4803349
:100F2800236010BD0028F8D1236823F48033F7E745
:100F3800007000406C3B0008012810B5084C09D926
:100F48004FF4D6710748FFF7E1F9236843F40033FB
:100F5800236010BD0028F8D1236823F40033F7E795
:100F6800007000406C3B000800F10043013B1F2B60
:100F780010B5044626D8164A22FA03F3DB0716D41E
:100F880024F00043042B12D0082B10D0B4F5804F66
:100F98001AD0B4F5803F17D0B4F5003F14D0B4F59B
:100FA800402F11D040F275310A48FFF7AFF9002CF5
:100FB8000ADA094BDB6803F03F03234214BF012020
:100FC800002010BD0228DBD1034B5B68F5E700BFAA
:100FD800038000806C3B000800700040012810B5B9
:100FE800044605D9052803D0D0210448FFF78EF917
:100FF800034B00221A701C7010BD00BFAB3B0008E9
:10100800023802402DE9F0411D4630F48003804645
:101018000C461746069E04D040F2A5112448FFF757
:1010280075F9A31E3D2B04D94FF4D3712048FFF75F
:101038006DF9A7F1C003F02B04D940F2A7111C48A1
:10104800FFF764F9082D04D84FF4AA73EB40DB07C7
:1010580004D44FF4D4711648FFF758F9B31E0D2B7A
:1010680004D940F2A9111248FFF750F947F6C072A7
:1010780092FAA2F24FF44030B2FA82F290FAA0F05B
:101088004FF07061B0FA80F091FAA1F144F000538A
:101098006D08974043EA0803013DB1FA81F13B43EB
:1010A80085402B438E40034A33435360BDE8F081AB
:1010B800AB3B000800380240012810B5084C09D99C
:1010C80040F2BF110748FFF721F9236843F0807306
:1010D800236010BD0028F8D1236823F08073F7E758
:1010E80000380240AB3B0008022810B5044604D97A
:1010F80040F2F7210448FFF709F9044A936823F0FE
:1011080003031C43946010BDAB3B00080038024049
:1011180030F0800310B5044612D020F02003902B45
:101128000ED020F04003A02B0AD020F01003C02BD3
:1011380006D0F02804D04FF44B710548FFF7E6F8C5
:10114800044A936823F0F0031C43946010BD00BF69
:10115800AB3B00080038024030F4805310B5044619
:101168000CD020F40063B3F5A05F07D0B0F5C05FE2
:1011780004D040F24B310548FFF7C8F8044A936899
:1011880023F4E0531C43946010BD00BFAB3B000840
:101198000038024030F4805310B504460CD020F4D7
:1011A8000063B3F5A05F07D0B0F5C05F04D040F28C
:1011B8006A310548FFF7AAF8044B986820F46040A4
:1011C80040EAC400986010BDAB3B000800380240FC
:1011D8001D4A936803F00C03042B10B51AD0082B92
:1011E8001AD01A4B184A036093681949C3F30313BA
:1011F800CC5C0368E34043609468C4F382240C5DCC
:1012080023FA04F484609268C2F342328A5CD340C1
:10121800C36010BD0F4BE5E754685168526863021C
:10122800C2F3881201F03F014CBF0A4B074BB3FBD6
:10123800F1F35343044A5268C2F3014201325200A7
:10124800B3FBF2F3CEE700BF003802400024F400FD
:101258009B3B000800127A00C30470B505460E4691
:1012680000D420B940F2B1510A48FFF74FF8012ED7
:10127800094C08D940F2B2510648FFF747F8236CE9
:101288001D43256470BD002EF9D1236C23EA0505A2
:10129800F7E700BFAB3B0008003802400E4B0340A5
:1012A80070B505460E4603B920B940F2DF510B4828
:1012B800FFF72CF8012E0A4C08D94FF4BC610748F7
:1012C800FFF724F8636C1D43656470BD002EF9D1E7
:1012D800636C23EA0505F7E74C800893AB3B0008ED
:1012E80000380240A0F12103DBB21C2B10B50446E4
:1012F80004D8114A22FA03F3DB070CD404F0DF0305
:10130800412B08D0A4F17903062B04D940F6C80173
:101318000A48FEF7FBFF6209012A094B06D1186843
:1013280004F01F04E04000F0010010BD022A0CBFC9
:10133800186F586FF4E700BF01000115AB3B0008B8
:101348000038024013B50023019341F2883431205C
:10135800FFF7C8FF019B01330193019BA34201D012
:101368000028F4D03120FFF7BDFF003018BF01205E
:1013780002B010BD704710B51421044600F064FE99
:10138800204610BD38B583680446FBB942685369E6
:1013980023F400535361D4E90223052A2BD13222C6
:1013A8000F21B3FBF2F2B2FBF1F1C1EB0111521ABA
:1013B8002A496068895C426903F007058D4234BF99
:1013C80042F4005222F40052426114E0012B04D18D
:1013D8004268536943F40053DCE7022B12D1C36817
:1013E80042686420B3FBF0F100FB113131B9516957
:1013F80041F4005151610133E36038BD516921F472
:101408000051F7E7042B10D14368C0683221B0FBC4
:10141800F1F201FB120222B95A6942F400525A61F0
:10142800B9E75A6922F40052F9E7032BB3D10C4803
:1014380001F0F4FD236903F54873984202D90123AA
:10144800A360A8E7E06863686421B0FBF1F201FBE0
:101458001202182A5A69E5D8DFE700BFDA3B00080C
:101468006C02002010B500230446C0E902130248AC
:1014780001F0D4FD206110BD6C020020164A174B04
:1014880010B50360136B6FEA53236FEA43231363AA
:10149800134B43609A6822F040629A609A6842F05F
:1014A80040629A605A6822F400525A605A685A6038
:1014B8001A6822F040621A601A6842F08062044694
:1014C8001A600321FFF7CEFF0023012221460548B9
:1014D80001F070FD204610BD00380240F43B0008C2
:1014E800000C02406C02002010B5034B0360044658
:1014F80000F045FD204610BD083C000810B5044624
:10150800FFF7F2FF2046102100F09EFD204610BD97
:1015180010B5034B0360044600F031FD204610BDB2
:101528002C3C000810B50446FFF7F2FF20461021B6
:1015380000F08AFD204610BDB9B903689A6822F404
:1015480040429A609A6842F440429A605A6822F08F
:1015580080025A605A685A601A6822F440421A6037
:101568001A6842F480421A60704701290ED1036854
:101578009A6822F440429A609A6842F440429A601B
:101588001A6822F440421A601A68ECE7022913D15B
:1015980003689A6822F440429A609A6842F440428A
:1015A8009A601A6822F440421A601A681A60DA6867
:1015B80042F48042DA607047052910D103689A68BE
:1015C80022F440429A609A6842F440429A601A684B
:1015D80022F440421A601A6842F40042C3E7042920
:1015E800C2D103681A6822F440421A601A6842F4A9
:1015F8004042B8E7064A08B5136B6FEA53236FEA0F
:1016080043231363034B03600121FFF795FF08BDD4
:101618000038024000080240B9B903689A6822F409
:1016280040529A609A6842F440529A605A6822F08E
:1016380040025A605A685A601A6822F440521A6086
:101648001A6842F480521A60704701290ED1036863
:101658009A6822F440529A609A6842F440529A601A
:101668001A6822F440521A601A68ECE7022913D16A
:1016780003689A6822F440529A609A6842F4405289
:101688009A601A6822F440521A601A681A60DA6876
:1016980042F48052DA607047052910D103689A68CD
:1016A80022F440529A609A6842F440529A601A684A
:1016B80022F440521A601A6842F40052C3E704291F
:1016C800C2D103681A6822F440521A601A6842F4B8
:1016D8004052B8E770B5044600F10C0604F108055D
:1016E80030460021FFF798FF28460021FFF724FF26
:1016F80030460121FFF790FF28460021FFF71CFF25
:1017080030460121FFF788FF28460121FFF714FF23
:101718002046BDE8704000F086BC70B5044600F174
:101728000C0604F1080530460121FFF775FF28462D
:101738000121FFF701FF30460121FFF76DFF284621
:101748000021FFF7F9FE30460021FFF765FF284624
:101758000121FFF7F1FE2046BDE8704000F063BCB0
:10176800064A08B5136B6FEA53236FEA43231363E2
:10177800034B03600121FFF74FFF08BD003802400B
:1017880000080240C82310B5436004460830FFF73C
:1017980031FF04F10C00FFF7E3FFA268536923F05F
:1017A80080035361E268536923F04003536110BD1D
:1017B8002DE9F843044600F108084046894604F13B
:1017C8000C070121FFF7B8FE00213846FFF724FF78
:1017D800204600F028FC0826002501213846FFF79E
:1017E8001BFF204600F01FFCA3681B696D001B0649
:1017F8004FF000013846EDB248BF45F00105013E03
:10180800FFF70AFF204600F00EFC16F0FF06E4D1B1
:10181800B9F1000F1ED031464046FFF78DFE204635
:1018280000F001FC01213846FFF7F6FE204600F0E3
:10183800FAFB00213846FFF7EFFE204600F0F3FBE5
:1018480001214046FFF778FE204600F0ECFB2846D1
:10185800BDE8F8830121DFE72DE9F04108250446BA
:101868000F4600EB050804F10C0600213046FFF78F
:10187800D3FE204600F0D7FB3B064CBF01210021D8
:101888004046FFF759FE204600F0CDFB01213046C7
:10189800FFF7C2FE013D204600F0C5FB7F0015F0B2
:1018A800FF05FFB2DFD129463046FFF7B5FE2046D7
:1018B80000F0B9FB01214046FFF73EFE204600F04C
:1018C800B2FB01213046FFF7A7FE204600F0ABFB34
:1018D800A36829461F693046FFF79EFE204600F0A0
:1018E800A2FB87F08000C0F3C010BDE8F081B9B951
:1018F80003689A6822F440629A609A6842F44062E7
:101908009A605A6822F020025A605A685A601A6827
:1019180022F440621A601A6842F480621A607047C2
:1019280001290ED103689A6822F440629A609A6885
:1019380042F440629A601A6822F440621A601A6897
:10194800ECE7022913D103689A6822F440629A608E
:101958009A6842F440629A601A6822F440621A60F7
:101968001A681A60DA6842F48062DA6070470529FA
:1019780010D103689A6822F440629A609A6842F427
:1019880040629A601A6822F440621A601A6842F447
:101998000062C3E70429C2D103681A6822F44062CE
:1019A8001A601A6842F44062B8E70000064A08B5AF
:1019B800136B6FEA53236FEA43231363034B0360EC
:1019C8000121FFF794FF08BD0038024000040240DF
:1019D800B9B903689A6822F440729A609A6842F426
:1019E80040729A605A6822F010025A605A685A6027
:1019F8001A6822F440721A601A6842F480721A60F7
:101A0800704701290ED103689A6822F440729A60DF
:101A18009A6842F440729A601A6822F440721A6016
:101A28001A68ECE7022913D103689A6822F4407215
:101A38009A609A6842F440729A601A6822F4407276
:101A48001A601A681A60DA6842F48072DA607047BD
:101A5800052910D103689A6822F440729A609A683E
:101A680042F440729A601A6822F440721A601A6846
:101A780042F40072C3E70429C2D103681A6822F449
:101A880040721A601A6842F44072B8E770B50446AA
:101A980000F10C0604F1080530460021FFF798FF15
:101AA80028460021FFF723FF30460121FFF790FF6A
:101AB80028460021FFF71BFF30460121FFF788FF6A
:101AC80028460121FFF713FF2046BDE8704000F0CB
:101AD800AABA70B5044600F10C0604F108053046B0
:101AE8000121FFF775FF28460121FFF700FF304667
:101AF8000121FFF76DFF28460021FFF7F8FE304669
:101B08000021FFF765FF28460121FFF7F0FE204678
:101B1800BDE8704000F087BA064A08B5136B6FEA53
:101B280053236FEA43231363034B03600121FFF739
:101B38004FFF08BD0038024000040240C82310B51A
:101B4800436004460830FFF731FF04F10C00FFF74B
:101B5800E3FFA268536923F020035361E2685369E5
:101B680023F01003536110BD00B599B000F06DF972
:101B78003448354C354E364D00F022FE09A8FFF7A3
:101B88007DFC4FF44871334801F054FA052109A847
:101B9800FFF768FC304801F0E1FD042109A8FFF7D0
:101BA80061FC2E49284801F0F9FB01A800F0F0F982
:101BB8002B4B019303A8FFF71DFD04A8FFF7D0FDE9
:101BC80005A800F0E5F9274B059307A8FFF7EEFEF7
:101BD80008A8FFF7A1FF01A8FFF7D4FD05A8FFF7A4
:101BE800ADFF2149184801F0D9FB01A90EA800F062
:101BF8003DF905A913A800F039F91C49124801F06C
:101C0800CDFB0EA800F060F913A800F05DF90EA84E
:101C180000F0A5F90146204601F0CBFB31462046ED
:101C280001F0BCFB13A800F09AF90146204601F028
:101C3800C0FB2946204601F0B1FB3221054801F0DE
:101C4800F9F9DEE750000020680200205F3D000837
:101C58006B3D00086C020020B0000020483C0008E2
:101C6800083C00082C3C00084D3C0008643C000877
:101C78002DE9F843044600F108084046894604F176
:101C88000C070121FFF733FE00213846FFF7A0FEBD
:101C9800204600F0C8F90826002501213846FFF73C
:101CA80097FE204600F0BFF9A3681B696D009B06EC
:101CB8004FF000013846EDB248BF45F00105013E3E
:101CC800FFF786FE204600F0AEF916F0FF06E4D1D5
:101CD800B9F1000F1ED031464046FFF708FE2046F6
:101CE80000F0A1F901213846FFF772FE204600F006
:101CF8009AF900213846FFF76BFE204600F093F969
:101D080001214046FFF7F3FD204600F08CF92846F4
:101D1800BDE8F8830121DFE72DE9F04108250446F5
:101D28000F4600EB050804F10C0600213046FFF7CA
:101D38004FFE204600F077F93B064CBF01210021F9
:101D48004046FFF7D4FD204600F06DF901213046EA
:101D5800FFF73EFE013D204600F065F97F0015F0D3
:101D6800FF05FFB2DFD129463046FFF731FE204696
:101D780000F059F901214046FFF7B9FD204600F06F
:101D880052F901213046FFF723FE204600F04BF9B7
:101D9800A36829461F693046FFF71AFE204600F05F
:101DA80042F987F02000C0F34010BDE8F08113B578
:101DB8000120FFF713F9FFF7C5FA0128044600D000
:101DC800FEE7092300934FF4800002234FF4D872F2
:101DD8000821FFF717F92046FFF76EF93920FFF7BA
:101DE80081FA0028FAD04FF080500121FFF734FA29
:101DF8000120FFF789F84FF48030FFF7B5F8002885
:101E0800F9D03120FFF76EFA0028FAD00120FFF749
:101E180093F84FF40030FFF7A7F80028F9D007200F
:101E2800FFF75EF80220FFF75FF90020FFF770F96F
:101E38004FF4A050FFF790F94FF48050FFF7AAF93C
:101E480002B0BDE81040FEF727BA08B5FEF7FEF964
:101E5800FFF7ADFFBDE80840FEF71EBA704710B5A2
:101E68001421044600F0F0F8204610BD38B5124B96
:101E7800124D0446C0E900312846114901F08EFA96
:101E880060687C2320223C2100F088F860680023E9
:101E980022223C2100F082F8232260680C233C2196
:101EA80000F07CF800232846C4E902332361054981
:101EB80001F074FA204638BD983C000868020020FA
:101EC800733C00087D3C0008F8B504464068036888
:101ED8009B689847606803683C215B69984760681D
:101EE800036828215B699847606803689B6898477E
:101EF800606803683D215B69984760680368012151
:101F08009B69984707B26068036801219B699847F5
:101F180047EA00276068036801219B69984706B271
:101F28006068036801219B69984746EA0026606853
:101F3800036801219B69984705B26068036800211E
:101F48009B69984745EA0025606803683FB236B246
:101F58002DB2DB689847C4E902762561F8BD0369AC
:101F6800002BCCBF01204FF0FF30704770477047FF
:101F78001423436070470020704700207047704763
:101F880010B50821044600F05FF8204610BD000097
:101F9800014B0360704700BFA83C00082DE9F041E1
:101FA8001D46036804469B6816460F4698472368F3
:101FB80039465B6920469847236831465B69204665
:101FC8009847236829465A6920469047236820463F
:101FD800DB68BDE8F0411847036870B504469B68A4
:101FE80016460D469847236829465B692046984758
:101FF800236831465B6920469847236820469B68DA
:102008009847236845F001015B6920469847236893
:1020180000219B692046984723680546DB682046CF
:102028009847284670BD002342689A4202D900BFEB
:102038000133F9E770470000014B02481860704708
:1020480004000020B4030020704700207047704748
:1020580010B52C210446FFF7F7FF204610BDD0ED40
:10206800036AD0ED017A90ED046AD0ED074AC0ED1D
:10207800046A07EE102A76EEA66A90ED065AC0EDBD
:10208800027A05EE901A67EEA47A37EE667A45EE84
:10209800857A4160C26037EE067AD0ED086A80ED35
:1020A800056A47EE667A90ED0A7A77EE877A90EDC0
:1020B800097AC0ED0A7AF4EEC77AF1EE10FAC8BFD1
:1020C80080ED0A7AD0ED0A7AB1EE477AF4EEC77A53
:1020D800F1EE10FA48BF80ED0A7A806A7047002353
:1020E80043608360C360036143618362704710B5D6
:1020F80007EE901A07EE102A1A46FFF7F0FF37EEA0
:10210800877A029B80ED067AF1EE677AC0ED077A4E
:102118000262436210BD000007EE102A1A46094BFE
:10212800036010B507EE901AFFF7D9FF37EE877AEC
:10213800029B80ED067AF1EE677AC0ED077A0262BB
:10214800436210BDCC3C0008704710B5042104461A
:10215800FFF77AFF204610BD014B0360704700BFB0
:10216800DC3C0008274A136B30B540F2FF152B43BF
:102178001363254B9C6824F440249C609C6844F4B9
:1021880040249C601C6824F440241C601C6844F4AF
:1021980000241C60106B28431063986820F44010DA
:1021A8009860986840F440109860186820F44010CF
:1021B8001860186840F400101860586A20F0F000A1
:1021C8005862586A40F070005862586A20F470608B
:1021D8005862586A40F4E0605862536C43F0100348
:1021E80053640A4B00220C205A60490018609A6018
:1021F800074AB2FBF1F1D9601A6842F001021A608D
:1022080030BD00BF0038024000000240001001400D
:1022180000E6DF0C10B50C4680210548FEF750F9A2
:102228000028F9D021460248BDE81040FEF710B951
:1022380000100140704710B504210446FFF704FF61
:10224800204610BD014B0360704700BFEC3C0008FE
:10225800024A00231360024A136070470C000020F2
:1022680010000020034B18682C234343B42093FB31
:10227800F0F070470C000020034B18682C234343F0
:10228800B42093FBF0F0704710000020704710B5A1
:1022980054210446FFF7D8FE204610BD3F4A404B64
:1022A8000360136B30B540F2FF14234313633D4BB7
:1022B80043609D6825F003059D609D6845F0030512
:1022C8009D605D6825F001055D605D685D601D6865
:1022D80025F003051D601D6845F001051D60136BA1
:1022E80023431363304B83609D6825F040759D60E0
:1022F8009D6845F040759D605D6825F480555D607A
:102308005D685D601D6825F040751D601D6845F0BD
:1023180080751D60156B254315639D68C36025F0A6
:1023280040659D609D6845F040659D601D6825F08D
:1023380040651D601D6845F000651D60156B2543EF
:1023480015639D68036125F440159D609D6845F4FB
:1023580040159D605D6825F480655D605D685D6021
:102368001D6825F440151D601D6845F480151D6025
:10237800156B2C4314639A68436122F440029A60F7
:102388009A6842F440029A601A6822F440021A607D
:102398001A6842F400021A6030BD00BF00380240DB
:1023A800203D0008000C024000100240836800290C
:1023B8005A690FDD22F48052FF295A610B46A8BFE3
:1023C800FF2340F244515943FF23B1FBF3F1044B7F
:1023D800D963704742F480525A6101F1FF03F0E774
:1023E80000000140036900295A690DDD42F480624A
:1023F8005A61C1F1FF0140F244535943FF23B1FB35
:10240800F3F1054B99637047494222F48062FF2932
:102418005A61A8BFFF21EEE7000001402DE9F8430B
:10242800364D3749374E0446284600F0B7FF284650
:10243800354900F0B3FF6268536943F00103536103
:10244800A268536923F4805353612269536923F4C2
:1024580080635361E3685A6A22F470025A625A6AC6
:1024680042F480125A6263695A6A22F470425A62CC
:102478005A6A012142F480525A620846FEF70EFF5A
:10248800002540F2455208274FF48073C4E90A2317
:1024980004F120013046C4E908752563FEF7FEF90A
:1024A80030460121FEF78EFA4FF00108602304F14F
:1024B80034096363494630462564C4E90E85C4E996
:1024C8001155C4E91355FEF77BFB39463046FEF734
:1024D80053FC49463046FEF7C9FA39463046FEF7FE
:1024E80011FC41463046FEF777FC29462046FFF7A7
:1024F8005DFF2946BDE8F843FFF774BF6802002076
:10250800F43C000800000140043D00087047704793
:1025180010B508210446FFF797FD204610BD10B5F9
:1025280024210446FFF790FD204610BD10B5034B4B
:1025380003600446FFF723FD204610BD303D000828
:1025480010B50446FFF7F2FF20461021FFF77CFD87
:10255800204610BD10B5044621B1034900F01EFF06
:10256800204610BD0149F9E7683E00086D3E0008A5
:102578001049114B03600B6B6FEA53236FEA432337
:102588000B630E4B43609A6822F440329A609A6853
:1025980042F440329A605A6822F480725A605A684B
:1025A8005A601A6822F440321A601A6842F480327B
:1025B8001A607047003802407C3E00080000024064
:1025C80003685A6919B142F480725A61704722F45B
:1025D8008072FAE7B9B903689A6822F00C029A6027
:1025E8009A6842F00C029A605A6822F002025A6015
:1025F8005A685A601A6822F00C021A601A6842F087
:1026080004021A60704701290ED103689A6822F003
:102618000C029A609A6842F00C029A601A6822F0DA
:102628000C021A601A68ECE7022913D103689A6849
:1026380022F00C029A609A6842F00C029A601A68BA
:1026480022F00C021A601A681A60DA6842F0040272
:10265800DA607047052910D103689A6822F00C02E5
:102668009A609A6842F00C029A601A6822F00C028A
:102678001A601A6842F00802C3E70429C2D1036845
:102688001A6822F00C021A601A6842F00C02B8E7C5
:10269800064A08B5136B6FEA53236FEA43231363A3
:1026A800034B03600121FFF795FF08BD0038024086
:1026B800000C0240B9B903689A6822F030029A60A7
:1026C8009A6842F030029A605A6822F004025A600E
:1026D8005A685A601A6822F030021A601A6842F082
:1026E80010021A60704701290ED103689A6822F017
:1026F80030029A609A6842F030029A601A6822F0B2
:1027080030021A601A68ECE7022913D103689A6844
:1027180022F030029A609A6842F030029A601A6891
:1027280022F030021A601A681A60DA6842F0100261
:10273800DA607047052910D103689A6822F03002E0
:102748009A609A6842F030029A601A6822F0300261
:102758001A601A6842F02002C3E70429C2D103684C
:102768001A6822F030021A601A6842F03002B8E79C
:10277800064A08B5136B6FEA53236FEA43231363C2
:10278800034B03600121FFF795FF08BD00380240A5
:10279800000C0240142310B5436004460830FFF7CC
:1027A80077FF04F10C00FFF7E3FFA268536923F0F9
:1027B80002035361E268536923F00403536110BDB7
:1027C8002DE9F041454C464FDFF87881051D284634
:1027D8000121FFF7F5FE20464FF4E131FFF7C2FC77
:1027E8002046404900F0DAFD3F49204600F0D6FD7A
:1027F800FFF722FC3D490646204600F0CFFD314652
:102808003B4E204600F0FEFD3146204600F0C6FD56
:10281800384600F09BFC2046364900F0BFFD2046B4
:10282800354900F0BBFD3846C82100F003FC3349A8
:10283800334F204600F0B2FD4046FFF7ABFF20467D
:10284800304900F0ABFD4146384601F08FF82E497B
:10285800204600F0A3FD384601F07DF801462046E9
:10286800FFF778FE314600F099FD284800F09AFA03
:102878002749204600F092FD264800F023FE26490D
:10288800204600F08BFD254800F0C6FA2449204672
:1028980000F084FD2348FFF7DBFC2349204600F0C5
:1028A8007DFD224800F00CFD2149204600F076FD10
:1028B800204800F041FF20461F4900F06FFD2046E8
:1028C8001E4900F06BFD20461D4900F067FD2846B3
:1028D8000021FFF775FE0020BDE8F08168020020A6
:1028E8006C020020613D00086D3D0008813D000834
:1028F8006B3D00089F3D0008B03D00085E3C0008A5
:102908006C000020553C0008BE3D00081400002063
:10291800D23D0008C8000020E13D00081800002052
:10292800F83D000858000020133E000898010020D8
:102938002D3E0008B0000020473E00086A3D000810
:10294800563E00085C00002070B5044600F10C06F5
:1029580004F1080530460021FFF7ACFE28460021A7
:10296800FFF738FE30460121FFF7A4FE2846002174
:10297800FFF730FE30460121FFF79CFE2846012173
:10298800FFF728FE2046BDE87040FFF74CBB70B546
:10299800044600F10C0604F1080530460121FFF752
:1029A80089FE28460121FFF715FE30460121FFF771
:1029B80081FE28460021FFF70DFE30460021FFF773
:1029C80079FE28460121FFF705FE2046BDE8704044
:1029D800FFF729BB2DE9F843044600F108084046F3
:1029E800894604F10C070121FFF7F4FD0021384660
:1029F800FFF760FE2046FFF716FB08260025012199
:102A08003846FFF757FE2046FFF70DFBA3681B6902
:102A18006D009B074FF000013846EDB248BF45F006
:102A28000105013EFFF746FE2046FFF7FCFA16F0C7
:102A3800FF06E4D1B9F1000F1ED031464046FFF73A
:102A4800C9FD2046FFF7EFFA01213846FFF732FEAD
:102A58002046FFF7E8FA00213846FFF72BFE20460C
:102A6800FFF7E1FA01214046FFF7B4FD2046FFF7E2
:102A7800DAFA2846BDE8F8830121DFE72DE9F041BD
:102A8800082504460F4600EB050804F10C06002152
:102A98003046FFF70FFE2046FFF7C5FA3B064CBF4E
:102AA800012100214046FFF795FD2046FFF7BBFABC
:102AB80001213046FFF7FEFD013D2046FFF7B3FA3E
:102AC8007F0015F0FF05FFB2DFD129463046FFF73A
:102AD800F1FD2046FFF7A7FA01214046FFF77AFDEE
:102AE8002046FFF7A0FA01213046FFF7E3FD204614
:102AF800FFF799FAA36829461F693046FFF7DAFD00
:102B08002046FFF790FA87F00200C0F34000BDE8C6
:102B1800F081000038B5384D384C2846FFF728FDBD
:102B28002846374D37492246FFF78FFA284600F0E6
:102B38002BFC2846344D35492246FFF786FA2846AD
:102B480000F036FA2846324D32492246FFF77DFA20
:102B58002846FFF71DFA28462F4B40F8083BFFF799
:102B680097FD05F10C00FFF703FE28462B4D2C4975
:102B78002246FFF76AFA284600F026FE2846294D25
:102B880029492246FFF761FA284600F06DF82846E1
:102B9800264D27492246FFF758FA284600F05EFCE2
:102BA8002846244D24492246FFF74FFA284600F0CC
:102BB8000BF92846214D22492246FFF746FA2846B6
:102BC800FFF740FB28461F4D1F492246FFF73DFAF5
:102BD800284600F055FB28461C4D1D492246FFF7A4
:102BE80034FA284600F066FD224628461949BDE811
:102BF8003840FFF72ABA00BF500000200800002024
:102C080068020020152500086C02002069330008BE
:102C18005C000020BB2F0008303D00086C0000203D
:102C28003525000814000020C1370008C80000201E
:102C3800612C0008180000204534000858000020C6
:102C4800BF2D0008980100203D220008B000002098
:102C58002D3300088D360008704710B5042104464E
:102C6800FFF7F2F9204610BD014B0360704700BF23
:102C78008C3E000808B5012308481A46C9B2FDF77A
:102C880031FD0648FDF7A6FD02210448FDF7D8FDF1
:102C98000028F9D00148FDF7B9FD08BD0020014022
:102CA80030B5114C87B001214FF48070FEF7F6FA69
:102CB80001250023694620468DF8043000938DF8DD
:102CC8000530CDE9023304938DF81450FDF760FC0C
:102CD80029462046FDF7DCFC2B462A460B212046D8
:102CE800FDF700FD07B030BD00200140F7B52A4AC6
:102CF8002A4C136B43F00703136303238DF8043046
:102D080002250023694620468DF807300095FDF717
:102D1800FFFA0423694620460093FDF7F9FA0823D1
:102D28006946204600931026FDF7F2FA69462046C8
:102D38000096FDF7EDFA4023694620460093FDF71B
:102D4800E7FA8023694620460093FDF7E1FA0096EA
:102D5800134E69463046FDF7DBFA202769463046B0
:102D680000970126FDF7D4FA694620460096FDF73C
:102D7800CFFA6946204604F580640097FDF7C8FA43
:102D8800694620460096FDF7C3FA69462046009535
:102D9800FDF7BEFA03B0F0BD003802400000024063
:102DA8000008024010B50446FFF7A0FF2046BDE822
:102DB8001040FFF775BF704710B538210446FFF77C
:102DC80043F9204610BD00001049114B03600B6BFE
:102DD8006FEA53236FEA43230B630E4B83619A68B0
:102DE80022F030029A609A6842F030029A605A687B
:102DF80022F004025A605A685A601A6822F03002B7
:102E08001A601A6842F010021A60704700380240CF
:102E18009C3E000800040240826938B553690025C9
:102E280023F00403C561044653614FF48073C0E97D
:102E38000855C0E90A55C0E90C55C0E90133C3601B
:102E48000574457401462B461922034800F0B2F870
:102E58002575284638BD00BF6C02002000EB8202B1
:102E6800D36A126A9B1A23EAE3731022C3F58053CC
:102E780093FBF2F30A6802EB42021344042293FB29
:102E8800F2F30B607047000038B5C569044615B108
:102E9800012D17D038BD05212548FFF7EBFE082185
:102EA800E0622348FFF7E6FE294620632048FFF743
:102EB800E1FEA2696063536943F00403536101238F
:102EC800E361E7E705211A48FFF7D4FE08212062ED
:102ED8001748FFF7CFFE002160621548FFF7CAFECA
:102EE800A269A062536923F00403536120460022BB
:102EF80004F10801FFF7B2FF2A46211DFFF7AEFFD4
:102F0800022204F10C01FFF7A9FFA268EF2A4FF093
:102F1800000304DCD12A257403DD637402E0237402
:102F2800FBE765740023E36101232375B2E700BF63
:102F380014000020F8B54FF080431A69D20714D561
:102F4800194F4FF6FE721A61002414263D4606FBFF
:102F58000473DA6852B1DA68013ADA600134102C85
:102F6800F5D1124A136801331360F8BD9A68DA6024
:102F78001A7CFF2A1FBF1A7C0132D2B21A7406FBD0
:102F880004F3EA18527C002AE8D1EA580AB1EB584F
:102F9800984706FB04535A68002ADFD0586803682C
:102FA8009B689847DAE700BF74020020700200208F
:102FB80070477047F0B572B6114D00244FF0FF30DE
:102FC8004FF0140C2F460CFB04F605EB060EAE5919
:102FD80026B9DEF80460002E08BF20460134102C04
:102FE800F1D1441C0AD0C4B2142565437C190026CB
:102FF8007E516160A260E2602674637462B6F0BDBF
:10300800740200200448142303FB01010023CA6052
:103018008A600B74704700BF7402002082B072B6D9
:10302800034B1B68019362B6019802B0704700BF5A
:103038007002002007B50246FFF7F0FF0144019136
:103048001046FFF7EBFF019B984201D200BFF7E75C
:1030580003B05DF804FB000010B52DED028B8AB0BB
:10306800002965D0334B994228BF194607EE901ABC
:103078009FED317AF8EEE77A012187EE278A084634
:10308800FCEEC87A17EE904AFEF7E6F8240C01A881
:10309800FEF79EF80594013407EE904AF8EEE77AB9
:1030A800002288EE277A05A94FF080400692DFEDCE
:1030B800237A77EE677AFCEEE77A17EE903A9BB2BE
:1030C800CDE90732FDF7EAFB01214FF08040FDF71B
:1030D80079FC012211464FF08040FDF7A3FE184A03
:1030E800136B6FEA53236FEA43231363154B9A68F4
:1030F80022F440329A609A6842F440329A605A68E0
:1031080022F480725A605A685A601A6822F440326F
:103118001A601A6842F480321A600B4B102283F846
:103128001C234FF080521A600AB0BDEC028B10BD10
:1031380001219BE780F9370360FECD4C0000803FFA
:10314800003802400000024000E100E0F8B500222B
:103158000C4D142713464FF47A7607FB02F429190D
:103168000132102A2B514B608E60CB600B744B746C
:10317800F3D1054A4FF47A7113600360FFF76CFFCF
:1031880062B6F8BD740200207002002038B5C3682A
:10319800364D2DED048B4360036983600446284651
:1031A800FFF760F8E0602846FFF766F86268E368B2
:1031B8009FED2F5AD4ED056ADFED2E5A9FED2E6A4A
:1031C80020619B1A07EE103AB8EEC77AA3689FED04
:1031D8002B9A27EE057A66EEA56A47EE066AC31AA9
:1031E80004F1780007EE903AF8EEE77AC4ED056A44
:1031F800B0EE667AD4ED066A67EE857A66EEA56A61
:1032080047EE866AD4ED077AC4ED066A77EEC77A88
:1032180017EE102A17EE901AFEF721FFA269D4EDD7
:10322800087A07EE102A77EEC77A08EE900A17EEAA
:10323800901A04F1A400FEF712FF68EE898A24347C
:10324800FDEEE87A08EE100A17EE901A2046FFF70E
:10325800ADF828EE098A2046FDEEC87ABDEC048B4D
:1032680017EE901ABDE83840FFF7BCB858000020A8
:10327800CDCCCC3D6666663F0000003E00007F4333
:1032880073B50E4B002504464FF07E5640F8243B9C
:10329800FFF704F82B462A462946009604F17800E1
:1032A800FEF73AFF00962B462A46294604F1A40069
:1032B800FEF732FF204602B070BD00BFB03E0008E6
:1032C800F7B5154F154E04464FF07E552430FFF7DD
:1032D800A5F800952B463A46314604F17800FEF7EA
:1032E80006FF00952B463A46314604F1A400FEF746
:1032F800FEFE002500236361A361E3612362C4E944
:103308000155C4E903552B46042221460448FFF71A
:1033180051FE284603B0F0BDEC51B83DCDCC4C3F32
:103328006C02002010B5084B044640F8A43BFEF799
:103338008EFE04F17800FEF78AFE04F12400FEF701
:10334800A5FF204610BD00BFB03E000810B50446DA
:10335800FFF7E8FF2046D021FEF776FE204610BD95
:1033680010B5034B03600446FEF7EEFE204610BD81
:10337800C43E000810B50446FFF7F2FF20460421BA
:10338800FEF762FE204610BD10B50446FEF7E4FEC7
:10339800014B2360204610BDC43E000838B50546E1
:1033A8004C1E14F8011F19B12846FEF733FFF8E741
:1033B80038BD7FB50B1E4FF000024FF00A01BABFAF
:1033C8005B42012414468DF80F200E4604AA93FB95
:1033D800F6F50A4406FB1533303302F80C3C4A1E56
:1033E800D2B22B4665B92CB104AB13442D2103F896
:1033F8000C1C114601AB1944FFF7D0FF04B070BD97
:103408001146E3E730B585B000230A228DF80F3066
:103418001546B1FBF5F405FB141304A91144303328
:1034280001F80C3C531EDBB221462CB901AB9918AC
:10343800FFF7B4FF05B030BD1A46EAE7704770479A
:1034480010B524210446FEF7FFFD204610BD10B537
:10345800D0210446FEF7F8FD204610BD1449154B4F
:1034680003600B6B6FEA53236FEA43230B63124B22
:103478004360996821F440419960996841F440415A
:103488009960596821F08001596059685960196834
:1034980021F440411960196841F480411960074BD3
:1034A8000361074B43638365C367C0F8A030704767
:1034B80000380240F43E000800100240D43E0008E4
:1034C800E43E00084268536923F080032DE9F04187
:1034D8006421044653613448FFF7ACFD6421324847
:1034E800FFF7A8FD01270223C4E905734FF0030C79
:1034F8000423C4E907C34FF0060E07234FF00E0854
:10350800C4E909E30F23C4E90B8304F11405DFF8C8
:103518009C8004F134072E4656F8041B4046FFF7FA
:10352800A9FBB7427064F7D162681F4853691F4FFF
:1035380043F0800353616421FFF77CFD55F8041BB9
:103548003846FFF797FB6B6CB542A0EB0300A86603
:10355800F4D16FF0FF026FF0BF03C4E90E236FF0E0
:103568007F016FF03F03C4E9101340208023C4E9B2
:103578001203C0264FF480730025C4E914634FF486
:10358800C873A360C4E92955C4E92B55C4E92D556E
:10359800C4E92F5525732B46042221460248FFF71C
:1035A80009FD2846BDE8F0816C02002014000020C7
:1035B80000EB810030B5826BD0F8A45002FB05F413
:1035C80081B1D0F8A030426B062902FB03422B449C
:1035D8000BD8D0F8A810C06B0B4400FB012292FB5B
:1035E800F3F030BD62006B00F3E722442B44F6E7AA
:1035F800826800F1A403002053F8041B8A4204DB0C
:1036080001300828F8D14FF0FF3070472DE9F84F06
:10361800DFF86CA0044600F1140500F134084FF4FB
:103628007A794FF0000B55F8041B5046FFF722FB40
:103638006B6CC01A09FB00F0AB6E90FBF3F0D0F591
:103648007A7054BFC5F88C00C5F88CB04545EAD1EE
:103658002046FFF7CDFF431C01460FD02046FFF759
:10366800A7FF01230646074684F8C430012384F8DF
:10367800C530C4E932672373BDE8F88F0023F3E748
:1036880014000020704710B518210446FEF7DCFC32
:10369800204610BD027B836832B1002202735A694A
:1036A80042F480725A617047012202735A6922F407
:1036B8008072F7E71C4A1D4B0360136B30B540F26C
:1036C800FF152B4313631A4B43609C6824F0C00416
:1036D8009C609C6844F0C0049C601C6824F0C00492
:1036E8001C601C681C60DC6844F04004DC60136BE0
:1036F8002B4313630F4B83609A6822F440329A601D
:103708009A6842F440329A605A6822F480725A6089
:103718005A685A601A6822F440321A601A6842F4E9
:1037280080321A6030BD00BF00380240083F0008F0
:1037380000100240000002404FF0FF3310B5436113
:1037480000230446037301464FF4FA720248FFF758
:1037580031FC206110BD00BF6C02002070B504462A
:1037680063681B691A0701D500BFF9E70123636184
:103778006422217C0F480F4DFFF744FC0D48FFF7EA
:103788004DFC00F5FA6663681B691B070FD40948EE
:10379800FFF744FCB042F6D96369012BF3D132221A
:1037A800217C2846FFF72EFC02236361EBE7606962
:1037B80070BD00BF6C020020704710B5442104465C
:1037C800FEF742FC204610BD014B0360704700BF66
:1037D8001C3F00082DE9F0410446006C03689B6813
:1037E80088469847206C0368D4215B699847206C09
:1037F800036819215B699847206C03689B689847A0
:10380800206C0368D5215B699847206C0368012107
:103818009B699847000207B2206C036801219B69E5
:1038280098470743206C036801219B699847000269
:1038380006B2206C036801219B6998470643206CF7
:10384800036801219B699847000205B2206C036850
:1038580000219B6998470543206C0368DB683FB2E9
:1038680036B22DB29847B8F1000F08D0A36A3B448E
:10387800A362E36A3344E362236B2B442363A36AA2
:10388800E169226BE06AFB1AAD1A2361192293FBE6
:10389800F2F301EB4303E361236AA561301A606127
:1038A80090FBF2F003EB40002062636A206C95FB0A
:1038B800F2F503EB4505036865629B689847206C41
:1038C8000368D4215B699847206C036829215B69E8
:1038D8009847206C03689B689847206C0368D5213B
:1038E8005B699847206C036801219B69984700022F
:1038F80007B2206C036801219B6998470743206C35
:10390800036801219B699847000206B2206C03688E
:1039180001219B6998470643206C036801219B6934
:103928009847000205B2206C036800219B699847FC
:103938000543206C0368DB6898473FB236B22DB266
:103948000123C4E90176E56084F83C30BDE8F081E4
:103958000021FFF73FBF406B003018BF01207047C0
:1039680011F1FF3101D300BFFAE7704738B50446BB
:10397800102208462164A823D421FEF70FFB002358
:10398800C4E90433A361C4E90A332363C4E90733F0
:10399800636242F210712046FFF7E2FF0F22636371
:1039A800D421206CFEF718FB682804BF0123636349
:1039B8001022A823D421206CFEF7F0FA38231E2207
:1039C800D421206CFEF7EAFA00232E22D421206CA1
:1039D800FEF7E4FA00231222D421206CFEF7DEFA67
:1039E80060232022D421206CFEF7D8FA38231F2226
:1039F800D421206CFEF7D2FA42F210712046FFF76C
:103A0800AFFF0021FFF7E6FE0023A3634FF47A75AA
:103A180001212046FFF7DEFE64212046FFF7A0FFC4
:103A2800013DF5D14FF47A72A36A656293FBF2F314
:103A3800C4E90755A362C4E90155E36AE56093FB4D
:103A4800F2F32146E3620648236B93FBF2F30A2262
:103A580023632B46FFF7AEFA84F83C5038BD00BF0D
:103A68006C020020000000000000000001020304B6
:103A78000607080953544D3332463778785F537434
:103A8800645065726970685F4472697665722F73F5
:103A980072632F73746D3332663778785F67706935
:103AA8006F2E630053544D3332463778785F537422
:103AB800645065726970685F4472697665722F73C5
:103AC80072632F73746D3332663778785F757361FC
:103AD80072742E630053544D3332463778785F53EF
:103AE80074645065726970685F4472697665722F94
:103AF8007372632F73746D3332663778785F6164DD
:103B0800632E630053544D3332463778785F5374CD
:103B1800645065726970685F4472697665722F7364
:103B280072632F73746D3332663778785F74696D9A
:103B38002E630053544D3332463778785F5374649C
:103B48005065726970685F4472697665722F737226
:103B5800632F73746D3332663778785F666C617380
:103B6800682E630053544D3332463778785F537468
:103B7800645065726970685F4472697665722F7304
:103B880072632F73746D3332663778785F7077722B
:103B98002E63000000000001020304010203040672
:103BA80007080953544D3332463778785F537464A5
:103BB8005065726970685F4472697665722F7372B6
:103BC800632F73746D3332663778785F7263632E50
:103BD8006300000102030405060706050403020149
:103BE8000000000000000000000000007D13000835
:103BF8007F1300088D13000800000000000000007B
:103C0800F11400080515000823170008DD16000840
:103C18008D17000861180008B91700080000000097
:103C280000000000191500082D150008DB1A00080F
:103C3800951A0008451B0008211D0008791C00087A
:103C480072756E0A00656E636F646572206932630F
:103C580020696E697420646F6E650A0073746172FE
:103C680074696E6720746573740A006C736D2069DB
:103C78006E69740A006C736D20696E697420646FD4
:103C88006E65200A0A000000000000000000000025
:103C9800651E0008671E0008000000000000000004
:103CA800871F0008891F0008751F0008771F000874
:103CB800791F00087F1F0008831F0008000000000C
:103CC80000000000572000085920000800000000EC
:103CD80000000000512100085321000800000000E6
:103CE800000000003D2200083F2200084D4F544FBD
:103CF800522050574D20696E69740A004D4F544F39
:103D080052204750494F20696E69740A000000002C
:103D1800000000000000000095220008972200081B
:103D280000000000000000003525000849250008B3
:103D380097290008512900089D270008852A0008AE
:103D4800DD290008096573745F696D755F73656EB9
:103D5800736F720A00203A20000A0A0A23232323D9
:103D6800230A0A0A007465726D696E616C20696EB7
:103D7800697420646F6E650A006D656D20696E69EF
:103D88007420646F6E652C2068656170207374619F
:103D98007274206174200074696D657220696E699F
:103DA8007420646F6E650A0064656C617920323036
:103DB80030206D732000696D7520696E6974206408
:103DC8006F6E652077697468200061646320696E8E
:103DD800697420646F6E650A006C696E652073658E
:103DE8006E736F7220696E697420646F6E650A0065
:103DF80064697374616E63652073656E736F722096
:103E0800696E697420646F6E650A00656E636F641D
:103E180065722073656E736F7220696E69742064B1
:103E28006F6E650A006D6F746F7220636F6E7472C7
:103E38006F6C6C20696E697420646F6E650A006B24
:103E4800657920696E697420646F6E650A007379FC
:103E58007374656D20696E697420646F6E650A00FD
:103E6800747275650066616C73650000000000007F
:103E780000000000152500081925000800000000B2
:103E880000000000612C0008632C000800000000FE
:103E980000000000BF2D0008C12D0008912E000869
:103EA80000000000000000002D3300085533000812
:103EB8009531000800000000000000006933000888
:103EC8007D330008000000000000000047340008AF
:103ED8004934000800000000000000001725000811
:103EE80027250008000000000000000045340008F5
:103EF80057340008153600080000000000000000D4
:103F08008D3600088F3600089D3600080000000036
:103F180000000000C1370008C337000859390008FD
:043F28001D2B000845
:043F2C000024F40079
:04000005080001E509
:00000001FF
