:020000040800F2
:1000000000000420A5020008890200089B020008E5
:100010008902000889020008890200080000000027
:10002000000000000000000000000000890200083D
:100030008902000800000000890200088902000807
:100040008902000889020008890200088902000864
:100050008902000889020008890200088902000854
:100060008902000889020008B922000889020008F4
:100070008902000889020008890200088902000834
:100080008902000889020008890200088902000824
:1000900089020008890200088902000889220008F4
:1000A0008902000889020008890200088902000804
:1000B0000D1D000889020008890200088902000855
:1000C00089020008890200088902000889020008E4
:1000D00089020008890200088902000889020008D4
:1000E00089020008890200088902000889020008C4
:1000F00089020008890200088902000889020008B4
:1001000089020008890200088902000889020008A3
:100110008902000889020008890200088902000893
:100120008902000889020008890200088902000883
:100130008902000889020008890200088902000873
:100140008902000889020008890200088902000863
:100150008902000889020008890200088902000853
:100160008902000889020008890200088902000843
:1001700089020008890200088902000800000000C6
:100180008902000889020008890200088902000823
:100190008902000889020008890200088902000813
:1001A0008902000889020008890200088902000803
:1001B00089020008890200088902000889020008F3
:0801C000890200088902000811
:1001C8000F490020D1F8883043F47003C1F8883013
:1001D8000C4B1A6842F001021A6098601A6822F003
:1001E800847222F480321A60074A5A601A6822F42C
:1001F80080221A60D8604FF000638B60704700BFA0
:1002080000ED00E00038024010300024174A184979
:10021800936803F00C03042B10B50DD0082B0DD0F8
:10022800144B0B60114B144A9B68C3F30313D25C45
:100238000B68D3400B6010BD104BF2E75468506850
:100248006302526800F03F0048BF0C4BC2F38812AB
:1002580058BF084BB3FBF0F35343044A5268C2F348
:10026800014201325200B3FBF2F3DAE700380240F0
:10027800000000200024F4006046000800127A0004
:10028800684620F007018D4601B5BDE80140854666
:100298007047684620F007018D46FEE73249002383
:1002A800324A3348521A92109A4251D1314A0025A3
:1002B800314ED2F88830314C43F47003A41BC2F895
:1002C8008830D2F83432A41043F04043C2F83432B4
:1002D800AC4243D1FFF774FFBFF34F8FBFF36F8F6B
:1002E800244B0021C3F850125A6942F400325A6173
:1002F800BFF34F8FBFF36F8FC3F88410BFF34F8FD7
:10030800D3F8802043F6E076C2F3C904C2F34E3234
:10031800A507520102EA060C2846214601394CEA93
:10032800000700F14040B1F1FF3FC3F86072F5D11A
:10033800203A12F1200FEDD1BFF34F8F5A6942F4E2
:1003480080325A61BFF34F8FBFF36F8F04F052B9F9
:1003580050F8234041F823400133A5E756F82530EB
:1003680001359847B4E700BF0000002004000020D2
:10037800704B000800ED00E0704B0008744B00085B
:10038800FEE7000038B5464B04460D46984236D085
:10039800B0F1804F33D0A3F57C4398422FD003F5BA
:1003A800806398422BD003F58063984227D003F5E9
:1003B8008063984223D003F5806398421FD003F5E9
:1003C800704398421BD003F57053984217D003F539
:1003D8008063984213D003F5806398420FD0A3F549
:1003E800983398420BD003F58063984207D003F501
:1003F8008063984203D0B1212A48FFF7C1FF6B6898
:1004080033F0100209D023F04002202A05D0402BF7
:1004180003D0B2212348FFF7B3FFEB6833F48072AF
:1004280006D0B3F5007F03D0B3211E48FFF7A8FF1D
:100438001B4A2368944212D002F5806294420ED07F
:10044800B4F1804F0BD0A2F58032944207D002F568
:100458008062944203D002F58062944203D123F073
:1004680070036A681343104A944207D002F5806209
:1004780094421EBF23F44073EA6813432360AB68B9
:10048800E3622B68A362064B9C4203D003F58063AA
:100498009C4201D12B6923630123636138BD00BFEE
:1004A80000000140704600080010004038B5274B96
:1004B80004460D46984237D0B0F1804F34D0A3F5AA
:1004C8007C43984230D003F5806398422CD003F5E2
:1004D8008063984228D003F58063984224D003F5BE
:1004E8008063984220D003F5704398421CD003F5EE
:1004F8007053984218D003F58063984214D003F5DE
:100508008063984210D0A3F5983398420CD003F535
:100518008063984208D003F58063984204D040F283
:10052800F9110B48FFF72CFF012D09D94FF4FD7184
:100538000748FFF725FF236843F00103236038BD10
:10054800002DF8D1236823F00103F7E700000140EC
:1005580070460008524B98422DE9F04104460D467A
:100568001FD0B0F1804F1CD0A3F57C43984218D01F
:1005780003F58063984214D003F58063984210D045
:1005880003F5784398420CD003F57053984208D08D
:10059800A3F59433984204D040F29E214148FFF7D6
:1005A800EFFE2B6833F030020FD023F4803222F0B4
:1005B8001002602A09D023F05003B3F5803F04D01D
:1005C80040F29F213748FFF7DBFE6B68012B04D907
:1005D8004FF428713348FFF7D3FE2B6933F0020339
:1005E80004D040F2A1212F48FFF7CAFE236A2A68E7
:1005F80023F010032362266A6768A36926F02006A1
:1006080023F0807323F4E64343EA02282B696A68DF
:10061800134346EA0316224B9C4203D003F580633A
:100628009C4234D1AB6833F0040304D040F2BF21BC
:100638001C48FFF7A5FE6B6933F0080304D04FF49C
:1006480030711848FFF79CFEEB6933F4007304D04F
:1006580040F2C1211348FFF793FEAB6933F480736E
:1006680004D040F2C2210F48FFF78AFE6B6926F0DA
:10067800800627F4406746EA0316AB6826F0400672
:1006880046EA0316D5E90632134347EA8307EB68BF
:100698006760C4F81880A3632662BDE8F08100BFD4
:1006A80000000140704600084E4B98422DE9F04189
:1006B80004460D4617D0B0F1804F14D0A3F57C4303
:1006C800984210D003F5806398420CD003F58063FC
:1006D800984208D003F57843984204D040F2EF21BD
:1006E8004148FFF74DFE2B6833F030020FD023F45A
:1006F800803222F01002602A09D023F05003B3F5AB
:10070800803F04D04FF43C713748FFF739FE6B68DF
:10071800012B04D940F2F1213348FFF731FE2B6950
:1007280033F0020304D040F2F2212F48FFF728FEED
:10073800236A2A6823F480732362266A6768E36958
:1007480026F4007623F4803323F0730343EA020887
:100758002B696A68134346EA0326224B9C4203D05E
:1007680003F580639C4234D1AB6833F0040304D0B2
:1007780040F20F311C48FFF703FE6B6933F00803A2
:1007880004D04FF444711848FFF7FAFDEB6933F4CD
:10079800007304D040F211311348FFF7F1FDAB6943
:1007A80033F4807304D040F212310F48FFF7E8FDAC
:1007B8006B6926F4006627F4405746EA0326AB68BF
:1007C80026F4806646EA0326D5E90632134347EA4B
:1007D8000317EB686760C4F81C80E3632662BDE812
:1007E800F08100BF000001407046000838B51A4B80
:1007F80004460D4698421FD0B0F1804F1CD0A3F597
:100808007C43984218D003F58063984214D003F5CE
:100818008063984210D003F5784398420CD003F5D2
:100828007053984208D0A3F59433984204D040F20C
:10083800CE510A48FFF7A4FD35F0080304D040F272
:10084800CF510648FFF79CFDA16921F4006141EAF8
:100858000521A16138BD00BF0000014070460008B5
:1008680038B5154B04460D46984217D0B0F1804F65
:1008780014D0A3F57C43984210D003F580639842C6
:100888000CD003F58063984208D003F5784398426A
:1008980004D040F2EB510948FFF772FD35F0080328
:1008A80004D040F2EC510548FFF76AFDE36923F0F4
:1008B80008031D43E56138BD00000140704600088B
:1008C80038B5104B04460D46984208D003F58063AE
:1008D800984204D040F6A9210B48FFF751FD012D9D
:1008E80009D940F6AA210848FFF74AFD636C43F48A
:1008F8000043636438BD002DF8D1636C23F40043D2
:10090800F7E700BF00000140704600082C4B9842F2
:1009180070B504460D46164637D0B0F1804F34D036
:10092800A3F57C43984230D003F5806398422CD0DD
:1009380003F58063984228D003F58063984224D059
:1009480003F58063984220D003F5704398421CD089
:1009580003F57053984218D003F58063984214D079
:1009680003F58063984210D0A3F5983398420CD0D1
:1009780003F58063984208D003F58063984204D059
:1009880040F614310F48FFF7FBFC35F0FF0300D1A8
:1009980025B940F615310B48FFF7F2FC012E08D9AE
:1009A80040F616310748FFF7EBFCE3681D43E560A6
:1009B80070BD002EF9D1E36823EA0505F7E700BF0B
:1009C80000000140704600080A2838B505460C4664
:1009D80003D954210E48FFF7D3FC0F2C03D9552116
:1009E8000B48FFF7CDFC04F0FC0104F003030F20D3
:1009F80001F180419B0001F59C3198409D408A6837
:100A080022EA00028A608A6815438D6038BD00BFFB
:100A1800A04600080F2810B5044603D98D210548C3
:100A2800FFF7AEFC044B186820F00F002043186055
:100A380010BD00BFD3460008003C02402DE9F84F26
:100A48004C4B04460D4698422BD003F580639842E0
:100A580027D003F58063984223D003F5806398423A
:100A68001FD003F5806398421BD003F5806398423A
:100A780017D003F58063984213D003F5806398423A
:100A88000FD003F5806398420BD003F5806398423A
:100A980007D003F58063984203D093213648FFF7C7
:100AA8006FFC2B881BB994213348FFF769FC2B791D
:100AB800032B03D995213048FFF762FCEB79022B11
:100AC80003D996212C48FFF75BFC002601274FF03D
:100AD8000308DFF8A49007FA06F32A68934343D182
:100AE8004FEA460A236808FA0AFB6FEA0B0B03EA87
:100AF8000B0323602B79216803FA0AF2013B0A43AE
:100B0800012B226023D86B79032B03D9A8214846EF
:100B1800FFF736FCA3680BEA0303A3606B79A268AE
:100B280003FA0AF31343A360AB79012B03D9AF216E
:100B38004846FFF725FC636807FA06F223EA020332
:100B48006360AB796268B3409BB213436360E36848
:100B580008FA0AF223EA0203E360EB79E26803FA8F
:100B68000AFA4AEA0202E2600136102EB3D1BDE861
:100B7800F88F00BF0000024005470008012810B5A3
:100B8800044605D9052803D0D0210448FFF7F8FB0F
:100B9800034B00221A701C7010BD00BF46470008A6
:100BA800023802402DE9F0411D4630F480038046AA
:100BB8000C461746069E04D040F2A5112448FFF7BC
:100BC800DFFBA31E3D2B04D94FF4D3712048FFF758
:100BD800D7FBA7F1C003F02B04D940F2A7111C489A
:100BE800FFF7CEFB082D04D84FF4AA73EB40DB07C0
:100BF80004D44FF4D4711648FFF7C2FBB31E0D2B73
:100C080004D940F2A9111248FFF7BAFB47F6C0729F
:100C180092FAA2F24FF44030B2FA82F290FAA0F0BF
:100C28004FF07061B0FA80F091FAA1F144F00053EE
:100C38006D089740B1FA81F143EA0803013D8E40FF
:100C4800044A3B4385402B4333435360BDE8F0815E
:100C58004647000800380240012810B5084C09D959
:100C680040F2BF110748FFF78BFB236843F08073FE
:100C7800236010BD0028F8D1236823F08073F7E7BC
:100C88000038024046470008022810B5044604D937
:100C980040F2F7210448FFF773FB044A936823F0F6
:100CA80003031C43946010BD464700080038024007
:100CB80030F0800310B5044612D020F02003902BAA
:100CC8000ED020F04003A02B0AD020F01003C02B38
:100CD80006D0F02804D04FF44B710548FFF750FBBD
:100CE800044A936823F0F0031C43946010BD00BFCE
:100CF800464700080038024030F4805310B50446D7
:100D08000CD020F40063B3F5A05F07D0B0F5C05F46
:100D180004D040F24B310548FFF732FB044A936890
:100D280023F4E0531C43946010BD00BF46470008FD
:100D38000038024030F4805310B504460CD020F43B
:100D48000063B3F5A05F07D0B0F5C05F04D040F2F0
:100D58006A310548FFF714FB044B986820F460409B
:100D680040EAC400986010BD4647000800380240B9
:100D78001D4A936803F00C03042B10B51AD0082BF6
:100D88001AD01A4B184A036093681949C3F303131E
:100D9800CC5C0368E34043609468C4F382240C5D30
:100DA80023FA04F484609268C2F342328A5CD34026
:100DB800C36010BD0F4BE5E7546851686302526881
:100DC80001F03F0148BF0B4BC2F3881258BF074BD5
:100DD800B3FBF1F35343044A5268C2F301420132B0
:100DE8005200B3FBF2F3CDE7003802400024F400D0
:100DF8003647000800127A000E4B034070B50546CE
:100E08000E4603B920B940F23D510B48FFF7B8FA36
:100E1800012E0A4C08D940F23F510748FFF7B0FAB3
:100E2800236B1D43256370BD002EF9D1236B23EA84
:100E38000505F7E700E80B8146470008003802403F
:100E4800C30470B505460E4600D420B940F2B1512E
:100E58000A48FFF795FA012E094C08D940F2B25119
:100E68000648FFF78DFA236C1D43256470BD002EDC
:100E7800F9D1236C23EA0505F7E700BF46470008C8
:100E8800003802400E4B034070B505460E4603B9C4
:100E980020B940F2DF510B48FFF772FA012E0A4CD5
:100EA80008D94FF4BC610748FFF76AFA636C1D4321
:100EB800656470BD002EF9D1636C23EA0505F7E778
:100EC8004C8008934647000800380240A0F12103EF
:100ED800DBB21C2B10B5044604D8114A22FA03F3DE
:100EE800DB070CD404F0DF03412B08D0A4F179030D
:100EF800062B04D940F6C8010A48FFF741FA6209EF
:100F0800094B012A06D1186804F01F04E04000F0DC
:100F1800010010BD022A01D1186FF5E7586FF3E7F9
:100F280001000115464700080038024013B50023A8
:100F380041F2883401933120FFF7C8FF019B013348
:100F48000193019BA34201D00028F4D03120FFF780
:100F5800BDFF003018BF012002B010BD38B50379BD
:100F6800044613F0FB0F03D042212748FFF708FA85
:100F7800637903F0FB02082A05D0102B03D0432124
:100F88002148FFF7FDF92268D30DDB0503B91AB92B
:100F980044211D48FFF7F4F9A379012B03D9452112
:100FA8001948FFF7EDF92279256802F18042A37903
:100FB800E94302F59E321BB3144B186808401860C9
:100FC800586801405960116829431160226898687F
:100FD800D14308409860D8680140D96061791029E8
:100FE80006D1996811439960D9680A43DA6038BD17
:100FF80001F1804303F59E3319680A431A60F6E746
:1010080013680B401360F2E776470008003C014084
:10101800C30DDB0510B5044603B918B9E22103482E
:10102800FFF7AEF9024B5C6110BD00BF76470008C0
:10103800003C0140012810B5084C09D940F2911133
:101048000748FFF79DF9236843F48033236010BDF8
:101058000028F8D1236823F48033F7E700700040B4
:10106800A7470008012810B5084C09D94FF4D671D4
:101078000748FFF785F9236843F40033236010BD60
:101088000028F8D1236823F40033F7E70070004004
:10109800A747000800F10043013B1F2B10B5044689
:1010A80026D8164A22FA03F3DB0716D424F00043A5
:1010B800042B12D0082B10D0B4F5804F1AD0B4F5F9
:1010C800803F17D0B4F5003F14D0B4F5402F11D0AD
:1010D80040F275310A48FFF753F9002C0ADA094B38
:1010E800DB6803F03F03234214BF0120002010BD3A
:1010F8000228DBD1034B5B68F5E700BF0380008063
:10110800A74700080070004038B5194B04460D4643
:10111800984220D0A3F54C4398421CD003F5806335
:10112800984218D003F58063984214D003F5806381
:10113800984210D003F5444398420CD0A3F51C43C1
:10114800984208D003F58063984204D04FF4687140
:101158000848FFF715F9B5F5007F04D340F2A1312F
:101168000448FFF70DF9C5F30805A56238BD00BFAF
:1011780000100140D747000838B5304B05460C46EB
:10118800984220D0A3F54C4398421CD003F58063C5
:10119800984218D003F58063984214D003F5806311
:1011A800984210D003F5444398420CD0A3F51C4351
:1011B800984208D003F58063984204D040F26371E6
:1011C8001F48FFF7DDF8621E1F2A2FD81D4BD3409A
:1011D800DB072DD4402C2BD0B4F5807F28D0B4F574
:1011E800007F25D0B4F5806F22D0B4F5006F1FD0F2
:1011F800B4F5805F1CD0B4F5804F19D0B4F5004F1A
:1012080016D0B4F5803F13D0B4F5003F10D0B4F534
:10121800802F0DD0B4F5002F0AD0B4F5001F07D0E9
:1012280040F264710648FFF7ABF801E0802CD1D199
:10123800EB69234214BF0120002038BD0010014093
:10124800D74700088B80008038B53C4B05460C46D4
:1012580098420BD003F58073984207D003F580734A
:10126800984203D089213648FFF78AF8236833F07B
:10127800407303D08A213248FFF782F82379012B83
:1012880003D98B212E48FFF77BF86379012B03D90B
:101298008C212B48FFF774F8A36833F0405303D030
:1012A8008D212748FFF76CF8E36833F0407212D0BD
:1012B800B2F1806F0FD023F0A062B2F1006F0AD0B4
:1012C800B3F1306F07D003F17143012B03D98E219D
:1012D8001B48FFF755F8236933F4006303D08F21C7
:1012E8001748FFF74DF8237D013B0F2B03D99021B9
:1012F8001348FFF745F86A682179236822F040729D
:1013080043EA012322F4807213430E4A6B60AB68F0
:101318001A40D4E903130B43A1680B43617943EAEC
:1013280041031343AB60227DEB6A013A23F4700357
:10133800D2B243EA0253EB6238BD00BF002001403D
:1013480009480008FDF7FFC038B5124B04460D46A2
:1013580098420CD003F58073984208D003F5807347
:10136800984204D040F22B110B48FFF709F8012DE1
:1013780009D94FF496710848FFF702F8A36843F0BB
:101388000103A36038BD002DF8D1A36823F0010341
:10139800F7E700BF00200140094800082DE9F041A7
:1013A8009846384B05460F46984214460CD003F52C
:1013B8008073984208D003F58073984204D04FF4A4
:1013C8001A713148FEF7DCFF122F04D940F2692167
:1013D8002D48FEF7D5FF661EF3B20F2B04D940F255
:1013E8006A212948FEF7CCFFB8F1070F04D940F26B
:1013F8006B212548FEF7C4FF092F1BD9A7F10A0363
:101408000721EA6803EB4303994008FA03F322EA49
:1014180001021343EB60062C18D806EB86061F233F
:101428006C6BB34007FA06F624EA030426436E639E
:10143800BDE8F08107EB470107232A698B4022EAC0
:10144800030208FA01F313432B61E4E70C2C0CD8D0
:10145800E31F1F242E6B03EB83039C4026EA04043E
:1014680007FA03F634432C63E2E70D3CEA6A04EB1F
:1014780084031F249C4022EA040207FA03F414435D
:10148800EC62D5E700200140094800080B4B984260
:1014980010B504460CD003F58073984208D003F5C4
:1014A8008073984204D040F2DF210548FEF768FFB8
:1014B800A36843F08043A36010BD00BF0020014033
:1014C800094800080A4B984210B504460CD003F5A9
:1014D8008073984208D003F58073984204D040F294
:1014E80075310448FEF74CFFE06C80B210BD00BFB8
:1014F800002001400948000838B5134B04460D4642
:1015080098420CD003F58073984208D003F5807395
:10151800984204D040F2F2510C48FEF731FF6B1E9E
:10152800DBB21F2B04D80A4A22FA03F3DB0704D4E0
:1015380040F2F3510548FEF723FF23681D4214BF0C
:101548000120002038BD00BF0020014009480008E4
:101558008B800080C378012B70B5044603D9942191
:101568001B48FEF70DFF63780F2B03D99521184808
:10157800FEF706FFA3780F2B03D996211448FEF730
:10158800FFFE2178012601F01F034D099E40E378F4
:10159800CBB1104BDA686378D243C2F30222C2F1AE
:1015A8000400C0B28340D8B20F2343FA02F2A378F2
:1015B8001340094A034311441B01DBB281F800338D
:1015C80042F8256070BD2035034B43F82560F9E7E4
:1015D8003948000800ED00E000E100E0704700BF76
:1015E800704700BF10B50446242102F001FD2046D3
:1015F80010BD00BF10B50446D82102F0F9FC204602
:1016080010BD00BF484A136BF0B440F2FF15474CB9
:10161800474E2B4306601363A768446027F0405782
:10162800444B454EA760A76847F04057A7606768D6
:1016380027F48047676067686760276827F0405726
:101648002760276847F080572760146B06612C4392
:1016580046638665C66714631E68C0F8A03026F026
:1016680003071F601C6844F003061E60176B2F43B6
:1016780017631C68C0F8A43024F00C061E601F68AD
:1016880047F00C041C60166B2E4316631F68C0F8E5
:10169800A83027F030041C601E6846F030071F6031
:1016A800146B2C4314631E68C0F8AC3026F0C007D6
:1016B8001F601C6844F0C0061E60176B2F43176339
:1016C8001C68C0F8B03024F440761E601F6847F4E8
:1016D80040741C60166B2E4316631F68C0F8B43044
:1016E80027F440641C601E6846F440671F60146B52
:1016F8002C431463C0F8B8301E6826F440571F60A6
:101708001C6844F440561E60176B3D4315631A6805
:10171800C0F8BC3022F440451D60196841F44044CB
:101728001C60F0BC704700BF003802400010024047
:1017380078480008000002406848000842686421B0
:1017480053692DE9F04100F15C06054623F4804019
:101758000024DFF8D080374650612F4800F05AFC4B
:1017680021460134404600F0A5F9082C47F8040B3F
:10177800F6D16A68642105F1800700245369DFF80F
:10178800A48043F480405061234800F043FC214684
:10179800404600F08FF9013456F8041B082CA0EBE2
:1017A800010247F8042BF2D14FF0800C1B4E6FF06A
:1017B800FF024FF480770024AE632A644FF0010ED5
:1017C80017496FF07F004FF4C0764FF40072E96359
:1017D8002346686429466A650522EC612C63C5F8CE
:1017E800C4402C732E65A5F8C0E00B48C5E912C7A4
:1017F8000027C5E90544C5E90844C5E90A44C5F810
:10180800C870C5F8CC70C5F8D070C5F8D47000F0B1
:10181800FFFA2046BDE8F0817404002000FEFFFFB7
:1018280080FEFFFF54010020002970B420DB072947
:1018380014DC00EB81046569A36B03FB05F2D9B1E5
:1018480023690729666B05EB030406FB032324D1F0
:101858002C44134493FBF4F070BC7047056B426D45
:10186800C16A02FB05F2006D6C1800FB0123EFE76B
:101878004569826B02FB05F20121530005FA01F468
:1018880000EB810CDCF81450DCF838602C1906FBEE
:10189800053393FBF4F070BC70470131F0E700BFEB
:1018A8002DE9F047D0E9054AD0F81C90012504EB52
:1018B8000A035445066B4B44ACBF0021012180F854
:1018C800C150D0E9088ED0E90AC743448A0073445E
:1018D800851863446D693B444D4533444FEAD3034F
:1018E80007EE903AB8EEE70A80ED350A01DA0221F0
:1018F800082285186D69454501DA03210C228518EF
:101908006D69754501DA0421102285186D696545F0
:1019180001DA0521142285186D69BD4201DA062114
:1019280018220244B4F5967F5569CCBF01240024DF
:10193800B542ACBF0D460725BAF5967FC8BF01343E
:10194800B9F5967FC8BF0134B8F5967FC8BF013492
:10195800BEF5967FC8BF0134BCF5967FC8BF013479
:10196800B7F5967FC8BF0134B6F5967FC8BF013476
:10197800B3F5C87F4AD800EB85014F69B7F5967F64
:1019880013DCD0ED320A9FED287AF4EEC70AF1EEA7
:1019980010FA43D49FED251AF4EEC10AF1EE10FABD
:1019A80032DD032480F8C1402EE04FF0010E2946B5
:1019B80082469FED1F7A80F8C0E0FFF735FF01EE01
:1019C800900A691C5046B8EEE12A62EE072ACAED71
:1019D800322AFFF729FF03EE100A691E5046F8EE77
:1019E800C33A23EE874A8AED334AFFF71DFF04EE18
:1019F800900A0020CAF8C440B8EEE45A8AF8C10038
:101A080065EE075ACAED345ABDE8F0874FF003096E
:101A1800C0F8C440A0F8C090BDE8F087022680F85E
:101A2800C160BDE8F08700BF000040BF0000403F34
:101A38000000003B2DE9F8434FF000090646144D1D
:101A48004FF47A7400F114084F464946284600F0CE
:101A580031F8D8F84830D8F86C2009F10109C01AD3
:101A680008F1040804FB00F090FBF2F1D1F57A7359
:101A780054BF48F8043C48F8047CB9F1080FE4D195
:101A880001253046FFF70CFF3573BDE8F88300BF2A
:101A980054010020704700BF10B50446042102F02D
:101AA800A7FA204610BD00BF014B0360704700BF76
:101AB8008C48000808B501230848C9B21A46FFF740
:101AC8006DFC0648FFF7E2FC02210448FFF714FD0D
:101AD8000028F9D00148FFF7F5FC08BD00200140B7
:101AE80030B5012187B0104C4FF48070FFF7CAF968
:101AF80001250022204669468DF814508DF80420EF
:101B080000928DF805200492CDE90222FFF79CFB94
:101B180029462046FFF718FC2B462A4620460B216B
:101B2800FFF73CFC07B030BD002001402E4A4FF0C3
:101B3800030C2DE9F043136B83B02C4D4FF00108D3
:101B480002AC43F007010027284611634FF0100943
:101B580044F8088D21468DF804C020268DF80770BA
:101B6800FEF76CFF07F1804302222146284603F561
:101B780002370092FEF762FF0422214628460092AF
:101B8800FEF75CFF0823214628460093FEF756FF20
:101B980021462846CDF80090FEF750FF21462846FA
:101BA8000096FEF74BFF4022214628460092FEF79A
:101BB80045FF8023284621460093FEF73FFF214634
:101BC8003846CDF80090FEF739FF21460848CDF891
:101BD8000080FEF733FF214638460096FEF72EFFB9
:101BE80003B0BDE8F08300BF0038024000000240A7
:101BF8000004024010B50446FFF798FF2046BDE8F0
:101C08001040FFF76DBF00BF704700BF10B5044616
:101C1800042102F0EDF9204610BD00BF014B03601E
:101C2800704700BF9C4800082B4A2C4B106BA3F54B
:101C3800704CF0B440F2FF174E0029490024384395
:101C480010639D6825F4402098609D6845F4402005
:101C580098601D6825F4402018601D6845F4002030
:101C68001860156B3D430C271563986820F44015E0
:101C78009D60986840F440159D60186820F44015F0
:101C88001D60186840F400151D60586A20F0F005C2
:101C98005D62586A40F070055D62586A20F47065AC
:101CA8005D62586A40F4E065B1FBF6F65D62516C1E
:101CB80041F010035364CCF80440CCF80070CCF821
:101CC8000840CCF80C60DCF8002042F00104CCF8A5
:101CD8000040F0BC704700BF0038024000000240DE
:101CE80000E6DF0C10B50C4680210548FFF744FAE2
:101CF8000028F9D021460248BDE81040FFF704BA91
:101D0800001001404FF080431A69D20777D54FF68B
:101D1800FE7070B500243A4D186115E0DCF80C30FF
:101D28005E1ECCF80C600134A600301905EB800C5F
:101D3800DCF80C20002A35D0DCF80C00461ECCF864
:101D48000C600134102C55D0A600311905EB810C1C
:101D5800DCF80C30002BE1D1DCF80820CCF80C20A2
:101D68009CF81000FF2805D09CF810100131CBB268
:101D78008CF81030301905EB800C9CF81120002AE3
:101D8800D1D155F8201011B155F820309847264484
:101D980005EB860670680028C5D0706802689168EF
:101DA8008847C0E7DCF80810CCF80C109CF8103015
:101DB800FF2B05D09CF810000130C2B28CF810201F
:101DC800311905EB810C9CF81130002BB9D155F86D
:101DD800210010B155F821209047264405EB8606CE
:101DE80071680029ADD07068013403689A6890471B
:101DF800102CA9D1034C25680135256070BD7047AA
:101E08000C00002008000020704700BF704700BF8A
:101E1800F0B472B66D4C206800284AD067694FF05C
:101E2800FF30002F4DD0A66A002E51D0E56B002D53
:101E380055D0276D002F59D0666E002E5DD0A56F46
:101E4800002D61D0D4F88C70002F65D0D4F8A06034
:101E5800002E6AD0D4F8B450002D6FD0D4F8C870D2
:101E6800002F74D0D4F8DC60002E79D0D4F8F0506C
:101E7800002D7ED0D4F80471002F00F08480D4F8AF
:101E88001861002E00F08980D4F82C51002D00F044
:101E98008E80451C0AD000EB80050027AD0066192E
:101EA80067517160B260F2603774737462B6F0BCE7
:101EB8007047656867692E1C18BF01267042002F9D
:101EC800B1D1A569A66A002D08BF0120002EADD1A9
:101ED800E76AE56B002F08BF0220002DA9D1266C08
:101EE800276D002E08BF0320002FA5D1656D666EF3
:101EF800002D08BF0420002EA1D1A76EA56F002FCA
:101F080008BF0520002D9DD1E66FD4F88C70002EF7
:101F180008BF0620002F99D1D4F89050D4F8A060BB
:101F2800002D08BF0720002E94D1D4F8A470D4F84F
:101F3800B450002F08BF0820002D8FD1D4F8B86006
:101F4800D4F8C870002E08BF0920002F8AD1D4F811
:101F5800CC50D4F8DC60002D08BF0A20002E85D1B3
:101F6800D4F8E070D4F8F050002F08BF0B20002DF3
:101F780080D1D4F8F460D4F80471002E08BF0C2086
:101F8800002F7FF47CAFD4F80851D4F81861002DE5
:101F980008BF0D20002E7FF477AFD4F81C71002FF6
:101FA8007FF472AFD4F82C0140B10E2073E7D4F857
:101FB8003061002E7FF46DAF0F206CE7D4F830014C
:101FC80000280CBF0F200E2065E700BF0C00002082
:101FD80001EB8101054B002003EB810CCCF80C20B0
:101FE800CCF808208CF81000704700BF0C000020C7
:101FF80082B072B6034B1868019062B6019802B0BD
:10200800704700BF08000020014B1868704700BFE8
:102018000800002084B072B60C480368029362B6C8
:10202800029A1144019172B60168039162B6039A4B
:10203800019B9A4208D200BF72B60168039162B64A
:10204800039B019A9A42F6D804B070470800002012
:1020580030B58BB0002945D0254BDFED267A994263
:102068009FED256A28BF194607EE101AB8EEC70A71
:10207800C7EE806AFCEEE60A10EE905A2D0C681C3A
:1020880001EE100AF8EEC11A86EEA12A72EE462A6F
:10209800BCEEE23A13EE101A8CB201210846FEF7A4
:1020A800CFFE01A8FEF764FE002205A94FF080408C
:1020B80008920595CDE90624FEF764F901214FF051
:1020C8008040FEF7F3F901224FF080401146FEF7F9
:1020D8001DFC0A4B10204FF0805183F81C03196037
:1020E8000BB030BD4FF6FC7440F23735D5E700BF72
:1020F800C0FC9B0160FE4D4C0000803F00E100E009
:1021080070B54FF47A74574B0022574E21461A6027
:102118005A609C60DA601A745A745A619A61DC6178
:102128001A6283F8242083F825209A62DA621C63F5
:102138005A6383F8382083F83920DA631A645C64B8
:102148009A6483F84C2083F84D201A655A659C657B
:10215800DA6583F8602083F861205A669A66DC663F
:102168001A6783F8742083F875209A67DA67C3F8CA
:102178008040C3F8842083F8882083F88920C3F836
:102188008C20C3F89020C3F89440C3F8982083F8B3
:102198009C2083F89D20C3F8A020C3F8A420C3F88E
:1021A800A840C3F8AC2083F8B02083F8B120C3F866
:1021B800B420C3F8B820C3F8BC40C3F8C02083F8E3
:1021C800C42083F8C520C3F8C820C3F8CC20C3F8BE
:1021D800D040C3F8D42083F8D82083F8D920C3F896
:1021E800DC20C3F8E020C3F8E440C3F8E82083F813
:1021F800EC2083F8ED20C3F8F020C3F8F420C3F8EE
:10220800F840C3F8FC2083F8002183F80121C3F8C3
:102218000421C3F80821C3F80C41C3F8102183F83E
:10222800142183F81521C3F81821C3F81C21C3F819
:102238002041C3F8242183F8282183F82921C3F8F1
:102248002C21C3F83021C3F83441C3F8382183F86E
:102258003C2183F83D2132600260FFF7F9FE62B647
:1022680070BD00BF0C00002008000020704700BFB0
:1022780010B50446142101F0BBFE204610BD00BF76
:10228800094B186900F0C001C02903D011B14FF003
:10229800FF3C01E04FF0010C044A402013686344FE
:1022A8001360FEF7B5BE00BF000802404C010020D5
:1022B800094B186900F03001302903D011B14FF0F3
:1022C800010C01E04FF0FF3C044A102013686344FE
:1022D8001360FEF79DBE00BF0004024050010020BD
:1022E8003049314A314B70B40E6B40F2FF15036030
:1022F8002E432F4B0E639668426026F44056966034
:10230800966846F440569660166826F4405616605D
:1023180016681660D66846F48056D6600E6B2E4353
:102328000E639668826026F440469660966846F486
:1023380040469660166826F4404616601668166091
:10234800D66846F48046D6600A6B2A430A639E68BC
:10235800C36026F440729A609E6846F440729A60A0
:102368001E6826F440721A601E681E60DA6842F41D
:102378008076DE600A6B15430D639968036121F46A
:1023880040659D609C6844F440669E601A6822F42B
:10239800406119601D681D60DC6844F48066DE6079
:1023A80070BC70470038024000080240AC48000882
:1023B800000402402DE9F041344B0025344A86B030
:1023C800012401214FF4804015601D60FEF75AFD7D
:1023D80001210420FEF710FD4FF040082146032795
:1023E80002201026FEF708FD02A92A488DF80C5095
:1023F8008DF80E50CDF808808DF80F408DF80D70CF
:10240800FEF71CFB06210220FEF7DEFA0DEB0600A4
:10241800CDF810808DF816408DF814508DF81560A1
:10242800FEF79CFD172101A88DF80640ADF80410B1
:102438008DF80740FFF78EF802A917488DF80D7040
:102448008DF80C508DF80E5002968DF80F40FEF75F
:10245800F5FA04212046FEF7B7FA0DEB06008DF8D1
:10246800145004968DF816408DF81560FEF776FD29
:102478000A2201A88DF806408DF80740ADF804201F
:10248800FFF768F806B0BDE8F08100BF50010020F2
:102498004C0100200008024000040240064958226E
:1024A800064B086802FB00F283FB021CD117944418
:1024B800C1EB2C20704700BF4C010020B7600BB661
:1024C80006495822064B086802FB00F283FB021CEF
:1024D800D1179444C1EB2C20704700BF5001002055
:1024E800B7600BB606495822064B086802FB00F293
:1024F80083FB021CD1179444C1EB2C20704700BF0A
:102508004C010020B7600BB606495822064B0868F4
:1025180002FB00F283FB021CD1179444C1EB2C2070
:10252800704700BF50010020B7600BB6704700BF6E
:10253800704700BF0020704700207047704700BFF9
:1025480010B50446582101F053FD204610BD00BFC8
:10255800014B0360704700BFBC480008026D136858
:102568002DE9F0476C4E884699680446B14240F020
:10257800CD805F69694DAF4240F0C180AF4240F005
:10258800B8809968B14240F0AF805F69AF4240F0CF
:10259800A5809F69DFF890914F4540F095804FF0F6
:1025A800000A4F4540F08680D9685D4FB94229D16D
:1025B800B8F1000F2BD0226D206B13685044996836
:1025C8002063B14237D1D3F814C0AC453BD1AC45F8
:1025D80042D19968B14247D15E69AE424BD19D69FB
:1025E8004D4550D14D454FF0000656D1D968B942F6
:1025F8005DD100270125E66084F83550C4E90177EC
:10260800BDE8F08710468847B8F1000FD3D1454898
:10261800D4E91023C4E91223FFF7F6FC636A226D9C
:1026280053442064C4F8448063621368C4F818A053
:102638009968B142C7D010468847226D1368D3F80D
:1026480014C0AC45C3D01046D421E047226D1368AE
:10265800D3F814C0AC45BCD010462D21E047226DFC
:1026680013689968B142B7D010468847226D13683D
:102678005E69AE42B3D01046D521B047226D1368CB
:102688009D694D45AED010460121A847226D000234
:10269800136806B29D694D45A8D010460021A84789
:1026A800226D0643136836B2D968B942A1D01046E4
:1026B80088479EE710460021B847226D4AEA000184
:1026C80013680FFA81FA6FE710460121B847226DA7
:1026D800000213680FFA80FA9F6962E71046D52155
:1026E800B847226D136854E710468847226D13686F
:1026F8004BE710461D21B847226D136841E7104685
:10270800D421B847226D13685F6937E710468847B8
:10271800226D13682DE700BF352500083D25000808
:102728003925000874040020412500080021FFF71E
:1027380015BF00BFF8B5044642F21073016500BF2B
:1027480000BF00BF00BF00BF00BF00BF00BF083B05
:10275800F5D184F834300F22D421206D00F0C4FE66
:10276800682840F0CA80012084F8340088231022A9
:10277800D421206D00F076FE38231E22D421206D4E
:1027880000F070FE00232E22D421206D00F06AFE96
:1027980000231222D421206D00F064FE6023202241
:1027A800D421206D00F05EFE1F22D4213823206D35
:1027B80000F058FE40F2D66242F21071A26300BFE8
:1027C80000BF00BF00BF00BF00BF00BF00BF083987
:1027D800F5D1202700212046FFF7C0FE0021204622
:1027E800FFF7BCFE00212046FFF7B8FE0021204677
:1027F800FFF7B4FE00212046FFF7B0FE0021204677
:10280800FFF7ACFE00212046FFF7A8FE0021204676
:10281800FFF7A4FE083FDDD14FF47A763B4D2763DE
:10282800C4E90A7701212046FFF798FE01212846CE
:10283800FFF7F0FB01212046FFF790FE0121284613
:10284800FFF7E8FB01212046FFF788FE0121284613
:10285800FFF7E0FB01212046FFF780FE0121284613
:10286800FFF7D8FB01212046FFF778FE0121284613
:10287800FFF7D0FB01212046FFF770FE0121284613
:10288800FFF7C8FB01212046FFF768FE0121284613
:10289800FFF7C0FB01212046FFF760FE0121284613
:1028A800FFF7B8FB083EBDD1D4E90BCEA06A184F9C
:1028B8002661A7FB0E53A7FB0001A7FB0C021348D8
:1028C8008D0966629909E66097092163C4E905667E
:1028D800C4E90766C4E90166C4E90A57FFF788FB3B
:1028E800666420643346A0640A222146E6640748E9
:1028F800FFF78EFA84F83560F8BD0F22D421206DD9
:1029080000F0F2FD69287FF431AF2CE77404002051
:10291800D34D621090F83400704700BF034B10B5D8
:1029280004460360FFF770F9204610BDD048000840
:10293800054B10B504460360FFF766F904212046ED
:1029480001F056FB204610BDD048000810B50446DB
:10295800FFF764F9014B2046236010BDD0480008FA
:1029680038B50C46097839B105462846FFF7BAF953
:1029780014F8011F0029F8D138BD00BF70B5002335
:1029880084B004460A258DF80F30124E00E06546E3
:10299800A6FB0132681ED2085FFA80FC02EB8203B4
:1029A800A1EB4300114604AA30302A4402F80C0C6B
:1029B8000029ECD10DF1040C1CF80510654431B167
:1029C8002046FFF78FF915F8011F0029F8D104B048
:1029D80070BD00BFCDCCCCCC38B504467048636818
:1029E8002DED048BA360FFF70FFBA3686060B0EBCD
:1029F800030C6C48D4E9061214BF65460125216111
:102A08006261FFF76FFDA0616648FFF77DFDD4EDB9
:102A1800060A636907EE905A10EE902A2569C11AD2
:102A28009FED616A531B9FED614A06EE901AB8EE5E
:102A3800E77A01EE103A00EE100AF8EEE61A9FED7A
:102A48005C5AB8EEC12AD4ED084AB8EEC03AD4EDC3
:102A58000A5A61EE868AD4ED093A62EE069AE06176
:102A6800F8EEE02AD4ED0C0A28EE840A04F15800A6
:102A780069EE847A22EE869AC0EE072AC7EE876A44
:102A880024EE851A23EE068A94ED0B3A23EE856A26
:102A980025EE857A63EE051A32EE862A37EE094A64
:102AA80031EE888A84ED092A84ED0A4A76EE813A65
:102AB80084ED0B8A70EEE38A13EE902AC4ED083A8F
:102AC80018EE901A01F0D0FA626A94ED0D5A08EEE9
:102AD800900A04EE902A04F1840035EE649A19EE07
:102AE800101A01F0C1FAD4ED0E9AA26A08EE100A83
:102AF800F8EEE95A04F1B00000EE102A35EEC03ABB
:102B080013EE101A01F0B0FA94ED0F6AE26A09EEBA
:102B1800900AF8EEC60A04F1DC0007EE902A70EE7F
:102B2800E72A12EE901A01F09FFAE56825B1012D07
:102B38001BD0BDEC048B38BDDFED1E9A403428EE67
:102B4800A94A2046BDEEC42A12EE101A00F0EEF98A
:102B580068EE293A2046BDEEE35ABDEC048B15EE2B
:102B6800101ABDE8384000F001BA9FED129A4034BF
:102B780008EE900A69EE896A2046BDEEE61A11EE63
:102B8800101A00F0D3F928EE897A2046FDEEC71A0C
:102B9800BDEC048B11EE901ABDE8384000F0E6B9A0
:102BA80074040020F8010020CDCCCC3D5555D53F0C
:102BB8006666663F00007F430C4B10B5044640F83C
:102BC800403B00F0AFF804F1580001F01FFA04F19F
:102BD800840001F01BFA04F1B00001F017FA04F1C7
:102BE800DC0001F013FA204610BD00BFE0480008E1
:102BF8002DE9F04F044683B04FF07F59DFF8A0B0BD
:102C0800DFF8A0804FF07E5A4030002600F012F91D
:102C180004F158004B465A464146CDF800A001F051
:102C28000BFA1E4F4B46DFF880905A46414604F196
:102C38008400CDF800A001F0FFF9DFF870B004F1CE
:102C4800B0003B4639463246CDF80090002501F0E9
:102C5800F3F93B463946324604F1DC00CDF80090E2
:102C680001F0EAF95846FFF7C3F984462662584648
:102C78006662214626632B4666630522E561C4E940
:102C880001CCC4E90355C4E90555C4E90E55FFF75D
:102C9800BFF8284603B0BDE8F08F00BF0AD7233C31
:102CA800CDCCCC3D9A99D93F000020417404002036
:102CB8000163704741637047006A7047406A704714
:102CC8000C4B10B5044640F8DC3B01F095F904F1D3
:102CD800B00001F091F904F1840001F08DF904F1DC
:102CE800580001F089F904F1400000F011F820467D
:102CF80010BD00BFE048000810B50446FFF7E0FF2C
:102D08004FF48471204601F073F9204610BD00BFCE
:102D1800704700BF10B50446182101F069F9204634
:102D280010BD00BF3F49404A404B70B40E6B40F2A3
:102D3800FF1503602E433E4B0E639668426026F4EF
:102D480040569660966846F440569660566826F057
:102D58004006566056685660166826F44056166057
:102D6800166846F4805616600A6B2A430A639E6802
:102D7800836026F440029A609E6846F440029A6096
:102D88005E6826F400625A605E685E601A6822F423
:102D980040061E601A6842F480061E600A6B2A43C9
:102DA8000A639E68C36026F040629A609E6846F097
:102DB80040629A605E6826F400525A605E685E60FF
:102DC8001A6822F040661E601A6842F080661E602B
:102DD8000A6B2A430A639E68036126F440129A60CC
:102DE8009E6846F440129A601E6826F440121A60E3
:102DF8001E6846F400121A600E6B35430D6399681D
:102E0800436121F040759D609C6844F040729A606F
:102E18001E6826F0407119601D6845F000741C603A
:102E280070BC70470038024000040240F4480008B3
:102E380000100240D0F804C001212DE9F043DCF86D
:102E4800143006464FF480778FB0326943F0400360
:102E5800354C4FF00408CCF814300846D2F81490DA
:102E68000025736929F4806EC2F814E0D3F814C001
:102E78002CF48059C3F81490D2F824E02EF4706C26
:102E8800C2F824C0D2F8249049EA070E8946C2F84D
:102E980024E05A6A22F470225A625A6A42F4803252
:102EA8005A62FDF7EFFF41F218530DEB0801204677
:102EB8000595CDE90337CDE90185FDF763FA20468D
:102EC8004946FDF7F3FA4FF0600C0222CDF8208056
:102ED8004FF00808204606A90C9709950D95CDE9ED
:102EE8000A28CDE906C9FDF7DFFB41462046FDF774
:102EF800B7FC06A92046FDF72DFB41462046FDF705
:102F080075FC49462046FDF7DBFCD6E902014E690F
:102F180026F400574F61E563436923F40062426178
:102F2800A5630FB0BDE8F08300000140C2680B1E26
:102F3800516911DD41F400515161FF2B0948A8BFC7
:102F4800FF231A4641F2185303FB02F3064AA0FB7B
:102F58000313D909D163704721F400505B425061D3
:102F6800EBE700BF818080800000014082680B1E73
:102F7800516911DD41F400615161FF2B0948A8BF77
:102F8800FF231A4641F2185303FB02F3064AA0FB3B
:102F98000313D9099163704721F400605B425061C3
:102FA800EBE700BF8180808000000140704700BFD0
:102FB80010B50446982101F01BF8204610BD00BF4B
:102FC80010B50E2104466C482DED048BFEF772FDFA
:102FD80007EE900A08216848F8EEE78AFEF76AFDCE
:102FE80000EE100A0F2164489FED649AB8EEC08A7B
:102FF800FEF760FD9FED627A00EE900A94ED114AAB
:1030080068EE899A94ED131A37EE446ADFED5D3A5B
:10301800F8EEE05AD4ED184A68EE098AD4ED161A8B
:1030280077EE646A94ED1F5A25EE898A94ED1A2A80
:1030380039EEC19AA26C66EE235AC4ED129A77EE65
:10304800452A94ED213A26EEA37A94ED1D6A65EEA1
:10305800896A84ED141A24EE614A636D38EEC20A57
:10306800606E62EEA37AD4ED243A76EE849AC4EDCB
:10307800198A78EE430ADFED428A67EE002AD4F80F
:103088008010F5EEC09AC4ED159A64EEC64A84ED38
:10309800208A27EEA01A9FED3B0AF1EE10FAD4F829
:1030A80070C032EEA49AE26425EE635AD4F88C20FC
:1030B80048BFF1EE699ADFED347AB5EEC09A84ED37
:1030C8001C9A71EE055AC4F8902038EEE98AC4EDCE
:1030D800171AF1EE10FAA365F5EEC05A84ED1B2A13
:1030E800A0664FF0010048BFB1EE499A84ED223A3C
:1030F800F1EE10FAC4F88410B4EEC08A84ED1E6AAA
:10310800C4ED253AC4F874C0C4ED235A48BFF1EEA3
:10311800655AF1EE10FA9FED1A2AB4EEE78ADFED50
:10312800181AA36A32EE493A4CBF01220022F1EE86
:1031380010FA84ED028A31EEE57A227484ED013AC0
:103148004CBF0122002213F0030184ED037A62745C
:10315800207509D1A069426922F008014161013353
:10316800BDEC048BA36210BD0229F8D1A0694269A5
:1031780042F008014161F2E7540100200000803963
:103188000000803F0000003F0000803EF0B5424D47
:1031980040F2FF1741492A6B414C3A4304602A63C5
:1031A80000228E68816126F0C00C3E4C3E4EC1F86C
:1031B80008C0D1F808E0DFF8F4C04EF0C00EC1F83E
:1031C80008E0D1F804E02EF0080EC1F804E0D1F8C8
:1031D80004E0C1F804E0D1F800E02EF0C00EC1F818
:1031E80000E0D1F800E04EF0400EC1F800E0D5F85C
:1031F80030E04EEA070EC5F830E0D4F800E0C461CC
:103208002EF4407EC4F800E0D4F800E04EF4407E8E
:10321800C4F800E0D5F830E04EEA070EC5F830E013
:10322800D6F800E006622EF0030EC6F800E0D6F8E5
:1032380000E04EF0030EC6F800E02E6B37432F6314
:103248002568446225F440672760266846F440658F
:1032580025604C69426524F008078265C26582646E
:10326800C264026502674267826742668266C26616
:10327800C0F88C20C0F89020C0F89420C0F88020B6
:10328800C0F88420C0F88820C0F844C0C0F860C0E6
:10329800C0F87CC04F61F0BD003802400010024009
:1032A800044900080008024000040240CDCC4C3F0D
:1032B800F8B5044600254FF07E500222A7692B4638
:1032C800A56221467E6926F008067E616060A060DE
:1032D800E060257465740648C4E90B55C4E90D55CA
:1032E800C4E90F55FEF794FD25752846F8BD00BFC3
:1032F80074040020704700BF027B836832B9012143
:103308000173586920F001025A6170470021017366
:10331800586940F001025A61704700BF10B5044671
:10332800182100F065FE204610BD00BF1C491D4A4B
:103338001D4B70B40D6B40F2FF16036035431B4BF9
:103348000D639568426025F040759560956845F075
:1033580040759560156825F040751560156815600D
:10336800D56845F08075D5600A6B32430A63996861
:10337800836021F003069E609C6844F003059D600D
:103388005A6822F0010159605E685E601C6824F08A
:1033980003051D601A6842F00101196070BC70478E
:1033A800003802400008024018490008000C02409A
:1033B8004FF0FF3100234FF4FA7210B50446416113
:1033C800037301460248FEF723FD206110BD00BFCC
:1033D80074040020436870B504461869C10404D514
:1033E80000BF61680A69D204FAD401256422217CED
:1033F80065611148FEF7ECFD0F48FEF7F9FD0E4D2B
:1034080000F5FA66636828461969CB0412D4FEF7FA
:10341800EFFDB042F6D960690128F3D13222217C50
:103428002846FEF7D5FD63680222284619696261BD
:10343800CB04ECD5606970BD74040020142343608C
:10344800704700BF704700BF10B50446082100F060
:10345800CFFD204610BD00BF014B0360704700BF81
:103468002C4900082DE9F043046883B01B4E074639
:10347800A56891469846B5420ED16269184EB24287
:1034880012D1B24216D1B2421BD1E3681548834229
:103498001FD103B0BDE8F0830191A8473C68104EE6
:1034A80062690199B242ECD0384690473C6862693B
:1034B800B242E8D04946384690473C686269B24211
:1034C800E3D04146384690473C680648E368834263
:1034D800DFD0384603B0BDE8F0431847352500086B
:1034E8003D250008392500082DE9F843036888467A
:1034F800274F044699689146B94218D15E69254D0F
:10350800AE421AD1AE421FD19A68BA4223D15F693E
:10351800AF4226D19D69204885422BD1D9684FF00A
:1035280000081E4EB1422ED14046BDE8F8838847B8
:103538002368184D5E69AE42E4D041462046B04744
:1035480023685E69AE42DFD049462046B04723680B
:103558009A68BA42DBD02046904723685F69AF4239
:10356800D8D048F001012046B84723680A489D6929
:103578008542D3D000212046A8472368074E8046BD
:10358800D968B142D0D0204688474046BDE8F88384
:10359800352500083D250008412500083925000883
:1035A80043682BB1002100BF013142688A42FAD832
:1035B800704700BF704700BF1A4A32211A4B30B417
:1035C800146B40F2FF1541602C43146399688360C3
:1035D80021F00C049C60996841F00C049C60196807
:1035E80021F00C041C6019681960146B2C431463D7
:1035F8009A68C36022F0300098609D6845F03001F9
:1036080099601C6824F030021A60186818605D69B7
:1036180025F0020159615C6924F0040230BC5A614A
:10362800704700BF00380240000C024010B5044645
:10363800082100F0DDFC204610BD00BF034B10B58B
:1036480004460360FFF7FEFE204610BD50490008FF
:10365800054B10B504460360FFF7F4FE1021204621
:1036680000F0C6FC204610BD50490008D0E902C24F
:10367800916821F030039360916841F030039360C2
:10368800516821F00403536051685160136823F0B6
:1036980030011160136843F010011160DCF8083044
:1036A80023F00C01CCF80810DCF8083043F00C01CA
:1036B800CCF80810DCF8043023F00201CCF8041030
:1036C800DCF80430CCF80430DCF8001021F00C03EE
:1036D800CCF80030DCF8001041F00403CCF80030DE
:1036E800916821F030039360916841F03003936052
:1036F800116821F03003136011681160DCF808309C
:1037080023F00C01CCF80810DCF8083043F00C0169
:10371800CCF80810DCF8043023F00201CCF80410CF
:10372800DCF80430CCF80430DCF8001021F00C038D
:10373800CCF80030DCF8001041F00403CCF800307D
:10374800916821F030039360916841F030039360F1
:10375800116821F03003136011681160DCF808204B
:1037680022F00C03CCF80830DCF8081041F00C0209
:10377800CCF80820DCF8003023F00C01CCF800105D
:10378800DCF80020CCF80020FFF70ABFD0E902C21D
:10379800916821F030039360916841F030039360A1
:1037A800116821F03003136011681160DCF80830EB
:1037B80023F00C01CCF80810DCF8083043F00C01B9
:1037C800CCF80810DCF8003023F00C01CCF800101D
:1037D800DCF80030CCF80030916821F030039360B9
:1037E800916841F030039360116821F03003136051
:1037F80011681160DCF8083023F00C01CCF80810CF
:10380800DCF8083043F00C01CCF80810DCF8043080
:1038180023F00201CCF80410DCF80430CCF80430B2
:10382800DCF8001021F00C03CCF80030DCF80010B4
:1038380041F00403CCF80030916821F03003936024
:10384800916841F030039360516821F0040353609C
:1038580051685160136823F030011160136843F018
:1038680010011160DCF8082022F00C03CCF80830B5
:10387800DCF8081041F00C02CCF80820DCF8003025
:1038880023F00C01CCF80010DCF80020CCF8002064
:10389800FFF786BE70B504460E46082520E002688C
:1038A80022F00C030360016801602046013DFFF728
:1038B80077FEE368204676009A68F6B222F0300177
:1038C80099609A6842F0300199601A6822F03001D4
:1038D80019601A681A60FFF763FE15F0FF0533D008
:1038E800E36820469A6822F0300199609A6842F0AD
:1038F800300199605A6822F0040159605A685A6088
:10390800196821F030021A60196841F010021A6033
:10391800FFF746FEA068836823F00C018160826887
:1039280042F00C0332068360B9D4416821F00202E8
:10393800426043684360016821F00C02026003683A
:1039480043F004010160B0E7E3682046996821F07C
:1039580030029A609E6846F030059D60596821F0F3
:1039680004025A605E685E601D6825F030011960C7
:103978001A6842F010061E60FFF712FEA368204680
:103988009D6825F00C0199609A6842F00C069E60CB
:103998001D6825F00C0119601A681A60FFF700FE0F
:1039A800E36820469E6826F030059D60996841F0DE
:1039B80030029A601E6826F030051D60196819608B
:1039C800FFF7EEFD2046D4E902C3DCF810409A6800
:1039D80022F030069E609D6845F0300199605A6873
:1039E80022F004065E605D685D60196821F03002AF
:1039F8001A601E6846F010051D60FFF7D1FD84F0BF
:103A08000200C0F3400070BD8268F8B593680F46A5
:103A18000446082623F00C0100259160936843F0C2
:103A28000C019160136823F00C01C36811601168E0
:103A380011609A6822F0300199609A6842F030016A
:103A480099605A6822F0040159605A685A601968E6
:103A580021F030021A60196841F010021A60FFF76D
:103A68009FFDE36820466D00013E9968EDB221F0A4
:103A780030029A60996841F030029A60196821F022
:103A880030021A6019681960FFF78AFDA368E168B7
:103A980020461A6993078B6823F0300248BF45F027
:103AA80001058A608B6843F030028A604B6823F016
:103AB80004024A604B684B600A6822F030030B60CE
:103AC8000A6842F010030B60FFF76AFD16F0FF0664
:103AD800C7D1A068816821F00C028260836843F036
:103AE8000C068660002F48D1076827F00C0101609A
:103AF800026802602046FFF753FDE7682046B96870
:103B080021F03002BA60BB6843F03006BE60396805
:103B180021F030023A603B683B60FFF741FDE768FF
:103B28002046BE6826F03001B960BA6842F030031A
:103B3800BB607E6826F0040179607A687A603B6829
:103B480023F030063E60396841F010023A60FFF712
:103B580027FDA7682046BC6824F00C03BB60BE683C
:103B680046F00C01B9603A6822F00C043C603B68EE
:103B78003B60FFF715FD2846F8BD436823F00206B1
:103B8800466047684760016821F00C0202600368DC
:103B980043F004060660ADE7F8B505464FF4E13199
:103BA80075486A68754C536943F001065661FEF71B
:103BB8003BF873497048FEF7D3FE72496E48FEF72A
:103BC800CFFE71496C48FEF7CBFE00F009FA0746B4
:103BD8006E496948FEF7C4FE3946674840F2FF1748
:103BE800FEF7CCFE6A496448FEF7BAFE69496248A6
:103BF800FEF7B6FE6848FEF783FA14216648FEF71A
:103C080009FA66495C48FEF7ABFE65495A48FEF773
:103C1800A7FE644A644B3220116BA3603943E3600A
:103C280011639E68606026F00C0199609E685B498C
:103C380046F00C0098601E6826F00C0018601E689C
:103C48004D481E60166B3E4316639A6822F0300793
:103C58009F609E6846F030029A601F6827F0300621
:103C68001E601A681A605F6927F002065E615A6969
:103C780022F004075F61FEF773FE4C493E48FEF7E9
:103C88006FFE21464A48FEF755FD3B484949FEF775
:103C980067FE4748FEF73EFE002868D14649364889
:103CA800FEF75EFE3A493448FEF75AFE4349324869
:103CB800FEF756FE4248FDF79DFF38492E48FEF7AD
:103CC8004FFE40492C48FEF74BFE3F48FDF736FDB6
:103CD80032492948FEF744FE3C492748FEF740FE92
:103CE8003B48FFF7E5FA2D492348FEF739FE3949E5
:103CF8002148FEF735FE3848FEF75CFB27491E4889
:103D0800FEF72EFE35491C48FEF72AFE3448FEF71A
:103D18006FFF22491848FEF723FE32491648FEF77E
:103D28001FFE3148FFF744FB1C491348FEF718FEF5
:103D38002E491148FEF714FED8210F48FEF71EFE43
:103D48002B490D48FEF70CFE2A490B48FEF708FEE2
:103D580029490948FEF704FE28490748FEF700FEEE
:103D68006D6800206C6924F001036B61F8BD24497B
:103D78000148FEF7F5FD95E7700400200C020020CD
:103D88006C4900087849000890490008A8490008CB
:103D98008C490008C049000874040020D449000870
:103DA800DC49000800380240000C0240F0490008D5
:103DB80020020020044A0008244A00082C4A00086F
:103DC80054010020404A0008900200205C4A000884
:103DD800580100207C4A0008F80100209C4A00088D
:103DE80068030020BC4A000878020020D04A000876
:103DF800E44A0008EC4A0008F04A0008104B0008A2
:103E08001C4A000870B50446FFF726FB154A40F225
:103E1800FF16154B2046156B23603543134B15636E
:103E28009968A36021F00C059D60996841F00C0524
:103E38009D60196821F00C051D6019681960156BE3
:103E4800354315639A68E36022F030049C609E68ED
:103E580046F0300199601D6825F030021A601C6830
:103E68001C6070BD0038024050490008000C024038
:103E7800F8B5414D40F2FF12404F2C6B40492243A8
:103E8800404B4F6008460B602A63B9683E4C21F0EE
:103E980003033E4E22463E49BB60BD6845F003031E
:103EA800BB607D6825F001037B607D687D603B68B1
:103EB80023F003053D603B6843F001053D6000F0D9
:103EC80099F8344D3046344FFEF740FD22463349C9
:103ED800304600F08FF82846FDF796FF2246304915
:103EE800284600F087F82F4D38462F4EFFF78AFFF7
:103EF80022462E49384600F07DF82846FEF728FB72
:103F080022462B49284600F075F82A4D30462A4F9C
:103F1800FDF7CAFD22462949304600F06BF82846CD
:103F2800FDF770FB22462649284600F063F8254D28
:103F38003846254EFFF72AF922462449384600F02C
:103F480059F82846FEF7CCF922462149284600F0C0
:103F580051F8204F3046FEF72FFE22461E493046C4
:103F680000F048F83846FFF7E1F9224638461B4981
:103F7800BDE8F84000F03EB800380240000C0240AE
:103F8800F0010020304B00087C0400207004002061
:103F9800BD350008740400200C0200202529000803
:103FA800151E000820020020540100204536000894
:103FB8004525000890020020580100209D1A00089D
:103FC800E5150008F801002068030020B52F000857
:103FD8007522000878020020C92C0008FD3200086C
:103FE800014B0248186070477804002080040020C4
:103FF800704700BF00207047704700BF10B50446E7
:104008002C21FFF7F5FF204610BD00BF00224FF01E
:10401800004110B4074C01620460C26142608262D0
:104028008260C26002614261826142625DF8044B53
:10403800704700BF404B000807EE901A07EE102AA1
:104048000099002237EE870A4360F1EE670A816221
:10405800826080ED070AC0ED080AC2600261426111
:1040680082614262704700BFD0ED045A04EE102A04
:10407800D0ED053A05EE101A35EEA57AD0ED024AD4
:1040880090ED086AD0ED077A34EE470AD0ED012AA0
:1040980025EE271A90ED093A64EE860AC0ED063A35
:1040A80070EE231AD0ED0A6AC0ED055A31EE202AC7
:1040B800026121EEA24AC0ED034A816032EE445A01
:1040C80075EE033AF4EEE63AC0ED093AF1EE10FA6D
:1040D80003DDF0EE663AC0ED096AF1EE665AF4EED9
:1040E800E35AF1EE10FA03DDF0EE653AC0ED095A35
:1040F80013EE900A704700BF704700BF10B5044622
:104108001021FFF775FF204610BD00BF30B4034DE6
:10411800416005608260C36030BC7047504B000846
:1041280041608260C3607047D0ED037A07EE101AD1
:10413800F4EEC77AF1EE10FA09D405DD90ED020A23
:1041480077EEC07AC0ED037A17EE900A7047D0ED8B
:10415800010A77EEA07AC0ED037A17EE900A70474D
:1041680010B5012082B0FCF709FDFCF7DFFE01283D
:1041780000D0FEE70446092002234FF4D8720090CD
:1041880008214FF48000FCF70DFD2046FCF764FD84
:104198003920FCF79BFE0028FAD04FF0805001210F
:1041A800FCF74EFE0120FCF745FF4FF48030FCF78A
:1041B80071FF0028F9D03120FCF788FE0028FAD0DA
:1041C8000120FCF74FFF4FF40030FCF763FF002895
:1041D800F9D00720FCF71EFC0220FCF755FD002053
:1041E800FCF766FD4FF4A050FCF786FD4FF48050B5
:1041F800FCF7A0FD02B0BDE81040FCF707B800BF0F
:1042080008B5FBF7DDFFFFF7ABFFBDE80840FBF79C
:10421800FDBF00BF704700BF704700BF0020704758
:104228000020704700207047704700BF10B5044653
:104238000421FFF7DDFE204610BD00BF014B0360DF
:10424800704700BF604B00082DE9F04F8A46C4480C
:104258001E4617464FF07E552DED088BA5B00593E9
:10426800369CFEF71BF900EB0A02BD480392FEF7E5
:1042780027F9384404900EA8FFF7C8FEB94BBA4A8C
:104288000EA8BA490095FFF7D7FE19A8FFF7BEFE9A
:10429800B44B009519A8B44AB449FFF7CDFE56EAC5
:1042A800D77340F0BA80BAF1000FC0F2B6804FF071
:1042B800000806A8434642464146FFF727FFBAF1E1
:1042C800000FAB4840F37C81FEF7F6FCA94A034691
:1042D800A94906A8FFF724FF4FF000090AA84B4692
:1042E8004A464946FFF712FF002FA14840F358817C
:1042F800FEF7E4FC9F4A03469F490AA8FFF710FF10
:104308002CB123689D499F688F4240F06C81944F7F
:104318009FED9BBA964EDFED9BBA4FE020689A4915
:10432800C3688B4240F0BC8000254269974B9A4293
:1043380040F0B080F0EE4BAA81699548814240F088
:10434800A480B0EE4BAA3AEEA95A06A815EE101AA8
:10435800FFF7EAFE7AEE095A82460AA815EE901A85
:10436800FFF7E2FE814651463046FEF7A1FC49467A
:104378003046FEF79FFCB8F1000FB8BFC8F100083F
:1043880006EE108AF8EEC66AF4EEEB6AF1EE10FA61
:104398000ED5BBF1000FB8BFCBF1000B08EE90BAF9
:1043A800B8EEE88AB4EEEB8AF1EE10FA00F19780E5
:1043B8000A217848FDF72EFE002D76D13846FEF703
:1043C8006DF8039A83463846A2EB0B08FEF778F897
:1043D800049D03EE108AA5EB000B0EA8F8EEC33A75
:1043E80013EE902A13EE901AFFF73EFE04EE10BA71
:1043F80009EE900A19A8F8EEC44A14EE902A14EEB1
:10440800901AFFF731FE09EE100A002C86D1B0EEA3
:104418004BAA2546F0EE4BAA95E7554D0021544886
:10442800FEF746FC002128469FED5B8AFEF742FC1A
:10443800584E03E00A213046FDF7ECFD2846FEF70A
:104448003BFC07EE900A2846F5EEC07AF1EE10FA2A
:1044580048BFF1EE677AF4EEC87AF1EE10FAE9DCBB
:10446800FEF72CFC00EE100AB5EEC00AF1EE10FAC9
:1044780048BFB1EE400AB4EEC80AF1EE10FAD9DC32
:1044880064214448FDF7C6FD11E7204688470AEE37
:10449800100A58E7204690470AEE900A20684BE732
:1044A80020469847054620683FE701252CB1236838
:1044B8003A4A1969914240F093800AA8FFF71CFE16
:1044C80006A8FFF719FE19A8FFF796FD0EA8FFF733
:1044D80093FD284625B0BDEC088BBDE8F08F85F02C
:1044E800010717F0FF0FE1D0059E002EDED0204E09
:1044F80000211F48FEF7DCFB002130469FED26BA5D
:10450800FEF7D8FB234F03E00A213846FDF782FD6A
:104518003046FEF7D1FB07EE900A3046F5EEC07A3A
:10452800F1EE10FA48BFF1EE677AF4EECB7AF1EECD
:1045380010FAE9DCFEF7C2FB00EE100AB5EEC00A7D
:10454800F1EE10FA48BFB1EE400AB4EECB0AF1EE34
:1045580010FAD9DC64210F48FDF75CFDA6E700BF1F
:10456800F80100200AD7A33C17B7D1380AD7233C53
:1045780068030020CDCC4C3D0AD7A33B1D42000860
:10458800000000000000A0402D420008254200085D
:1045980029420008740400200AD7A33C21420008DD
:1045A800FEF78CFB02EE109A01EE900A0F4A1049B2
:1045B8000AA861EE822A12EE903AFFF7B1FD9FE653
:1045C800FEF77AFB07EE108A00EE900A074A0849C0
:1045D80006A820EE871A11EE103AFFF7A1FD7BE638
:1045E8002046884769E72046B84790E66F12833B24
:1045F8000AD7A33B10B584B00024FFF701FE124888
:10460800FFF7CAFA1148FEF7E5FE11491148FEF70F
:10461800A7F903A8FFF712FE01233C226FF03B0124
:1046280003A80094FFF710FE962201230094114678
:1046380003A8FFF709FE009403A801236FF03B02CB
:104648003C21FFF701FEFEE7F00100207802002080
:10465800684B000870040020000000000000000003
:10466800010203040607080953544D3332463778CC
:10467800785F5374645065726970685F44726976D4
:1046880065722F2F7372632F73746D3332663778A8
:10469800785F74696D2E630053544D333246377812
:1046A800785F5374645065726970685F44726976A4
:1046B80065722F2F7372632F73746D333266377878
:1046C800785F7379736366672E630053544D333292
:1046D800463778785F5374645065726970685F44D0
:1046E80072697665722F2F7372632F73746D33320C
:1046F800663778785F666C6173682E630053544D33
:104708003332463778785F537464506572697068DD
:104718005F4472697665722F2F7372632F73746D9D
:104728003332663778785F6770696F2E63000000F0
:104738000000010203040102030406070809535498
:104748004D3332463778785F5374645065726970B8
:10475800685F4472697665722F2F7372632F737462
:104768006D3332663778785F7263632E6300535413
:104778004D3332463778785F537464506572697088
:10478800685F4472697665722F2F7372632F737432
:104798006D3332663778785F657874692E630053B5
:1047A800544D3332463778785F5374645065726974
:1047B80070685F4472697665722F2F7372632F7306
:1047C800746D3332663778785F7077722E63005372
:1047D800544D3332463778785F5374645065726944
:1047E80070685F4472697665722F2F7372632F73D6
:1047F800746D3332663778785F75736172742E63BF
:104808000053544D3332463778785F53746450659B
:10481800726970685F4472697665722F2F7372636C
:104828002F73746D3332663778785F6164632E63F3
:104838000053544D3332463778785F53746450656B
:10484800726970685F4472697665722F2F7372633C
:104858002F6D6973632E63000000000000000000E4
:10486800E9150008ED150008000000000000000030
:10487800E5150008FD1500083D1A000800000000B5
:10488800000000009D1A0008A11A0008000000009E
:1048980000000000111C0008151C000800000000A2
:1048A80000000000752200087922000800000000BE
:1048B80000000000452500084925000835270008A4
:1048C8000000000000000000252900083929000820
:1048D8000000000000000000C92C0008012D00089D
:1048E800E12900080000000000000000192D000860
:1048F8001D2D00080000000000000000B52F000872
:10490800B92F0008C92F00080000000000000000AF
:10491800FD320008253300080133000800000000BC
:10492800000000004D340008513400083525000807
:1049380039250008453400083D25000841250008B0
:104948000000000000000000453600085936000845
:104958009537000875360008C13500089D380008ED
:10496800113A00080A0A0A23232323230A0A0A0001
:104978007465726D696E616C20696E6974205B4440
:104988004F4E455D0A000000696E697469616C6983
:104998007A696E67206D656D6F727920000000007E
:1049A8005B444F4E455D2C206865617020737461CF
:1049B8007274206174200000696E697469616C69A1
:1049C8007A696E672074696D657220005B444F4E8A
:1049D800455D0A00696E697469616C697A696E6718
:1049E8002069326320000000696E697469616C692E
:1049F8007A696E6720494D5520000000205B444FBE
:104A08004E455D207769746820726573756C7420F3
:104A180000000000747275650000000066616C7328
:104A280065000000696E697469616C697A696E670E
:104A38002061646320000000696E697469616C69B3
:104A48007A696E67206C696E655F73656E736F72E5
:104A580020000000696E697469616C697A696E6723
:104A68002064697374616E63655F73656E736F72DA
:104A780020000000696E697469616C697A696E6703
:104A880020656E636F6465725F73656E736F722005
:104A980000000000696E697469616C697A696E6703
:104AA800206D6F746F725F636F6E74726F6C6C20C1
:104AB80000000000696E697469616C697A696E67E3
:104AC800206B657920000000637075207370656540
:104AD800642073657420746F20000000204D487AAC
:104AE8000A0000000A0A0000696E697469616C694D
:104AF8007A696E672073657175656E636520646F8A
:104B08006E650A0A000000006D6F746F6B6F207588
:104B180070726973696E672072656164790A0A0048
:104B28000000000000000000BD3500083536000810
:104B380000000000000000000140000805400008D7
:104B480000000000000000000141000805410008C5
:104B58000000000000000000314200083542000853
:084B680072756E0A00000000E6
:044B7000793E000882
:044B74000024F40025
:04000005080002A548
:00000001FF
